{"abi":[{"type":"function","name":"targetContracts","inputs":[],"outputs":[{"name":"","type":"address[]","internalType":"address[]"}],"stateMutability":"view"}],"bytecode":{"object":"0x6080604052348015600e575f5ffd5b506102f68061001c5f395ff3fe608060405234801561000f575f5ffd5b5060043610610029575f3560e01c80633f7286f41461002d575b5f5ffd5b61003561004b565b6040516100429190610202565b60405180910390f35b60605f5f8054905011610093576040517f08c379a000000000000000000000000000000000000000000000000000000000815260040161008a9061027c565b60405180910390fd5b5f80548060200260200160405190810160405280929190818152602001828054801561011157602002820191905f5260205f20905b815f9054906101000a900473ffffffffffffffffffffffffffffffffffffffff1673ffffffffffffffffffffffffffffffffffffffff16815260200190600101908083116100c8575b5050505050905090565b5f81519050919050565b5f82825260208201905092915050565b5f819050602082019050919050565b5f73ffffffffffffffffffffffffffffffffffffffff82169050919050565b5f61016d82610144565b9050919050565b61017d81610163565b82525050565b5f61018e8383610174565b60208301905092915050565b5f602082019050919050565b5f6101b08261011b565b6101ba8185610125565b93506101c583610135565b805f5b838110156101f55781516101dc8882610183565b97506101e78361019a565b9250506001810190506101c8565b5085935050505092915050565b5f6020820190508181035f83015261021a81846101a6565b905092915050565b5f82825260208201905092915050565b7f4e4f5f5441524745545f434f4e545241435453000000000000000000000000005f82015250565b5f610266601383610222565b915061027182610232565b602082019050919050565b5f6020820190508181035f8301526102938161025a565b905091905056fea2646970667358221220cbd020c002259b213eea6e4edd51c229711bc38f281cde7dae2be2119f671c5d64736f6c637828302e382e33312d646576656c6f702e323032352e392e33302b636f6d6d69742e35393965653831360059","linkReferences":{}},"methodIdentifiers":{"targetContracts()":"3f7286f4"},"id":8}