{
  "abi": [
    {
      "type": "function",
      "name": "AES_DEC_PRECOMPILE",
      "inputs": [],
      "outputs": [
        {
          "name": "",
          "type": "address",
          "internalType": "address"
        }
      ],
      "stateMutability": "view"
    },
    {
      "type": "function",
      "name": "AES_ENC_PRECOMPILE",
      "inputs": [],
      "outputs": [
        {
          "name": "",
          "type": "address",
          "internalType": "address"
        }
      ],
      "stateMutability": "view"
    },
    {
      "type": "function",
      "name": "HKDF_PRECOMPILE",
      "inputs": [],
      "outputs": [
        {
          "name": "",
          "type": "address",
          "internalType": "address"
        }
      ],
      "stateMutability": "view"
    },
    {
      "type": "error",
      "name": "AESPrecompileCallFailed",
      "inputs": []
    },
    {
      "type": "error",
      "name": "HKDFPrecompileCallFailed",
      "inputs": []
    },
    {
      "type": "error",
      "name": "InvalidHKDFOutputLength",
      "inputs": [
        {
          "name": "returnedLength",
          "type": "uint256",
          "internalType": "uint256"
        }
      ]
    }
  ],
  "bytecode": {
    "object": "0x61015661004d600b8282823980515f1a6073146041577f4e487b71000000000000000000000000000000000000000000000000000000005f525f60045260245ffd5b305f52607381538281f3fe73000000000000000000000000000000000000000030146080604052600436106046575f3560e01c8063727c346d14604a578063ad28a816146064578063baefa30714607e575b5f5ffd5b60506098565b604051605b919060e2565b60405180910390f35b606a609d565b6040516075919060e2565b60405180910390f35b608460a2565b604051608f919060e2565b60405180910390f35b606881565b606781565b606681565b5f73ffffffffffffffffffffffffffffffffffffffff82169050919050565b5f60ce8260a7565b9050919050565b60dc8160c6565b82525050565b5f60208201905060f35f83018460d5565b9291505056fea26469706673582212209e8b0d15149854bace7084c07add985d32525fb4f41de7fcab6f23f0ed97b01a64736f6c637829302e382e33312d646576656c6f702e323032352e31312e31322b636f6d6d69742e3637366264656363005a",
    "linkReferences": {}
  },
  "methodIdentifiers": {
    "AES_DEC_PRECOMPILE()": "ad28a816",
    "AES_ENC_PRECOMPILE()": "baefa307",
    "HKDF_PRECOMPILE()": "727c346d"
  },
  "id": 0
}