{"abi":[{"type":"function","name":"AES_DEC_PRECOMPILE","inputs":[],"outputs":[{"name":"","type":"address","internalType":"address"}],"stateMutability":"view"},{"type":"function","name":"AES_ENC_PRECOMPILE","inputs":[],"outputs":[{"name":"","type":"address","internalType":"address"}],"stateMutability":"view"},{"type":"function","name":"HKDF_PRECOMPILE","inputs":[],"outputs":[{"name":"","type":"address","internalType":"address"}],"stateMutability":"view"},{"type":"function","name":"packEncryptedData","inputs":[{"name":"_ciphertext","type":"bytes","internalType":"bytes"},{"name":"_nonce","type":"uint96","internalType":"uint96"}],"outputs":[{"name":"","type":"bytes","internalType":"bytes"}],"stateMutability":"pure"},{"type":"function","name":"parseEncryptedData","inputs":[{"name":"_encryptedData","type":"bytes","internalType":"bytes"}],"outputs":[{"name":"ciphertext","type":"bytes","internalType":"bytes"},{"name":"nonce","type":"uint96","internalType":"uint96"}],"stateMutability":"pure"},{"type":"error","name":"AESPrecompileCallFailed","inputs":[]},{"type":"error","name":"HKDFPrecompileCallFailed","inputs":[]},{"type":"error","name":"InvalidHKDFOutputLength","inputs":[{"name":"returnedLength","type":"uint256","internalType":"uint256"}]}],"bytecode":{"object":"0x6108e261004d600b8282823980515f1a6073146041577f4e487b71000000000000000000000000000000000000000000000000000000005f525f60045260245ffd5b305f52607381538281f3fe7300000000000000000000000000000000000000003014608060405260043610610060575f3560e01c8063415028a914610064578063727c346d14610094578063ad28a816146100b2578063baefa307146100d0578063e8d6c79a146100ee575b5f5ffd5b61007e600480360381019061007991906104b2565b61011f565b60405161008b919061056c565b60405180910390f35b61009c61014b565b6040516100a991906105cb565b60405180910390f35b6100ba610150565b6040516100c791906105cb565b60405180910390f35b6100d8610155565b6040516100e591906105cb565b60405180910390f35b610108600480360381019061010391906105e4565b61015a565b60405161011692919061063a565b60405180910390f35b606082826040516020016101349291906106d6565b604051602081830303815290604052905092915050565b606881565b606781565b606681565b60605f5f600c845161016c9190610733565b90508067ffffffffffffffff8111156101885761018761034d565b5b6040519080825280601f01601f1916602001820160405280156101ba5781602001600182028036833780820191505090505b5092505f5f90505b81811015610236578481815181106101dd576101dc610766565b5b602001015160f81c60f81b8482815181106101fb576101fa610766565b5b60200101907effffffffffffffffffffffffffffffffffffffffffffffffffffffffffffff191690815f1a90535080806001019150506101c2565b505f600c67ffffffffffffffff8111156102535761025261034d565b5b6040519080825280601f01601f1916602001820160405280156102855781602001600182028036833780820191505090505b5090505f5f90505b600c81101561030d578581846102a39190610793565b815181106102b4576102b3610766565b5b602001015160f81c60f81b8282815181106102d2576102d1610766565b5b60200101907effffffffffffffffffffffffffffffffffffffffffffffffffffffffffffff191690815f1a905350808060010191505061028d565b508061031890610820565b60a01c92505050915091565b5f604051905090565b5f5ffd5b5f5ffd5b5f5ffd5b5f5ffd5b5f601f19601f8301169050919050565b7f4e487b71000000000000000000000000000000000000000000000000000000005f52604160045260245ffd5b6103838261033d565b810181811067ffffffffffffffff821117156103a2576103a161034d565b5b80604052505050565b5f6103b4610324565b90506103c0828261037a565b919050565b5f67ffffffffffffffff8211156103df576103de61034d565b5b6103e88261033d565b9050602081019050919050565b828183375f83830152505050565b5f610415610410846103c5565b6103ab565b90508281526020810184848401111561043157610430610339565b5b61043c8482856103f5565b509392505050565b5f82601f83011261045857610457610335565b5b8135610468848260208601610403565b91505092915050565b5f6bffffffffffffffffffffffff82169050919050565b61049181610471565b811461049b575f5ffd5b50565b5f813590506104ac81610488565b92915050565b5f5f604083850312156104c8576104c761032d565b5b5f83013567ffffffffffffffff8111156104e5576104e4610331565b5b6104f185828601610444565b92505060206105028582860161049e565b9150509250929050565b5f81519050919050565b5f82825260208201905092915050565b8281835e5f83830152505050565b5f61053e8261050c565b6105488185610516565b9350610558818560208601610526565b6105618161033d565b840191505092915050565b5f6020820190508181035f8301526105848184610534565b905092915050565b5f73ffffffffffffffffffffffffffffffffffffffff82169050919050565b5f6105b58261058c565b9050919050565b6105c5816105ab565b82525050565b5f6020820190506105de5f8301846105bc565b92915050565b5f602082840312156105f9576105f861032d565b5b5f82013567ffffffffffffffff81111561061657610615610331565b5b61062284828501610444565b91505092915050565b61063481610471565b82525050565b5f6040820190508181035f8301526106528185610534565b9050610661602083018461062b565b9392505050565b5f81905092915050565b5f61067c8261050c565b6106868185610668565b9350610696818560208601610526565b80840191505092915050565b5f8160a01b9050919050565b5f6106b8826106a2565b9050919050565b6106d06106cb82610471565b6106ae565b82525050565b5f6106e18285610672565b91506106ed82846106bf565b600c820191508190509392505050565b5f819050919050565b7f4e487b71000000000000000000000000000000000000000000000000000000005f52601160045260245ffd5b5f61073d826106fd565b9150610748836106fd565b92508282039050818111156107605761075f610706565b5b92915050565b7f4e487b71000000000000000000000000000000000000000000000000000000005f52603260045260245ffd5b5f61079d826106fd565b91506107a8836106fd565b92508282019050808211156107c0576107bf610706565b5b92915050565b5f819050602082019050919050565b5f7fffffffffffffffffffffffff000000000000000000000000000000000000000082169050919050565b5f61080b82516107d5565b80915050919050565b5f82821b905092915050565b5f61082a8261050c565b82610834846107c6565b905061083f81610800565b9250600c82101561087f5761087a7fffffffffffffffffffffffff000000000000000000000000000000000000000083600c03600802610814565b831692505b505091905056fea26469706673582212209166ef17797dbae173471e51befa52859de04ec3f5fd05a8f08f015d15fcf53b64736f6c637828302e382e33312d646576656c6f702e323032352e392e33302b636f6d6d69742e35393965653831360059","linkReferences":{}},"methodIdentifiers":{"AES_DEC_PRECOMPILE()":"ad28a816","AES_ENC_PRECOMPILE()":"baefa307","HKDF_PRECOMPILE()":"727c346d","packEncryptedData(bytes,uint96)":"415028a9","parseEncryptedData(bytes)":"e8d6c79a"},"id":1}