{"abi":[{"type":"function","name":"AES_DEC_PRECOMPILE","inputs":[],"outputs":[{"name":"","type":"address","internalType":"address"}],"stateMutability":"view"},{"type":"function","name":"AES_ENC_PRECOMPILE","inputs":[],"outputs":[{"name":"","type":"address","internalType":"address"}],"stateMutability":"view"},{"type":"function","name":"HKDF_PRECOMPILE","inputs":[],"outputs":[{"name":"","type":"address","internalType":"address"}],"stateMutability":"view"},{"type":"function","name":"packEncryptedData","inputs":[{"name":"_ciphertext","type":"bytes","internalType":"bytes"},{"name":"_nonce","type":"uint96","internalType":"uint96"},{"name":"keyHash","type":"bytes32","internalType":"bytes32"}],"outputs":[{"name":"","type":"bytes","internalType":"bytes"}],"stateMutability":"pure"},{"type":"function","name":"parseEncryptedData","inputs":[{"name":"_encryptedData","type":"bytes","internalType":"bytes"}],"outputs":[{"name":"ciphertext","type":"bytes","internalType":"bytes"},{"name":"nonce","type":"uint96","internalType":"uint96"},{"name":"keyHash","type":"bytes32","internalType":"bytes32"}],"stateMutability":"pure"},{"type":"error","name":"AESPrecompileCallFailed","inputs":[]},{"type":"error","name":"HKDFPrecompileCallFailed","inputs":[]},{"type":"error","name":"InvalidHKDFOutputLength","inputs":[{"name":"returnedLength","type":"uint256","internalType":"uint256"}]}],"bytecode":{"object":"0x610aeb61004d600b8282823980515f1a6073146041577f4e487b71000000000000000000000000000000000000000000000000000000005f525f60045260245ffd5b305f52607381538281f3fe7300000000000000000000000000000000000000003014608060405260043610610060575f3560e01c8063309245e014610064578063727c346d14610094578063ad28a816146100b2578063baefa307146100d0578063e8d6c79a146100ee575b5f5ffd5b61007e600480360381019061007991906105e1565b610120565b60405161008b91906106ad565b60405180910390f35b61009c61014f565b6040516100a9919061070c565b60405180910390f35b6100ba610154565b6040516100c7919061070c565b60405180910390f35b6100d8610159565b6040516100e5919061070c565b60405180910390f35b61010860048036038101906101039190610725565b61015e565b6040516101179392919061078a565b60405180910390f35b606083838360405160200161013793929190610854565b60405160208183030381529060405290509392505050565b606881565b606781565b606681565b60605f5f5f6020855161017191906108c2565b90505f600c8261018191906108c2565b90508067ffffffffffffffff81111561019d5761019c610449565b5b6040519080825280601f01601f1916602001820160405280156101cf5781602001600182028036833780820191505090505b5094505f5f90505b8181101561024b578681815181106101f2576101f16108f5565b5b602001015160f81c60f81b8682815181106102105761020f6108f5565b5b60200101907effffffffffffffffffffffffffffffffffffffffffffffffffffffffffffff191690815f1a90535080806001019150506101d7565b505f600c67ffffffffffffffff81111561026857610267610449565b5b6040519080825280601f01601f19166020018201604052801561029a5781602001600182028036833780820191505090505b5090505f5f90505b600c811015610322578781846102b89190610922565b815181106102c9576102c86108f5565b5b602001015160f81c60f81b8282815181106102e7576102e66108f5565b5b60200101907effffffffffffffffffffffffffffffffffffffffffffffffffffffffffffff191690815f1a90535080806001019150506102a2565b508061032d906109af565b60a01c94505f602067ffffffffffffffff81111561034e5761034d610449565b5b6040519080825280601f01601f1916602001820160405280156103805781602001600182028036833780820191505090505b5090505f5f90505b60208110156104085788818661039e9190610922565b815181106103af576103ae6108f5565b5b602001015160f81c60f81b8282815181106103cd576103cc6108f5565b5b60200101907effffffffffffffffffffffffffffffffffffffffffffffffffffffffffffff191690815f1a9053508080600101915050610388565b508061041390610a29565b9450505050509193909250565b5f604051905090565b5f5ffd5b5f5ffd5b5f5ffd5b5f5ffd5b5f601f19601f8301169050919050565b7f4e487b71000000000000000000000000000000000000000000000000000000005f52604160045260245ffd5b61047f82610439565b810181811067ffffffffffffffff8211171561049e5761049d610449565b5b80604052505050565b5f6104b0610420565b90506104bc8282610476565b919050565b5f67ffffffffffffffff8211156104db576104da610449565b5b6104e482610439565b9050602081019050919050565b828183375f83830152505050565b5f61051161050c846104c1565b6104a7565b90508281526020810184848401111561052d5761052c610435565b5b6105388482856104f1565b509392505050565b5f82601f83011261055457610553610431565b5b81356105648482602086016104ff565b91505092915050565b5f6bffffffffffffffffffffffff82169050919050565b61058d8161056d565b8114610597575f5ffd5b50565b5f813590506105a881610584565b92915050565b5f819050919050565b6105c0816105ae565b81146105ca575f5ffd5b50565b5f813590506105db816105b7565b92915050565b5f5f5f606084860312156105f8576105f7610429565b5b5f84013567ffffffffffffffff8111156106155761061461042d565b5b61062186828701610540565b93505060206106328682870161059a565b9250506040610643868287016105cd565b9150509250925092565b5f81519050919050565b5f82825260208201905092915050565b8281835e5f83830152505050565b5f61067f8261064d565b6106898185610657565b9350610699818560208601610667565b6106a281610439565b840191505092915050565b5f6020820190508181035f8301526106c58184610675565b905092915050565b5f73ffffffffffffffffffffffffffffffffffffffff82169050919050565b5f6106f6826106cd565b9050919050565b610706816106ec565b82525050565b5f60208201905061071f5f8301846106fd565b92915050565b5f6020828403121561073a57610739610429565b5b5f82013567ffffffffffffffff8111156107575761075661042d565b5b61076384828501610540565b91505092915050565b6107758161056d565b82525050565b610784816105ae565b82525050565b5f6060820190508181035f8301526107a28186610675565b90506107b1602083018561076c565b6107be604083018461077b565b949350505050565b5f81905092915050565b5f6107da8261064d565b6107e481856107c6565b93506107f4818560208601610667565b80840191505092915050565b5f8160a01b9050919050565b5f61081682610800565b9050919050565b61082e6108298261056d565b61080c565b82525050565b5f819050919050565b61084e610849826105ae565b610834565b82525050565b5f61085f82866107d0565b915061086b828561081d565b600c8201915061087b828461083d565b602082019150819050949350505050565b5f819050919050565b7f4e487b71000000000000000000000000000000000000000000000000000000005f52601160045260245ffd5b5f6108cc8261088c565b91506108d78361088c565b92508282039050818111156108ef576108ee610895565b5b92915050565b7f4e487b71000000000000000000000000000000000000000000000000000000005f52603260045260245ffd5b5f61092c8261088c565b91506109378361088c565b925082820190508082111561094f5761094e610895565b5b92915050565b5f819050602082019050919050565b5f7fffffffffffffffffffffffff000000000000000000000000000000000000000082169050919050565b5f61099a8251610964565b80915050919050565b5f82821b905092915050565b5f6109b98261064d565b826109c384610955565b90506109ce8161098f565b9250600c821015610a0e57610a097fffffffffffffffffffffffff000000000000000000000000000000000000000083600c036008026109a3565b831692505b5050919050565b5f610a2082516105ae565b80915050919050565b5f610a338261064d565b82610a3d84610955565b9050610a4881610a15565b92506020821015610a8857610a837fffffffffffffffffffffffffffffffffffffffffffffffffffffffffffffffff836020036008026109a3565b831692505b505091905056fea264697066735822122025d9512f651a1e836e3235cf9a769ceaa77ea9d51062eb3c4220068ab1267c0a64736f6c637828302e382e32392d646576656c6f702e323032352e372e32332b636f6d6d69742e36393665623163640059","linkReferences":{}},"methodIdentifiers":{"AES_DEC_PRECOMPILE()":"ad28a816","AES_ENC_PRECOMPILE()":"baefa307","HKDF_PRECOMPILE()":"727c346d","packEncryptedData(bytes,uint96,bytes32)":"309245e0","parseEncryptedData(bytes)":"e8d6c79a"},"id":20}