{"abi":[{"type":"constructor","inputs":[{"name":"_name","type":"string","internalType":"string"},{"name":"_symbol","type":"string","internalType":"string"},{"name":"_decimals","type":"uint8","internalType":"uint8"}],"stateMutability":"nonpayable"},{"type":"function","name":"DIRECTORY_ADDRESS","inputs":[],"outputs":[{"name":"","type":"address","internalType":"address"}],"stateMutability":"view"},{"type":"function","name":"DOMAIN_SEPARATOR","inputs":[],"outputs":[{"name":"","type":"bytes32","internalType":"bytes32"}],"stateMutability":"view"},{"type":"function","name":"INTELLIGENCE_ADDRESS","inputs":[],"outputs":[{"name":"","type":"address","internalType":"address"}],"stateMutability":"view"},{"type":"function","name":"allowance","inputs":[{"name":"spender","type":"address","internalType":"address"}],"outputs":[{"name":"","type":"uint256","internalType":"uint256"}],"stateMutability":"view"},{"type":"function","name":"approve","inputs":[{"name":"spender","type":"address","internalType":"address"},{"name":"amount","type":"suint256","internalType":"suint256"}],"outputs":[{"name":"","type":"bool","internalType":"bool"}],"stateMutability":"nonpayable"},{"type":"function","name":"balance","inputs":[],"outputs":[{"name":"","type":"uint256","internalType":"uint256"}],"stateMutability":"view"},{"type":"function","name":"balanceOfSigned","inputs":[{"name":"owner","type":"address","internalType":"address"},{"name":"expiry","type":"uint256","internalType":"uint256"},{"name":"signature","type":"bytes","internalType":"bytes"}],"outputs":[{"name":"","type":"uint256","internalType":"uint256"}],"stateMutability":"view"},{"type":"function","name":"burn","inputs":[{"name":"from","type":"address","internalType":"address"},{"name":"value","type":"suint256","internalType":"suint256"}],"outputs":[],"stateMutability":"nonpayable"},{"type":"function","name":"decimals","inputs":[],"outputs":[{"name":"","type":"uint8","internalType":"uint8"}],"stateMutability":"view"},{"type":"function","name":"directory","inputs":[],"outputs":[{"name":"","type":"address","internalType":"contract IDirectory"}],"stateMutability":"view"},{"type":"function","name":"intelligence","inputs":[],"outputs":[{"name":"","type":"address","internalType":"contract IIntelligence"}],"stateMutability":"view"},{"type":"function","name":"mint","inputs":[{"name":"to","type":"address","internalType":"address"},{"name":"value","type":"suint256","internalType":"suint256"}],"outputs":[],"stateMutability":"nonpayable"},{"type":"function","name":"name","inputs":[],"outputs":[{"name":"","type":"string","internalType":"string"}],"stateMutability":"view"},{"type":"function","name":"nonces","inputs":[{"name":"","type":"address","internalType":"address"}],"outputs":[{"name":"","type":"uint256","internalType":"uint256"}],"stateMutability":"view"},{"type":"function","name":"permit","inputs":[{"name":"owner","type":"address","internalType":"address"},{"name":"spender","type":"address","internalType":"address"},{"name":"value","type":"suint256","internalType":"suint256"},{"name":"deadline","type":"uint256","internalType":"uint256"},{"name":"v","type":"uint8","internalType":"uint8"},{"name":"r","type":"bytes32","internalType":"bytes32"},{"name":"s","type":"bytes32","internalType":"bytes32"}],"outputs":[],"stateMutability":"nonpayable"},{"type":"function","name":"symbol","inputs":[],"outputs":[{"name":"","type":"string","internalType":"string"}],"stateMutability":"view"},{"type":"function","name":"totalSupply","inputs":[],"outputs":[{"name":"","type":"uint256","internalType":"uint256"}],"stateMutability":"view"},{"type":"function","name":"transfer","inputs":[{"name":"to","type":"address","internalType":"address"},{"name":"amount","type":"suint256","internalType":"suint256"}],"outputs":[{"name":"","type":"bool","internalType":"bool"}],"stateMutability":"nonpayable"},{"type":"function","name":"transferFrom","inputs":[{"name":"from","type":"address","internalType":"address"},{"name":"to","type":"address","internalType":"address"},{"name":"amount","type":"suint256","internalType":"suint256"}],"outputs":[{"name":"","type":"bool","internalType":"bool"}],"stateMutability":"nonpayable"},{"type":"event","name":"Approval","inputs":[{"name":"owner","type":"address","indexed":true,"internalType":"address"},{"name":"spender","type":"address","indexed":true,"internalType":"address"},{"name":"encryptKeyHash","type":"bytes32","indexed":true,"internalType":"bytes32"},{"name":"encryptedAmount","type":"bytes","indexed":false,"internalType":"bytes"}],"anonymous":false},{"type":"event","name":"Transfer","inputs":[{"name":"from","type":"address","indexed":true,"internalType":"address"},{"name":"to","type":"address","indexed":true,"internalType":"address"},{"name":"encryptKeyHash","type":"bytes32","indexed":true,"internalType":"bytes32"},{"name":"encryptedAmount","type":"bytes","indexed":false,"internalType":"bytes"}],"anonymous":false}],"bytecode":{"object":"0x60e060405234801561000f575f5ffd5b506040516136d43803806136d483398181016040528101906100319190610296565b828282825f9081610042919061052e565b508160019081610052919061052e565b508060ff1660808160ff16815250504660a0818152505061007761008960201b60201c565b60c08181525050505050505050610766565b5f7f8b73c3c69bb8fe3d512ecc4cf759cc79239f7b179b0ffacaa9a75d522b39400f5f6040516100b99190610699565b60405180910390207fc89efdaa54c0f20c7adf612882df0950f5a951637e0307cdcb4c672f298b8bc646306040516020016100f8959493929190610715565b60405160208183030381529060405280519060200120905090565b5f604051905090565b5f5ffd5b5f5ffd5b5f5ffd5b5f5ffd5b5f601f19601f8301169050919050565b7f4e487b71000000000000000000000000000000000000000000000000000000005f52604160045260245ffd5b6101728261012c565b810181811067ffffffffffffffff821117156101915761019061013c565b5b80604052505050565b5f6101a3610113565b90506101af8282610169565b919050565b5f67ffffffffffffffff8211156101ce576101cd61013c565b5b6101d78261012c565b9050602081019050919050565b8281835e5f83830152505050565b5f6102046101ff846101b4565b61019a565b9050828152602081018484840111156102205761021f610128565b5b61022b8482856101e4565b509392505050565b5f82601f83011261024757610246610124565b5b81516102578482602086016101f2565b91505092915050565b5f60ff82169050919050565b61027581610260565b811461027f575f5ffd5b50565b5f815190506102908161026c565b92915050565b5f5f5f606084860312156102ad576102ac61011c565b5b5f84015167ffffffffffffffff8111156102ca576102c9610120565b5b6102d686828701610233565b935050602084015167ffffffffffffffff8111156102f7576102f6610120565b5b61030386828701610233565b925050604061031486828701610282565b9150509250925092565b5f81519050919050565b7f4e487b71000000000000000000000000000000000000000000000000000000005f52602260045260245ffd5b5f600282049050600182168061036c57607f821691505b60208210810361037f5761037e610328565b5b50919050565b5f819050815f5260205f209050919050565b5f6020601f8301049050919050565b5f82821b905092915050565b5f600883026103e17fffffffffffffffffffffffffffffffffffffffffffffffffffffffffffffffff826103a6565b6103eb86836103a6565b95508019841693508086168417925050509392505050565b5f819050919050565b5f819050919050565b5f61042f61042a61042584610403565b61040c565b610403565b9050919050565b5f819050919050565b61044883610415565b61045c61045482610436565b8484546103b2565b825550505050565b5f5f905090565b610473610464565b61047e81848461043f565b505050565b5b818110156104a1576104965f8261046b565b600181019050610484565b5050565b601f8211156104e6576104b781610385565b6104c084610397565b810160208510156104cf578190505b6104e36104db85610397565b830182610483565b50505b505050565b5f82821c905092915050565b5f6105065f19846008026104eb565b1980831691505092915050565b5f61051e83836104f7565b9150826002028217905092915050565b6105378261031e565b67ffffffffffffffff8111156105505761054f61013c565b5b61055a8254610355565b6105658282856104a5565b5f60209050601f831160018114610596575f8415610584578287015190505b61058e8582610513565b8655506105f5565b601f1984166105a486610385565b5f5b828110156105cb578489015182556001820191506020850194506020810190506105a6565b868310156105e857848901516105e4601f8916826104f7565b8355505b6001600288020188555050505b505050505050565b5f81905092915050565b5f819050815f5260205f209050919050565b5f815461062581610355565b61062f81866105fd565b9450600182165f8114610649576001811461065e57610690565b60ff1983168652811515820286019350610690565b61066785610607565b5f5b8381101561068857815481890152600182019150602081019050610669565b838801955050505b50505092915050565b5f6106a48284610619565b915081905092915050565b5f819050919050565b6106c1816106af565b82525050565b6106d081610403565b82525050565b5f73ffffffffffffffffffffffffffffffffffffffff82169050919050565b5f6106ff826106d6565b9050919050565b61070f816106f5565b82525050565b5f60a0820190506107285f8301886106b8565b61073560208301876106b8565b61074260408301866106b8565b61074f60608301856106c7565b61075c6080830184610706565b9695505050505050565b60805160a05160c051612f446107905f395f61054a01525f61051601525f6104f10152612f445ff3fe608060405234801561000f575f5ffd5b506004361061011f575f3560e01c80637ecebe00116100ab578063b9b8dea01161006f578063b9b8dea014610331578063ba1ab2911461034f578063bdda94131461036d578063c41c2f2414610389578063d590f35f146103a75761011f565b80637ecebe00146102655780639552331e1461029557806395d89b41146102c5578063b10c99b5146102e3578063b69ef8a8146103135761011f565b80633644e515116100f25780633644e515146101ad5780633d27862e146101cb5780633e5beab9146101e95780635253f9191461021957806368787310146102495761011f565b806306fdde031461012357806318160ddd146101415780632e62b8c81461015f578063313ce5671461018f575b5f5ffd5b61012b6103c3565b6040516101389190611e5b565b60405180910390f35b61014961044e565b6040516101569190611e93565b60405180910390f35b61017960048036038101906101749190611f4a565b61045c565b6040516101869190611fa2565b60405180910390f35b6101976104ef565b6040516101a49190611fd6565b60405180910390f35b6101b5610513565b6040516101c29190612007565b60405180910390f35b6101d361056f565b6040516101e0919061207b565b60405180910390f35b61020360048036038101906101fe9190612094565b610587565b6040516102109190611e93565b60405180910390f35b610233600480360381019061022e919061214a565b610608565b6040516102409190611e93565b60405180910390f35b610263600480360381019061025e9190611f4a565b610842565b005b61027f600480360381019061027a9190612094565b610850565b60405161028c9190611e93565b60405180910390f35b6102af60048036038101906102aa91906121bb565b610865565b6040516102bc9190611fa2565b60405180910390f35b6102cd610a46565b6040516102da9190611e5b565b60405180910390f35b6102fd60048036038101906102f89190611f4a565b610ad2565b60405161030a9190611fa2565b60405180910390f35b61031b610b85565b6040516103289190611e93565b60405180910390f35b610339610bc9565b604051610346919061221a565b60405180910390f35b610357610be1565b604051610364919061221a565b60405180910390f35b61038760048036038101906103829190612287565b610bf9565b005b610391610e8c565b60405161039e9190612344565b60405180910390f35b6103c160048036038101906103bc9190611f4a565b610ea4565b005b5f80546103cf9061238a565b80601f01602080910402602001604051908101604052809291908181526020018280546103fb9061238a565b80156104465780601f1061041d57610100808354040283529160200191610446565b820191905f5260205f20905b81548152906001019060200180831161042957829003601f168201915b505050505081565b5f610457610eb2565b905090565b5f8160045f3373ffffffffffffffffffffffffffffffffffffffff1673ffffffffffffffffffffffffffffffffffffffff1681526020019081526020015f205f8573ffffffffffffffffffffffffffffffffffffffff1673ffffffffffffffffffffffffffffffffffffffff1681526020019081526020015f208190b1506104e5338484610ebb565b6001905092915050565b7f000000000000000000000000000000000000000000000000000000000000000081565b5f7f000000000000000000000000000000000000000000000000000000000000000046146105485761054361159d565b61056a565b7f00000000000000000000000000000000000000000000000000000000000000005b905090565b73100000000000000000000000000000000000000581565b5f60045f3373ffffffffffffffffffffffffffffffffffffffff1673ffffffffffffffffffffffffffffffffffffffff1681526020019081526020015f205f8373ffffffffffffffffffffffffffffffffffffffff1673ffffffffffffffffffffffffffffffffffffffff1681526020019081526020015f20b09050919050565b5f8342111561064c576040517f08c379a000000000000000000000000000000000000000000000000000000000815260040161064390612404565b60405180910390fd5b60418383905014610692576040517f08c379a00000000000000000000000000000000000000000000000000000000081526004016106899061246c565b60405180910390fd5b5f85856040516020016106a6929190612543565b6040516020818303038152906040528051906020012090505f816040516020016106d091906125e3565b6040516020818303038152906040528051906020012090505f5f5f873592506020880135915060408801355f1a90505f6001858386866040515f81526020016040526040516107229493929190612608565b6020604051602081039080840390855afa158015610742573d5f5f3e3d5ffd5b5050506020604051035190505f73ffffffffffffffffffffffffffffffffffffffff168173ffffffffffffffffffffffffffffffffffffffff16141580156107b557508a73ffffffffffffffffffffffffffffffffffffffff168173ffffffffffffffffffffffffffffffffffffffff16145b6107f4576040517f08c379a00000000000000000000000000000000000000000000000000000000081526004016107eb90612695565b60405180910390fd5b60035f8c73ffffffffffffffffffffffffffffffffffffffff1673ffffffffffffffffffffffffffffffffffffffff1681526020019081526020015f20b09650505050505050949350505050565b61084c8282611627565b5050565b6005602052805f5260405f205f915090505481565b5f5f60045f8673ffffffffffffffffffffffffffffffffffffffff1673ffffffffffffffffffffffffffffffffffffffff1681526020019081526020015f205f3373ffffffffffffffffffffffffffffffffffffffff1673ffffffffffffffffffffffffffffffffffffffff1681526020019081526020015f20b090507fffffffffffffffffffffffffffffffffffffffffffffffffffffffffffffffff811461099257828161091591906126e0565b60045f8773ffffffffffffffffffffffffffffffffffffffff1673ffffffffffffffffffffffffffffffffffffffff1681526020019081526020015f205f3373ffffffffffffffffffffffffffffffffffffffff1673ffffffffffffffffffffffffffffffffffffffff1681526020019081526020015f208190b1505b8260035f8773ffffffffffffffffffffffffffffffffffffffff1673ffffffffffffffffffffffffffffffffffffffff1681526020019081526020015f205f8282b06109de91906126e0565b9250508190b1508260035f8673ffffffffffffffffffffffffffffffffffffffff1673ffffffffffffffffffffffffffffffffffffffff1681526020019081526020015f205f8282b0019250508190b150610a3a858585611698565b60019150509392505050565b60018054610a539061238a565b80601f0160208091040260200160405190810160405280929190818152602001828054610a7f9061238a565b8015610aca5780601f10610aa157610100808354040283529160200191610aca565b820191905f5260205f20905b815481529060010190602001808311610aad57829003601f168201915b505050505081565b5f8160035f3373ffffffffffffffffffffffffffffffffffffffff1673ffffffffffffffffffffffffffffffffffffffff1681526020019081526020015f205f8282b0610b1f91906126e0565b9250508190b1508160035f8573ffffffffffffffffffffffffffffffffffffffff1673ffffffffffffffffffffffffffffffffffffffff1681526020019081526020015f205f8282b0019250508190b150610b7b338484611698565b6001905092915050565b5f60035f3373ffffffffffffffffffffffffffffffffffffffff1673ffffffffffffffffffffffffffffffffffffffff1681526020019081526020015f20b0905090565b73100000000000000000000000000000000000000581565b73100000000000000000000000000000000000000481565b42841015610c3c576040517f08c379a0000000000000000000000000000000000000000000000000000000008152600401610c339061275d565b60405180910390fd5b5f6001610c47610513565b7f6e71edae12b1b97f4d1f60370fef10105fa2faae0126114a169c64845d6126c98a8a8a60055f8f73ffffffffffffffffffffffffffffffffffffffff1673ffffffffffffffffffffffffffffffffffffffff1681526020019081526020015f205f815480929190600101919050558b604051602001610ccc9695949392919061277b565b60405160208183030381529060405280519060200120604051602001610cf3929190612824565b604051602081830303815290604052805190602001208585856040515f8152602001604052604051610d289493929190612608565b6020604051602081039080840390855afa158015610d48573d5f5f3e3d5ffd5b5050506020604051035190505f73ffffffffffffffffffffffffffffffffffffffff168173ffffffffffffffffffffffffffffffffffffffff1614158015610dbb57508773ffffffffffffffffffffffffffffffffffffffff168173ffffffffffffffffffffffffffffffffffffffff16145b610dfa576040517f08c379a0000000000000000000000000000000000000000000000000000000008152600401610df1906128a4565b60405180910390fd5b8560045f8373ffffffffffffffffffffffffffffffffffffffff1673ffffffffffffffffffffffffffffffffffffffff1681526020019081526020015f205f8973ffffffffffffffffffffffffffffffffffffffff1673ffffffffffffffffffffffffffffffffffffffff1681526020019081526020015f208190b15050610e83878787610ebb565b50505050505050565b73100000000000000000000000000000000000000481565b610eae8282611d7a565b5050565b5f6002b0905090565b5f5f73100000000000000000000000000000000000000573ffffffffffffffffffffffffffffffffffffffff16634a8fcf9a84604051602001610efe91906128c2565b6040516020818303038152906040526040518263ffffffff1660e01b8152600401610f29919061292e565b5f604051808303815f875af1158015610f44573d5f5f3e3d5ffd5b505050506040513d5f823e3d601f19601f82011682018060405250810190610f6c9190612c1a565b915091505f5f90505b815181101561102557828181518110610f9157610f90612c90565b5b60200260200101518573ffffffffffffffffffffffffffffffffffffffff168773ffffffffffffffffffffffffffffffffffffffff167f8ef65e17890b61a4796f8848475471f8895cd361b1de7e7260a6800ba0623f40858581518110610ffb57610ffa612c90565b5b6020026020010151604051611010919061292e565b60405180910390a48080600101915050610f75565b5073100000000000000000000000000000000000000473ffffffffffffffffffffffffffffffffffffffff16638b2f9fd1866040518263ffffffff1660e01b8152600401611073919061221a565b602060405180830381865afa15801561108e573d5f5f3e3d5ffd5b505050506040513d601f19601f820116820180604052508101906110b29190612ce7565b15611267575f73100000000000000000000000000000000000000473ffffffffffffffffffffffffffffffffffffffff1663eefbaf18876040518263ffffffff1660e01b8152600401611105919061221a565b602060405180830381865afa158015611120573d5f5f3e3d5ffd5b505050506040513d601f19601f820116820180604052508101906111449190612d12565b90505f73100000000000000000000000000000000000000473ffffffffffffffffffffffffffffffffffffffff1663b7f5f9b7888760405160200161118991906128c2565b6040516020818303038152906040526040518363ffffffff1660e01b81526004016111b5929190612d3d565b5f604051808303815f875af11580156111d0573d5f5f3e3d5ffd5b505050506040513d5f823e3d601f19601f820116820180604052508101906111f89190612d6b565b9050818673ffffffffffffffffffffffffffffffffffffffff168873ffffffffffffffffffffffffffffffffffffffff167f8ef65e17890b61a4796f8848475471f8895cd361b1de7e7260a6800ba0623f4084604051611258919061292e565b60405180910390a450506112de565b5f5f1b8473ffffffffffffffffffffffffffffffffffffffff168673ffffffffffffffffffffffffffffffffffffffff167f8ef65e17890b61a4796f8848475471f8895cd361b1de7e7260a6800ba0623f4060405180602001604052805f8152506040516112d5919061292e565b60405180910390a45b73100000000000000000000000000000000000000473ffffffffffffffffffffffffffffffffffffffff16638b2f9fd1856040518263ffffffff1660e01b815260040161132b919061221a565b602060405180830381865afa158015611346573d5f5f3e3d5ffd5b505050506040513d601f19601f8201168201806040525081019061136a9190612ce7565b1561151f575f73100000000000000000000000000000000000000473ffffffffffffffffffffffffffffffffffffffff1663eefbaf18866040518263ffffffff1660e01b81526004016113bd919061221a565b602060405180830381865afa1580156113d8573d5f5f3e3d5ffd5b505050506040513d601f19601f820116820180604052508101906113fc9190612d12565b90505f73100000000000000000000000000000000000000473ffffffffffffffffffffffffffffffffffffffff1663b7f5f9b7878760405160200161144191906128c2565b6040516020818303038152906040526040518363ffffffff1660e01b815260040161146d929190612d3d565b5f604051808303815f875af1158015611488573d5f5f3e3d5ffd5b505050506040513d5f823e3d601f19601f820116820180604052508101906114b09190612d6b565b9050818673ffffffffffffffffffffffffffffffffffffffff168873ffffffffffffffffffffffffffffffffffffffff167f8ef65e17890b61a4796f8848475471f8895cd361b1de7e7260a6800ba0623f4084604051611510919061292e565b60405180910390a45050611596565b5f5f1b8473ffffffffffffffffffffffffffffffffffffffff168673ffffffffffffffffffffffffffffffffffffffff167f8ef65e17890b61a4796f8848475471f8895cd361b1de7e7260a6800ba0623f4060405180602001604052805f81525060405161158d919061292e565b60405180910390a45b5050505050565b5f7f8b73c3c69bb8fe3d512ecc4cf759cc79239f7b179b0ffacaa9a75d522b39400f5f6040516115cd9190612e4e565b60405180910390207fc89efdaa54c0f20c7adf612882df0950f5a951637e0307cdcb4c672f298b8bc6463060405160200161160c959493929190612e64565b60405160208183030381529060405280519060200120905090565b8060035f8473ffffffffffffffffffffffffffffffffffffffff1673ffffffffffffffffffffffffffffffffffffffff1681526020019081526020015f205f8282b061167391906126e0565b9250508190b1508060025f8282b0039250508190b150611694825f83611698565b5050565b5f5f73100000000000000000000000000000000000000573ffffffffffffffffffffffffffffffffffffffff16634a8fcf9a846040516020016116db91906128c2565b6040516020818303038152906040526040518263ffffffff1660e01b8152600401611706919061292e565b5f604051808303815f875af1158015611721573d5f5f3e3d5ffd5b505050506040513d5f823e3d601f19601f820116820180604052508101906117499190612c1a565b915091505f5f90505b81518110156118025782818151811061176e5761176d612c90565b5b60200260200101518573ffffffffffffffffffffffffffffffffffffffff168773ffffffffffffffffffffffffffffffffffffffff167f80ffa007a69623ef13594f5e8178eee6c4ef2d0cba74c08329e879f695b7d3f68585815181106117d8576117d7612c90565b5b60200260200101516040516117ed919061292e565b60405180910390a48080600101915050611752565b5073100000000000000000000000000000000000000473ffffffffffffffffffffffffffffffffffffffff16638b2f9fd1866040518263ffffffff1660e01b8152600401611850919061221a565b602060405180830381865afa15801561186b573d5f5f3e3d5ffd5b505050506040513d601f19601f8201168201806040525081019061188f9190612ce7565b15611a44575f73100000000000000000000000000000000000000473ffffffffffffffffffffffffffffffffffffffff1663eefbaf18876040518263ffffffff1660e01b81526004016118e2919061221a565b602060405180830381865afa1580156118fd573d5f5f3e3d5ffd5b505050506040513d601f19601f820116820180604052508101906119219190612d12565b90505f73100000000000000000000000000000000000000473ffffffffffffffffffffffffffffffffffffffff1663b7f5f9b7888760405160200161196691906128c2565b6040516020818303038152906040526040518363ffffffff1660e01b8152600401611992929190612d3d565b5f604051808303815f875af11580156119ad573d5f5f3e3d5ffd5b505050506040513d5f823e3d601f19601f820116820180604052508101906119d59190612d6b565b9050818673ffffffffffffffffffffffffffffffffffffffff168873ffffffffffffffffffffffffffffffffffffffff167f80ffa007a69623ef13594f5e8178eee6c4ef2d0cba74c08329e879f695b7d3f684604051611a35919061292e565b60405180910390a45050611abb565b5f5f1b8473ffffffffffffffffffffffffffffffffffffffff168673ffffffffffffffffffffffffffffffffffffffff167f80ffa007a69623ef13594f5e8178eee6c4ef2d0cba74c08329e879f695b7d3f660405180602001604052805f815250604051611ab2919061292e565b60405180910390a45b73100000000000000000000000000000000000000473ffffffffffffffffffffffffffffffffffffffff16638b2f9fd1856040518263ffffffff1660e01b8152600401611b08919061221a565b602060405180830381865afa158015611b23573d5f5f3e3d5ffd5b505050506040513d601f19601f82011682018060405250810190611b479190612ce7565b15611cfc575f73100000000000000000000000000000000000000473ffffffffffffffffffffffffffffffffffffffff1663eefbaf18866040518263ffffffff1660e01b8152600401611b9a919061221a565b602060405180830381865afa158015611bb5573d5f5f3e3d5ffd5b505050506040513d601f19601f82011682018060405250810190611bd99190612d12565b90505f73100000000000000000000000000000000000000473ffffffffffffffffffffffffffffffffffffffff1663b7f5f9b78787604051602001611c1e91906128c2565b6040516020818303038152906040526040518363ffffffff1660e01b8152600401611c4a929190612d3d565b5f604051808303815f875af1158015611c65573d5f5f3e3d5ffd5b505050506040513d5f823e3d601f19601f82011682018060405250810190611c8d9190612d6b565b9050818673ffffffffffffffffffffffffffffffffffffffff168873ffffffffffffffffffffffffffffffffffffffff167f80ffa007a69623ef13594f5e8178eee6c4ef2d0cba74c08329e879f695b7d3f684604051611ced919061292e565b60405180910390a45050611d73565b5f5f1b8473ffffffffffffffffffffffffffffffffffffffff168673ffffffffffffffffffffffffffffffffffffffff167f80ffa007a69623ef13594f5e8178eee6c4ef2d0cba74c08329e879f695b7d3f660405180602001604052805f815250604051611d6a919061292e565b60405180910390a45b5050505050565b8060025f8282b0611d8b9190612eb5565b9250508190b1508060035f8473ffffffffffffffffffffffffffffffffffffffff1673ffffffffffffffffffffffffffffffffffffffff1681526020019081526020015f205f8282b0019250508190b150611de75f8383611698565b5050565b5f81519050919050565b5f82825260208201905092915050565b8281835e5f83830152505050565b5f601f19601f8301169050919050565b5f611e2d82611deb565b611e378185611df5565b9350611e47818560208601611e05565b611e5081611e13565b840191505092915050565b5f6020820190508181035f830152611e738184611e23565b905092915050565b5f819050919050565b611e8d81611e7b565b82525050565b5f602082019050611ea65f830184611e84565b92915050565b5f604051905090565b5f5ffd5b5f5ffd5b5f73ffffffffffffffffffffffffffffffffffffffff82169050919050565b5f611ee682611ebd565b9050919050565b611ef681611edc565b8114611f00575f5ffd5b50565b5f81359050611f1181611eed565b92915050565b5f819050919050565b611f2981611f17565b8114611f33575f5ffd5b50565b5f81359050611f4481611f20565b92915050565b5f5f60408385031215611f6057611f5f611eb5565b5b5f611f6d85828601611f03565b9250506020611f7e85828601611f36565b9150509250929050565b5f8115159050919050565b611f9c81611f88565b82525050565b5f602082019050611fb55f830184611f93565b92915050565b5f60ff82169050919050565b611fd081611fbb565b82525050565b5f602082019050611fe95f830184611fc7565b92915050565b5f819050919050565b61200181611fef565b82525050565b5f60208201905061201a5f830184611ff8565b92915050565b5f819050919050565b5f61204361203e61203984611ebd565b612020565b611ebd565b9050919050565b5f61205482612029565b9050919050565b5f6120658261204a565b9050919050565b6120758161205b565b82525050565b5f60208201905061208e5f83018461206c565b92915050565b5f602082840312156120a9576120a8611eb5565b5b5f6120b684828501611f03565b91505092915050565b6120c881611e7b565b81146120d2575f5ffd5b50565b5f813590506120e3816120bf565b92915050565b5f5ffd5b5f5ffd5b5f5ffd5b5f5f83601f84011261210a576121096120e9565b5b8235905067ffffffffffffffff811115612127576121266120ed565b5b602083019150836001820283011115612143576121426120f1565b5b9250929050565b5f5f5f5f6060858703121561216257612161611eb5565b5b5f61216f87828801611f03565b9450506020612180878288016120d5565b935050604085013567ffffffffffffffff8111156121a1576121a0611eb9565b5b6121ad878288016120f5565b925092505092959194509250565b5f5f5f606084860312156121d2576121d1611eb5565b5b5f6121df86828701611f03565b93505060206121f086828701611f03565b925050604061220186828701611f36565b9150509250925092565b61221481611edc565b82525050565b5f60208201905061222d5f83018461220b565b92915050565b61223c81611fbb565b8114612246575f5ffd5b50565b5f8135905061225781612233565b92915050565b61226681611fef565b8114612270575f5ffd5b50565b5f813590506122818161225d565b92915050565b5f5f5f5f5f5f5f60e0888a0312156122a2576122a1611eb5565b5b5f6122af8a828b01611f03565b97505060206122c08a828b01611f03565b96505060406122d18a828b01611f36565b95505060606122e28a828b016120d5565b94505060806122f38a828b01612249565b93505060a06123048a828b01612273565b92505060c06123158a828b01612273565b91505092959891949750929550565b5f61232e8261204a565b9050919050565b61233e81612324565b82525050565b5f6020820190506123575f830184612335565b92915050565b7f4e487b71000000000000000000000000000000000000000000000000000000005f52602260045260245ffd5b5f60028204905060018216806123a157607f821691505b6020821081036123b4576123b361235d565b5b50919050565b7f7369676e617475726520657870697265640000000000000000000000000000005f82015250565b5f6123ee601183611df5565b91506123f9826123ba565b602082019050919050565b5f6020820190508181035f83015261241b816123e2565b9050919050565b7f696e76616c6964207369676e6174757265206c656e67746800000000000000005f82015250565b5f612456601883611df5565b915061246182612422565b602082019050919050565b5f6020820190508181035f8301526124838161244a565b9050919050565b5f81905092915050565b7f53524332305f42414c414e43455f5245414400000000000000000000000000005f82015250565b5f6124c860128361248a565b91506124d382612494565b601282019050919050565b5f8160601b9050919050565b5f6124f4826124de565b9050919050565b5f612505826124ea565b9050919050565b61251d61251882611edc565b6124fb565b82525050565b5f819050919050565b61253d61253882611e7b565b612523565b82525050565b5f61254d826124bc565b9150612559828561250c565b601482019150612569828461252c565b6020820191508190509392505050565b7f19457468657265756d205369676e6564204d6573736167653a0a3332000000005f82015250565b5f6125ad601c8361248a565b91506125b882612579565b601c82019050919050565b5f819050919050565b6125dd6125d882611fef565b6125c3565b82525050565b5f6125ed826125a1565b91506125f982846125cc565b60208201915081905092915050565b5f60808201905061261b5f830187611ff8565b6126286020830186611fc7565b6126356040830185611ff8565b6126426060830184611ff8565b95945050505050565b7f696e76616c6964207369676e61747572650000000000000000000000000000005f82015250565b5f61267f601183611df5565b915061268a8261264b565b602082019050919050565b5f6020820190508181035f8301526126ac81612673565b9050919050565b7f4e487b71000000000000000000000000000000000000000000000000000000005f52601160045260245ffd5b5f6126ea82611f17565b91506126f583611f17565b925082820390508181111561270d5761270c6126b3565b5b92915050565b7f5045524d49545f444541444c494e455f455850495245440000000000000000005f82015250565b5f612747601783611df5565b915061275282612713565b602082019050919050565b5f6020820190508181035f8301526127748161273b565b9050919050565b5f60c08201905061278e5f830189611ff8565b61279b602083018861220b565b6127a8604083018761220b565b6127b56060830186611e84565b6127c26080830185611e84565b6127cf60a0830184611e84565b979650505050505050565b7f19010000000000000000000000000000000000000000000000000000000000005f82015250565b5f61280e60028361248a565b9150612819826127da565b600282019050919050565b5f61282e82612802565b915061283a82856125cc565b60208201915061284a82846125cc565b6020820191508190509392505050565b7f494e56414c49445f5349474e45520000000000000000000000000000000000005f82015250565b5f61288e600e83611df5565b91506128998261285a565b602082019050919050565b5f6020820190508181035f8301526128bb81612882565b9050919050565b5f6128cd828461252c565b60208201915081905092915050565b5f81519050919050565b5f82825260208201905092915050565b5f612900826128dc565b61290a81856128e6565b935061291a818560208601611e05565b61292381611e13565b840191505092915050565b5f6020820190508181035f83015261294681846128f6565b905092915050565b7f4e487b71000000000000000000000000000000000000000000000000000000005f52604160045260245ffd5b61298482611e13565b810181811067ffffffffffffffff821117156129a3576129a261294e565b5b80604052505050565b5f6129b5611eac565b90506129c1828261297b565b919050565b5f67ffffffffffffffff8211156129e0576129df61294e565b5b602082029050602081019050919050565b5f815190506129ff8161225d565b92915050565b5f612a17612a12846129c6565b6129ac565b90508083825260208201905060208402830185811115612a3a57612a396120f1565b5b835b81811015612a635780612a4f88826129f1565b845260208401935050602081019050612a3c565b5050509392505050565b5f82601f830112612a8157612a806120e9565b5b8151612a91848260208601612a05565b91505092915050565b5f67ffffffffffffffff821115612ab457612ab361294e565b5b602082029050602081019050919050565b5f5ffd5b5f67ffffffffffffffff821115612ae357612ae261294e565b5b612aec82611e13565b9050602081019050919050565b5f612b0b612b0684612ac9565b6129ac565b905082815260208101848484011115612b2757612b26612ac5565b5b612b32848285611e05565b509392505050565b5f82601f830112612b4e57612b4d6120e9565b5b8151612b5e848260208601612af9565b91505092915050565b5f612b79612b7484612a9a565b6129ac565b90508083825260208201905060208402830185811115612b9c57612b9b6120f1565b5b835b81811015612be357805167ffffffffffffffff811115612bc157612bc06120e9565b5b808601612bce8982612b3a565b85526020850194505050602081019050612b9e565b5050509392505050565b5f82601f830112612c0157612c006120e9565b5b8151612c11848260208601612b67565b91505092915050565b5f5f60408385031215612c3057612c2f611eb5565b5b5f83015167ffffffffffffffff811115612c4d57612c4c611eb9565b5b612c5985828601612a6d565b925050602083015167ffffffffffffffff811115612c7a57612c79611eb9565b5b612c8685828601612bed565b9150509250929050565b7f4e487b71000000000000000000000000000000000000000000000000000000005f52603260045260245ffd5b612cc681611f88565b8114612cd0575f5ffd5b50565b5f81519050612ce181612cbd565b92915050565b5f60208284031215612cfc57612cfb611eb5565b5b5f612d0984828501612cd3565b91505092915050565b5f60208284031215612d2757612d26611eb5565b5b5f612d34848285016129f1565b91505092915050565b5f604082019050612d505f83018561220b565b8181036020830152612d6281846128f6565b90509392505050565b5f60208284031215612d8057612d7f611eb5565b5b5f82015167ffffffffffffffff811115612d9d57612d9c611eb9565b5b612da984828501612b3a565b91505092915050565b5f81905092915050565b5f819050815f5260205f209050919050565b5f8154612dda8161238a565b612de48186612db2565b9450600182165f8114612dfe5760018114612e1357612e45565b60ff1983168652811515820286019350612e45565b612e1c85612dbc565b5f5b83811015612e3d57815481890152600182019150602081019050612e1e565b838801955050505b50505092915050565b5f612e598284612dce565b915081905092915050565b5f60a082019050612e775f830188611ff8565b612e846020830187611ff8565b612e916040830186611ff8565b612e9e6060830185611e84565b612eab608083018461220b565b9695505050505050565b5f612ebf82611f17565b9150612eca83611f17565b9250828201905080821115612ee257612ee16126b3565b5b9291505056fea26469706673582212201736f27ebd8c77134e1507e766990ad9b04bf34944f744f9ba28c726d0c8cddb64736f6c637828302e382e33312d646576656c6f702e323032362e332e32332b636f6d6d69742e62656261363966340059","linkReferences":{}},"methodIdentifiers":{"DIRECTORY_ADDRESS()":"ba1ab291","DOMAIN_SEPARATOR()":"3644e515","INTELLIGENCE_ADDRESS()":"b9b8dea0","allowance(address)":"3e5beab9","approve(address,suint256)":"2e62b8c8","balance()":"b69ef8a8","balanceOfSigned(address,uint256,bytes)":"5253f919","burn(address,suint256)":"68787310","decimals()":"313ce567","directory()":"c41c2f24","intelligence()":"3d27862e","mint(address,suint256)":"d590f35f","name()":"06fdde03","nonces(address)":"7ecebe00","permit(address,address,suint256,uint256,uint8,bytes32,bytes32)":"bdda9413","symbol()":"95d89b41","totalSupply()":"18160ddd","transfer(address,suint256)":"b10c99b5","transferFrom(address,address,suint256)":"9552331e"},"id":24}