{"abi":[{"type":"constructor","inputs":[{"name":"_name","type":"string","internalType":"string"},{"name":"_symbol","type":"string","internalType":"string"},{"name":"_decimals","type":"uint8","internalType":"uint8"}],"stateMutability":"nonpayable"},{"type":"function","name":"DOMAIN_SEPARATOR","inputs":[],"outputs":[{"name":"","type":"bytes32","internalType":"bytes32"}],"stateMutability":"view"},{"type":"function","name":"INTELLIGENCE_ADDRESS","inputs":[],"outputs":[{"name":"","type":"address","internalType":"address"}],"stateMutability":"view"},{"type":"function","name":"allowance","inputs":[{"name":"spender","type":"address","internalType":"address"}],"outputs":[{"name":"","type":"uint256","internalType":"uint256"}],"stateMutability":"view"},{"type":"function","name":"approve","inputs":[{"name":"spender","type":"address","internalType":"address"},{"name":"amount","type":"suint256","internalType":"suint256"}],"outputs":[{"name":"","type":"bool","internalType":"bool"}],"stateMutability":"nonpayable"},{"type":"function","name":"balance","inputs":[],"outputs":[{"name":"","type":"uint256","internalType":"uint256"}],"stateMutability":"view"},{"type":"function","name":"burn","inputs":[{"name":"from","type":"address","internalType":"address"},{"name":"value","type":"suint256","internalType":"suint256"}],"outputs":[],"stateMutability":"nonpayable"},{"type":"function","name":"decimals","inputs":[],"outputs":[{"name":"","type":"uint8","internalType":"uint8"}],"stateMutability":"view"},{"type":"function","name":"intelligence","inputs":[],"outputs":[{"name":"","type":"address","internalType":"contract IIntelligence"}],"stateMutability":"view"},{"type":"function","name":"mint","inputs":[{"name":"to","type":"address","internalType":"address"},{"name":"value","type":"suint256","internalType":"suint256"}],"outputs":[],"stateMutability":"nonpayable"},{"type":"function","name":"name","inputs":[],"outputs":[{"name":"","type":"string","internalType":"string"}],"stateMutability":"view"},{"type":"function","name":"nonces","inputs":[{"name":"","type":"address","internalType":"address"}],"outputs":[{"name":"","type":"uint256","internalType":"uint256"}],"stateMutability":"view"},{"type":"function","name":"permit","inputs":[{"name":"owner","type":"address","internalType":"address"},{"name":"spender","type":"address","internalType":"address"},{"name":"value","type":"suint256","internalType":"suint256"},{"name":"deadline","type":"uint256","internalType":"uint256"},{"name":"v","type":"uint8","internalType":"uint8"},{"name":"r","type":"bytes32","internalType":"bytes32"},{"name":"s","type":"bytes32","internalType":"bytes32"}],"outputs":[],"stateMutability":"nonpayable"},{"type":"function","name":"symbol","inputs":[],"outputs":[{"name":"","type":"string","internalType":"string"}],"stateMutability":"view"},{"type":"function","name":"totalSupply","inputs":[],"outputs":[{"name":"","type":"uint256","internalType":"uint256"}],"stateMutability":"view"},{"type":"function","name":"transfer","inputs":[{"name":"to","type":"address","internalType":"address"},{"name":"amount","type":"suint256","internalType":"suint256"}],"outputs":[{"name":"","type":"bool","internalType":"bool"}],"stateMutability":"nonpayable"},{"type":"function","name":"transferFrom","inputs":[{"name":"from","type":"address","internalType":"address"},{"name":"to","type":"address","internalType":"address"},{"name":"amount","type":"suint256","internalType":"suint256"}],"outputs":[{"name":"","type":"bool","internalType":"bool"}],"stateMutability":"nonpayable"},{"type":"event","name":"Approval","inputs":[{"name":"owner","type":"address","indexed":true,"internalType":"address"},{"name":"spender","type":"address","indexed":true,"internalType":"address"},{"name":"encryptKeyHash","type":"bytes32","indexed":true,"internalType":"bytes32"},{"name":"encryptedAmount","type":"bytes","indexed":false,"internalType":"bytes"}],"anonymous":false},{"type":"event","name":"Transfer","inputs":[{"name":"from","type":"address","indexed":true,"internalType":"address"},{"name":"to","type":"address","indexed":true,"internalType":"address"},{"name":"encryptKeyHash","type":"bytes32","indexed":true,"internalType":"bytes32"},{"name":"encryptedAmount","type":"bytes","indexed":false,"internalType":"bytes"}],"anonymous":false}],"bytecode":{"object":"0x60e060405234801561000f575f5ffd5b506040516124a93803806124a983398181016040528101906100319190610296565b828282825f9081610042919061052e565b508160019081610052919061052e565b508060ff1660808160ff16815250504660a0818152505061007761008960201b60201c565b60c08181525050505050505050610766565b5f7f8b73c3c69bb8fe3d512ecc4cf759cc79239f7b179b0ffacaa9a75d522b39400f5f6040516100b99190610699565b60405180910390207fc89efdaa54c0f20c7adf612882df0950f5a951637e0307cdcb4c672f298b8bc646306040516020016100f8959493929190610715565b60405160208183030381529060405280519060200120905090565b5f604051905090565b5f5ffd5b5f5ffd5b5f5ffd5b5f5ffd5b5f601f19601f8301169050919050565b7f4e487b71000000000000000000000000000000000000000000000000000000005f52604160045260245ffd5b6101728261012c565b810181811067ffffffffffffffff821117156101915761019061013c565b5b80604052505050565b5f6101a3610113565b90506101af8282610169565b919050565b5f67ffffffffffffffff8211156101ce576101cd61013c565b5b6101d78261012c565b9050602081019050919050565b8281835e5f83830152505050565b5f6102046101ff846101b4565b61019a565b9050828152602081018484840111156102205761021f610128565b5b61022b8482856101e4565b509392505050565b5f82601f83011261024757610246610124565b5b81516102578482602086016101f2565b91505092915050565b5f60ff82169050919050565b61027581610260565b811461027f575f5ffd5b50565b5f815190506102908161026c565b92915050565b5f5f5f606084860312156102ad576102ac61011c565b5b5f84015167ffffffffffffffff8111156102ca576102c9610120565b5b6102d686828701610233565b935050602084015167ffffffffffffffff8111156102f7576102f6610120565b5b61030386828701610233565b925050604061031486828701610282565b9150509250925092565b5f81519050919050565b7f4e487b71000000000000000000000000000000000000000000000000000000005f52602260045260245ffd5b5f600282049050600182168061036c57607f821691505b60208210810361037f5761037e610328565b5b50919050565b5f819050815f5260205f209050919050565b5f6020601f8301049050919050565b5f82821b905092915050565b5f600883026103e17fffffffffffffffffffffffffffffffffffffffffffffffffffffffffffffffff826103a6565b6103eb86836103a6565b95508019841693508086168417925050509392505050565b5f819050919050565b5f819050919050565b5f61042f61042a61042584610403565b61040c565b610403565b9050919050565b5f819050919050565b61044883610415565b61045c61045482610436565b8484546103b2565b825550505050565b5f5f905090565b610473610464565b61047e81848461043f565b505050565b5b818110156104a1576104965f8261046b565b600181019050610484565b5050565b601f8211156104e6576104b781610385565b6104c084610397565b810160208510156104cf578190505b6104e36104db85610397565b830182610483565b50505b505050565b5f82821c905092915050565b5f6105065f19846008026104eb565b1980831691505092915050565b5f61051e83836104f7565b9150826002028217905092915050565b6105378261031e565b67ffffffffffffffff8111156105505761054f61013c565b5b61055a8254610355565b6105658282856104a5565b5f60209050601f831160018114610596575f8415610584578287015190505b61058e8582610513565b8655506105f5565b601f1984166105a486610385565b5f5b828110156105cb578489015182556001820191506020850194506020810190506105a6565b868310156105e857848901516105e4601f8916826104f7565b8355505b6001600288020188555050505b505050505050565b5f81905092915050565b5f819050815f5260205f209050919050565b5f815461062581610355565b61062f81866105fd565b9450600182165f8114610649576001811461065e57610690565b60ff1983168652811515820286019350610690565b61066785610607565b5f5b8381101561068857815481890152600182019150602081019050610669565b838801955050505b50505092915050565b5f6106a48284610619565b915081905092915050565b5f819050919050565b6106c1816106af565b82525050565b6106d081610403565b82525050565b5f73ffffffffffffffffffffffffffffffffffffffff82169050919050565b5f6106ff826106d6565b9050919050565b61070f816106f5565b82525050565b5f60a0820190506107285f8301886106b8565b61073560208301876106b8565b61074260408301866106b8565b61074f60608301856106c7565b61075c6080830184610706565b9695505050505050565b60805160a05160c051611d196107905f395f6104bd01525f61048901525f6104640152611d195ff3fe608060405234801561000f575f5ffd5b50600436106100fe575f3560e01c80637ecebe0011610095578063b69ef8a811610064578063b69ef8a8146102c2578063b9b8dea0146102e0578063bdda9413146102fe578063d590f35f1461031a576100fe565b80637ecebe00146102145780639552331e1461024457806395d89b4114610274578063b10c99b514610292576100fe565b80633644e515116100d15780633644e5151461018c5780633d27862e146101aa5780633e5beab9146101c857806368787310146101f8576100fe565b806306fdde031461010257806318160ddd146101205780632e62b8c81461013e578063313ce5671461016e575b5f5ffd5b61010a610336565b6040516101179190611084565b60405180910390f35b6101286103c1565b60405161013591906110bc565b60405180910390f35b61015860048036038101906101539190611173565b6103cf565b60405161016591906111cb565b60405180910390f35b610176610462565b60405161018391906111ff565b60405180910390f35b610194610486565b6040516101a19190611230565b60405180910390f35b6101b26104e2565b6040516101bf91906112a4565b60405180910390f35b6101e260048036038101906101dd91906112bd565b6104fa565b6040516101ef91906110bc565b60405180910390f35b610212600480360381019061020d9190611173565b61057b565b005b61022e600480360381019061022991906112bd565b610589565b60405161023b91906110bc565b60405180910390f35b61025e600480360381019061025991906112e8565b61059e565b60405161026b91906111cb565b60405180910390f35b61027c61077f565b6040516102899190611084565b60405180910390f35b6102ac60048036038101906102a79190611173565b61080b565b6040516102b991906111cb565b60405180910390f35b6102ca6108be565b6040516102d791906110bc565b60405180910390f35b6102e8610902565b6040516102f59190611347565b60405180910390f35b610318600480360381019061031391906113de565b61091a565b005b610334600480360381019061032f9190611173565b610bad565b005b5f8054610342906114a8565b80601f016020809104026020016040519081016040528092919081815260200182805461036e906114a8565b80156103b95780601f10610390576101008083540402835291602001916103b9565b820191905f5260205f20905b81548152906001019060200180831161039c57829003601f168201915b505050505081565b5f6103ca610bbb565b905090565b5f8160045f3373ffffffffffffffffffffffffffffffffffffffff1673ffffffffffffffffffffffffffffffffffffffff1681526020019081526020015f205f8573ffffffffffffffffffffffffffffffffffffffff1673ffffffffffffffffffffffffffffffffffffffff1681526020019081526020015f208190b150610458338484610bc4565b6001905092915050565b7f000000000000000000000000000000000000000000000000000000000000000081565b5f7f000000000000000000000000000000000000000000000000000000000000000046146104bb576104b6610d36565b6104dd565b7f00000000000000000000000000000000000000000000000000000000000000005b905090565b73100000000000000000000000000000000000000581565b5f60045f3373ffffffffffffffffffffffffffffffffffffffff1673ffffffffffffffffffffffffffffffffffffffff1681526020019081526020015f205f8373ffffffffffffffffffffffffffffffffffffffff1673ffffffffffffffffffffffffffffffffffffffff1681526020019081526020015f20b09050919050565b6105858282610dc0565b5050565b6005602052805f5260405f205f915090505481565b5f5f60045f8673ffffffffffffffffffffffffffffffffffffffff1673ffffffffffffffffffffffffffffffffffffffff1681526020019081526020015f205f3373ffffffffffffffffffffffffffffffffffffffff1673ffffffffffffffffffffffffffffffffffffffff1681526020019081526020015f20b090507fffffffffffffffffffffffffffffffffffffffffffffffffffffffffffffffff81146106cb57828161064e9190611505565b60045f8773ffffffffffffffffffffffffffffffffffffffff1673ffffffffffffffffffffffffffffffffffffffff1681526020019081526020015f205f3373ffffffffffffffffffffffffffffffffffffffff1673ffffffffffffffffffffffffffffffffffffffff1681526020019081526020015f208190b1505b8260035f8773ffffffffffffffffffffffffffffffffffffffff1673ffffffffffffffffffffffffffffffffffffffff1681526020019081526020015f205f8282b06107179190611505565b9250508190b1508260035f8673ffffffffffffffffffffffffffffffffffffffff1673ffffffffffffffffffffffffffffffffffffffff1681526020019081526020015f205f8282b0019250508190b150610773858585610e31565b60019150509392505050565b6001805461078c906114a8565b80601f01602080910402602001604051908101604052809291908181526020018280546107b8906114a8565b80156108035780601f106107da57610100808354040283529160200191610803565b820191905f5260205f20905b8154815290600101906020018083116107e657829003601f168201915b505050505081565b5f8160035f3373ffffffffffffffffffffffffffffffffffffffff1673ffffffffffffffffffffffffffffffffffffffff1681526020019081526020015f205f8282b06108589190611505565b9250508190b1508160035f8573ffffffffffffffffffffffffffffffffffffffff1673ffffffffffffffffffffffffffffffffffffffff1681526020019081526020015f205f8282b0019250508190b1506108b4338484610e31565b6001905092915050565b5f60035f3373ffffffffffffffffffffffffffffffffffffffff1673ffffffffffffffffffffffffffffffffffffffff1681526020019081526020015f20b0905090565b73100000000000000000000000000000000000000581565b4284101561095d576040517f08c379a000000000000000000000000000000000000000000000000000000000815260040161095490611582565b60405180910390fd5b5f6001610968610486565b7f6e71edae12b1b97f4d1f60370fef10105fa2faae0126114a169c64845d6126c98a8a8a60055f8f73ffffffffffffffffffffffffffffffffffffffff1673ffffffffffffffffffffffffffffffffffffffff1681526020019081526020015f205f815480929190600101919050558b6040516020016109ed969594939291906115af565b60405160208183030381529060405280519060200120604051602001610a14929190611682565b604051602081830303815290604052805190602001208585856040515f8152602001604052604051610a4994939291906116b8565b6020604051602081039080840390855afa158015610a69573d5f5f3e3d5ffd5b5050506020604051035190505f73ffffffffffffffffffffffffffffffffffffffff168173ffffffffffffffffffffffffffffffffffffffff1614158015610adc57508773ffffffffffffffffffffffffffffffffffffffff168173ffffffffffffffffffffffffffffffffffffffff16145b610b1b576040517f08c379a0000000000000000000000000000000000000000000000000000000008152600401610b1290611745565b60405180910390fd5b8560045f8373ffffffffffffffffffffffffffffffffffffffff1673ffffffffffffffffffffffffffffffffffffffff1681526020019081526020015f205f8973ffffffffffffffffffffffffffffffffffffffff1673ffffffffffffffffffffffffffffffffffffffff1681526020019081526020015f208190b15050610ba4878787610bc4565b50505050505050565b610bb78282610fa3565b5050565b5f6002b0905090565b5f5f73100000000000000000000000000000000000000573ffffffffffffffffffffffffffffffffffffffff16634a8fcf9a84604051602001610c079190611783565b6040516020818303038152906040526040518263ffffffff1660e01b8152600401610c3291906117ef565b5f604051808303815f875af1158015610c4d573d5f5f3e3d5ffd5b505050506040513d5f823e3d601f19601f82011682018060405250810190610c759190611ae3565b915091505f5f90505b8151811015610d2e57828181518110610c9a57610c99611b59565b5b60200260200101518573ffffffffffffffffffffffffffffffffffffffff168773ffffffffffffffffffffffffffffffffffffffff167f8ef65e17890b61a4796f8848475471f8895cd361b1de7e7260a6800ba0623f40858581518110610d0457610d03611b59565b5b6020026020010151604051610d1991906117ef565b60405180910390a48080600101915050610c7e565b505050505050565b5f7f8b73c3c69bb8fe3d512ecc4cf759cc79239f7b179b0ffacaa9a75d522b39400f5f604051610d669190611c22565b60405180910390207fc89efdaa54c0f20c7adf612882df0950f5a951637e0307cdcb4c672f298b8bc64630604051602001610da5959493929190611c38565b60405160208183030381529060405280519060200120905090565b8060035f8473ffffffffffffffffffffffffffffffffffffffff1673ffffffffffffffffffffffffffffffffffffffff1681526020019081526020015f205f8282b0610e0c9190611505565b9250508190b1508060025f8282b0039250508190b150610e2d825f83610e31565b5050565b5f5f73100000000000000000000000000000000000000573ffffffffffffffffffffffffffffffffffffffff16634a8fcf9a84604051602001610e749190611783565b6040516020818303038152906040526040518263ffffffff1660e01b8152600401610e9f91906117ef565b5f604051808303815f875af1158015610eba573d5f5f3e3d5ffd5b505050506040513d5f823e3d601f19601f82011682018060405250810190610ee29190611ae3565b915091505f5f90505b8151811015610f9b57828181518110610f0757610f06611b59565b5b60200260200101518573ffffffffffffffffffffffffffffffffffffffff168773ffffffffffffffffffffffffffffffffffffffff167f80ffa007a69623ef13594f5e8178eee6c4ef2d0cba74c08329e879f695b7d3f6858581518110610f7157610f70611b59565b5b6020026020010151604051610f8691906117ef565b60405180910390a48080600101915050610eeb565b505050505050565b8060025f8282b0610fb49190611c89565b9250508190b1508060035f8473ffffffffffffffffffffffffffffffffffffffff1673ffffffffffffffffffffffffffffffffffffffff1681526020019081526020015f205f8282b0019250508190b1506110105f8383610e31565b5050565b5f81519050919050565b5f82825260208201905092915050565b8281835e5f83830152505050565b5f601f19601f8301169050919050565b5f61105682611014565b611060818561101e565b935061107081856020860161102e565b6110798161103c565b840191505092915050565b5f6020820190508181035f83015261109c818461104c565b905092915050565b5f819050919050565b6110b6816110a4565b82525050565b5f6020820190506110cf5f8301846110ad565b92915050565b5f604051905090565b5f5ffd5b5f5ffd5b5f73ffffffffffffffffffffffffffffffffffffffff82169050919050565b5f61110f826110e6565b9050919050565b61111f81611105565b8114611129575f5ffd5b50565b5f8135905061113a81611116565b92915050565b5f819050919050565b61115281611140565b811461115c575f5ffd5b50565b5f8135905061116d81611149565b92915050565b5f5f60408385031215611189576111886110de565b5b5f6111968582860161112c565b92505060206111a78582860161115f565b9150509250929050565b5f8115159050919050565b6111c5816111b1565b82525050565b5f6020820190506111de5f8301846111bc565b92915050565b5f60ff82169050919050565b6111f9816111e4565b82525050565b5f6020820190506112125f8301846111f0565b92915050565b5f819050919050565b61122a81611218565b82525050565b5f6020820190506112435f830184611221565b92915050565b5f819050919050565b5f61126c611267611262846110e6565b611249565b6110e6565b9050919050565b5f61127d82611252565b9050919050565b5f61128e82611273565b9050919050565b61129e81611284565b82525050565b5f6020820190506112b75f830184611295565b92915050565b5f602082840312156112d2576112d16110de565b5b5f6112df8482850161112c565b91505092915050565b5f5f5f606084860312156112ff576112fe6110de565b5b5f61130c8682870161112c565b935050602061131d8682870161112c565b925050604061132e8682870161115f565b9150509250925092565b61134181611105565b82525050565b5f60208201905061135a5f830184611338565b92915050565b611369816110a4565b8114611373575f5ffd5b50565b5f8135905061138481611360565b92915050565b611393816111e4565b811461139d575f5ffd5b50565b5f813590506113ae8161138a565b92915050565b6113bd81611218565b81146113c7575f5ffd5b50565b5f813590506113d8816113b4565b92915050565b5f5f5f5f5f5f5f60e0888a0312156113f9576113f86110de565b5b5f6114068a828b0161112c565b97505060206114178a828b0161112c565b96505060406114288a828b0161115f565b95505060606114398a828b01611376565b945050608061144a8a828b016113a0565b93505060a061145b8a828b016113ca565b92505060c061146c8a828b016113ca565b91505092959891949750929550565b7f4e487b71000000000000000000000000000000000000000000000000000000005f52602260045260245ffd5b5f60028204905060018216806114bf57607f821691505b6020821081036114d2576114d161147b565b5b50919050565b7f4e487b71000000000000000000000000000000000000000000000000000000005f52601160045260245ffd5b5f61150f82611140565b915061151a83611140565b9250828203905081811115611532576115316114d8565b5b92915050565b7f5045524d49545f444541444c494e455f455850495245440000000000000000005f82015250565b5f61156c60178361101e565b915061157782611538565b602082019050919050565b5f6020820190508181035f83015261159981611560565b9050919050565b6115a981611140565b82525050565b5f60c0820190506115c25f830189611221565b6115cf6020830188611338565b6115dc6040830187611338565b6115e960608301866115a0565b6115f660808301856110ad565b61160360a08301846110ad565b979650505050505050565b5f81905092915050565b7f19010000000000000000000000000000000000000000000000000000000000005f82015250565b5f61164c60028361160e565b915061165782611618565b600282019050919050565b5f819050919050565b61167c61167782611218565b611662565b82525050565b5f61168c82611640565b9150611698828561166b565b6020820191506116a8828461166b565b6020820191508190509392505050565b5f6080820190506116cb5f830187611221565b6116d860208301866111f0565b6116e56040830185611221565b6116f26060830184611221565b95945050505050565b7f494e56414c49445f5349474e45520000000000000000000000000000000000005f82015250565b5f61172f600e8361101e565b915061173a826116fb565b602082019050919050565b5f6020820190508181035f83015261175c81611723565b9050919050565b5f819050919050565b61177d61177882611140565b611763565b82525050565b5f61178e828461176c565b60208201915081905092915050565b5f81519050919050565b5f82825260208201905092915050565b5f6117c18261179d565b6117cb81856117a7565b93506117db81856020860161102e565b6117e48161103c565b840191505092915050565b5f6020820190508181035f83015261180781846117b7565b905092915050565b5f5ffd5b7f4e487b71000000000000000000000000000000000000000000000000000000005f52604160045260245ffd5b6118498261103c565b810181811067ffffffffffffffff8211171561186857611867611813565b5b80604052505050565b5f61187a6110d5565b90506118868282611840565b919050565b5f67ffffffffffffffff8211156118a5576118a4611813565b5b602082029050602081019050919050565b5f5ffd5b5f815190506118c8816113b4565b92915050565b5f6118e06118db8461188b565b611871565b90508083825260208201905060208402830185811115611903576119026118b6565b5b835b8181101561192c578061191888826118ba565b845260208401935050602081019050611905565b5050509392505050565b5f82601f83011261194a5761194961180f565b5b815161195a8482602086016118ce565b91505092915050565b5f67ffffffffffffffff82111561197d5761197c611813565b5b602082029050602081019050919050565b5f5ffd5b5f67ffffffffffffffff8211156119ac576119ab611813565b5b6119b58261103c565b9050602081019050919050565b5f6119d46119cf84611992565b611871565b9050828152602081018484840111156119f0576119ef61198e565b5b6119fb84828561102e565b509392505050565b5f82601f830112611a1757611a1661180f565b5b8151611a278482602086016119c2565b91505092915050565b5f611a42611a3d84611963565b611871565b90508083825260208201905060208402830185811115611a6557611a646118b6565b5b835b81811015611aac57805167ffffffffffffffff811115611a8a57611a8961180f565b5b808601611a978982611a03565b85526020850194505050602081019050611a67565b5050509392505050565b5f82601f830112611aca57611ac961180f565b5b8151611ada848260208601611a30565b91505092915050565b5f5f60408385031215611af957611af86110de565b5b5f83015167ffffffffffffffff811115611b1657611b156110e2565b5b611b2285828601611936565b925050602083015167ffffffffffffffff811115611b4357611b426110e2565b5b611b4f85828601611ab6565b9150509250929050565b7f4e487b71000000000000000000000000000000000000000000000000000000005f52603260045260245ffd5b5f81905092915050565b5f819050815f5260205f209050919050565b5f8154611bae816114a8565b611bb88186611b86565b9450600182165f8114611bd25760018114611be757611c19565b60ff1983168652811515820286019350611c19565b611bf085611b90565b5f5b83811015611c1157815481890152600182019150602081019050611bf2565b838801955050505b50505092915050565b5f611c2d8284611ba2565b915081905092915050565b5f60a082019050611c4b5f830188611221565b611c586020830187611221565b611c656040830186611221565b611c7260608301856110ad565b611c7f6080830184611338565b9695505050505050565b5f611c9382611140565b9150611c9e83611140565b9250828201905080821115611cb657611cb56114d8565b5b9291505056fea26469706673582212206bc42ebafd42a01608cd9a1fd3e0cc0038378dce5e92ad9ceb07ce00bf58f56464736f6c637829302e382e33312d646576656c6f702e323032352e31312e31322b636f6d6d69742e3637366264656363005a","linkReferences":{}},"methodIdentifiers":{"DOMAIN_SEPARATOR()":"3644e515","INTELLIGENCE_ADDRESS()":"b9b8dea0","allowance(address)":"3e5beab9","approve(address,suint256)":"2e62b8c8","balance()":"b69ef8a8","burn(address,suint256)":"68787310","decimals()":"313ce567","intelligence()":"3d27862e","mint(address,suint256)":"d590f35f","name()":"06fdde03","nonces(address)":"7ecebe00","permit(address,address,suint256,uint256,uint8,bytes32,bytes32)":"bdda9413","symbol()":"95d89b41","totalSupply()":"18160ddd","transfer(address,suint256)":"b10c99b5","transferFrom(address,address,suint256)":"9552331e"},"id":20}