{"abi":[{"type":"constructor","inputs":[{"name":"_intelligence","type":"address","internalType":"address"},{"name":"_name","type":"string","internalType":"string"},{"name":"_symbol","type":"string","internalType":"string"},{"name":"_decimals","type":"uint8","internalType":"uint8"}],"stateMutability":"nonpayable"},{"type":"function","name":"DOMAIN_SEPARATOR","inputs":[],"outputs":[{"name":"","type":"bytes32","internalType":"bytes32"}],"stateMutability":"view"},{"type":"function","name":"allowance","inputs":[{"name":"spender","type":"address","internalType":"address"}],"outputs":[{"name":"","type":"uint256","internalType":"uint256"}],"stateMutability":"view"},{"type":"function","name":"approve","inputs":[{"name":"spender","type":"address","internalType":"address"},{"name":"amount","type":"suint256","internalType":"suint256"}],"outputs":[{"name":"","type":"bool","internalType":"bool"}],"stateMutability":"nonpayable"},{"type":"function","name":"balance","inputs":[],"outputs":[{"name":"","type":"uint256","internalType":"uint256"}],"stateMutability":"view"},{"type":"function","name":"burn","inputs":[{"name":"from","type":"address","internalType":"address"},{"name":"value","type":"suint256","internalType":"suint256"}],"outputs":[],"stateMutability":"nonpayable"},{"type":"function","name":"decimals","inputs":[],"outputs":[{"name":"","type":"uint8","internalType":"uint8"}],"stateMutability":"view"},{"type":"function","name":"intelligence","inputs":[],"outputs":[{"name":"","type":"address","internalType":"contract IIntelligence"}],"stateMutability":"view"},{"type":"function","name":"mint","inputs":[{"name":"to","type":"address","internalType":"address"},{"name":"value","type":"suint256","internalType":"suint256"}],"outputs":[],"stateMutability":"nonpayable"},{"type":"function","name":"name","inputs":[],"outputs":[{"name":"","type":"string","internalType":"string"}],"stateMutability":"view"},{"type":"function","name":"nonces","inputs":[{"name":"","type":"address","internalType":"address"}],"outputs":[{"name":"","type":"uint256","internalType":"uint256"}],"stateMutability":"view"},{"type":"function","name":"permit","inputs":[{"name":"owner","type":"address","internalType":"address"},{"name":"spender","type":"address","internalType":"address"},{"name":"value","type":"suint256","internalType":"suint256"},{"name":"deadline","type":"uint256","internalType":"uint256"},{"name":"v","type":"uint8","internalType":"uint8"},{"name":"r","type":"bytes32","internalType":"bytes32"},{"name":"s","type":"bytes32","internalType":"bytes32"}],"outputs":[],"stateMutability":"nonpayable"},{"type":"function","name":"symbol","inputs":[],"outputs":[{"name":"","type":"string","internalType":"string"}],"stateMutability":"view"},{"type":"function","name":"totalSupply","inputs":[],"outputs":[{"name":"","type":"uint256","internalType":"uint256"}],"stateMutability":"view"},{"type":"function","name":"transfer","inputs":[{"name":"to","type":"address","internalType":"address"},{"name":"amount","type":"suint256","internalType":"suint256"}],"outputs":[{"name":"","type":"bool","internalType":"bool"}],"stateMutability":"nonpayable"},{"type":"function","name":"transferFrom","inputs":[{"name":"from","type":"address","internalType":"address"},{"name":"to","type":"address","internalType":"address"},{"name":"amount","type":"suint256","internalType":"suint256"}],"outputs":[{"name":"","type":"bool","internalType":"bool"}],"stateMutability":"nonpayable"},{"type":"event","name":"Approval","inputs":[{"name":"owner","type":"address","indexed":true,"internalType":"address"},{"name":"spender","type":"address","indexed":true,"internalType":"address"},{"name":"encryptKeyHash","type":"bytes32","indexed":true,"internalType":"bytes32"},{"name":"encryptedAmount","type":"bytes","indexed":false,"internalType":"bytes"}],"anonymous":false},{"type":"event","name":"Transfer","inputs":[{"name":"from","type":"address","indexed":true,"internalType":"address"},{"name":"to","type":"address","indexed":true,"internalType":"address"},{"name":"encryptKeyHash","type":"bytes32","indexed":true,"internalType":"bytes32"},{"name":"encryptedAmount","type":"bytes","indexed":false,"internalType":"bytes"}],"anonymous":false}],"bytecode":{"object":"0x610100604052348015610010575f5ffd5b5060405161250038038061250083398181016040528101906100329190610328565b838383838373ffffffffffffffffffffffffffffffffffffffff1660a08173ffffffffffffffffffffffffffffffffffffffff1681525050825f908161007891906105d4565b50816001908161008891906105d4565b508060ff1660808160ff16815250504660c081815250506100ad6100c160201b60201c565b60e0818152505050505050505050506107dc565b5f7f8b73c3c69bb8fe3d512ecc4cf759cc79239f7b179b0ffacaa9a75d522b39400f5f6040516100f1919061073f565b60405180910390207fc89efdaa54c0f20c7adf612882df0950f5a951637e0307cdcb4c672f298b8bc6463060405160200161013095949392919061078b565b60405160208183030381529060405280519060200120905090565b5f604051905090565b5f5ffd5b5f5ffd5b5f73ffffffffffffffffffffffffffffffffffffffff82169050919050565b5f6101858261015c565b9050919050565b6101958161017b565b811461019f575f5ffd5b50565b5f815190506101b08161018c565b92915050565b5f5ffd5b5f5ffd5b5f601f19601f8301169050919050565b7f4e487b71000000000000000000000000000000000000000000000000000000005f52604160045260245ffd5b610204826101be565b810181811067ffffffffffffffff82111715610223576102226101ce565b5b80604052505050565b5f61023561014b565b905061024182826101fb565b919050565b5f67ffffffffffffffff8211156102605761025f6101ce565b5b610269826101be565b9050602081019050919050565b8281835e5f83830152505050565b5f61029661029184610246565b61022c565b9050828152602081018484840111156102b2576102b16101ba565b5b6102bd848285610276565b509392505050565b5f82601f8301126102d9576102d86101b6565b5b81516102e9848260208601610284565b91505092915050565b5f60ff82169050919050565b610307816102f2565b8114610311575f5ffd5b50565b5f81519050610322816102fe565b92915050565b5f5f5f5f608085870312156103405761033f610154565b5b5f61034d878288016101a2565b945050602085015167ffffffffffffffff81111561036e5761036d610158565b5b61037a878288016102c5565b935050604085015167ffffffffffffffff81111561039b5761039a610158565b5b6103a7878288016102c5565b92505060606103b887828801610314565b91505092959194509250565b5f81519050919050565b7f4e487b71000000000000000000000000000000000000000000000000000000005f52602260045260245ffd5b5f600282049050600182168061041257607f821691505b602082108103610425576104246103ce565b5b50919050565b5f819050815f5260205f209050919050565b5f6020601f8301049050919050565b5f82821b905092915050565b5f600883026104877fffffffffffffffffffffffffffffffffffffffffffffffffffffffffffffffff8261044c565b610491868361044c565b95508019841693508086168417925050509392505050565b5f819050919050565b5f819050919050565b5f6104d56104d06104cb846104a9565b6104b2565b6104a9565b9050919050565b5f819050919050565b6104ee836104bb565b6105026104fa826104dc565b848454610458565b825550505050565b5f5f905090565b61051961050a565b6105248184846104e5565b505050565b5b818110156105475761053c5f82610511565b60018101905061052a565b5050565b601f82111561058c5761055d8161042b565b6105668461043d565b81016020851015610575578190505b6105896105818561043d565b830182610529565b50505b505050565b5f82821c905092915050565b5f6105ac5f1984600802610591565b1980831691505092915050565b5f6105c4838361059d565b9150826002028217905092915050565b6105dd826103c4565b67ffffffffffffffff8111156105f6576105f56101ce565b5b61060082546103fb565b61060b82828561054b565b5f60209050601f83116001811461063c575f841561062a578287015190505b61063485826105b9565b86555061069b565b601f19841661064a8661042b565b5f5b828110156106715784890151825560018201915060208501945060208101905061064c565b8683101561068e578489015161068a601f89168261059d565b8355505b6001600288020188555050505b505050505050565b5f81905092915050565b5f819050815f5260205f209050919050565b5f81546106cb816103fb565b6106d581866106a3565b9450600182165f81146106ef576001811461070457610736565b60ff1983168652811515820286019350610736565b61070d856106ad565b5f5b8381101561072e5781548189015260018201915060208101905061070f565b838801955050505b50505092915050565b5f61074a82846106bf565b915081905092915050565b5f819050919050565b61076781610755565b82525050565b610776816104a9565b82525050565b6107858161017b565b82525050565b5f60a08201905061079e5f83018861075e565b6107ab602083018761075e565b6107b8604083018661075e565b6107c5606083018561076d565b6107d2608083018461077c565b9695505050505050565b60805160a05160c05160e051611ce361081d5f395f61049401525f61046001525f81816104bb01528181610b930152610e0c01525f61043b0152611ce35ff3fe608060405234801561000f575f5ffd5b50600436106100f3575f3560e01c80636878731011610095578063b10c99b511610064578063b10c99b514610287578063b69ef8a8146102b7578063bdda9413146102d5578063d590f35f146102f1576100f3565b806368787310146101ed5780637ecebe00146102095780639552331e1461023957806395d89b4114610269576100f3565b8063313ce567116100d1578063313ce567146101635780633644e515146101815780633d27862e1461019f5780633e5beab9146101bd576100f3565b806306fdde03146100f757806318160ddd146101155780632e62b8c814610133575b5f5ffd5b6100ff61030d565b60405161010c9190611067565b60405180910390f35b61011d610398565b60405161012a919061109f565b60405180910390f35b61014d60048036038101906101489190611156565b6103a6565b60405161015a91906111ae565b60405180910390f35b61016b610439565b60405161017891906111e2565b60405180910390f35b61018961045d565b6040516101969190611213565b60405180910390f35b6101a76104b9565b6040516101b49190611287565b60405180910390f35b6101d760048036038101906101d291906112a0565b6104dd565b6040516101e4919061109f565b60405180910390f35b61020760048036038101906102029190611156565b61055e565b005b610223600480360381019061021e91906112a0565b61056c565b604051610230919061109f565b60405180910390f35b610253600480360381019061024e91906112cb565b610581565b60405161026091906111ae565b60405180910390f35b610271610762565b60405161027e9190611067565b60405180910390f35b6102a1600480360381019061029c9190611156565b6107ee565b6040516102ae91906111ae565b60405180910390f35b6102bf6108a1565b6040516102cc919061109f565b60405180910390f35b6102ef60048036038101906102ea9190611399565b6108e5565b005b61030b60048036038101906103069190611156565b610b78565b005b5f805461031990611463565b80601f016020809104026020016040519081016040528092919081815260200182805461034590611463565b80156103905780601f1061036757610100808354040283529160200191610390565b820191905f5260205f20905b81548152906001019060200180831161037357829003601f168201915b505050505081565b5f6103a1610b86565b905090565b5f8160045f3373ffffffffffffffffffffffffffffffffffffffff1673ffffffffffffffffffffffffffffffffffffffff1681526020019081526020015f205f8573ffffffffffffffffffffffffffffffffffffffff1673ffffffffffffffffffffffffffffffffffffffff1681526020019081526020015f208190b15061042f338484610b8f565b6001905092915050565b7f000000000000000000000000000000000000000000000000000000000000000081565b5f7f000000000000000000000000000000000000000000000000000000000000000046146104925761048d610d0d565b6104b4565b7f00000000000000000000000000000000000000000000000000000000000000005b905090565b7f000000000000000000000000000000000000000000000000000000000000000081565b5f60045f3373ffffffffffffffffffffffffffffffffffffffff1673ffffffffffffffffffffffffffffffffffffffff1681526020019081526020015f205f8373ffffffffffffffffffffffffffffffffffffffff1673ffffffffffffffffffffffffffffffffffffffff1681526020019081526020015f20b09050919050565b6105688282610d97565b5050565b6005602052805f5260405f205f915090505481565b5f5f60045f8673ffffffffffffffffffffffffffffffffffffffff1673ffffffffffffffffffffffffffffffffffffffff1681526020019081526020015f205f3373ffffffffffffffffffffffffffffffffffffffff1673ffffffffffffffffffffffffffffffffffffffff1681526020019081526020015f20b090507fffffffffffffffffffffffffffffffffffffffffffffffffffffffffffffffff81146106ae57828161063191906114c0565b60045f8773ffffffffffffffffffffffffffffffffffffffff1673ffffffffffffffffffffffffffffffffffffffff1681526020019081526020015f205f3373ffffffffffffffffffffffffffffffffffffffff1673ffffffffffffffffffffffffffffffffffffffff1681526020019081526020015f208190b1505b8260035f8773ffffffffffffffffffffffffffffffffffffffff1673ffffffffffffffffffffffffffffffffffffffff1681526020019081526020015f205f8282b06106fa91906114c0565b9250508190b1508260035f8673ffffffffffffffffffffffffffffffffffffffff1673ffffffffffffffffffffffffffffffffffffffff1681526020019081526020015f205f8282b0019250508190b150610756858585610e08565b60019150509392505050565b6001805461076f90611463565b80601f016020809104026020016040519081016040528092919081815260200182805461079b90611463565b80156107e65780601f106107bd576101008083540402835291602001916107e6565b820191905f5260205f20905b8154815290600101906020018083116107c957829003601f168201915b505050505081565b5f8160035f3373ffffffffffffffffffffffffffffffffffffffff1673ffffffffffffffffffffffffffffffffffffffff1681526020019081526020015f205f8282b061083b91906114c0565b9250508190b1508160035f8573ffffffffffffffffffffffffffffffffffffffff1673ffffffffffffffffffffffffffffffffffffffff1681526020019081526020015f205f8282b0019250508190b150610897338484610e08565b6001905092915050565b5f60035f3373ffffffffffffffffffffffffffffffffffffffff1673ffffffffffffffffffffffffffffffffffffffff1681526020019081526020015f20b0905090565b42841015610928576040517f08c379a000000000000000000000000000000000000000000000000000000000815260040161091f9061153d565b60405180910390fd5b5f600161093361045d565b7f6e71edae12b1b97f4d1f60370fef10105fa2faae0126114a169c64845d6126c98a8a8a60055f8f73ffffffffffffffffffffffffffffffffffffffff1673ffffffffffffffffffffffffffffffffffffffff1681526020019081526020015f205f815480929190600101919050558b6040516020016109b896959493929190611579565b604051602081830303815290604052805190602001206040516020016109df92919061164c565b604051602081830303815290604052805190602001208585856040515f8152602001604052604051610a149493929190611682565b6020604051602081039080840390855afa158015610a34573d5f5f3e3d5ffd5b5050506020604051035190505f73ffffffffffffffffffffffffffffffffffffffff168173ffffffffffffffffffffffffffffffffffffffff1614158015610aa757508773ffffffffffffffffffffffffffffffffffffffff168173ffffffffffffffffffffffffffffffffffffffff16145b610ae6576040517f08c379a0000000000000000000000000000000000000000000000000000000008152600401610add9061170f565b60405180910390fd5b8560045f8373ffffffffffffffffffffffffffffffffffffffff1673ffffffffffffffffffffffffffffffffffffffff1681526020019081526020015f205f8973ffffffffffffffffffffffffffffffffffffffff1673ffffffffffffffffffffffffffffffffffffffff1681526020019081526020015f208190b15050610b6f878787610b8f565b50505050505050565b610b828282610f86565b5050565b5f6002b0905090565b5f5f7f000000000000000000000000000000000000000000000000000000000000000073ffffffffffffffffffffffffffffffffffffffff166331b00e4684604051602001610bde919061174d565b6040516020818303038152906040526040518263ffffffff1660e01b8152600401610c0991906117b9565b5f604051808303815f875af1158015610c24573d5f5f3e3d5ffd5b505050506040513d5f823e3d601f19601f82011682018060405250810190610c4c9190611aad565b915091505f5f90505b8151811015610d0557828181518110610c7157610c70611b23565b5b60200260200101518573ffffffffffffffffffffffffffffffffffffffff168773ffffffffffffffffffffffffffffffffffffffff167f8ef65e17890b61a4796f8848475471f8895cd361b1de7e7260a6800ba0623f40858581518110610cdb57610cda611b23565b5b6020026020010151604051610cf091906117b9565b60405180910390a48080600101915050610c55565b505050505050565b5f7f8b73c3c69bb8fe3d512ecc4cf759cc79239f7b179b0ffacaa9a75d522b39400f5f604051610d3d9190611bec565b60405180910390207fc89efdaa54c0f20c7adf612882df0950f5a951637e0307cdcb4c672f298b8bc64630604051602001610d7c959493929190611c02565b60405160208183030381529060405280519060200120905090565b8060035f8473ffffffffffffffffffffffffffffffffffffffff1673ffffffffffffffffffffffffffffffffffffffff1681526020019081526020015f205f8282b0610de391906114c0565b9250508190b1508060025f8282b0039250508190b150610e04825f83610e08565b5050565b5f5f7f000000000000000000000000000000000000000000000000000000000000000073ffffffffffffffffffffffffffffffffffffffff166331b00e4684604051602001610e57919061174d565b6040516020818303038152906040526040518263ffffffff1660e01b8152600401610e8291906117b9565b5f604051808303815f875af1158015610e9d573d5f5f3e3d5ffd5b505050506040513d5f823e3d601f19601f82011682018060405250810190610ec59190611aad565b915091505f5f90505b8151811015610f7e57828181518110610eea57610ee9611b23565b5b60200260200101518573ffffffffffffffffffffffffffffffffffffffff168773ffffffffffffffffffffffffffffffffffffffff167f80ffa007a69623ef13594f5e8178eee6c4ef2d0cba74c08329e879f695b7d3f6858581518110610f5457610f53611b23565b5b6020026020010151604051610f6991906117b9565b60405180910390a48080600101915050610ece565b505050505050565b8060025f8282b0610f979190611c53565b9250508190b1508060035f8473ffffffffffffffffffffffffffffffffffffffff1673ffffffffffffffffffffffffffffffffffffffff1681526020019081526020015f205f8282b0019250508190b150610ff35f8383610e08565b5050565b5f81519050919050565b5f82825260208201905092915050565b8281835e5f83830152505050565b5f601f19601f8301169050919050565b5f61103982610ff7565b6110438185611001565b9350611053818560208601611011565b61105c8161101f565b840191505092915050565b5f6020820190508181035f83015261107f818461102f565b905092915050565b5f819050919050565b61109981611087565b82525050565b5f6020820190506110b25f830184611090565b92915050565b5f604051905090565b5f5ffd5b5f5ffd5b5f73ffffffffffffffffffffffffffffffffffffffff82169050919050565b5f6110f2826110c9565b9050919050565b611102816110e8565b811461110c575f5ffd5b50565b5f8135905061111d816110f9565b92915050565b5f819050919050565b61113581611123565b811461113f575f5ffd5b50565b5f813590506111508161112c565b92915050565b5f5f6040838503121561116c5761116b6110c1565b5b5f6111798582860161110f565b925050602061118a85828601611142565b9150509250929050565b5f8115159050919050565b6111a881611194565b82525050565b5f6020820190506111c15f83018461119f565b92915050565b5f60ff82169050919050565b6111dc816111c7565b82525050565b5f6020820190506111f55f8301846111d3565b92915050565b5f819050919050565b61120d816111fb565b82525050565b5f6020820190506112265f830184611204565b92915050565b5f819050919050565b5f61124f61124a611245846110c9565b61122c565b6110c9565b9050919050565b5f61126082611235565b9050919050565b5f61127182611256565b9050919050565b61128181611267565b82525050565b5f60208201905061129a5f830184611278565b92915050565b5f602082840312156112b5576112b46110c1565b5b5f6112c28482850161110f565b91505092915050565b5f5f5f606084860312156112e2576112e16110c1565b5b5f6112ef8682870161110f565b93505060206113008682870161110f565b925050604061131186828701611142565b9150509250925092565b61132481611087565b811461132e575f5ffd5b50565b5f8135905061133f8161131b565b92915050565b61134e816111c7565b8114611358575f5ffd5b50565b5f8135905061136981611345565b92915050565b611378816111fb565b8114611382575f5ffd5b50565b5f813590506113938161136f565b92915050565b5f5f5f5f5f5f5f60e0888a0312156113b4576113b36110c1565b5b5f6113c18a828b0161110f565b97505060206113d28a828b0161110f565b96505060406113e38a828b01611142565b95505060606113f48a828b01611331565b94505060806114058a828b0161135b565b93505060a06114168a828b01611385565b92505060c06114278a828b01611385565b91505092959891949750929550565b7f4e487b71000000000000000000000000000000000000000000000000000000005f52602260045260245ffd5b5f600282049050600182168061147a57607f821691505b60208210810361148d5761148c611436565b5b50919050565b7f4e487b71000000000000000000000000000000000000000000000000000000005f52601160045260245ffd5b5f6114ca82611123565b91506114d583611123565b92508282039050818111156114ed576114ec611493565b5b92915050565b7f5045524d49545f444541444c494e455f455850495245440000000000000000005f82015250565b5f611527601783611001565b9150611532826114f3565b602082019050919050565b5f6020820190508181035f8301526115548161151b565b9050919050565b611564816110e8565b82525050565b61157381611123565b82525050565b5f60c08201905061158c5f830189611204565b611599602083018861155b565b6115a6604083018761155b565b6115b3606083018661156a565b6115c06080830185611090565b6115cd60a0830184611090565b979650505050505050565b5f81905092915050565b7f19010000000000000000000000000000000000000000000000000000000000005f82015250565b5f6116166002836115d8565b9150611621826115e2565b600282019050919050565b5f819050919050565b611646611641826111fb565b61162c565b82525050565b5f6116568261160a565b91506116628285611635565b6020820191506116728284611635565b6020820191508190509392505050565b5f6080820190506116955f830187611204565b6116a260208301866111d3565b6116af6040830185611204565b6116bc6060830184611204565b95945050505050565b7f494e56414c49445f5349474e45520000000000000000000000000000000000005f82015250565b5f6116f9600e83611001565b9150611704826116c5565b602082019050919050565b5f6020820190508181035f830152611726816116ed565b9050919050565b5f819050919050565b61174761174282611123565b61172d565b82525050565b5f6117588284611736565b60208201915081905092915050565b5f81519050919050565b5f82825260208201905092915050565b5f61178b82611767565b6117958185611771565b93506117a5818560208601611011565b6117ae8161101f565b840191505092915050565b5f6020820190508181035f8301526117d18184611781565b905092915050565b5f5ffd5b7f4e487b71000000000000000000000000000000000000000000000000000000005f52604160045260245ffd5b6118138261101f565b810181811067ffffffffffffffff82111715611832576118316117dd565b5b80604052505050565b5f6118446110b8565b9050611850828261180a565b919050565b5f67ffffffffffffffff82111561186f5761186e6117dd565b5b602082029050602081019050919050565b5f5ffd5b5f815190506118928161136f565b92915050565b5f6118aa6118a584611855565b61183b565b905080838252602082019050602084028301858111156118cd576118cc611880565b5b835b818110156118f657806118e28882611884565b8452602084019350506020810190506118cf565b5050509392505050565b5f82601f830112611914576119136117d9565b5b8151611924848260208601611898565b91505092915050565b5f67ffffffffffffffff821115611947576119466117dd565b5b602082029050602081019050919050565b5f5ffd5b5f67ffffffffffffffff821115611976576119756117dd565b5b61197f8261101f565b9050602081019050919050565b5f61199e6119998461195c565b61183b565b9050828152602081018484840111156119ba576119b9611958565b5b6119c5848285611011565b509392505050565b5f82601f8301126119e1576119e06117d9565b5b81516119f184826020860161198c565b91505092915050565b5f611a0c611a078461192d565b61183b565b90508083825260208201905060208402830185811115611a2f57611a2e611880565b5b835b81811015611a7657805167ffffffffffffffff811115611a5457611a536117d9565b5b808601611a6189826119cd565b85526020850194505050602081019050611a31565b5050509392505050565b5f82601f830112611a9457611a936117d9565b5b8151611aa48482602086016119fa565b91505092915050565b5f5f60408385031215611ac357611ac26110c1565b5b5f83015167ffffffffffffffff811115611ae057611adf6110c5565b5b611aec85828601611900565b925050602083015167ffffffffffffffff811115611b0d57611b0c6110c5565b5b611b1985828601611a80565b9150509250929050565b7f4e487b71000000000000000000000000000000000000000000000000000000005f52603260045260245ffd5b5f81905092915050565b5f819050815f5260205f209050919050565b5f8154611b7881611463565b611b828186611b50565b9450600182165f8114611b9c5760018114611bb157611be3565b60ff1983168652811515820286019350611be3565b611bba85611b5a565b5f5b83811015611bdb57815481890152600182019150602081019050611bbc565b838801955050505b50505092915050565b5f611bf78284611b6c565b915081905092915050565b5f60a082019050611c155f830188611204565b611c226020830187611204565b611c2f6040830186611204565b611c3c6060830185611090565b611c49608083018461155b565b9695505050505050565b5f611c5d82611123565b9150611c6883611123565b9250828201905080821115611c8057611c7f611493565b5b9291505056fea2646970667358221220c8cac8891f2ee15de7d958b98a4e20456afc4b38aba0c1c9cce0bff741daced364736f6c637829302e382e33312d646576656c6f702e323032352e31312e31322b636f6d6d69742e3637366264656363005a","linkReferences":{}},"methodIdentifiers":{"DOMAIN_SEPARATOR()":"3644e515","allowance(address)":"3e5beab9","approve(address,suint256)":"2e62b8c8","balance()":"b69ef8a8","burn(address,suint256)":"68787310","decimals()":"313ce567","intelligence()":"3d27862e","mint(address,suint256)":"d590f35f","name()":"06fdde03","nonces(address)":"7ecebe00","permit(address,address,suint256,uint256,uint8,bytes32,bytes32)":"bdda9413","symbol()":"95d89b41","totalSupply()":"18160ddd","transfer(address,suint256)":"b10c99b5","transferFrom(address,address,suint256)":"9552331e"},"id":21}