{"abi":[{"type":"constructor","inputs":[{"name":"_name","type":"string","internalType":"string"},{"name":"_symbol","type":"string","internalType":"string"},{"name":"_decimals","type":"uint8","internalType":"uint8"}],"stateMutability":"nonpayable"},{"type":"function","name":"DIRECTORY_ADDRESS","inputs":[],"outputs":[{"name":"","type":"address","internalType":"address"}],"stateMutability":"view"},{"type":"function","name":"DOMAIN_SEPARATOR","inputs":[],"outputs":[{"name":"","type":"bytes32","internalType":"bytes32"}],"stateMutability":"view"},{"type":"function","name":"INTELLIGENCE_ADDRESS","inputs":[],"outputs":[{"name":"","type":"address","internalType":"address"}],"stateMutability":"view"},{"type":"function","name":"allowance","inputs":[{"name":"spender","type":"address","internalType":"address"}],"outputs":[{"name":"","type":"uint256","internalType":"uint256"}],"stateMutability":"view"},{"type":"function","name":"approve","inputs":[{"name":"spender","type":"address","internalType":"address"},{"name":"amount","type":"suint256","internalType":"suint256"}],"outputs":[{"name":"","type":"bool","internalType":"bool"}],"stateMutability":"nonpayable"},{"type":"function","name":"balance","inputs":[],"outputs":[{"name":"","type":"uint256","internalType":"uint256"}],"stateMutability":"view"},{"type":"function","name":"balanceOfSigned","inputs":[{"name":"owner","type":"address","internalType":"address"},{"name":"expiry","type":"uint256","internalType":"uint256"},{"name":"signature","type":"bytes","internalType":"bytes"}],"outputs":[{"name":"","type":"uint256","internalType":"uint256"}],"stateMutability":"view"},{"type":"function","name":"burn","inputs":[{"name":"from","type":"address","internalType":"address"},{"name":"value","type":"suint256","internalType":"suint256"}],"outputs":[],"stateMutability":"nonpayable"},{"type":"function","name":"decimals","inputs":[],"outputs":[{"name":"","type":"uint8","internalType":"uint8"}],"stateMutability":"view"},{"type":"function","name":"directory","inputs":[],"outputs":[{"name":"","type":"address","internalType":"contract IDirectory"}],"stateMutability":"view"},{"type":"function","name":"intelligence","inputs":[],"outputs":[{"name":"","type":"address","internalType":"contract IIntelligence"}],"stateMutability":"view"},{"type":"function","name":"mint","inputs":[{"name":"to","type":"address","internalType":"address"},{"name":"value","type":"suint256","internalType":"suint256"}],"outputs":[],"stateMutability":"nonpayable"},{"type":"function","name":"name","inputs":[],"outputs":[{"name":"","type":"string","internalType":"string"}],"stateMutability":"view"},{"type":"function","name":"nonces","inputs":[{"name":"","type":"address","internalType":"address"}],"outputs":[{"name":"","type":"uint256","internalType":"uint256"}],"stateMutability":"view"},{"type":"function","name":"permit","inputs":[{"name":"owner","type":"address","internalType":"address"},{"name":"spender","type":"address","internalType":"address"},{"name":"value","type":"suint256","internalType":"suint256"},{"name":"deadline","type":"uint256","internalType":"uint256"},{"name":"v","type":"uint8","internalType":"uint8"},{"name":"r","type":"bytes32","internalType":"bytes32"},{"name":"s","type":"bytes32","internalType":"bytes32"}],"outputs":[],"stateMutability":"nonpayable"},{"type":"function","name":"symbol","inputs":[],"outputs":[{"name":"","type":"string","internalType":"string"}],"stateMutability":"view"},{"type":"function","name":"totalSupply","inputs":[],"outputs":[{"name":"","type":"uint256","internalType":"uint256"}],"stateMutability":"view"},{"type":"function","name":"transfer","inputs":[{"name":"to","type":"address","internalType":"address"},{"name":"amount","type":"suint256","internalType":"suint256"}],"outputs":[{"name":"","type":"bool","internalType":"bool"}],"stateMutability":"nonpayable"},{"type":"function","name":"transferFrom","inputs":[{"name":"from","type":"address","internalType":"address"},{"name":"to","type":"address","internalType":"address"},{"name":"amount","type":"suint256","internalType":"suint256"}],"outputs":[{"name":"","type":"bool","internalType":"bool"}],"stateMutability":"nonpayable"},{"type":"event","name":"Approval","inputs":[{"name":"owner","type":"address","indexed":true,"internalType":"address"},{"name":"spender","type":"address","indexed":true,"internalType":"address"},{"name":"encryptKeyHash","type":"bytes32","indexed":true,"internalType":"bytes32"},{"name":"encryptedAmount","type":"bytes","indexed":false,"internalType":"bytes"}],"anonymous":false},{"type":"event","name":"Transfer","inputs":[{"name":"from","type":"address","indexed":true,"internalType":"address"},{"name":"to","type":"address","indexed":true,"internalType":"address"},{"name":"encryptKeyHash","type":"bytes32","indexed":true,"internalType":"bytes32"},{"name":"encryptedAmount","type":"bytes","indexed":false,"internalType":"bytes"}],"anonymous":false}],"bytecode":{"object":"0x60e060405234801561000f575f5ffd5b5060405161319438038061319483398181016040528101906100319190610296565b828282825f9081610042919061052e565b508160019081610052919061052e565b508060ff1660808160ff16815250504660a0818152505061007761008960201b60201c565b60c08181525050505050505050610766565b5f7f8b73c3c69bb8fe3d512ecc4cf759cc79239f7b179b0ffacaa9a75d522b39400f5f6040516100b99190610699565b60405180910390207fc89efdaa54c0f20c7adf612882df0950f5a951637e0307cdcb4c672f298b8bc646306040516020016100f8959493929190610715565b60405160208183030381529060405280519060200120905090565b5f604051905090565b5f5ffd5b5f5ffd5b5f5ffd5b5f5ffd5b5f601f19601f8301169050919050565b7f4e487b71000000000000000000000000000000000000000000000000000000005f52604160045260245ffd5b6101728261012c565b810181811067ffffffffffffffff821117156101915761019061013c565b5b80604052505050565b5f6101a3610113565b90506101af8282610169565b919050565b5f67ffffffffffffffff8211156101ce576101cd61013c565b5b6101d78261012c565b9050602081019050919050565b8281835e5f83830152505050565b5f6102046101ff846101b4565b61019a565b9050828152602081018484840111156102205761021f610128565b5b61022b8482856101e4565b509392505050565b5f82601f83011261024757610246610124565b5b81516102578482602086016101f2565b91505092915050565b5f60ff82169050919050565b61027581610260565b811461027f575f5ffd5b50565b5f815190506102908161026c565b92915050565b5f5f5f606084860312156102ad576102ac61011c565b5b5f84015167ffffffffffffffff8111156102ca576102c9610120565b5b6102d686828701610233565b935050602084015167ffffffffffffffff8111156102f7576102f6610120565b5b61030386828701610233565b925050604061031486828701610282565b9150509250925092565b5f81519050919050565b7f4e487b71000000000000000000000000000000000000000000000000000000005f52602260045260245ffd5b5f600282049050600182168061036c57607f821691505b60208210810361037f5761037e610328565b5b50919050565b5f819050815f5260205f209050919050565b5f6020601f8301049050919050565b5f82821b905092915050565b5f600883026103e17fffffffffffffffffffffffffffffffffffffffffffffffffffffffffffffffff826103a6565b6103eb86836103a6565b95508019841693508086168417925050509392505050565b5f819050919050565b5f819050919050565b5f61042f61042a61042584610403565b61040c565b610403565b9050919050565b5f819050919050565b61044883610415565b61045c61045482610436565b8484546103b2565b825550505050565b5f5f905090565b610473610464565b61047e81848461043f565b505050565b5b818110156104a1576104965f8261046b565b600181019050610484565b5050565b601f8211156104e6576104b781610385565b6104c084610397565b810160208510156104cf578190505b6104e36104db85610397565b830182610483565b50505b505050565b5f82821c905092915050565b5f6105065f19846008026104eb565b1980831691505092915050565b5f61051e83836104f7565b9150826002028217905092915050565b6105378261031e565b67ffffffffffffffff8111156105505761054f61013c565b5b61055a8254610355565b6105658282856104a5565b5f60209050601f831160018114610596575f8415610584578287015190505b61058e8582610513565b8655506105f5565b601f1984166105a486610385565b5f5b828110156105cb578489015182556001820191506020850194506020810190506105a6565b868310156105e857848901516105e4601f8916826104f7565b8355505b6001600288020188555050505b505050505050565b5f81905092915050565b5f819050815f5260205f209050919050565b5f815461062581610355565b61062f81866105fd565b9450600182165f8114610649576001811461065e57610690565b60ff1983168652811515820286019350610690565b61066785610607565b5f5b8381101561068857815481890152600182019150602081019050610669565b838801955050505b50505092915050565b5f6106a48284610619565b915081905092915050565b5f819050919050565b6106c1816106af565b82525050565b6106d081610403565b82525050565b5f73ffffffffffffffffffffffffffffffffffffffff82169050919050565b5f6106ff826106d6565b9050919050565b61070f816106f5565b82525050565b5f60a0820190506107285f8301886106b8565b61073560208301876106b8565b61074260408301866106b8565b61074f60608301856106c7565b61075c6080830184610706565b9695505050505050565b60805160a05160c051612a046107905f395f61054a01525f61051601525f6104f10152612a045ff3fe608060405234801561000f575f5ffd5b506004361061011f575f3560e01c80637ecebe00116100ab578063b9b8dea01161006f578063b9b8dea014610331578063ba1ab2911461034f578063bdda94131461036d578063c41c2f2414610389578063d590f35f146103a75761011f565b80637ecebe00146102655780639552331e1461029557806395d89b41146102c5578063b10c99b5146102e3578063b69ef8a8146103135761011f565b80633644e515116100f25780633644e515146101ad5780633d27862e146101cb5780633e5beab9146101e95780635253f9191461021957806368787310146102495761011f565b806306fdde031461012357806318160ddd146101415780632e62b8c81461015f578063313ce5671461018f575b5f5ffd5b61012b6103c3565b60405161013891906118eb565b60405180910390f35b61014961044e565b6040516101569190611923565b60405180910390f35b610179600480360381019061017491906119da565b61045c565b6040516101869190611a32565b60405180910390f35b6101976104ef565b6040516101a49190611a66565b60405180910390f35b6101b5610513565b6040516101c29190611a97565b60405180910390f35b6101d361056f565b6040516101e09190611b0b565b60405180910390f35b61020360048036038101906101fe9190611b24565b610587565b6040516102109190611923565b60405180910390f35b610233600480360381019061022e9190611bda565b610608565b6040516102409190611923565b60405180910390f35b610263600480360381019061025e91906119da565b610842565b005b61027f600480360381019061027a9190611b24565b610850565b60405161028c9190611923565b60405180910390f35b6102af60048036038101906102aa9190611c4b565b610865565b6040516102bc9190611a32565b60405180910390f35b6102cd610a46565b6040516102da91906118eb565b60405180910390f35b6102fd60048036038101906102f891906119da565b610ad2565b60405161030a9190611a32565b60405180910390f35b61031b610b85565b6040516103289190611923565b60405180910390f35b610339610bc9565b6040516103469190611caa565b60405180910390f35b610357610be1565b6040516103649190611caa565b60405180910390f35b61038760048036038101906103829190611d17565b610bf9565b005b610391610e8c565b60405161039e9190611dd4565b60405180910390f35b6103c160048036038101906103bc91906119da565b610ea4565b005b5f80546103cf90611e1a565b80601f01602080910402602001604051908101604052809291908181526020018280546103fb90611e1a565b80156104465780601f1061041d57610100808354040283529160200191610446565b820191905f5260205f20905b81548152906001019060200180831161042957829003601f168201915b505050505081565b5f610457610eb2565b905090565b5f8160045f3373ffffffffffffffffffffffffffffffffffffffff1673ffffffffffffffffffffffffffffffffffffffff1681526020019081526020015f205f8573ffffffffffffffffffffffffffffffffffffffff1673ffffffffffffffffffffffffffffffffffffffff1681526020019081526020015f208190b1506104e5338484610ebb565b6001905092915050565b7f000000000000000000000000000000000000000000000000000000000000000081565b5f7f00000000000000000000000000000000000000000000000000000000000000004614610548576105436112e5565b61056a565b7f00000000000000000000000000000000000000000000000000000000000000005b905090565b73100000000000000000000000000000000000000581565b5f60045f3373ffffffffffffffffffffffffffffffffffffffff1673ffffffffffffffffffffffffffffffffffffffff1681526020019081526020015f205f8373ffffffffffffffffffffffffffffffffffffffff1673ffffffffffffffffffffffffffffffffffffffff1681526020019081526020015f20b09050919050565b5f8342111561064c576040517f08c379a000000000000000000000000000000000000000000000000000000000815260040161064390611e94565b60405180910390fd5b60418383905014610692576040517f08c379a000000000000000000000000000000000000000000000000000000000815260040161068990611efc565b60405180910390fd5b5f85856040516020016106a6929190611fd3565b6040516020818303038152906040528051906020012090505f816040516020016106d09190612073565b6040516020818303038152906040528051906020012090505f5f5f873592506020880135915060408801355f1a90505f6001858386866040515f81526020016040526040516107229493929190612098565b6020604051602081039080840390855afa158015610742573d5f5f3e3d5ffd5b5050506020604051035190505f73ffffffffffffffffffffffffffffffffffffffff168173ffffffffffffffffffffffffffffffffffffffff16141580156107b557508a73ffffffffffffffffffffffffffffffffffffffff168173ffffffffffffffffffffffffffffffffffffffff16145b6107f4576040517f08c379a00000000000000000000000000000000000000000000000000000000081526004016107eb90612125565b60405180910390fd5b60035f8c73ffffffffffffffffffffffffffffffffffffffff1673ffffffffffffffffffffffffffffffffffffffff1681526020019081526020015f20b09650505050505050949350505050565b61084c828261136f565b5050565b6005602052805f5260405f205f915090505481565b5f5f60045f8673ffffffffffffffffffffffffffffffffffffffff1673ffffffffffffffffffffffffffffffffffffffff1681526020019081526020015f205f3373ffffffffffffffffffffffffffffffffffffffff1673ffffffffffffffffffffffffffffffffffffffff1681526020019081526020015f20b090507fffffffffffffffffffffffffffffffffffffffffffffffffffffffffffffffff81146109925782816109159190612170565b60045f8773ffffffffffffffffffffffffffffffffffffffff1673ffffffffffffffffffffffffffffffffffffffff1681526020019081526020015f205f3373ffffffffffffffffffffffffffffffffffffffff1673ffffffffffffffffffffffffffffffffffffffff1681526020019081526020015f208190b1505b8260035f8773ffffffffffffffffffffffffffffffffffffffff1673ffffffffffffffffffffffffffffffffffffffff1681526020019081526020015f205f8282b06109de9190612170565b9250508190b1508260035f8673ffffffffffffffffffffffffffffffffffffffff1673ffffffffffffffffffffffffffffffffffffffff1681526020019081526020015f205f8282b0019250508190b150610a3a8585856113e0565b60019150509392505050565b60018054610a5390611e1a565b80601f0160208091040260200160405190810160405280929190818152602001828054610a7f90611e1a565b8015610aca5780601f10610aa157610100808354040283529160200191610aca565b820191905f5260205f20905b815481529060010190602001808311610aad57829003601f168201915b505050505081565b5f8160035f3373ffffffffffffffffffffffffffffffffffffffff1673ffffffffffffffffffffffffffffffffffffffff1681526020019081526020015f205f8282b0610b1f9190612170565b9250508190b1508160035f8573ffffffffffffffffffffffffffffffffffffffff1673ffffffffffffffffffffffffffffffffffffffff1681526020019081526020015f205f8282b0019250508190b150610b7b3384846113e0565b6001905092915050565b5f60035f3373ffffffffffffffffffffffffffffffffffffffff1673ffffffffffffffffffffffffffffffffffffffff1681526020019081526020015f20b0905090565b73100000000000000000000000000000000000000581565b73100000000000000000000000000000000000000481565b42841015610c3c576040517f08c379a0000000000000000000000000000000000000000000000000000000008152600401610c33906121ed565b60405180910390fd5b5f6001610c47610513565b7f6e71edae12b1b97f4d1f60370fef10105fa2faae0126114a169c64845d6126c98a8a8a60055f8f73ffffffffffffffffffffffffffffffffffffffff1673ffffffffffffffffffffffffffffffffffffffff1681526020019081526020015f205f815480929190600101919050558b604051602001610ccc9695949392919061221a565b60405160208183030381529060405280519060200120604051602001610cf39291906122c3565b604051602081830303815290604052805190602001208585856040515f8152602001604052604051610d289493929190612098565b6020604051602081039080840390855afa158015610d48573d5f5f3e3d5ffd5b5050506020604051035190505f73ffffffffffffffffffffffffffffffffffffffff168173ffffffffffffffffffffffffffffffffffffffff1614158015610dbb57508773ffffffffffffffffffffffffffffffffffffffff168173ffffffffffffffffffffffffffffffffffffffff16145b610dfa576040517f08c379a0000000000000000000000000000000000000000000000000000000008152600401610df190612343565b60405180910390fd5b8560045f8373ffffffffffffffffffffffffffffffffffffffff1673ffffffffffffffffffffffffffffffffffffffff1681526020019081526020015f205f8973ffffffffffffffffffffffffffffffffffffffff1673ffffffffffffffffffffffffffffffffffffffff1681526020019081526020015f208190b15050610e83878787610ebb565b50505050505050565b73100000000000000000000000000000000000000481565b610eae828261180a565b5050565b5f6002b0905090565b5f5f73100000000000000000000000000000000000000573ffffffffffffffffffffffffffffffffffffffff16634a8fcf9a84604051602001610efe9190612381565b6040516020818303038152906040526040518263ffffffff1660e01b8152600401610f2991906123ed565b5f604051808303815f875af1158015610f44573d5f5f3e3d5ffd5b505050506040513d5f823e3d601f19601f82011682018060405250810190610f6c91906126d9565b915091505f5f90505b815181101561102557828181518110610f9157610f9061274f565b5b60200260200101518573ffffffffffffffffffffffffffffffffffffffff168773ffffffffffffffffffffffffffffffffffffffff167f8ef65e17890b61a4796f8848475471f8895cd361b1de7e7260a6800ba0623f40858581518110610ffb57610ffa61274f565b5b602002602001015160405161101091906123ed565b60405180910390a48080600101915050610f75565b5073100000000000000000000000000000000000000473ffffffffffffffffffffffffffffffffffffffff16638b2f9fd1856040518263ffffffff1660e01b81526004016110739190611caa565b602060405180830381865afa15801561108e573d5f5f3e3d5ffd5b505050506040513d601f19601f820116820180604052508101906110b291906127a6565b15611267575f73100000000000000000000000000000000000000473ffffffffffffffffffffffffffffffffffffffff1663eefbaf18866040518263ffffffff1660e01b81526004016111059190611caa565b602060405180830381865afa158015611120573d5f5f3e3d5ffd5b505050506040513d601f19601f8201168201806040525081019061114491906127d1565b90505f73100000000000000000000000000000000000000473ffffffffffffffffffffffffffffffffffffffff1663b7f5f9b787876040516020016111899190612381565b6040516020818303038152906040526040518363ffffffff1660e01b81526004016111b59291906127fc565b5f604051808303815f875af11580156111d0573d5f5f3e3d5ffd5b505050506040513d5f823e3d601f19601f820116820180604052508101906111f8919061282a565b9050818673ffffffffffffffffffffffffffffffffffffffff168873ffffffffffffffffffffffffffffffffffffffff167f8ef65e17890b61a4796f8848475471f8895cd361b1de7e7260a6800ba0623f408460405161125891906123ed565b60405180910390a450506112de565b5f5f1b8473ffffffffffffffffffffffffffffffffffffffff168673ffffffffffffffffffffffffffffffffffffffff167f8ef65e17890b61a4796f8848475471f8895cd361b1de7e7260a6800ba0623f4060405180602001604052805f8152506040516112d591906123ed565b60405180910390a45b5050505050565b5f7f8b73c3c69bb8fe3d512ecc4cf759cc79239f7b179b0ffacaa9a75d522b39400f5f604051611315919061290d565b60405180910390207fc89efdaa54c0f20c7adf612882df0950f5a951637e0307cdcb4c672f298b8bc64630604051602001611354959493929190612923565b60405160208183030381529060405280519060200120905090565b8060035f8473ffffffffffffffffffffffffffffffffffffffff1673ffffffffffffffffffffffffffffffffffffffff1681526020019081526020015f205f8282b06113bb9190612170565b9250508190b1508060025f8282b0039250508190b1506113dc825f836113e0565b5050565b5f5f73100000000000000000000000000000000000000573ffffffffffffffffffffffffffffffffffffffff16634a8fcf9a846040516020016114239190612381565b6040516020818303038152906040526040518263ffffffff1660e01b815260040161144e91906123ed565b5f604051808303815f875af1158015611469573d5f5f3e3d5ffd5b505050506040513d5f823e3d601f19601f8201168201806040525081019061149191906126d9565b915091505f5f90505b815181101561154a578281815181106114b6576114b561274f565b5b60200260200101518573ffffffffffffffffffffffffffffffffffffffff168773ffffffffffffffffffffffffffffffffffffffff167f80ffa007a69623ef13594f5e8178eee6c4ef2d0cba74c08329e879f695b7d3f68585815181106115205761151f61274f565b5b602002602001015160405161153591906123ed565b60405180910390a4808060010191505061149a565b5073100000000000000000000000000000000000000473ffffffffffffffffffffffffffffffffffffffff16638b2f9fd1856040518263ffffffff1660e01b81526004016115989190611caa565b602060405180830381865afa1580156115b3573d5f5f3e3d5ffd5b505050506040513d601f19601f820116820180604052508101906115d791906127a6565b1561178c575f73100000000000000000000000000000000000000473ffffffffffffffffffffffffffffffffffffffff1663eefbaf18866040518263ffffffff1660e01b815260040161162a9190611caa565b602060405180830381865afa158015611645573d5f5f3e3d5ffd5b505050506040513d601f19601f8201168201806040525081019061166991906127d1565b90505f73100000000000000000000000000000000000000473ffffffffffffffffffffffffffffffffffffffff1663b7f5f9b787876040516020016116ae9190612381565b6040516020818303038152906040526040518363ffffffff1660e01b81526004016116da9291906127fc565b5f604051808303815f875af11580156116f5573d5f5f3e3d5ffd5b505050506040513d5f823e3d601f19601f8201168201806040525081019061171d919061282a565b9050818673ffffffffffffffffffffffffffffffffffffffff168873ffffffffffffffffffffffffffffffffffffffff167f80ffa007a69623ef13594f5e8178eee6c4ef2d0cba74c08329e879f695b7d3f68460405161177d91906123ed565b60405180910390a45050611803565b5f5f1b8473ffffffffffffffffffffffffffffffffffffffff168673ffffffffffffffffffffffffffffffffffffffff167f80ffa007a69623ef13594f5e8178eee6c4ef2d0cba74c08329e879f695b7d3f660405180602001604052805f8152506040516117fa91906123ed565b60405180910390a45b5050505050565b8060025f8282b061181b9190612974565b9250508190b1508060035f8473ffffffffffffffffffffffffffffffffffffffff1673ffffffffffffffffffffffffffffffffffffffff1681526020019081526020015f205f8282b0019250508190b1506118775f83836113e0565b5050565b5f81519050919050565b5f82825260208201905092915050565b8281835e5f83830152505050565b5f601f19601f8301169050919050565b5f6118bd8261187b565b6118c78185611885565b93506118d7818560208601611895565b6118e0816118a3565b840191505092915050565b5f6020820190508181035f83015261190381846118b3565b905092915050565b5f819050919050565b61191d8161190b565b82525050565b5f6020820190506119365f830184611914565b92915050565b5f604051905090565b5f5ffd5b5f5ffd5b5f73ffffffffffffffffffffffffffffffffffffffff82169050919050565b5f6119768261194d565b9050919050565b6119868161196c565b8114611990575f5ffd5b50565b5f813590506119a18161197d565b92915050565b5f819050919050565b6119b9816119a7565b81146119c3575f5ffd5b50565b5f813590506119d4816119b0565b92915050565b5f5f604083850312156119f0576119ef611945565b5b5f6119fd85828601611993565b9250506020611a0e858286016119c6565b9150509250929050565b5f8115159050919050565b611a2c81611a18565b82525050565b5f602082019050611a455f830184611a23565b92915050565b5f60ff82169050919050565b611a6081611a4b565b82525050565b5f602082019050611a795f830184611a57565b92915050565b5f819050919050565b611a9181611a7f565b82525050565b5f602082019050611aaa5f830184611a88565b92915050565b5f819050919050565b5f611ad3611ace611ac98461194d565b611ab0565b61194d565b9050919050565b5f611ae482611ab9565b9050919050565b5f611af582611ada565b9050919050565b611b0581611aeb565b82525050565b5f602082019050611b1e5f830184611afc565b92915050565b5f60208284031215611b3957611b38611945565b5b5f611b4684828501611993565b91505092915050565b611b588161190b565b8114611b62575f5ffd5b50565b5f81359050611b7381611b4f565b92915050565b5f5ffd5b5f5ffd5b5f5ffd5b5f5f83601f840112611b9a57611b99611b79565b5b8235905067ffffffffffffffff811115611bb757611bb6611b7d565b5b602083019150836001820283011115611bd357611bd2611b81565b5b9250929050565b5f5f5f5f60608587031215611bf257611bf1611945565b5b5f611bff87828801611993565b9450506020611c1087828801611b65565b935050604085013567ffffffffffffffff811115611c3157611c30611949565b5b611c3d87828801611b85565b925092505092959194509250565b5f5f5f60608486031215611c6257611c61611945565b5b5f611c6f86828701611993565b9350506020611c8086828701611993565b9250506040611c91868287016119c6565b9150509250925092565b611ca48161196c565b82525050565b5f602082019050611cbd5f830184611c9b565b92915050565b611ccc81611a4b565b8114611cd6575f5ffd5b50565b5f81359050611ce781611cc3565b92915050565b611cf681611a7f565b8114611d00575f5ffd5b50565b5f81359050611d1181611ced565b92915050565b5f5f5f5f5f5f5f60e0888a031215611d3257611d31611945565b5b5f611d3f8a828b01611993565b9750506020611d508a828b01611993565b9650506040611d618a828b016119c6565b9550506060611d728a828b01611b65565b9450506080611d838a828b01611cd9565b93505060a0611d948a828b01611d03565b92505060c0611da58a828b01611d03565b91505092959891949750929550565b5f611dbe82611ada565b9050919050565b611dce81611db4565b82525050565b5f602082019050611de75f830184611dc5565b92915050565b7f4e487b71000000000000000000000000000000000000000000000000000000005f52602260045260245ffd5b5f6002820490506001821680611e3157607f821691505b602082108103611e4457611e43611ded565b5b50919050565b7f7369676e617475726520657870697265640000000000000000000000000000005f82015250565b5f611e7e601183611885565b9150611e8982611e4a565b602082019050919050565b5f6020820190508181035f830152611eab81611e72565b9050919050565b7f696e76616c6964207369676e6174757265206c656e67746800000000000000005f82015250565b5f611ee6601883611885565b9150611ef182611eb2565b602082019050919050565b5f6020820190508181035f830152611f1381611eda565b9050919050565b5f81905092915050565b7f53524332305f42414c414e43455f5245414400000000000000000000000000005f82015250565b5f611f58601283611f1a565b9150611f6382611f24565b601282019050919050565b5f8160601b9050919050565b5f611f8482611f6e565b9050919050565b5f611f9582611f7a565b9050919050565b611fad611fa88261196c565b611f8b565b82525050565b5f819050919050565b611fcd611fc88261190b565b611fb3565b82525050565b5f611fdd82611f4c565b9150611fe98285611f9c565b601482019150611ff98284611fbc565b6020820191508190509392505050565b7f19457468657265756d205369676e6564204d6573736167653a0a3332000000005f82015250565b5f61203d601c83611f1a565b915061204882612009565b601c82019050919050565b5f819050919050565b61206d61206882611a7f565b612053565b82525050565b5f61207d82612031565b9150612089828461205c565b60208201915081905092915050565b5f6080820190506120ab5f830187611a88565b6120b86020830186611a57565b6120c56040830185611a88565b6120d26060830184611a88565b95945050505050565b7f696e76616c6964207369676e61747572650000000000000000000000000000005f82015250565b5f61210f601183611885565b915061211a826120db565b602082019050919050565b5f6020820190508181035f83015261213c81612103565b9050919050565b7f4e487b71000000000000000000000000000000000000000000000000000000005f52601160045260245ffd5b5f61217a826119a7565b9150612185836119a7565b925082820390508181111561219d5761219c612143565b5b92915050565b7f5045524d49545f444541444c494e455f455850495245440000000000000000005f82015250565b5f6121d7601783611885565b91506121e2826121a3565b602082019050919050565b5f6020820190508181035f830152612204816121cb565b9050919050565b612214816119a7565b82525050565b5f60c08201905061222d5f830189611a88565b61223a6020830188611c9b565b6122476040830187611c9b565b612254606083018661220b565b6122616080830185611914565b61226e60a0830184611914565b979650505050505050565b7f19010000000000000000000000000000000000000000000000000000000000005f82015250565b5f6122ad600283611f1a565b91506122b882612279565b600282019050919050565b5f6122cd826122a1565b91506122d9828561205c565b6020820191506122e9828461205c565b6020820191508190509392505050565b7f494e56414c49445f5349474e45520000000000000000000000000000000000005f82015250565b5f61232d600e83611885565b9150612338826122f9565b602082019050919050565b5f6020820190508181035f83015261235a81612321565b9050919050565b5f819050919050565b61237b612376826119a7565b612361565b82525050565b5f61238c828461236a565b60208201915081905092915050565b5f81519050919050565b5f82825260208201905092915050565b5f6123bf8261239b565b6123c981856123a5565b93506123d9818560208601611895565b6123e2816118a3565b840191505092915050565b5f6020820190508181035f83015261240581846123b5565b905092915050565b7f4e487b71000000000000000000000000000000000000000000000000000000005f52604160045260245ffd5b612443826118a3565b810181811067ffffffffffffffff821117156124625761246161240d565b5b80604052505050565b5f61247461193c565b9050612480828261243a565b919050565b5f67ffffffffffffffff82111561249f5761249e61240d565b5b602082029050602081019050919050565b5f815190506124be81611ced565b92915050565b5f6124d66124d184612485565b61246b565b905080838252602082019050602084028301858111156124f9576124f8611b81565b5b835b81811015612522578061250e88826124b0565b8452602084019350506020810190506124fb565b5050509392505050565b5f82601f8301126125405761253f611b79565b5b81516125508482602086016124c4565b91505092915050565b5f67ffffffffffffffff8211156125735761257261240d565b5b602082029050602081019050919050565b5f5ffd5b5f67ffffffffffffffff8211156125a2576125a161240d565b5b6125ab826118a3565b9050602081019050919050565b5f6125ca6125c584612588565b61246b565b9050828152602081018484840111156125e6576125e5612584565b5b6125f1848285611895565b509392505050565b5f82601f83011261260d5761260c611b79565b5b815161261d8482602086016125b8565b91505092915050565b5f61263861263384612559565b61246b565b9050808382526020820190506020840283018581111561265b5761265a611b81565b5b835b818110156126a257805167ffffffffffffffff8111156126805761267f611b79565b5b80860161268d89826125f9565b8552602085019450505060208101905061265d565b5050509392505050565b5f82601f8301126126c0576126bf611b79565b5b81516126d0848260208601612626565b91505092915050565b5f5f604083850312156126ef576126ee611945565b5b5f83015167ffffffffffffffff81111561270c5761270b611949565b5b6127188582860161252c565b925050602083015167ffffffffffffffff81111561273957612738611949565b5b612745858286016126ac565b9150509250929050565b7f4e487b71000000000000000000000000000000000000000000000000000000005f52603260045260245ffd5b61278581611a18565b811461278f575f5ffd5b50565b5f815190506127a08161277c565b92915050565b5f602082840312156127bb576127ba611945565b5b5f6127c884828501612792565b91505092915050565b5f602082840312156127e6576127e5611945565b5b5f6127f3848285016124b0565b91505092915050565b5f60408201905061280f5f830185611c9b565b818103602083015261282181846123b5565b90509392505050565b5f6020828403121561283f5761283e611945565b5b5f82015167ffffffffffffffff81111561285c5761285b611949565b5b612868848285016125f9565b91505092915050565b5f81905092915050565b5f819050815f5260205f209050919050565b5f815461289981611e1a565b6128a38186612871565b9450600182165f81146128bd57600181146128d257612904565b60ff1983168652811515820286019350612904565b6128db8561287b565b5f5b838110156128fc578154818901526001820191506020810190506128dd565b838801955050505b50505092915050565b5f612918828461288d565b915081905092915050565b5f60a0820190506129365f830188611a88565b6129436020830187611a88565b6129506040830186611a88565b61295d6060830185611914565b61296a6080830184611c9b565b9695505050505050565b5f61297e826119a7565b9150612989836119a7565b92508282019050808211156129a1576129a0612143565b5b9291505056fea26469706673582212201d5d64c2cc821f6e814ef457ea118a69578961e828f761f562f399702f87ae2064736f6c637829302e382e33312d646576656c6f702e323032352e31312e31322b636f6d6d69742e3637366264656363005a","linkReferences":{}},"methodIdentifiers":{"DIRECTORY_ADDRESS()":"ba1ab291","DOMAIN_SEPARATOR()":"3644e515","INTELLIGENCE_ADDRESS()":"b9b8dea0","allowance(address)":"3e5beab9","approve(address,suint256)":"2e62b8c8","balance()":"b69ef8a8","balanceOfSigned(address,uint256,bytes)":"5253f919","burn(address,suint256)":"68787310","decimals()":"313ce567","directory()":"c41c2f24","intelligence()":"3d27862e","mint(address,suint256)":"d590f35f","name()":"06fdde03","nonces(address)":"7ecebe00","permit(address,address,suint256,uint256,uint8,bytes32,bytes32)":"bdda9413","symbol()":"95d89b41","totalSupply()":"18160ddd","transfer(address,suint256)":"b10c99b5","transferFrom(address,address,suint256)":"9552331e"},"id":27}