{"abi":[{"type":"constructor","inputs":[{"name":"_baseAsset","type":"address","internalType":"contract ERC20"},{"name":"_intelligence","type":"address","internalType":"contract Intelligence"},{"name":"_name","type":"string","internalType":"string"},{"name":"_symbol","type":"string","internalType":"string"},{"name":"_decimals","type":"uint8","internalType":"uint8"}],"stateMutability":"nonpayable"},{"type":"function","name":"DOMAIN_SEPARATOR","inputs":[],"outputs":[{"name":"","type":"bytes32","internalType":"bytes32"}],"stateMutability":"view"},{"type":"function","name":"allowanceOf","inputs":[{"name":"spender","type":"address","internalType":"address"}],"outputs":[{"name":"","type":"uint256","internalType":"uint256"}],"stateMutability":"view"},{"type":"function","name":"approve","inputs":[{"name":"spender","type":"address","internalType":"address"},{"name":"amount","type":"suint256","internalType":"suint256"}],"outputs":[{"name":"","type":"bool","internalType":"bool"}],"stateMutability":"nonpayable"},{"type":"function","name":"balance","inputs":[],"outputs":[{"name":"","type":"uint256","internalType":"uint256"}],"stateMutability":"view"},{"type":"function","name":"baseAsset","inputs":[],"outputs":[{"name":"","type":"address","internalType":"contract ERC20"}],"stateMutability":"view"},{"type":"function","name":"burn","inputs":[{"name":"amount","type":"uint256","internalType":"uint256"}],"outputs":[],"stateMutability":"nonpayable"},{"type":"function","name":"decimals","inputs":[],"outputs":[{"name":"","type":"uint8","internalType":"uint8"}],"stateMutability":"view"},{"type":"function","name":"intelligence","inputs":[],"outputs":[{"name":"","type":"address","internalType":"contract Intelligence"}],"stateMutability":"view"},{"type":"function","name":"mint","inputs":[{"name":"amount","type":"uint256","internalType":"uint256"}],"outputs":[],"stateMutability":"nonpayable"},{"type":"function","name":"name","inputs":[],"outputs":[{"name":"","type":"string","internalType":"string"}],"stateMutability":"view"},{"type":"function","name":"nonces","inputs":[{"name":"","type":"address","internalType":"address"}],"outputs":[{"name":"","type":"uint256","internalType":"uint256"}],"stateMutability":"view"},{"type":"function","name":"permit","inputs":[{"name":"owner","type":"address","internalType":"address"},{"name":"spender","type":"address","internalType":"address"},{"name":"value","type":"suint256","internalType":"suint256"},{"name":"deadline","type":"uint256","internalType":"uint256"},{"name":"v","type":"uint8","internalType":"uint8"},{"name":"r","type":"bytes32","internalType":"bytes32"},{"name":"s","type":"bytes32","internalType":"bytes32"}],"outputs":[],"stateMutability":"nonpayable"},{"type":"function","name":"symbol","inputs":[],"outputs":[{"name":"","type":"string","internalType":"string"}],"stateMutability":"view"},{"type":"function","name":"totalSupply","inputs":[],"outputs":[{"name":"","type":"uint256","internalType":"uint256"}],"stateMutability":"view"},{"type":"function","name":"transfer","inputs":[{"name":"to","type":"address","internalType":"address"},{"name":"amount","type":"suint256","internalType":"suint256"}],"outputs":[{"name":"","type":"bool","internalType":"bool"}],"stateMutability":"nonpayable"},{"type":"function","name":"transferFrom","inputs":[{"name":"from","type":"address","internalType":"address"},{"name":"to","type":"address","internalType":"address"},{"name":"amount","type":"suint256","internalType":"suint256"}],"outputs":[{"name":"","type":"bool","internalType":"bool"}],"stateMutability":"nonpayable"},{"type":"event","name":"Approval","inputs":[{"name":"owner","type":"address","indexed":true,"internalType":"address"},{"name":"spender","type":"address","indexed":true,"internalType":"address"},{"name":"encryptedAmount","type":"bytes","indexed":false,"internalType":"bytes"}],"anonymous":false},{"type":"event","name":"Transfer","inputs":[{"name":"from","type":"address","indexed":true,"internalType":"address"},{"name":"to","type":"address","indexed":true,"internalType":"address"},{"name":"encryptedAmount","type":"bytes","indexed":false,"internalType":"bytes"}],"anonymous":false}],"bytecode":{"object":"0x610120604052348015610010575f5ffd5b506040516126da3803806126da833981810160405281019061003291906103ac565b84848484848473ffffffffffffffffffffffffffffffffffffffff1660a08173ffffffffffffffffffffffffffffffffffffffff16815250508373ffffffffffffffffffffffffffffffffffffffff1660c08173ffffffffffffffffffffffffffffffffffffffff1681525050825f90816100ad919061066b565b5081600190816100bd919061066b565b508060ff1660808160ff16815250504660e081815250506100e26100f960201b60201c565b610100818152505050505050505050505050610873565b5f7f8b73c3c69bb8fe3d512ecc4cf759cc79239f7b179b0ffacaa9a75d522b39400f5f60405161012991906107d6565b60405180910390207fc89efdaa54c0f20c7adf612882df0950f5a951637e0307cdcb4c672f298b8bc64630604051602001610168959493929190610822565b60405160208183030381529060405280519060200120905090565b5f604051905090565b5f5ffd5b5f5ffd5b5f73ffffffffffffffffffffffffffffffffffffffff82169050919050565b5f6101bd82610194565b9050919050565b5f6101ce826101b3565b9050919050565b6101de816101c4565b81146101e8575f5ffd5b50565b5f815190506101f9816101d5565b92915050565b5f610209826101b3565b9050919050565b610219816101ff565b8114610223575f5ffd5b50565b5f8151905061023481610210565b92915050565b5f5ffd5b5f5ffd5b5f601f19601f8301169050919050565b7f4e487b71000000000000000000000000000000000000000000000000000000005f52604160045260245ffd5b61028882610242565b810181811067ffffffffffffffff821117156102a7576102a6610252565b5b80604052505050565b5f6102b9610183565b90506102c5828261027f565b919050565b5f67ffffffffffffffff8211156102e4576102e3610252565b5b6102ed82610242565b9050602081019050919050565b8281835e5f83830152505050565b5f61031a610315846102ca565b6102b0565b9050828152602081018484840111156103365761033561023e565b5b6103418482856102fa565b509392505050565b5f82601f83011261035d5761035c61023a565b5b815161036d848260208601610308565b91505092915050565b5f60ff82169050919050565b61038b81610376565b8114610395575f5ffd5b50565b5f815190506103a681610382565b92915050565b5f5f5f5f5f60a086880312156103c5576103c461018c565b5b5f6103d2888289016101eb565b95505060206103e388828901610226565b945050604086015167ffffffffffffffff81111561040457610403610190565b5b61041088828901610349565b935050606086015167ffffffffffffffff81111561043157610430610190565b5b61043d88828901610349565b925050608061044e88828901610398565b9150509295509295909350565b5f81519050919050565b7f4e487b71000000000000000000000000000000000000000000000000000000005f52602260045260245ffd5b5f60028204905060018216806104a957607f821691505b6020821081036104bc576104bb610465565b5b50919050565b5f819050815f5260205f209050919050565b5f6020601f8301049050919050565b5f82821b905092915050565b5f6008830261051e7fffffffffffffffffffffffffffffffffffffffffffffffffffffffffffffffff826104e3565b61052886836104e3565b95508019841693508086168417925050509392505050565b5f819050919050565b5f819050919050565b5f61056c61056761056284610540565b610549565b610540565b9050919050565b5f819050919050565b61058583610552565b61059961059182610573565b8484546104ef565b825550505050565b5f5f905090565b6105b06105a1565b6105bb81848461057c565b505050565b5b818110156105de576105d35f826105a8565b6001810190506105c1565b5050565b601f821115610623576105f4816104c2565b6105fd846104d4565b8101602085101561060c578190505b610620610618856104d4565b8301826105c0565b50505b505050565b5f82821c905092915050565b5f6106435f1984600802610628565b1980831691505092915050565b5f61065b8383610634565b9150826002028217905092915050565b6106748261045b565b67ffffffffffffffff81111561068d5761068c610252565b5b6106978254610492565b6106a28282856105e2565b5f60209050601f8311600181146106d3575f84156106c1578287015190505b6106cb8582610650565b865550610732565b601f1984166106e1866104c2565b5f5b82811015610708578489015182556001820191506020850194506020810190506106e3565b868310156107255784890151610721601f891682610634565b8355505b6001600288020188555050505b505050505050565b5f81905092915050565b5f819050815f5260205f209050919050565b5f815461076281610492565b61076c818661073a565b9450600182165f8114610786576001811461079b576107cd565b60ff19831686528115158202860193506107cd565b6107a485610744565b5f5b838110156107c5578154818901526001820191506020810190506107a6565b838801955050505b50505092915050565b5f6107e18284610756565b915081905092915050565b5f819050919050565b6107fe816107ec565b82525050565b61080d81610540565b82525050565b61081c816101b3565b82525050565b5f60a0820190506108355f8301886107f5565b61084260208301876107f5565b61084f60408301866107f5565b61085c6060830185610804565b6108696080830184610813565b9695505050505050565b60805160a05160c05160e05161010051611e0e6108cc5f395f6104b501525f61048101525f81816104dc01528181610dcc0152610fb501525f8181610562015281816108f00152610da701525f61045c0152611e0e5ff3fe608060405234801561000f575f5ffd5b50600436106100fe575f3560e01c80639552331e11610095578063b69ef8a811610064578063b69ef8a8146102ae578063bdda9413146102cc578063bfd2385e146102e8578063cdf456e114610318576100fe565b80639552331e1461021457806395d89b4114610244578063a0712d6814610262578063b10c99b51461027e576100fe565b80633644e515116100d15780633644e5151461018c5780633d27862e146101aa57806342966c68146101c85780637ecebe00146101e4576100fe565b806306fdde031461010257806318160ddd146101205780632e62b8c81461013e578063313ce5671461016e575b5f5ffd5b61010a610336565b6040516101179190611181565b60405180910390f35b6101286103c1565b60405161013591906111b9565b60405180910390f35b61015860048036038101906101539190611270565b6103c7565b60405161016591906112c8565b60405180910390f35b61017661045a565b60405161018391906112fc565b60405180910390f35b61019461047e565b6040516101a1919061132d565b60405180910390f35b6101b26104da565b6040516101bf91906113a1565b60405180910390f35b6101e260048036038101906101dd91906113e4565b6104fe565b005b6101fe60048036038101906101f9919061140f565b61060a565b60405161020b91906111b9565b60405180910390f35b61022e6004803603810190610229919061143a565b61061f565b60405161023b91906112c8565b60405180910390f35b61024c610800565b6040516102599190611181565b60405180910390f35b61027c600480360381019061027791906113e4565b61088c565b005b61029860048036038101906102939190611270565b61099a565b6040516102a591906112c8565b60405180910390f35b6102b6610a4d565b6040516102c391906111b9565b60405180910390f35b6102e660048036038101906102e191906114de565b610a91565b005b61030260048036038101906102fd919061140f565b610d24565b60405161030f91906111b9565b60405180910390f35b610320610da5565b60405161032d919061159b565b60405180910390f35b5f8054610342906115e1565b80601f016020809104026020016040519081016040528092919081815260200182805461036e906115e1565b80156103b95780601f10610390576101008083540402835291602001916103b9565b820191905f5260205f20905b81548152906001019060200180831161039c57829003601f168201915b505050505081565b60025481565b5f8160045f3373ffffffffffffffffffffffffffffffffffffffff1673ffffffffffffffffffffffffffffffffffffffff1681526020019081526020015f205f8573ffffffffffffffffffffffffffffffffffffffff1673ffffffffffffffffffffffffffffffffffffffff1681526020019081526020015f208190b150610450338484610dc9565b6001905092915050565b7f000000000000000000000000000000000000000000000000000000000000000081565b5f7f000000000000000000000000000000000000000000000000000000000000000046146104b3576104ae610f28565b6104d5565b7f00000000000000000000000000000000000000000000000000000000000000005b905090565b7f000000000000000000000000000000000000000000000000000000000000000081565b8060035f3373ffffffffffffffffffffffffffffffffffffffff1673ffffffffffffffffffffffffffffffffffffffff1681526020019081526020015f205f8282b061054a919061163e565b9250508190b1508060025f82825403925050819055507f000000000000000000000000000000000000000000000000000000000000000073ffffffffffffffffffffffffffffffffffffffff1663a9059cbb33836040518363ffffffff1660e01b81526004016105bb929190611680565b6020604051808303815f875af11580156105d7573d5f5f3e3d5ffd5b505050506040513d601f19601f820116820180604052508101906105fb91906116d1565b50610607335f83610fb2565b50565b6005602052805f5260405f205f915090505481565b5f5f60045f8673ffffffffffffffffffffffffffffffffffffffff1673ffffffffffffffffffffffffffffffffffffffff1681526020019081526020015f205f3373ffffffffffffffffffffffffffffffffffffffff1673ffffffffffffffffffffffffffffffffffffffff1681526020019081526020015f20b090507fffffffffffffffffffffffffffffffffffffffffffffffffffffffffffffffff811461074c5782816106cf919061163e565b60045f8773ffffffffffffffffffffffffffffffffffffffff1673ffffffffffffffffffffffffffffffffffffffff1681526020019081526020015f205f3373ffffffffffffffffffffffffffffffffffffffff1673ffffffffffffffffffffffffffffffffffffffff1681526020019081526020015f208190b1505b8260035f8773ffffffffffffffffffffffffffffffffffffffff1673ffffffffffffffffffffffffffffffffffffffff1681526020019081526020015f205f8282b0610798919061163e565b9250508190b1508260035f8673ffffffffffffffffffffffffffffffffffffffff1673ffffffffffffffffffffffffffffffffffffffff1681526020019081526020015f205f8282b0019250508190b1506107f4858585610fb2565b60019150509392505050565b6001805461080d906115e1565b80601f0160208091040260200160405190810160405280929190818152602001828054610839906115e1565b80156108845780601f1061085b57610100808354040283529160200191610884565b820191905f5260205f20905b81548152906001019060200180831161086757829003601f168201915b505050505081565b8060025f82825461089d91906116fc565b925050819055508060035f3373ffffffffffffffffffffffffffffffffffffffff1673ffffffffffffffffffffffffffffffffffffffff1681526020019081526020015f205f8282b0019250508190b1507f000000000000000000000000000000000000000000000000000000000000000073ffffffffffffffffffffffffffffffffffffffff166323b872dd3330846040518463ffffffff1660e01b815260040161094b9392919061172f565b6020604051808303815f875af1158015610967573d5f5f3e3d5ffd5b505050506040513d601f19601f8201168201806040525081019061098b91906116d1565b506109975f3383610fb2565b50565b5f8160035f3373ffffffffffffffffffffffffffffffffffffffff1673ffffffffffffffffffffffffffffffffffffffff1681526020019081526020015f205f8282b06109e7919061163e565b9250508190b1508160035f8573ffffffffffffffffffffffffffffffffffffffff1673ffffffffffffffffffffffffffffffffffffffff1681526020019081526020015f205f8282b0019250508190b150610a43338484610fb2565b6001905092915050565b5f60035f3373ffffffffffffffffffffffffffffffffffffffff1673ffffffffffffffffffffffffffffffffffffffff1681526020019081526020015f20b0905090565b42841015610ad4576040517f08c379a0000000000000000000000000000000000000000000000000000000008152600401610acb906117ae565b60405180910390fd5b5f6001610adf61047e565b7f6e71edae12b1b97f4d1f60370fef10105fa2faae0126114a169c64845d6126c98a8a8a60055f8f73ffffffffffffffffffffffffffffffffffffffff1673ffffffffffffffffffffffffffffffffffffffff1681526020019081526020015f205f815480929190600101919050558b604051602001610b64969594939291906117db565b60405160208183030381529060405280519060200120604051602001610b8b9291906118ae565b604051602081830303815290604052805190602001208585856040515f8152602001604052604051610bc094939291906118e4565b6020604051602081039080840390855afa158015610be0573d5f5f3e3d5ffd5b5050506020604051035190505f73ffffffffffffffffffffffffffffffffffffffff168173ffffffffffffffffffffffffffffffffffffffff1614158015610c5357508773ffffffffffffffffffffffffffffffffffffffff168173ffffffffffffffffffffffffffffffffffffffff16145b610c92576040517f08c379a0000000000000000000000000000000000000000000000000000000008152600401610c8990611971565b60405180910390fd5b8560045f8373ffffffffffffffffffffffffffffffffffffffff1673ffffffffffffffffffffffffffffffffffffffff1681526020019081526020015f205f8973ffffffffffffffffffffffffffffffffffffffff1673ffffffffffffffffffffffffffffffffffffffff1681526020019081526020015f208190b15050610d1b878787610dc9565b50505050505050565b5f60045f3373ffffffffffffffffffffffffffffffffffffffff1673ffffffffffffffffffffffffffffffffffffffff1681526020019081526020015f205f8373ffffffffffffffffffffffffffffffffffffffff1673ffffffffffffffffffffffffffffffffffffffff1681526020019081526020015f20b09050919050565b7f000000000000000000000000000000000000000000000000000000000000000081565b5f7f000000000000000000000000000000000000000000000000000000000000000073ffffffffffffffffffffffffffffffffffffffff166331b00e4683604051602001610e1791906119af565b6040516020818303038152906040526040518263ffffffff1660e01b8152600401610e429190611a1b565b5f604051808303815f875af1158015610e5d573d5f5f3e3d5ffd5b505050506040513d5f823e3d601f19601f82011682018060405250810190610e859190611c3b565b90505f5f90505b8151811015610f21578373ffffffffffffffffffffffffffffffffffffffff168573ffffffffffffffffffffffffffffffffffffffff167f3a27e4f17efa944bfb70ff8015dcefce1a87497605352fbb34d8347138216c30848481518110610ef757610ef6611c82565b5b6020026020010151604051610f0c9190611a1b565b60405180910390a38080600101915050610e8c565b5050505050565b5f7f8b73c3c69bb8fe3d512ecc4cf759cc79239f7b179b0ffacaa9a75d522b39400f5f604051610f589190611d4b565b60405180910390207fc89efdaa54c0f20c7adf612882df0950f5a951637e0307cdcb4c672f298b8bc64630604051602001610f97959493929190611d61565b60405160208183030381529060405280519060200120905090565b5f7f000000000000000000000000000000000000000000000000000000000000000073ffffffffffffffffffffffffffffffffffffffff166331b00e468360405160200161100091906119af565b6040516020818303038152906040526040518263ffffffff1660e01b815260040161102b9190611a1b565b5f604051808303815f875af1158015611046573d5f5f3e3d5ffd5b505050506040513d5f823e3d601f19601f8201168201806040525081019061106e9190611c3b565b90505f5f90505b815181101561110a578373ffffffffffffffffffffffffffffffffffffffff168573ffffffffffffffffffffffffffffffffffffffff167fd7e0e76a339fe8e46c3a779742dd7c08951ec9048bb513b9e5749820fc3a6fb78484815181106110e0576110df611c82565b5b60200260200101516040516110f59190611a1b565b60405180910390a38080600101915050611075565b5050505050565b5f81519050919050565b5f82825260208201905092915050565b8281835e5f83830152505050565b5f601f19601f8301169050919050565b5f61115382611111565b61115d818561111b565b935061116d81856020860161112b565b61117681611139565b840191505092915050565b5f6020820190508181035f8301526111998184611149565b905092915050565b5f819050919050565b6111b3816111a1565b82525050565b5f6020820190506111cc5f8301846111aa565b92915050565b5f604051905090565b5f5ffd5b5f5ffd5b5f73ffffffffffffffffffffffffffffffffffffffff82169050919050565b5f61120c826111e3565b9050919050565b61121c81611202565b8114611226575f5ffd5b50565b5f8135905061123781611213565b92915050565b5f819050919050565b61124f8161123d565b8114611259575f5ffd5b50565b5f8135905061126a81611246565b92915050565b5f5f60408385031215611286576112856111db565b5b5f61129385828601611229565b92505060206112a48582860161125c565b9150509250929050565b5f8115159050919050565b6112c2816112ae565b82525050565b5f6020820190506112db5f8301846112b9565b92915050565b5f60ff82169050919050565b6112f6816112e1565b82525050565b5f60208201905061130f5f8301846112ed565b92915050565b5f819050919050565b61132781611315565b82525050565b5f6020820190506113405f83018461131e565b92915050565b5f819050919050565b5f61136961136461135f846111e3565b611346565b6111e3565b9050919050565b5f61137a8261134f565b9050919050565b5f61138b82611370565b9050919050565b61139b81611381565b82525050565b5f6020820190506113b45f830184611392565b92915050565b6113c3816111a1565b81146113cd575f5ffd5b50565b5f813590506113de816113ba565b92915050565b5f602082840312156113f9576113f86111db565b5b5f611406848285016113d0565b91505092915050565b5f60208284031215611424576114236111db565b5b5f61143184828501611229565b91505092915050565b5f5f5f60608486031215611451576114506111db565b5b5f61145e86828701611229565b935050602061146f86828701611229565b92505060406114808682870161125c565b9150509250925092565b611493816112e1565b811461149d575f5ffd5b50565b5f813590506114ae8161148a565b92915050565b6114bd81611315565b81146114c7575f5ffd5b50565b5f813590506114d8816114b4565b92915050565b5f5f5f5f5f5f5f60e0888a0312156114f9576114f86111db565b5b5f6115068a828b01611229565b97505060206115178a828b01611229565b96505060406115288a828b0161125c565b95505060606115398a828b016113d0565b945050608061154a8a828b016114a0565b93505060a061155b8a828b016114ca565b92505060c061156c8a828b016114ca565b91505092959891949750929550565b5f61158582611370565b9050919050565b6115958161157b565b82525050565b5f6020820190506115ae5f83018461158c565b92915050565b7f4e487b71000000000000000000000000000000000000000000000000000000005f52602260045260245ffd5b5f60028204905060018216806115f857607f821691505b60208210810361160b5761160a6115b4565b5b50919050565b7f4e487b71000000000000000000000000000000000000000000000000000000005f52601160045260245ffd5b5f6116488261123d565b91506116538361123d565b925082820390508181111561166b5761166a611611565b5b92915050565b61167a81611202565b82525050565b5f6040820190506116935f830185611671565b6116a060208301846111aa565b9392505050565b6116b0816112ae565b81146116ba575f5ffd5b50565b5f815190506116cb816116a7565b92915050565b5f602082840312156116e6576116e56111db565b5b5f6116f3848285016116bd565b91505092915050565b5f611706826111a1565b9150611711836111a1565b925082820190508082111561172957611728611611565b5b92915050565b5f6060820190506117425f830186611671565b61174f6020830185611671565b61175c60408301846111aa565b949350505050565b7f5045524d49545f444541444c494e455f455850495245440000000000000000005f82015250565b5f61179860178361111b565b91506117a382611764565b602082019050919050565b5f6020820190508181035f8301526117c58161178c565b9050919050565b6117d58161123d565b82525050565b5f60c0820190506117ee5f83018961131e565b6117fb6020830188611671565b6118086040830187611671565b61181560608301866117cc565b61182260808301856111aa565b61182f60a08301846111aa565b979650505050505050565b5f81905092915050565b7f19010000000000000000000000000000000000000000000000000000000000005f82015250565b5f61187860028361183a565b915061188382611844565b600282019050919050565b5f819050919050565b6118a86118a382611315565b61188e565b82525050565b5f6118b88261186c565b91506118c48285611897565b6020820191506118d48284611897565b6020820191508190509392505050565b5f6080820190506118f75f83018761131e565b61190460208301866112ed565b611911604083018561131e565b61191e606083018461131e565b95945050505050565b7f494e56414c49445f5349474e45520000000000000000000000000000000000005f82015250565b5f61195b600e8361111b565b915061196682611927565b602082019050919050565b5f6020820190508181035f8301526119888161194f565b9050919050565b5f819050919050565b6119a96119a48261123d565b61198f565b82525050565b5f6119ba8284611998565b60208201915081905092915050565b5f81519050919050565b5f82825260208201905092915050565b5f6119ed826119c9565b6119f781856119d3565b9350611a0781856020860161112b565b611a1081611139565b840191505092915050565b5f6020820190508181035f830152611a3381846119e3565b905092915050565b5f5ffd5b7f4e487b71000000000000000000000000000000000000000000000000000000005f52604160045260245ffd5b611a7582611139565b810181811067ffffffffffffffff82111715611a9457611a93611a3f565b5b80604052505050565b5f611aa66111d2565b9050611ab28282611a6c565b919050565b5f67ffffffffffffffff821115611ad157611ad0611a3f565b5b602082029050602081019050919050565b5f5ffd5b5f5ffd5b5f67ffffffffffffffff821115611b0457611b03611a3f565b5b611b0d82611139565b9050602081019050919050565b5f611b2c611b2784611aea565b611a9d565b905082815260208101848484011115611b4857611b47611ae6565b5b611b5384828561112b565b509392505050565b5f82601f830112611b6f57611b6e611a3b565b5b8151611b7f848260208601611b1a565b91505092915050565b5f611b9a611b9584611ab7565b611a9d565b90508083825260208201905060208402830185811115611bbd57611bbc611ae2565b5b835b81811015611c0457805167ffffffffffffffff811115611be257611be1611a3b565b5b808601611bef8982611b5b565b85526020850194505050602081019050611bbf565b5050509392505050565b5f82601f830112611c2257611c21611a3b565b5b8151611c32848260208601611b88565b91505092915050565b5f60208284031215611c5057611c4f6111db565b5b5f82015167ffffffffffffffff811115611c6d57611c6c6111df565b5b611c7984828501611c0e565b91505092915050565b7f4e487b71000000000000000000000000000000000000000000000000000000005f52603260045260245ffd5b5f81905092915050565b5f819050815f5260205f209050919050565b5f8154611cd7816115e1565b611ce18186611caf565b9450600182165f8114611cfb5760018114611d1057611d42565b60ff1983168652811515820286019350611d42565b611d1985611cb9565b5f5b83811015611d3a57815481890152600182019150602081019050611d1b565b838801955050505b50505092915050565b5f611d568284611ccb565b915081905092915050565b5f60a082019050611d745f83018861131e565b611d81602083018761131e565b611d8e604083018661131e565b611d9b60608301856111aa565b611da86080830184611671565b969550505050505056fea26469706673582212204737a0c226be2853854215f964bc6d0dd7b1bab5941c471334bad4679df4657464736f6c637828302e382e32392d646576656c6f702e323032352e372e32332b636f6d6d69742e36393665623163640059","linkReferences":{}},"methodIdentifiers":{"DOMAIN_SEPARATOR()":"3644e515","allowanceOf(address)":"bfd2385e","approve(address,suint256)":"2e62b8c8","balance()":"b69ef8a8","baseAsset()":"cdf456e1","burn(uint256)":"42966c68","decimals()":"313ce567","intelligence()":"3d27862e","mint(uint256)":"a0712d68","name()":"06fdde03","nonces(address)":"7ecebe00","permit(address,address,suint256,uint256,uint8,bytes32,bytes32)":"bdda9413","symbol()":"95d89b41","totalSupply()":"18160ddd","transfer(address,suint256)":"b10c99b5","transferFrom(address,address,suint256)":"9552331e"},"id":22}