{"abi":[{"type":"constructor","inputs":[{"name":"_name","type":"string","internalType":"string"},{"name":"_symbol","type":"string","internalType":"string"},{"name":"_decimals","type":"uint8","internalType":"uint8"}],"stateMutability":"nonpayable"},{"type":"function","name":"DIRECTORY_ADDRESS","inputs":[],"outputs":[{"name":"","type":"address","internalType":"address"}],"stateMutability":"view"},{"type":"function","name":"DOMAIN_SEPARATOR","inputs":[],"outputs":[{"name":"","type":"bytes32","internalType":"bytes32"}],"stateMutability":"view"},{"type":"function","name":"INTELLIGENCE_ADDRESS","inputs":[],"outputs":[{"name":"","type":"address","internalType":"address"}],"stateMutability":"view"},{"type":"function","name":"allowance","inputs":[{"name":"spender","type":"address","internalType":"address"}],"outputs":[{"name":"","type":"uint256","internalType":"uint256"}],"stateMutability":"view"},{"type":"function","name":"approve","inputs":[{"name":"spender","type":"address","internalType":"address"},{"name":"amount","type":"suint256","internalType":"suint256"}],"outputs":[{"name":"","type":"bool","internalType":"bool"}],"stateMutability":"nonpayable"},{"type":"function","name":"balance","inputs":[],"outputs":[{"name":"","type":"uint256","internalType":"uint256"}],"stateMutability":"view"},{"type":"function","name":"burn","inputs":[{"name":"from","type":"address","internalType":"address"},{"name":"value","type":"suint256","internalType":"suint256"}],"outputs":[],"stateMutability":"nonpayable"},{"type":"function","name":"decimals","inputs":[],"outputs":[{"name":"","type":"uint8","internalType":"uint8"}],"stateMutability":"view"},{"type":"function","name":"directory","inputs":[],"outputs":[{"name":"","type":"address","internalType":"contract IDirectory"}],"stateMutability":"view"},{"type":"function","name":"intelligence","inputs":[],"outputs":[{"name":"","type":"address","internalType":"contract IIntelligence"}],"stateMutability":"view"},{"type":"function","name":"mint","inputs":[{"name":"to","type":"address","internalType":"address"},{"name":"value","type":"suint256","internalType":"suint256"}],"outputs":[],"stateMutability":"nonpayable"},{"type":"function","name":"name","inputs":[],"outputs":[{"name":"","type":"string","internalType":"string"}],"stateMutability":"view"},{"type":"function","name":"nonces","inputs":[{"name":"","type":"address","internalType":"address"}],"outputs":[{"name":"","type":"uint256","internalType":"uint256"}],"stateMutability":"view"},{"type":"function","name":"permit","inputs":[{"name":"owner","type":"address","internalType":"address"},{"name":"spender","type":"address","internalType":"address"},{"name":"value","type":"suint256","internalType":"suint256"},{"name":"deadline","type":"uint256","internalType":"uint256"},{"name":"v","type":"uint8","internalType":"uint8"},{"name":"r","type":"bytes32","internalType":"bytes32"},{"name":"s","type":"bytes32","internalType":"bytes32"}],"outputs":[],"stateMutability":"nonpayable"},{"type":"function","name":"symbol","inputs":[],"outputs":[{"name":"","type":"string","internalType":"string"}],"stateMutability":"view"},{"type":"function","name":"totalSupply","inputs":[],"outputs":[{"name":"","type":"uint256","internalType":"uint256"}],"stateMutability":"view"},{"type":"function","name":"transfer","inputs":[{"name":"to","type":"address","internalType":"address"},{"name":"amount","type":"suint256","internalType":"suint256"}],"outputs":[{"name":"","type":"bool","internalType":"bool"}],"stateMutability":"nonpayable"},{"type":"function","name":"transferFrom","inputs":[{"name":"from","type":"address","internalType":"address"},{"name":"to","type":"address","internalType":"address"},{"name":"amount","type":"suint256","internalType":"suint256"}],"outputs":[{"name":"","type":"bool","internalType":"bool"}],"stateMutability":"nonpayable"},{"type":"event","name":"Approval","inputs":[{"name":"owner","type":"address","indexed":true,"internalType":"address"},{"name":"spender","type":"address","indexed":true,"internalType":"address"},{"name":"encryptKeyHash","type":"bytes32","indexed":true,"internalType":"bytes32"},{"name":"encryptedAmount","type":"bytes","indexed":false,"internalType":"bytes"}],"anonymous":false},{"type":"event","name":"Transfer","inputs":[{"name":"from","type":"address","indexed":true,"internalType":"address"},{"name":"to","type":"address","indexed":true,"internalType":"address"},{"name":"encryptKeyHash","type":"bytes32","indexed":true,"internalType":"bytes32"},{"name":"encryptedAmount","type":"bytes","indexed":false,"internalType":"bytes"}],"anonymous":false}],"bytecode":{"object":"0x60e060405234801561000f575f5ffd5b50604051612bc9380380612bc983398181016040528101906100319190610296565b828282825f9081610042919061052e565b508160019081610052919061052e565b508060ff1660808160ff16815250504660a0818152505061007761008960201b60201c565b60c08181525050505050505050610766565b5f7f8b73c3c69bb8fe3d512ecc4cf759cc79239f7b179b0ffacaa9a75d522b39400f5f6040516100b99190610699565b60405180910390207fc89efdaa54c0f20c7adf612882df0950f5a951637e0307cdcb4c672f298b8bc646306040516020016100f8959493929190610715565b60405160208183030381529060405280519060200120905090565b5f604051905090565b5f5ffd5b5f5ffd5b5f5ffd5b5f5ffd5b5f601f19601f8301169050919050565b7f4e487b71000000000000000000000000000000000000000000000000000000005f52604160045260245ffd5b6101728261012c565b810181811067ffffffffffffffff821117156101915761019061013c565b5b80604052505050565b5f6101a3610113565b90506101af8282610169565b919050565b5f67ffffffffffffffff8211156101ce576101cd61013c565b5b6101d78261012c565b9050602081019050919050565b8281835e5f83830152505050565b5f6102046101ff846101b4565b61019a565b9050828152602081018484840111156102205761021f610128565b5b61022b8482856101e4565b509392505050565b5f82601f83011261024757610246610124565b5b81516102578482602086016101f2565b91505092915050565b5f60ff82169050919050565b61027581610260565b811461027f575f5ffd5b50565b5f815190506102908161026c565b92915050565b5f5f5f606084860312156102ad576102ac61011c565b5b5f84015167ffffffffffffffff8111156102ca576102c9610120565b5b6102d686828701610233565b935050602084015167ffffffffffffffff8111156102f7576102f6610120565b5b61030386828701610233565b925050604061031486828701610282565b9150509250925092565b5f81519050919050565b7f4e487b71000000000000000000000000000000000000000000000000000000005f52602260045260245ffd5b5f600282049050600182168061036c57607f821691505b60208210810361037f5761037e610328565b5b50919050565b5f819050815f5260205f209050919050565b5f6020601f8301049050919050565b5f82821b905092915050565b5f600883026103e17fffffffffffffffffffffffffffffffffffffffffffffffffffffffffffffffff826103a6565b6103eb86836103a6565b95508019841693508086168417925050509392505050565b5f819050919050565b5f819050919050565b5f61042f61042a61042584610403565b61040c565b610403565b9050919050565b5f819050919050565b61044883610415565b61045c61045482610436565b8484546103b2565b825550505050565b5f5f905090565b610473610464565b61047e81848461043f565b505050565b5b818110156104a1576104965f8261046b565b600181019050610484565b5050565b601f8211156104e6576104b781610385565b6104c084610397565b810160208510156104cf578190505b6104e36104db85610397565b830182610483565b50505b505050565b5f82821c905092915050565b5f6105065f19846008026104eb565b1980831691505092915050565b5f61051e83836104f7565b9150826002028217905092915050565b6105378261031e565b67ffffffffffffffff8111156105505761054f61013c565b5b61055a8254610355565b6105658282856104a5565b5f60209050601f831160018114610596575f8415610584578287015190505b61058e8582610513565b8655506105f5565b601f1984166105a486610385565b5f5b828110156105cb578489015182556001820191506020850194506020810190506105a6565b868310156105e857848901516105e4601f8916826104f7565b8355505b6001600288020188555050505b505050505050565b5f81905092915050565b5f819050815f5260205f209050919050565b5f815461062581610355565b61062f81866105fd565b9450600182165f8114610649576001811461065e57610690565b60ff1983168652811515820286019350610690565b61066785610607565b5f5b8381101561068857815481890152600182019150602081019050610669565b838801955050505b50505092915050565b5f6106a48284610619565b915081905092915050565b5f819050919050565b6106c1816106af565b82525050565b6106d081610403565b82525050565b5f73ffffffffffffffffffffffffffffffffffffffff82169050919050565b5f6106ff826106d6565b9050919050565b61070f816106f5565b82525050565b5f60a0820190506107285f8301886106b8565b61073560208301876106b8565b61074260408301866106b8565b61074f60608301856106c7565b61075c6080830184610706565b9695505050505050565b60805160a05160c0516124396107905f395f61050f01525f6104db01525f6104b601526124395ff3fe608060405234801561000f575f5ffd5b5060043610610114575f3560e01c80639552331e116100a0578063b9b8dea01161006f578063b9b8dea0146102f6578063ba1ab29114610314578063bdda941314610332578063c41c2f241461034e578063d590f35f1461036c57610114565b80639552331e1461025a57806395d89b411461028a578063b10c99b5146102a8578063b69ef8a8146102d857610114565b80633644e515116100e75780633644e515146101a25780633d27862e146101c05780633e5beab9146101de578063687873101461020e5780637ecebe001461022a57610114565b806306fdde031461011857806318160ddd146101365780632e62b8c814610154578063313ce56714610184575b5f5ffd5b610120610388565b60405161012d9190611676565b60405180910390f35b61013e610413565b60405161014b91906116ae565b60405180910390f35b61016e60048036038101906101699190611765565b610421565b60405161017b91906117bd565b60405180910390f35b61018c6104b4565b60405161019991906117f1565b60405180910390f35b6101aa6104d8565b6040516101b79190611822565b60405180910390f35b6101c8610534565b6040516101d59190611896565b60405180910390f35b6101f860048036038101906101f391906118af565b61054c565b60405161020591906116ae565b60405180910390f35b61022860048036038101906102239190611765565b6105cd565b005b610244600480360381019061023f91906118af565b6105db565b60405161025191906116ae565b60405180910390f35b610274600480360381019061026f91906118da565b6105f0565b60405161028191906117bd565b60405180910390f35b6102926107d1565b60405161029f9190611676565b60405180910390f35b6102c260048036038101906102bd9190611765565b61085d565b6040516102cf91906117bd565b60405180910390f35b6102e0610910565b6040516102ed91906116ae565b60405180910390f35b6102fe610954565b60405161030b9190611939565b60405180910390f35b61031c61096c565b6040516103299190611939565b60405180910390f35b61034c600480360381019061034791906119d0565b610984565b005b610356610c17565b6040516103639190611a8d565b60405180910390f35b61038660048036038101906103819190611765565b610c2f565b005b5f805461039490611ad3565b80601f01602080910402602001604051908101604052809291908181526020018280546103c090611ad3565b801561040b5780601f106103e25761010080835404028352916020019161040b565b820191905f5260205f20905b8154815290600101906020018083116103ee57829003601f168201915b505050505081565b5f61041c610c3d565b905090565b5f8160045f3373ffffffffffffffffffffffffffffffffffffffff1673ffffffffffffffffffffffffffffffffffffffff1681526020019081526020015f205f8573ffffffffffffffffffffffffffffffffffffffff1673ffffffffffffffffffffffffffffffffffffffff1681526020019081526020015f208190b1506104aa338484610c46565b6001905092915050565b7f000000000000000000000000000000000000000000000000000000000000000081565b5f7f0000000000000000000000000000000000000000000000000000000000000000461461050d57610508611070565b61052f565b7f00000000000000000000000000000000000000000000000000000000000000005b905090565b73100000000000000000000000000000000000000581565b5f60045f3373ffffffffffffffffffffffffffffffffffffffff1673ffffffffffffffffffffffffffffffffffffffff1681526020019081526020015f205f8373ffffffffffffffffffffffffffffffffffffffff1673ffffffffffffffffffffffffffffffffffffffff1681526020019081526020015f20b09050919050565b6105d782826110fa565b5050565b6005602052805f5260405f205f915090505481565b5f5f60045f8673ffffffffffffffffffffffffffffffffffffffff1673ffffffffffffffffffffffffffffffffffffffff1681526020019081526020015f205f3373ffffffffffffffffffffffffffffffffffffffff1673ffffffffffffffffffffffffffffffffffffffff1681526020019081526020015f20b090507fffffffffffffffffffffffffffffffffffffffffffffffffffffffffffffffff811461071d5782816106a09190611b30565b60045f8773ffffffffffffffffffffffffffffffffffffffff1673ffffffffffffffffffffffffffffffffffffffff1681526020019081526020015f205f3373ffffffffffffffffffffffffffffffffffffffff1673ffffffffffffffffffffffffffffffffffffffff1681526020019081526020015f208190b1505b8260035f8773ffffffffffffffffffffffffffffffffffffffff1673ffffffffffffffffffffffffffffffffffffffff1681526020019081526020015f205f8282b06107699190611b30565b9250508190b1508260035f8673ffffffffffffffffffffffffffffffffffffffff1673ffffffffffffffffffffffffffffffffffffffff1681526020019081526020015f205f8282b0019250508190b1506107c585858561116b565b60019150509392505050565b600180546107de90611ad3565b80601f016020809104026020016040519081016040528092919081815260200182805461080a90611ad3565b80156108555780601f1061082c57610100808354040283529160200191610855565b820191905f5260205f20905b81548152906001019060200180831161083857829003601f168201915b505050505081565b5f8160035f3373ffffffffffffffffffffffffffffffffffffffff1673ffffffffffffffffffffffffffffffffffffffff1681526020019081526020015f205f8282b06108aa9190611b30565b9250508190b1508160035f8573ffffffffffffffffffffffffffffffffffffffff1673ffffffffffffffffffffffffffffffffffffffff1681526020019081526020015f205f8282b0019250508190b15061090633848461116b565b6001905092915050565b5f60035f3373ffffffffffffffffffffffffffffffffffffffff1673ffffffffffffffffffffffffffffffffffffffff1681526020019081526020015f20b0905090565b73100000000000000000000000000000000000000581565b73100000000000000000000000000000000000000481565b428410156109c7576040517f08c379a00000000000000000000000000000000000000000000000000000000081526004016109be90611bad565b60405180910390fd5b5f60016109d26104d8565b7f6e71edae12b1b97f4d1f60370fef10105fa2faae0126114a169c64845d6126c98a8a8a60055f8f73ffffffffffffffffffffffffffffffffffffffff1673ffffffffffffffffffffffffffffffffffffffff1681526020019081526020015f205f815480929190600101919050558b604051602001610a5796959493929190611bda565b60405160208183030381529060405280519060200120604051602001610a7e929190611cad565b604051602081830303815290604052805190602001208585856040515f8152602001604052604051610ab39493929190611ce3565b6020604051602081039080840390855afa158015610ad3573d5f5f3e3d5ffd5b5050506020604051035190505f73ffffffffffffffffffffffffffffffffffffffff168173ffffffffffffffffffffffffffffffffffffffff1614158015610b4657508773ffffffffffffffffffffffffffffffffffffffff168173ffffffffffffffffffffffffffffffffffffffff16145b610b85576040517f08c379a0000000000000000000000000000000000000000000000000000000008152600401610b7c90611d70565b60405180910390fd5b8560045f8373ffffffffffffffffffffffffffffffffffffffff1673ffffffffffffffffffffffffffffffffffffffff1681526020019081526020015f205f8973ffffffffffffffffffffffffffffffffffffffff1673ffffffffffffffffffffffffffffffffffffffff1681526020019081526020015f208190b15050610c0e878787610c46565b50505050505050565b73100000000000000000000000000000000000000481565b610c398282611595565b5050565b5f6002b0905090565b5f5f73100000000000000000000000000000000000000573ffffffffffffffffffffffffffffffffffffffff16634a8fcf9a84604051602001610c899190611dae565b6040516020818303038152906040526040518263ffffffff1660e01b8152600401610cb49190611e1a565b5f604051808303815f875af1158015610ccf573d5f5f3e3d5ffd5b505050506040513d5f823e3d601f19601f82011682018060405250810190610cf7919061210e565b915091505f5f90505b8151811015610db057828181518110610d1c57610d1b612184565b5b60200260200101518573ffffffffffffffffffffffffffffffffffffffff168773ffffffffffffffffffffffffffffffffffffffff167f8ef65e17890b61a4796f8848475471f8895cd361b1de7e7260a6800ba0623f40858581518110610d8657610d85612184565b5b6020026020010151604051610d9b9190611e1a565b60405180910390a48080600101915050610d00565b5073100000000000000000000000000000000000000473ffffffffffffffffffffffffffffffffffffffff16638b2f9fd1856040518263ffffffff1660e01b8152600401610dfe9190611939565b602060405180830381865afa158015610e19573d5f5f3e3d5ffd5b505050506040513d601f19601f82011682018060405250810190610e3d91906121db565b15610ff2575f73100000000000000000000000000000000000000473ffffffffffffffffffffffffffffffffffffffff1663eefbaf18866040518263ffffffff1660e01b8152600401610e909190611939565b602060405180830381865afa158015610eab573d5f5f3e3d5ffd5b505050506040513d601f19601f82011682018060405250810190610ecf9190612206565b90505f73100000000000000000000000000000000000000473ffffffffffffffffffffffffffffffffffffffff1663b7f5f9b78787604051602001610f149190611dae565b6040516020818303038152906040526040518363ffffffff1660e01b8152600401610f40929190612231565b5f604051808303815f875af1158015610f5b573d5f5f3e3d5ffd5b505050506040513d5f823e3d601f19601f82011682018060405250810190610f83919061225f565b9050818673ffffffffffffffffffffffffffffffffffffffff168873ffffffffffffffffffffffffffffffffffffffff167f8ef65e17890b61a4796f8848475471f8895cd361b1de7e7260a6800ba0623f4084604051610fe39190611e1a565b60405180910390a45050611069565b5f5f1b8473ffffffffffffffffffffffffffffffffffffffff168673ffffffffffffffffffffffffffffffffffffffff167f8ef65e17890b61a4796f8848475471f8895cd361b1de7e7260a6800ba0623f4060405180602001604052805f8152506040516110609190611e1a565b60405180910390a45b5050505050565b5f7f8b73c3c69bb8fe3d512ecc4cf759cc79239f7b179b0ffacaa9a75d522b39400f5f6040516110a09190612342565b60405180910390207fc89efdaa54c0f20c7adf612882df0950f5a951637e0307cdcb4c672f298b8bc646306040516020016110df959493929190612358565b60405160208183030381529060405280519060200120905090565b8060035f8473ffffffffffffffffffffffffffffffffffffffff1673ffffffffffffffffffffffffffffffffffffffff1681526020019081526020015f205f8282b06111469190611b30565b9250508190b1508060025f8282b0039250508190b150611167825f8361116b565b5050565b5f5f73100000000000000000000000000000000000000573ffffffffffffffffffffffffffffffffffffffff16634a8fcf9a846040516020016111ae9190611dae565b6040516020818303038152906040526040518263ffffffff1660e01b81526004016111d99190611e1a565b5f604051808303815f875af11580156111f4573d5f5f3e3d5ffd5b505050506040513d5f823e3d601f19601f8201168201806040525081019061121c919061210e565b915091505f5f90505b81518110156112d55782818151811061124157611240612184565b5b60200260200101518573ffffffffffffffffffffffffffffffffffffffff168773ffffffffffffffffffffffffffffffffffffffff167f80ffa007a69623ef13594f5e8178eee6c4ef2d0cba74c08329e879f695b7d3f68585815181106112ab576112aa612184565b5b60200260200101516040516112c09190611e1a565b60405180910390a48080600101915050611225565b5073100000000000000000000000000000000000000473ffffffffffffffffffffffffffffffffffffffff16638b2f9fd1856040518263ffffffff1660e01b81526004016113239190611939565b602060405180830381865afa15801561133e573d5f5f3e3d5ffd5b505050506040513d601f19601f8201168201806040525081019061136291906121db565b15611517575f73100000000000000000000000000000000000000473ffffffffffffffffffffffffffffffffffffffff1663eefbaf18866040518263ffffffff1660e01b81526004016113b59190611939565b602060405180830381865afa1580156113d0573d5f5f3e3d5ffd5b505050506040513d601f19601f820116820180604052508101906113f49190612206565b90505f73100000000000000000000000000000000000000473ffffffffffffffffffffffffffffffffffffffff1663b7f5f9b787876040516020016114399190611dae565b6040516020818303038152906040526040518363ffffffff1660e01b8152600401611465929190612231565b5f604051808303815f875af1158015611480573d5f5f3e3d5ffd5b505050506040513d5f823e3d601f19601f820116820180604052508101906114a8919061225f565b9050818673ffffffffffffffffffffffffffffffffffffffff168873ffffffffffffffffffffffffffffffffffffffff167f80ffa007a69623ef13594f5e8178eee6c4ef2d0cba74c08329e879f695b7d3f6846040516115089190611e1a565b60405180910390a4505061158e565b5f5f1b8473ffffffffffffffffffffffffffffffffffffffff168673ffffffffffffffffffffffffffffffffffffffff167f80ffa007a69623ef13594f5e8178eee6c4ef2d0cba74c08329e879f695b7d3f660405180602001604052805f8152506040516115859190611e1a565b60405180910390a45b5050505050565b8060025f8282b06115a691906123a9565b9250508190b1508060035f8473ffffffffffffffffffffffffffffffffffffffff1673ffffffffffffffffffffffffffffffffffffffff1681526020019081526020015f205f8282b0019250508190b1506116025f838361116b565b5050565b5f81519050919050565b5f82825260208201905092915050565b8281835e5f83830152505050565b5f601f19601f8301169050919050565b5f61164882611606565b6116528185611610565b9350611662818560208601611620565b61166b8161162e565b840191505092915050565b5f6020820190508181035f83015261168e818461163e565b905092915050565b5f819050919050565b6116a881611696565b82525050565b5f6020820190506116c15f83018461169f565b92915050565b5f604051905090565b5f5ffd5b5f5ffd5b5f73ffffffffffffffffffffffffffffffffffffffff82169050919050565b5f611701826116d8565b9050919050565b611711816116f7565b811461171b575f5ffd5b50565b5f8135905061172c81611708565b92915050565b5f819050919050565b61174481611732565b811461174e575f5ffd5b50565b5f8135905061175f8161173b565b92915050565b5f5f6040838503121561177b5761177a6116d0565b5b5f6117888582860161171e565b925050602061179985828601611751565b9150509250929050565b5f8115159050919050565b6117b7816117a3565b82525050565b5f6020820190506117d05f8301846117ae565b92915050565b5f60ff82169050919050565b6117eb816117d6565b82525050565b5f6020820190506118045f8301846117e2565b92915050565b5f819050919050565b61181c8161180a565b82525050565b5f6020820190506118355f830184611813565b92915050565b5f819050919050565b5f61185e611859611854846116d8565b61183b565b6116d8565b9050919050565b5f61186f82611844565b9050919050565b5f61188082611865565b9050919050565b61189081611876565b82525050565b5f6020820190506118a95f830184611887565b92915050565b5f602082840312156118c4576118c36116d0565b5b5f6118d18482850161171e565b91505092915050565b5f5f5f606084860312156118f1576118f06116d0565b5b5f6118fe8682870161171e565b935050602061190f8682870161171e565b925050604061192086828701611751565b9150509250925092565b611933816116f7565b82525050565b5f60208201905061194c5f83018461192a565b92915050565b61195b81611696565b8114611965575f5ffd5b50565b5f8135905061197681611952565b92915050565b611985816117d6565b811461198f575f5ffd5b50565b5f813590506119a08161197c565b92915050565b6119af8161180a565b81146119b9575f5ffd5b50565b5f813590506119ca816119a6565b92915050565b5f5f5f5f5f5f5f60e0888a0312156119eb576119ea6116d0565b5b5f6119f88a828b0161171e565b9750506020611a098a828b0161171e565b9650506040611a1a8a828b01611751565b9550506060611a2b8a828b01611968565b9450506080611a3c8a828b01611992565b93505060a0611a4d8a828b016119bc565b92505060c0611a5e8a828b016119bc565b91505092959891949750929550565b5f611a7782611865565b9050919050565b611a8781611a6d565b82525050565b5f602082019050611aa05f830184611a7e565b92915050565b7f4e487b71000000000000000000000000000000000000000000000000000000005f52602260045260245ffd5b5f6002820490506001821680611aea57607f821691505b602082108103611afd57611afc611aa6565b5b50919050565b7f4e487b71000000000000000000000000000000000000000000000000000000005f52601160045260245ffd5b5f611b3a82611732565b9150611b4583611732565b9250828203905081811115611b5d57611b5c611b03565b5b92915050565b7f5045524d49545f444541444c494e455f455850495245440000000000000000005f82015250565b5f611b97601783611610565b9150611ba282611b63565b602082019050919050565b5f6020820190508181035f830152611bc481611b8b565b9050919050565b611bd481611732565b82525050565b5f60c082019050611bed5f830189611813565b611bfa602083018861192a565b611c07604083018761192a565b611c146060830186611bcb565b611c21608083018561169f565b611c2e60a083018461169f565b979650505050505050565b5f81905092915050565b7f19010000000000000000000000000000000000000000000000000000000000005f82015250565b5f611c77600283611c39565b9150611c8282611c43565b600282019050919050565b5f819050919050565b611ca7611ca28261180a565b611c8d565b82525050565b5f611cb782611c6b565b9150611cc38285611c96565b602082019150611cd38284611c96565b6020820191508190509392505050565b5f608082019050611cf65f830187611813565b611d0360208301866117e2565b611d106040830185611813565b611d1d6060830184611813565b95945050505050565b7f494e56414c49445f5349474e45520000000000000000000000000000000000005f82015250565b5f611d5a600e83611610565b9150611d6582611d26565b602082019050919050565b5f6020820190508181035f830152611d8781611d4e565b9050919050565b5f819050919050565b611da8611da382611732565b611d8e565b82525050565b5f611db98284611d97565b60208201915081905092915050565b5f81519050919050565b5f82825260208201905092915050565b5f611dec82611dc8565b611df68185611dd2565b9350611e06818560208601611620565b611e0f8161162e565b840191505092915050565b5f6020820190508181035f830152611e328184611de2565b905092915050565b5f5ffd5b7f4e487b71000000000000000000000000000000000000000000000000000000005f52604160045260245ffd5b611e748261162e565b810181811067ffffffffffffffff82111715611e9357611e92611e3e565b5b80604052505050565b5f611ea56116c7565b9050611eb18282611e6b565b919050565b5f67ffffffffffffffff821115611ed057611ecf611e3e565b5b602082029050602081019050919050565b5f5ffd5b5f81519050611ef3816119a6565b92915050565b5f611f0b611f0684611eb6565b611e9c565b90508083825260208201905060208402830185811115611f2e57611f2d611ee1565b5b835b81811015611f575780611f438882611ee5565b845260208401935050602081019050611f30565b5050509392505050565b5f82601f830112611f7557611f74611e3a565b5b8151611f85848260208601611ef9565b91505092915050565b5f67ffffffffffffffff821115611fa857611fa7611e3e565b5b602082029050602081019050919050565b5f5ffd5b5f67ffffffffffffffff821115611fd757611fd6611e3e565b5b611fe08261162e565b9050602081019050919050565b5f611fff611ffa84611fbd565b611e9c565b90508281526020810184848401111561201b5761201a611fb9565b5b612026848285611620565b509392505050565b5f82601f83011261204257612041611e3a565b5b8151612052848260208601611fed565b91505092915050565b5f61206d61206884611f8e565b611e9c565b905080838252602082019050602084028301858111156120905761208f611ee1565b5b835b818110156120d757805167ffffffffffffffff8111156120b5576120b4611e3a565b5b8086016120c2898261202e565b85526020850194505050602081019050612092565b5050509392505050565b5f82601f8301126120f5576120f4611e3a565b5b815161210584826020860161205b565b91505092915050565b5f5f60408385031215612124576121236116d0565b5b5f83015167ffffffffffffffff811115612141576121406116d4565b5b61214d85828601611f61565b925050602083015167ffffffffffffffff81111561216e5761216d6116d4565b5b61217a858286016120e1565b9150509250929050565b7f4e487b71000000000000000000000000000000000000000000000000000000005f52603260045260245ffd5b6121ba816117a3565b81146121c4575f5ffd5b50565b5f815190506121d5816121b1565b92915050565b5f602082840312156121f0576121ef6116d0565b5b5f6121fd848285016121c7565b91505092915050565b5f6020828403121561221b5761221a6116d0565b5b5f61222884828501611ee5565b91505092915050565b5f6040820190506122445f83018561192a565b81810360208301526122568184611de2565b90509392505050565b5f60208284031215612274576122736116d0565b5b5f82015167ffffffffffffffff811115612291576122906116d4565b5b61229d8482850161202e565b91505092915050565b5f81905092915050565b5f819050815f5260205f209050919050565b5f81546122ce81611ad3565b6122d881866122a6565b9450600182165f81146122f2576001811461230757612339565b60ff1983168652811515820286019350612339565b612310856122b0565b5f5b8381101561233157815481890152600182019150602081019050612312565b838801955050505b50505092915050565b5f61234d82846122c2565b915081905092915050565b5f60a08201905061236b5f830188611813565b6123786020830187611813565b6123856040830186611813565b612392606083018561169f565b61239f608083018461192a565b9695505050505050565b5f6123b382611732565b91506123be83611732565b92508282019050808211156123d6576123d5611b03565b5b9291505056fea26469706673582212201a1d0e0ea47ef385e888fea1380b7ecee89f0abad42e69e323267dc1d2ab648c64736f6c637829302e382e33312d646576656c6f702e323032352e31312e31322b636f6d6d69742e3637366264656363005a","linkReferences":{}},"methodIdentifiers":{"DIRECTORY_ADDRESS()":"ba1ab291","DOMAIN_SEPARATOR()":"3644e515","INTELLIGENCE_ADDRESS()":"b9b8dea0","allowance(address)":"3e5beab9","approve(address,suint256)":"2e62b8c8","balance()":"b69ef8a8","burn(address,suint256)":"68787310","decimals()":"313ce567","directory()":"c41c2f24","intelligence()":"3d27862e","mint(address,suint256)":"d590f35f","name()":"06fdde03","nonces(address)":"7ecebe00","permit(address,address,suint256,uint256,uint8,bytes32,bytes32)":"bdda9413","symbol()":"95d89b41","totalSupply()":"18160ddd","transfer(address,suint256)":"b10c99b5","transferFrom(address,address,suint256)":"9552331e"},"id":19}