{"abi":[{"type":"constructor","inputs":[{"name":"_baseAsset","type":"address","internalType":"contract ERC20"},{"name":"_intelligence","type":"address","internalType":"contract Intelligence"},{"name":"_name","type":"string","internalType":"string"},{"name":"_symbol","type":"string","internalType":"string"},{"name":"_decimals","type":"uint8","internalType":"uint8"}],"stateMutability":"nonpayable"},{"type":"function","name":"DOMAIN_SEPARATOR","inputs":[],"outputs":[{"name":"","type":"bytes32","internalType":"bytes32"}],"stateMutability":"view"},{"type":"function","name":"allowanceOf","inputs":[{"name":"spender","type":"address","internalType":"address"}],"outputs":[{"name":"","type":"uint256","internalType":"uint256"}],"stateMutability":"view"},{"type":"function","name":"approve","inputs":[{"name":"spender","type":"address","internalType":"address"},{"name":"amount","type":"suint256","internalType":"suint256"}],"outputs":[{"name":"","type":"bool","internalType":"bool"}],"stateMutability":"nonpayable"},{"type":"function","name":"balance","inputs":[],"outputs":[{"name":"","type":"uint256","internalType":"uint256"}],"stateMutability":"view"},{"type":"function","name":"baseAsset","inputs":[],"outputs":[{"name":"","type":"address","internalType":"contract ERC20"}],"stateMutability":"view"},{"type":"function","name":"burn","inputs":[{"name":"amount","type":"uint256","internalType":"uint256"}],"outputs":[],"stateMutability":"nonpayable"},{"type":"function","name":"decimals","inputs":[],"outputs":[{"name":"","type":"uint8","internalType":"uint8"}],"stateMutability":"view"},{"type":"function","name":"intelligence","inputs":[],"outputs":[{"name":"","type":"address","internalType":"contract Intelligence"}],"stateMutability":"view"},{"type":"function","name":"mint","inputs":[{"name":"amount","type":"uint256","internalType":"uint256"}],"outputs":[],"stateMutability":"nonpayable"},{"type":"function","name":"name","inputs":[],"outputs":[{"name":"","type":"string","internalType":"string"}],"stateMutability":"view"},{"type":"function","name":"nonces","inputs":[{"name":"","type":"address","internalType":"address"}],"outputs":[{"name":"","type":"uint256","internalType":"uint256"}],"stateMutability":"view"},{"type":"function","name":"permit","inputs":[{"name":"owner","type":"address","internalType":"address"},{"name":"spender","type":"address","internalType":"address"},{"name":"value","type":"suint256","internalType":"suint256"},{"name":"deadline","type":"uint256","internalType":"uint256"},{"name":"v","type":"uint8","internalType":"uint8"},{"name":"r","type":"bytes32","internalType":"bytes32"},{"name":"s","type":"bytes32","internalType":"bytes32"}],"outputs":[],"stateMutability":"nonpayable"},{"type":"function","name":"symbol","inputs":[],"outputs":[{"name":"","type":"string","internalType":"string"}],"stateMutability":"view"},{"type":"function","name":"totalSupply","inputs":[],"outputs":[{"name":"","type":"uint256","internalType":"uint256"}],"stateMutability":"view"},{"type":"function","name":"transfer","inputs":[{"name":"to","type":"address","internalType":"address"},{"name":"amount","type":"suint256","internalType":"suint256"}],"outputs":[{"name":"","type":"bool","internalType":"bool"}],"stateMutability":"nonpayable"},{"type":"function","name":"transferFrom","inputs":[{"name":"from","type":"address","internalType":"address"},{"name":"to","type":"address","internalType":"address"},{"name":"amount","type":"suint256","internalType":"suint256"}],"outputs":[{"name":"","type":"bool","internalType":"bool"}],"stateMutability":"nonpayable"},{"type":"event","name":"Transfer","inputs":[{"name":"from","type":"address","indexed":true,"internalType":"address"},{"name":"to","type":"address","indexed":true,"internalType":"address"},{"name":"encryptedAmount","type":"bytes","indexed":false,"internalType":"bytes"}],"anonymous":false}],"bytecode":{"object":"0x610120604052348015610010575f5ffd5b5060405161255e38038061255e833981810160405281019061003291906103ac565b84848484848473ffffffffffffffffffffffffffffffffffffffff1660a08173ffffffffffffffffffffffffffffffffffffffff16815250508373ffffffffffffffffffffffffffffffffffffffff1660c08173ffffffffffffffffffffffffffffffffffffffff1681525050825f90816100ad919061066b565b5081600190816100bd919061066b565b508060ff1660808160ff16815250504660e081815250506100e26100f960201b60201c565b610100818152505050505050505050505050610873565b5f7f8b73c3c69bb8fe3d512ecc4cf759cc79239f7b179b0ffacaa9a75d522b39400f5f60405161012991906107d6565b60405180910390207fc89efdaa54c0f20c7adf612882df0950f5a951637e0307cdcb4c672f298b8bc64630604051602001610168959493929190610822565b60405160208183030381529060405280519060200120905090565b5f604051905090565b5f5ffd5b5f5ffd5b5f73ffffffffffffffffffffffffffffffffffffffff82169050919050565b5f6101bd82610194565b9050919050565b5f6101ce826101b3565b9050919050565b6101de816101c4565b81146101e8575f5ffd5b50565b5f815190506101f9816101d5565b92915050565b5f610209826101b3565b9050919050565b610219816101ff565b8114610223575f5ffd5b50565b5f8151905061023481610210565b92915050565b5f5ffd5b5f5ffd5b5f601f19601f8301169050919050565b7f4e487b71000000000000000000000000000000000000000000000000000000005f52604160045260245ffd5b61028882610242565b810181811067ffffffffffffffff821117156102a7576102a6610252565b5b80604052505050565b5f6102b9610183565b90506102c5828261027f565b919050565b5f67ffffffffffffffff8211156102e4576102e3610252565b5b6102ed82610242565b9050602081019050919050565b8281835e5f83830152505050565b5f61031a610315846102ca565b6102b0565b9050828152602081018484840111156103365761033561023e565b5b6103418482856102fa565b509392505050565b5f82601f83011261035d5761035c61023a565b5b815161036d848260208601610308565b91505092915050565b5f60ff82169050919050565b61038b81610376565b8114610395575f5ffd5b50565b5f815190506103a681610382565b92915050565b5f5f5f5f5f60a086880312156103c5576103c461018c565b5b5f6103d2888289016101eb565b95505060206103e388828901610226565b945050604086015167ffffffffffffffff81111561040457610403610190565b5b61041088828901610349565b935050606086015167ffffffffffffffff81111561043157610430610190565b5b61043d88828901610349565b925050608061044e88828901610398565b9150509295509295909350565b5f81519050919050565b7f4e487b71000000000000000000000000000000000000000000000000000000005f52602260045260245ffd5b5f60028204905060018216806104a957607f821691505b6020821081036104bc576104bb610465565b5b50919050565b5f819050815f5260205f209050919050565b5f6020601f8301049050919050565b5f82821b905092915050565b5f6008830261051e7fffffffffffffffffffffffffffffffffffffffffffffffffffffffffffffffff826104e3565b61052886836104e3565b95508019841693508086168417925050509392505050565b5f819050919050565b5f819050919050565b5f61056c61056761056284610540565b610549565b610540565b9050919050565b5f819050919050565b61058583610552565b61059961059182610573565b8484546104ef565b825550505050565b5f5f905090565b6105b06105a1565b6105bb81848461057c565b505050565b5b818110156105de576105d35f826105a8565b6001810190506105c1565b5050565b601f821115610623576105f4816104c2565b6105fd846104d4565b8101602085101561060c578190505b610620610618856104d4565b8301826105c0565b50505b505050565b5f82821c905092915050565b5f6106435f1984600802610628565b1980831691505092915050565b5f61065b8383610634565b9150826002028217905092915050565b6106748261045b565b67ffffffffffffffff81111561068d5761068c610252565b5b6106978254610492565b6106a28282856105e2565b5f60209050601f8311600181146106d3575f84156106c1578287015190505b6106cb8582610650565b865550610732565b601f1984166106e1866104c2565b5f5b82811015610708578489015182556001820191506020850194506020810190506106e3565b868310156107255784890151610721601f891682610634565b8355505b6001600288020188555050505b505050505050565b5f81905092915050565b5f819050815f5260205f209050919050565b5f815461076281610492565b61076c818661073a565b9450600182165f8114610786576001811461079b576107cd565b60ff19831686528115158202860193506107cd565b6107a485610744565b5f5b838110156107c5578154818901526001820191506020810190506107a6565b838801955050505b50505092915050565b5f6107e18284610756565b915081905092915050565b5f819050919050565b6107fe816107ec565b82525050565b61080d81610540565b82525050565b61081c816101b3565b82525050565b5f60a0820190506108355f8301886107f5565b61084260208301876107f5565b61084f60408301866107f5565b61085c6060830185610804565b6108696080830184610813565b9695505050505050565b60805160a05160c05160e05161010051611c996108c55f395f6104aa01525f61047601525f81816104d10152610e4001525f8181610557015281816108e50152610d9101525f6104510152611c995ff3fe608060405234801561000f575f5ffd5b50600436106100fe575f3560e01c80639552331e11610095578063b69ef8a811610064578063b69ef8a8146102ae578063bdda9413146102cc578063bfd2385e146102e8578063cdf456e114610318576100fe565b80639552331e1461021457806395d89b4114610244578063a0712d6814610262578063b10c99b51461027e576100fe565b80633644e515116100d15780633644e5151461018c5780633d27862e146101aa57806342966c68146101c85780637ecebe00146101e4576100fe565b806306fdde031461010257806318160ddd146101205780632e62b8c81461013e578063313ce5671461016e575b5f5ffd5b61010a610336565b604051610117919061100c565b60405180910390f35b6101286103c1565b6040516101359190611044565b60405180910390f35b610158600480360381019061015391906110fb565b6103c7565b6040516101659190611153565b60405180910390f35b61017661044f565b6040516101839190611187565b60405180910390f35b610194610473565b6040516101a191906111b8565b60405180910390f35b6101b26104cf565b6040516101bf919061122c565b60405180910390f35b6101e260048036038101906101dd919061126f565b6104f3565b005b6101fe60048036038101906101f9919061129a565b6105ff565b60405161020b9190611044565b60405180910390f35b61022e600480360381019061022991906112c5565b610614565b60405161023b9190611153565b60405180910390f35b61024c6107f5565b604051610259919061100c565b60405180910390f35b61027c6004803603810190610277919061126f565b610881565b005b610298600480360381019061029391906110fb565b61098f565b6040516102a59190611153565b60405180910390f35b6102b6610a42565b6040516102c39190611044565b60405180910390f35b6102e660048036038101906102e19190611369565b610a86565b005b61030260048036038101906102fd919061129a565b610d0e565b60405161030f9190611044565b60405180910390f35b610320610d8f565b60405161032d9190611426565b60405180910390f35b5f80546103429061146c565b80601f016020809104026020016040519081016040528092919081815260200182805461036e9061146c565b80156103b95780601f10610390576101008083540402835291602001916103b9565b820191905f5260205f20905b81548152906001019060200180831161039c57829003601f168201915b505050505081565b60025481565b5f8160045f3373ffffffffffffffffffffffffffffffffffffffff1673ffffffffffffffffffffffffffffffffffffffff1681526020019081526020015f205f8573ffffffffffffffffffffffffffffffffffffffff1673ffffffffffffffffffffffffffffffffffffffff1681526020019081526020015f208190b1506001905092915050565b7f000000000000000000000000000000000000000000000000000000000000000081565b5f7f000000000000000000000000000000000000000000000000000000000000000046146104a8576104a3610db3565b6104ca565b7f00000000000000000000000000000000000000000000000000000000000000005b905090565b7f000000000000000000000000000000000000000000000000000000000000000081565b8060035f3373ffffffffffffffffffffffffffffffffffffffff1673ffffffffffffffffffffffffffffffffffffffff1681526020019081526020015f205f8282b061053f91906114c9565b9250508190b1508060025f82825403925050819055507f000000000000000000000000000000000000000000000000000000000000000073ffffffffffffffffffffffffffffffffffffffff1663a9059cbb33836040518363ffffffff1660e01b81526004016105b092919061150b565b6020604051808303815f875af11580156105cc573d5f5f3e3d5ffd5b505050506040513d601f19601f820116820180604052508101906105f0919061155c565b506105fc335f83610e3d565b50565b6005602052805f5260405f205f915090505481565b5f5f60045f8673ffffffffffffffffffffffffffffffffffffffff1673ffffffffffffffffffffffffffffffffffffffff1681526020019081526020015f205f3373ffffffffffffffffffffffffffffffffffffffff1673ffffffffffffffffffffffffffffffffffffffff1681526020019081526020015f20b090507fffffffffffffffffffffffffffffffffffffffffffffffffffffffffffffffff81146107415782816106c491906114c9565b60045f8773ffffffffffffffffffffffffffffffffffffffff1673ffffffffffffffffffffffffffffffffffffffff1681526020019081526020015f205f3373ffffffffffffffffffffffffffffffffffffffff1673ffffffffffffffffffffffffffffffffffffffff1681526020019081526020015f208190b1505b8260035f8773ffffffffffffffffffffffffffffffffffffffff1673ffffffffffffffffffffffffffffffffffffffff1681526020019081526020015f205f8282b061078d91906114c9565b9250508190b1508260035f8673ffffffffffffffffffffffffffffffffffffffff1673ffffffffffffffffffffffffffffffffffffffff1681526020019081526020015f205f8282b0019250508190b1506107e9858585610e3d565b60019150509392505050565b600180546108029061146c565b80601f016020809104026020016040519081016040528092919081815260200182805461082e9061146c565b80156108795780601f1061085057610100808354040283529160200191610879565b820191905f5260205f20905b81548152906001019060200180831161085c57829003601f168201915b505050505081565b8060025f8282546108929190611587565b925050819055508060035f3373ffffffffffffffffffffffffffffffffffffffff1673ffffffffffffffffffffffffffffffffffffffff1681526020019081526020015f205f8282b0019250508190b1507f000000000000000000000000000000000000000000000000000000000000000073ffffffffffffffffffffffffffffffffffffffff166323b872dd3330846040518463ffffffff1660e01b8152600401610940939291906115ba565b6020604051808303815f875af115801561095c573d5f5f3e3d5ffd5b505050506040513d601f19601f82011682018060405250810190610980919061155c565b5061098c5f3383610e3d565b50565b5f8160035f3373ffffffffffffffffffffffffffffffffffffffff1673ffffffffffffffffffffffffffffffffffffffff1681526020019081526020015f205f8282b06109dc91906114c9565b9250508190b1508160035f8573ffffffffffffffffffffffffffffffffffffffff1673ffffffffffffffffffffffffffffffffffffffff1681526020019081526020015f205f8282b0019250508190b150610a38338484610e3d565b6001905092915050565b5f60035f3373ffffffffffffffffffffffffffffffffffffffff1673ffffffffffffffffffffffffffffffffffffffff1681526020019081526020015f20b0905090565b42841015610ac9576040517f08c379a0000000000000000000000000000000000000000000000000000000008152600401610ac090611639565b60405180910390fd5b5f6001610ad4610473565b7f6e71edae12b1b97f4d1f60370fef10105fa2faae0126114a169c64845d6126c98a8a8a60055f8f73ffffffffffffffffffffffffffffffffffffffff1673ffffffffffffffffffffffffffffffffffffffff1681526020019081526020015f205f815480929190600101919050558b604051602001610b5996959493929190611666565b60405160208183030381529060405280519060200120604051602001610b80929190611739565b604051602081830303815290604052805190602001208585856040515f8152602001604052604051610bb5949392919061176f565b6020604051602081039080840390855afa158015610bd5573d5f5f3e3d5ffd5b5050506020604051035190505f73ffffffffffffffffffffffffffffffffffffffff168173ffffffffffffffffffffffffffffffffffffffff1614158015610c4857508773ffffffffffffffffffffffffffffffffffffffff168173ffffffffffffffffffffffffffffffffffffffff16145b610c87576040517f08c379a0000000000000000000000000000000000000000000000000000000008152600401610c7e906117fc565b60405180910390fd5b8560045f8373ffffffffffffffffffffffffffffffffffffffff1673ffffffffffffffffffffffffffffffffffffffff1681526020019081526020015f205f8973ffffffffffffffffffffffffffffffffffffffff1673ffffffffffffffffffffffffffffffffffffffff1681526020019081526020015f208190b1505050505050505050565b5f60045f3373ffffffffffffffffffffffffffffffffffffffff1673ffffffffffffffffffffffffffffffffffffffff1681526020019081526020015f205f8373ffffffffffffffffffffffffffffffffffffffff1673ffffffffffffffffffffffffffffffffffffffff1681526020019081526020015f20b09050919050565b7f000000000000000000000000000000000000000000000000000000000000000081565b5f7f8b73c3c69bb8fe3d512ecc4cf759cc79239f7b179b0ffacaa9a75d522b39400f5f604051610de391906118b6565b60405180910390207fc89efdaa54c0f20c7adf612882df0950f5a951637e0307cdcb4c672f298b8bc64630604051602001610e229594939291906118cc565b60405160208183030381529060405280519060200120905090565b5f7f000000000000000000000000000000000000000000000000000000000000000073ffffffffffffffffffffffffffffffffffffffff166331b00e4683604051602001610e8b919061193d565b6040516020818303038152906040526040518263ffffffff1660e01b8152600401610eb691906119a9565b5f604051808303815f875af1158015610ed1573d5f5f3e3d5ffd5b505050506040513d5f823e3d601f19601f82011682018060405250810190610ef99190611bc9565b90505f5f90505b8151811015610f95578373ffffffffffffffffffffffffffffffffffffffff168573ffffffffffffffffffffffffffffffffffffffff167fd7e0e76a339fe8e46c3a779742dd7c08951ec9048bb513b9e5749820fc3a6fb7848481518110610f6b57610f6a611c10565b5b6020026020010151604051610f8091906119a9565b60405180910390a38080600101915050610f00565b5050505050565b5f81519050919050565b5f82825260208201905092915050565b8281835e5f83830152505050565b5f601f19601f8301169050919050565b5f610fde82610f9c565b610fe88185610fa6565b9350610ff8818560208601610fb6565b61100181610fc4565b840191505092915050565b5f6020820190508181035f8301526110248184610fd4565b905092915050565b5f819050919050565b61103e8161102c565b82525050565b5f6020820190506110575f830184611035565b92915050565b5f604051905090565b5f5ffd5b5f5ffd5b5f73ffffffffffffffffffffffffffffffffffffffff82169050919050565b5f6110978261106e565b9050919050565b6110a78161108d565b81146110b1575f5ffd5b50565b5f813590506110c28161109e565b92915050565b5f819050919050565b6110da816110c8565b81146110e4575f5ffd5b50565b5f813590506110f5816110d1565b92915050565b5f5f6040838503121561111157611110611066565b5b5f61111e858286016110b4565b925050602061112f858286016110e7565b9150509250929050565b5f8115159050919050565b61114d81611139565b82525050565b5f6020820190506111665f830184611144565b92915050565b5f60ff82169050919050565b6111818161116c565b82525050565b5f60208201905061119a5f830184611178565b92915050565b5f819050919050565b6111b2816111a0565b82525050565b5f6020820190506111cb5f8301846111a9565b92915050565b5f819050919050565b5f6111f46111ef6111ea8461106e565b6111d1565b61106e565b9050919050565b5f611205826111da565b9050919050565b5f611216826111fb565b9050919050565b6112268161120c565b82525050565b5f60208201905061123f5f83018461121d565b92915050565b61124e8161102c565b8114611258575f5ffd5b50565b5f8135905061126981611245565b92915050565b5f6020828403121561128457611283611066565b5b5f6112918482850161125b565b91505092915050565b5f602082840312156112af576112ae611066565b5b5f6112bc848285016110b4565b91505092915050565b5f5f5f606084860312156112dc576112db611066565b5b5f6112e9868287016110b4565b93505060206112fa868287016110b4565b925050604061130b868287016110e7565b9150509250925092565b61131e8161116c565b8114611328575f5ffd5b50565b5f8135905061133981611315565b92915050565b611348816111a0565b8114611352575f5ffd5b50565b5f813590506113638161133f565b92915050565b5f5f5f5f5f5f5f60e0888a03121561138457611383611066565b5b5f6113918a828b016110b4565b97505060206113a28a828b016110b4565b96505060406113b38a828b016110e7565b95505060606113c48a828b0161125b565b94505060806113d58a828b0161132b565b93505060a06113e68a828b01611355565b92505060c06113f78a828b01611355565b91505092959891949750929550565b5f611410826111fb565b9050919050565b61142081611406565b82525050565b5f6020820190506114395f830184611417565b92915050565b7f4e487b71000000000000000000000000000000000000000000000000000000005f52602260045260245ffd5b5f600282049050600182168061148357607f821691505b6020821081036114965761149561143f565b5b50919050565b7f4e487b71000000000000000000000000000000000000000000000000000000005f52601160045260245ffd5b5f6114d3826110c8565b91506114de836110c8565b92508282039050818111156114f6576114f561149c565b5b92915050565b6115058161108d565b82525050565b5f60408201905061151e5f8301856114fc565b61152b6020830184611035565b9392505050565b61153b81611139565b8114611545575f5ffd5b50565b5f8151905061155681611532565b92915050565b5f6020828403121561157157611570611066565b5b5f61157e84828501611548565b91505092915050565b5f6115918261102c565b915061159c8361102c565b92508282019050808211156115b4576115b361149c565b5b92915050565b5f6060820190506115cd5f8301866114fc565b6115da60208301856114fc565b6115e76040830184611035565b949350505050565b7f5045524d49545f444541444c494e455f455850495245440000000000000000005f82015250565b5f611623601783610fa6565b915061162e826115ef565b602082019050919050565b5f6020820190508181035f83015261165081611617565b9050919050565b611660816110c8565b82525050565b5f60c0820190506116795f8301896111a9565b61168660208301886114fc565b61169360408301876114fc565b6116a06060830186611657565b6116ad6080830185611035565b6116ba60a0830184611035565b979650505050505050565b5f81905092915050565b7f19010000000000000000000000000000000000000000000000000000000000005f82015250565b5f6117036002836116c5565b915061170e826116cf565b600282019050919050565b5f819050919050565b61173361172e826111a0565b611719565b82525050565b5f611743826116f7565b915061174f8285611722565b60208201915061175f8284611722565b6020820191508190509392505050565b5f6080820190506117825f8301876111a9565b61178f6020830186611178565b61179c60408301856111a9565b6117a960608301846111a9565b95945050505050565b7f494e56414c49445f5349474e45520000000000000000000000000000000000005f82015250565b5f6117e6600e83610fa6565b91506117f1826117b2565b602082019050919050565b5f6020820190508181035f830152611813816117da565b9050919050565b5f81905092915050565b5f819050815f5260205f209050919050565b5f81546118428161146c565b61184c818661181a565b9450600182165f8114611866576001811461187b576118ad565b60ff19831686528115158202860193506118ad565b61188485611824565b5f5b838110156118a557815481890152600182019150602081019050611886565b838801955050505b50505092915050565b5f6118c18284611836565b915081905092915050565b5f60a0820190506118df5f8301886111a9565b6118ec60208301876111a9565b6118f960408301866111a9565b6119066060830185611035565b61191360808301846114fc565b9695505050505050565b5f819050919050565b611937611932826110c8565b61191d565b82525050565b5f6119488284611926565b60208201915081905092915050565b5f81519050919050565b5f82825260208201905092915050565b5f61197b82611957565b6119858185611961565b9350611995818560208601610fb6565b61199e81610fc4565b840191505092915050565b5f6020820190508181035f8301526119c18184611971565b905092915050565b5f5ffd5b7f4e487b71000000000000000000000000000000000000000000000000000000005f52604160045260245ffd5b611a0382610fc4565b810181811067ffffffffffffffff82111715611a2257611a216119cd565b5b80604052505050565b5f611a3461105d565b9050611a4082826119fa565b919050565b5f67ffffffffffffffff821115611a5f57611a5e6119cd565b5b602082029050602081019050919050565b5f5ffd5b5f5ffd5b5f67ffffffffffffffff821115611a9257611a916119cd565b5b611a9b82610fc4565b9050602081019050919050565b5f611aba611ab584611a78565b611a2b565b905082815260208101848484011115611ad657611ad5611a74565b5b611ae1848285610fb6565b509392505050565b5f82601f830112611afd57611afc6119c9565b5b8151611b0d848260208601611aa8565b91505092915050565b5f611b28611b2384611a45565b611a2b565b90508083825260208201905060208402830185811115611b4b57611b4a611a70565b5b835b81811015611b9257805167ffffffffffffffff811115611b7057611b6f6119c9565b5b808601611b7d8982611ae9565b85526020850194505050602081019050611b4d565b5050509392505050565b5f82601f830112611bb057611baf6119c9565b5b8151611bc0848260208601611b16565b91505092915050565b5f60208284031215611bde57611bdd611066565b5b5f82015167ffffffffffffffff811115611bfb57611bfa61106a565b5b611c0784828501611b9c565b91505092915050565b7f4e487b71000000000000000000000000000000000000000000000000000000005f52603260045260245ffdfea26469706673582212202a8cc3537c8f1e4e5642f4db583d9a644b421fedbf5efc8b44a6830a024e064764736f6c637828302e382e32392d646576656c6f702e323032352e372e32332b636f6d6d69742e36393665623163640059","linkReferences":{}},"methodIdentifiers":{"DOMAIN_SEPARATOR()":"3644e515","allowanceOf(address)":"bfd2385e","approve(address,suint256)":"2e62b8c8","balance()":"b69ef8a8","baseAsset()":"cdf456e1","burn(uint256)":"42966c68","decimals()":"313ce567","intelligence()":"3d27862e","mint(uint256)":"a0712d68","name()":"06fdde03","nonces(address)":"7ecebe00","permit(address,address,suint256,uint256,uint8,bytes32,bytes32)":"bdda9413","symbol()":"95d89b41","totalSupply()":"18160ddd","transfer(address,suint256)":"b10c99b5","transferFrom(address,address,suint256)":"9552331e"},"id":22}