{"abi":[{"type":"constructor","inputs":[{"name":"_name","type":"string","internalType":"string"},{"name":"_symbol","type":"string","internalType":"string"},{"name":"_decimals","type":"uint8","internalType":"uint8"}],"stateMutability":"nonpayable"},{"type":"function","name":"DOMAIN_SEPARATOR","inputs":[],"outputs":[{"name":"","type":"bytes32","internalType":"bytes32"}],"stateMutability":"view"},{"type":"function","name":"INTELLIGENCE_ADDRESS","inputs":[],"outputs":[{"name":"","type":"address","internalType":"address"}],"stateMutability":"view"},{"type":"function","name":"allowance","inputs":[{"name":"spender","type":"address","internalType":"address"}],"outputs":[{"name":"","type":"uint256","internalType":"uint256"}],"stateMutability":"view"},{"type":"function","name":"approve","inputs":[{"name":"spender","type":"address","internalType":"address"},{"name":"amount","type":"suint256","internalType":"suint256"}],"outputs":[{"name":"","type":"bool","internalType":"bool"}],"stateMutability":"nonpayable"},{"type":"function","name":"balance","inputs":[],"outputs":[{"name":"","type":"uint256","internalType":"uint256"}],"stateMutability":"view"},{"type":"function","name":"burn","inputs":[{"name":"from","type":"address","internalType":"address"},{"name":"value","type":"suint256","internalType":"suint256"}],"outputs":[],"stateMutability":"nonpayable"},{"type":"function","name":"decimals","inputs":[],"outputs":[{"name":"","type":"uint8","internalType":"uint8"}],"stateMutability":"view"},{"type":"function","name":"intelligence","inputs":[],"outputs":[{"name":"","type":"address","internalType":"contract IIntelligence"}],"stateMutability":"view"},{"type":"function","name":"mint","inputs":[{"name":"to","type":"address","internalType":"address"},{"name":"value","type":"suint256","internalType":"suint256"}],"outputs":[],"stateMutability":"nonpayable"},{"type":"function","name":"name","inputs":[],"outputs":[{"name":"","type":"string","internalType":"string"}],"stateMutability":"view"},{"type":"function","name":"nonces","inputs":[{"name":"","type":"address","internalType":"address"}],"outputs":[{"name":"","type":"uint256","internalType":"uint256"}],"stateMutability":"view"},{"type":"function","name":"permit","inputs":[{"name":"owner","type":"address","internalType":"address"},{"name":"spender","type":"address","internalType":"address"},{"name":"value","type":"suint256","internalType":"suint256"},{"name":"deadline","type":"uint256","internalType":"uint256"},{"name":"v","type":"uint8","internalType":"uint8"},{"name":"r","type":"bytes32","internalType":"bytes32"},{"name":"s","type":"bytes32","internalType":"bytes32"}],"outputs":[],"stateMutability":"nonpayable"},{"type":"function","name":"symbol","inputs":[],"outputs":[{"name":"","type":"string","internalType":"string"}],"stateMutability":"view"},{"type":"function","name":"totalSupply","inputs":[],"outputs":[{"name":"","type":"uint256","internalType":"uint256"}],"stateMutability":"view"},{"type":"function","name":"transfer","inputs":[{"name":"to","type":"address","internalType":"address"},{"name":"amount","type":"suint256","internalType":"suint256"}],"outputs":[{"name":"","type":"bool","internalType":"bool"}],"stateMutability":"nonpayable"},{"type":"function","name":"transferFrom","inputs":[{"name":"from","type":"address","internalType":"address"},{"name":"to","type":"address","internalType":"address"},{"name":"amount","type":"suint256","internalType":"suint256"}],"outputs":[{"name":"","type":"bool","internalType":"bool"}],"stateMutability":"nonpayable"},{"type":"event","name":"Approval","inputs":[{"name":"owner","type":"address","indexed":true,"internalType":"address"},{"name":"spender","type":"address","indexed":true,"internalType":"address"},{"name":"encryptKeyHash","type":"bytes32","indexed":true,"internalType":"bytes32"},{"name":"encryptedAmount","type":"bytes","indexed":false,"internalType":"bytes"}],"anonymous":false},{"type":"event","name":"Transfer","inputs":[{"name":"from","type":"address","indexed":true,"internalType":"address"},{"name":"to","type":"address","indexed":true,"internalType":"address"},{"name":"encryptKeyHash","type":"bytes32","indexed":true,"internalType":"bytes32"},{"name":"encryptedAmount","type":"bytes","indexed":false,"internalType":"bytes"}],"anonymous":false}],"bytecode":{"object":"0x61010060405273100000000000000000000000000000000000000673ffffffffffffffffffffffffffffffffffffffff1660a09073ffffffffffffffffffffffffffffffffffffffff16815250348015610057575f5ffd5b5060405161252c38038061252c833981810160405281019061007991906102de565b828282825f908161008a9190610576565b50816001908161009a9190610576565b508060ff1660808160ff16815250504660c081815250506100bf6100d160201b60201c565b60e081815250505050505050506107ae565b5f7f8b73c3c69bb8fe3d512ecc4cf759cc79239f7b179b0ffacaa9a75d522b39400f5f60405161010191906106e1565b60405180910390207fc89efdaa54c0f20c7adf612882df0950f5a951637e0307cdcb4c672f298b8bc6463060405160200161014095949392919061075d565b60405160208183030381529060405280519060200120905090565b5f604051905090565b5f5ffd5b5f5ffd5b5f5ffd5b5f5ffd5b5f601f19601f8301169050919050565b7f4e487b71000000000000000000000000000000000000000000000000000000005f52604160045260245ffd5b6101ba82610174565b810181811067ffffffffffffffff821117156101d9576101d8610184565b5b80604052505050565b5f6101eb61015b565b90506101f782826101b1565b919050565b5f67ffffffffffffffff82111561021657610215610184565b5b61021f82610174565b9050602081019050919050565b8281835e5f83830152505050565b5f61024c610247846101fc565b6101e2565b90508281526020810184848401111561026857610267610170565b5b61027384828561022c565b509392505050565b5f82601f83011261028f5761028e61016c565b5b815161029f84826020860161023a565b91505092915050565b5f60ff82169050919050565b6102bd816102a8565b81146102c7575f5ffd5b50565b5f815190506102d8816102b4565b92915050565b5f5f5f606084860312156102f5576102f4610164565b5b5f84015167ffffffffffffffff81111561031257610311610168565b5b61031e8682870161027b565b935050602084015167ffffffffffffffff81111561033f5761033e610168565b5b61034b8682870161027b565b925050604061035c868287016102ca565b9150509250925092565b5f81519050919050565b7f4e487b71000000000000000000000000000000000000000000000000000000005f52602260045260245ffd5b5f60028204905060018216806103b457607f821691505b6020821081036103c7576103c6610370565b5b50919050565b5f819050815f5260205f209050919050565b5f6020601f8301049050919050565b5f82821b905092915050565b5f600883026104297fffffffffffffffffffffffffffffffffffffffffffffffffffffffffffffffff826103ee565b61043386836103ee565b95508019841693508086168417925050509392505050565b5f819050919050565b5f819050919050565b5f61047761047261046d8461044b565b610454565b61044b565b9050919050565b5f819050919050565b6104908361045d565b6104a461049c8261047e565b8484546103fa565b825550505050565b5f5f905090565b6104bb6104ac565b6104c6818484610487565b505050565b5b818110156104e9576104de5f826104b3565b6001810190506104cc565b5050565b601f82111561052e576104ff816103cd565b610508846103df565b81016020851015610517578190505b61052b610523856103df565b8301826104cb565b50505b505050565b5f82821c905092915050565b5f61054e5f1984600802610533565b1980831691505092915050565b5f610566838361053f565b9150826002028217905092915050565b61057f82610366565b67ffffffffffffffff81111561059857610597610184565b5b6105a2825461039d565b6105ad8282856104ed565b5f60209050601f8311600181146105de575f84156105cc578287015190505b6105d6858261055b565b86555061063d565b601f1984166105ec866103cd565b5f5b82811015610613578489015182556001820191506020850194506020810190506105ee565b86831015610630578489015161062c601f89168261053f565b8355505b6001600288020188555050505b505050505050565b5f81905092915050565b5f819050815f5260205f209050919050565b5f815461066d8161039d565b6106778186610645565b9450600182165f811461069157600181146106a6576106d8565b60ff19831686528115158202860193506106d8565b6106af8561064f565b5f5b838110156106d0578154818901526001820191506020810190506106b1565b838801955050505b50505092915050565b5f6106ec8284610661565b915081905092915050565b5f819050919050565b610709816106f7565b82525050565b6107188161044b565b82525050565b5f73ffffffffffffffffffffffffffffffffffffffff82169050919050565b5f6107478261071e565b9050919050565b6107578161073d565b82525050565b5f60a0820190506107705f830188610700565b61077d6020830187610700565b61078a6040830186610700565b610797606083018561070f565b6107a4608083018461074e565b9695505050505050565b60805160a05160c05160e051611d3d6107ef5f395f6104bd01525f61048901525f81816104e401528181610bd40152610e4d01525f6104640152611d3d5ff3fe608060405234801561000f575f5ffd5b50600436106100fe575f3560e01c80637ecebe0011610095578063b69ef8a811610064578063b69ef8a8146102c2578063b9b8dea0146102e0578063bdda9413146102fe578063d590f35f1461031a576100fe565b80637ecebe00146102145780639552331e1461024457806395d89b4114610274578063b10c99b514610292576100fe565b80633644e515116100d15780633644e5151461018c5780633d27862e146101aa5780633e5beab9146101c857806368787310146101f8576100fe565b806306fdde031461010257806318160ddd146101205780632e62b8c81461013e578063313ce5671461016e575b5f5ffd5b61010a610336565b60405161011791906110a8565b60405180910390f35b6101286103c1565b60405161013591906110e0565b60405180910390f35b61015860048036038101906101539190611197565b6103cf565b60405161016591906111ef565b60405180910390f35b610176610462565b6040516101839190611223565b60405180910390f35b610194610486565b6040516101a19190611254565b60405180910390f35b6101b26104e2565b6040516101bf91906112c8565b60405180910390f35b6101e260048036038101906101dd91906112e1565b610506565b6040516101ef91906110e0565b60405180910390f35b610212600480360381019061020d9190611197565b610587565b005b61022e600480360381019061022991906112e1565b610595565b60405161023b91906110e0565b60405180910390f35b61025e6004803603810190610259919061130c565b6105aa565b60405161026b91906111ef565b60405180910390f35b61027c61078b565b60405161028991906110a8565b60405180910390f35b6102ac60048036038101906102a79190611197565b610817565b6040516102b991906111ef565b60405180910390f35b6102ca6108ca565b6040516102d791906110e0565b60405180910390f35b6102e861090e565b6040516102f5919061136b565b60405180910390f35b61031860048036038101906103139190611402565b610926565b005b610334600480360381019061032f9190611197565b610bb9565b005b5f8054610342906114cc565b80601f016020809104026020016040519081016040528092919081815260200182805461036e906114cc565b80156103b95780601f10610390576101008083540402835291602001916103b9565b820191905f5260205f20905b81548152906001019060200180831161039c57829003601f168201915b505050505081565b5f6103ca610bc7565b905090565b5f8160045f3373ffffffffffffffffffffffffffffffffffffffff1673ffffffffffffffffffffffffffffffffffffffff1681526020019081526020015f205f8573ffffffffffffffffffffffffffffffffffffffff1673ffffffffffffffffffffffffffffffffffffffff1681526020019081526020015f208190b150610458338484610bd0565b6001905092915050565b7f000000000000000000000000000000000000000000000000000000000000000081565b5f7f000000000000000000000000000000000000000000000000000000000000000046146104bb576104b6610d4e565b6104dd565b7f00000000000000000000000000000000000000000000000000000000000000005b905090565b7f000000000000000000000000000000000000000000000000000000000000000081565b5f60045f3373ffffffffffffffffffffffffffffffffffffffff1673ffffffffffffffffffffffffffffffffffffffff1681526020019081526020015f205f8373ffffffffffffffffffffffffffffffffffffffff1673ffffffffffffffffffffffffffffffffffffffff1681526020019081526020015f20b09050919050565b6105918282610dd8565b5050565b6005602052805f5260405f205f915090505481565b5f5f60045f8673ffffffffffffffffffffffffffffffffffffffff1673ffffffffffffffffffffffffffffffffffffffff1681526020019081526020015f205f3373ffffffffffffffffffffffffffffffffffffffff1673ffffffffffffffffffffffffffffffffffffffff1681526020019081526020015f20b090507fffffffffffffffffffffffffffffffffffffffffffffffffffffffffffffffff81146106d757828161065a9190611529565b60045f8773ffffffffffffffffffffffffffffffffffffffff1673ffffffffffffffffffffffffffffffffffffffff1681526020019081526020015f205f3373ffffffffffffffffffffffffffffffffffffffff1673ffffffffffffffffffffffffffffffffffffffff1681526020019081526020015f208190b1505b8260035f8773ffffffffffffffffffffffffffffffffffffffff1673ffffffffffffffffffffffffffffffffffffffff1681526020019081526020015f205f8282b06107239190611529565b9250508190b1508260035f8673ffffffffffffffffffffffffffffffffffffffff1673ffffffffffffffffffffffffffffffffffffffff1681526020019081526020015f205f8282b0019250508190b15061077f858585610e49565b60019150509392505050565b60018054610798906114cc565b80601f01602080910402602001604051908101604052809291908181526020018280546107c4906114cc565b801561080f5780601f106107e65761010080835404028352916020019161080f565b820191905f5260205f20905b8154815290600101906020018083116107f257829003601f168201915b505050505081565b5f8160035f3373ffffffffffffffffffffffffffffffffffffffff1673ffffffffffffffffffffffffffffffffffffffff1681526020019081526020015f205f8282b06108649190611529565b9250508190b1508160035f8573ffffffffffffffffffffffffffffffffffffffff1673ffffffffffffffffffffffffffffffffffffffff1681526020019081526020015f205f8282b0019250508190b1506108c0338484610e49565b6001905092915050565b5f60035f3373ffffffffffffffffffffffffffffffffffffffff1673ffffffffffffffffffffffffffffffffffffffff1681526020019081526020015f20b0905090565b73100000000000000000000000000000000000000681565b42841015610969576040517f08c379a0000000000000000000000000000000000000000000000000000000008152600401610960906115a6565b60405180910390fd5b5f6001610974610486565b7f6e71edae12b1b97f4d1f60370fef10105fa2faae0126114a169c64845d6126c98a8a8a60055f8f73ffffffffffffffffffffffffffffffffffffffff1673ffffffffffffffffffffffffffffffffffffffff1681526020019081526020015f205f815480929190600101919050558b6040516020016109f9969594939291906115d3565b60405160208183030381529060405280519060200120604051602001610a209291906116a6565b604051602081830303815290604052805190602001208585856040515f8152602001604052604051610a5594939291906116dc565b6020604051602081039080840390855afa158015610a75573d5f5f3e3d5ffd5b5050506020604051035190505f73ffffffffffffffffffffffffffffffffffffffff168173ffffffffffffffffffffffffffffffffffffffff1614158015610ae857508773ffffffffffffffffffffffffffffffffffffffff168173ffffffffffffffffffffffffffffffffffffffff16145b610b27576040517f08c379a0000000000000000000000000000000000000000000000000000000008152600401610b1e90611769565b60405180910390fd5b8560045f8373ffffffffffffffffffffffffffffffffffffffff1673ffffffffffffffffffffffffffffffffffffffff1681526020019081526020015f205f8973ffffffffffffffffffffffffffffffffffffffff1673ffffffffffffffffffffffffffffffffffffffff1681526020019081526020015f208190b15050610bb0878787610bd0565b50505050505050565b610bc38282610fc7565b5050565b5f6002b0905090565b5f5f7f000000000000000000000000000000000000000000000000000000000000000073ffffffffffffffffffffffffffffffffffffffff16634a8fcf9a84604051602001610c1f91906117a7565b6040516020818303038152906040526040518263ffffffff1660e01b8152600401610c4a9190611813565b5f604051808303815f875af1158015610c65573d5f5f3e3d5ffd5b505050506040513d5f823e3d601f19601f82011682018060405250810190610c8d9190611b07565b915091505f5f90505b8151811015610d4657828181518110610cb257610cb1611b7d565b5b60200260200101518573ffffffffffffffffffffffffffffffffffffffff168773ffffffffffffffffffffffffffffffffffffffff167f8ef65e17890b61a4796f8848475471f8895cd361b1de7e7260a6800ba0623f40858581518110610d1c57610d1b611b7d565b5b6020026020010151604051610d319190611813565b60405180910390a48080600101915050610c96565b505050505050565b5f7f8b73c3c69bb8fe3d512ecc4cf759cc79239f7b179b0ffacaa9a75d522b39400f5f604051610d7e9190611c46565b60405180910390207fc89efdaa54c0f20c7adf612882df0950f5a951637e0307cdcb4c672f298b8bc64630604051602001610dbd959493929190611c5c565b60405160208183030381529060405280519060200120905090565b8060035f8473ffffffffffffffffffffffffffffffffffffffff1673ffffffffffffffffffffffffffffffffffffffff1681526020019081526020015f205f8282b0610e249190611529565b9250508190b1508060025f8282b0039250508190b150610e45825f83610e49565b5050565b5f5f7f000000000000000000000000000000000000000000000000000000000000000073ffffffffffffffffffffffffffffffffffffffff16634a8fcf9a84604051602001610e9891906117a7565b6040516020818303038152906040526040518263ffffffff1660e01b8152600401610ec39190611813565b5f604051808303815f875af1158015610ede573d5f5f3e3d5ffd5b505050506040513d5f823e3d601f19601f82011682018060405250810190610f069190611b07565b915091505f5f90505b8151811015610fbf57828181518110610f2b57610f2a611b7d565b5b60200260200101518573ffffffffffffffffffffffffffffffffffffffff168773ffffffffffffffffffffffffffffffffffffffff167f80ffa007a69623ef13594f5e8178eee6c4ef2d0cba74c08329e879f695b7d3f6858581518110610f9557610f94611b7d565b5b6020026020010151604051610faa9190611813565b60405180910390a48080600101915050610f0f565b505050505050565b8060025f8282b0610fd89190611cad565b9250508190b1508060035f8473ffffffffffffffffffffffffffffffffffffffff1673ffffffffffffffffffffffffffffffffffffffff1681526020019081526020015f205f8282b0019250508190b1506110345f8383610e49565b5050565b5f81519050919050565b5f82825260208201905092915050565b8281835e5f83830152505050565b5f601f19601f8301169050919050565b5f61107a82611038565b6110848185611042565b9350611094818560208601611052565b61109d81611060565b840191505092915050565b5f6020820190508181035f8301526110c08184611070565b905092915050565b5f819050919050565b6110da816110c8565b82525050565b5f6020820190506110f35f8301846110d1565b92915050565b5f604051905090565b5f5ffd5b5f5ffd5b5f73ffffffffffffffffffffffffffffffffffffffff82169050919050565b5f6111338261110a565b9050919050565b61114381611129565b811461114d575f5ffd5b50565b5f8135905061115e8161113a565b92915050565b5f819050919050565b61117681611164565b8114611180575f5ffd5b50565b5f813590506111918161116d565b92915050565b5f5f604083850312156111ad576111ac611102565b5b5f6111ba85828601611150565b92505060206111cb85828601611183565b9150509250929050565b5f8115159050919050565b6111e9816111d5565b82525050565b5f6020820190506112025f8301846111e0565b92915050565b5f60ff82169050919050565b61121d81611208565b82525050565b5f6020820190506112365f830184611214565b92915050565b5f819050919050565b61124e8161123c565b82525050565b5f6020820190506112675f830184611245565b92915050565b5f819050919050565b5f61129061128b6112868461110a565b61126d565b61110a565b9050919050565b5f6112a182611276565b9050919050565b5f6112b282611297565b9050919050565b6112c2816112a8565b82525050565b5f6020820190506112db5f8301846112b9565b92915050565b5f602082840312156112f6576112f5611102565b5b5f61130384828501611150565b91505092915050565b5f5f5f6060848603121561132357611322611102565b5b5f61133086828701611150565b935050602061134186828701611150565b925050604061135286828701611183565b9150509250925092565b61136581611129565b82525050565b5f60208201905061137e5f83018461135c565b92915050565b61138d816110c8565b8114611397575f5ffd5b50565b5f813590506113a881611384565b92915050565b6113b781611208565b81146113c1575f5ffd5b50565b5f813590506113d2816113ae565b92915050565b6113e18161123c565b81146113eb575f5ffd5b50565b5f813590506113fc816113d8565b92915050565b5f5f5f5f5f5f5f60e0888a03121561141d5761141c611102565b5b5f61142a8a828b01611150565b975050602061143b8a828b01611150565b965050604061144c8a828b01611183565b955050606061145d8a828b0161139a565b945050608061146e8a828b016113c4565b93505060a061147f8a828b016113ee565b92505060c06114908a828b016113ee565b91505092959891949750929550565b7f4e487b71000000000000000000000000000000000000000000000000000000005f52602260045260245ffd5b5f60028204905060018216806114e357607f821691505b6020821081036114f6576114f561149f565b5b50919050565b7f4e487b71000000000000000000000000000000000000000000000000000000005f52601160045260245ffd5b5f61153382611164565b915061153e83611164565b9250828203905081811115611556576115556114fc565b5b92915050565b7f5045524d49545f444541444c494e455f455850495245440000000000000000005f82015250565b5f611590601783611042565b915061159b8261155c565b602082019050919050565b5f6020820190508181035f8301526115bd81611584565b9050919050565b6115cd81611164565b82525050565b5f60c0820190506115e65f830189611245565b6115f3602083018861135c565b611600604083018761135c565b61160d60608301866115c4565b61161a60808301856110d1565b61162760a08301846110d1565b979650505050505050565b5f81905092915050565b7f19010000000000000000000000000000000000000000000000000000000000005f82015250565b5f611670600283611632565b915061167b8261163c565b600282019050919050565b5f819050919050565b6116a061169b8261123c565b611686565b82525050565b5f6116b082611664565b91506116bc828561168f565b6020820191506116cc828461168f565b6020820191508190509392505050565b5f6080820190506116ef5f830187611245565b6116fc6020830186611214565b6117096040830185611245565b6117166060830184611245565b95945050505050565b7f494e56414c49445f5349474e45520000000000000000000000000000000000005f82015250565b5f611753600e83611042565b915061175e8261171f565b602082019050919050565b5f6020820190508181035f83015261178081611747565b9050919050565b5f819050919050565b6117a161179c82611164565b611787565b82525050565b5f6117b28284611790565b60208201915081905092915050565b5f81519050919050565b5f82825260208201905092915050565b5f6117e5826117c1565b6117ef81856117cb565b93506117ff818560208601611052565b61180881611060565b840191505092915050565b5f6020820190508181035f83015261182b81846117db565b905092915050565b5f5ffd5b7f4e487b71000000000000000000000000000000000000000000000000000000005f52604160045260245ffd5b61186d82611060565b810181811067ffffffffffffffff8211171561188c5761188b611837565b5b80604052505050565b5f61189e6110f9565b90506118aa8282611864565b919050565b5f67ffffffffffffffff8211156118c9576118c8611837565b5b602082029050602081019050919050565b5f5ffd5b5f815190506118ec816113d8565b92915050565b5f6119046118ff846118af565b611895565b90508083825260208201905060208402830185811115611927576119266118da565b5b835b81811015611950578061193c88826118de565b845260208401935050602081019050611929565b5050509392505050565b5f82601f83011261196e5761196d611833565b5b815161197e8482602086016118f2565b91505092915050565b5f67ffffffffffffffff8211156119a1576119a0611837565b5b602082029050602081019050919050565b5f5ffd5b5f67ffffffffffffffff8211156119d0576119cf611837565b5b6119d982611060565b9050602081019050919050565b5f6119f86119f3846119b6565b611895565b905082815260208101848484011115611a1457611a136119b2565b5b611a1f848285611052565b509392505050565b5f82601f830112611a3b57611a3a611833565b5b8151611a4b8482602086016119e6565b91505092915050565b5f611a66611a6184611987565b611895565b90508083825260208201905060208402830185811115611a8957611a886118da565b5b835b81811015611ad057805167ffffffffffffffff811115611aae57611aad611833565b5b808601611abb8982611a27565b85526020850194505050602081019050611a8b565b5050509392505050565b5f82601f830112611aee57611aed611833565b5b8151611afe848260208601611a54565b91505092915050565b5f5f60408385031215611b1d57611b1c611102565b5b5f83015167ffffffffffffffff811115611b3a57611b39611106565b5b611b468582860161195a565b925050602083015167ffffffffffffffff811115611b6757611b66611106565b5b611b7385828601611ada565b9150509250929050565b7f4e487b71000000000000000000000000000000000000000000000000000000005f52603260045260245ffd5b5f81905092915050565b5f819050815f5260205f209050919050565b5f8154611bd2816114cc565b611bdc8186611baa565b9450600182165f8114611bf65760018114611c0b57611c3d565b60ff1983168652811515820286019350611c3d565b611c1485611bb4565b5f5b83811015611c3557815481890152600182019150602081019050611c16565b838801955050505b50505092915050565b5f611c518284611bc6565b915081905092915050565b5f60a082019050611c6f5f830188611245565b611c7c6020830187611245565b611c896040830186611245565b611c9660608301856110d1565b611ca3608083018461135c565b9695505050505050565b5f611cb782611164565b9150611cc283611164565b9250828201905080821115611cda57611cd96114fc565b5b9291505056fea26469706673582212202fd7e9553fa3f9f54d60b122b62dc43ac8fe7a4f14d3bc8402c02d996ab835db64736f6c637829302e382e33312d646576656c6f702e323032352e31312e31322b636f6d6d69742e3637366264656363005a","linkReferences":{}},"methodIdentifiers":{"DOMAIN_SEPARATOR()":"3644e515","INTELLIGENCE_ADDRESS()":"b9b8dea0","allowance(address)":"3e5beab9","approve(address,suint256)":"2e62b8c8","balance()":"b69ef8a8","burn(address,suint256)":"68787310","decimals()":"313ce567","intelligence()":"3d27862e","mint(address,suint256)":"d590f35f","name()":"06fdde03","nonces(address)":"7ecebe00","permit(address,address,suint256,uint256,uint8,bytes32,bytes32)":"bdda9413","symbol()":"95d89b41","totalSupply()":"18160ddd","transfer(address,suint256)":"b10c99b5","transferFrom(address,address,suint256)":"9552331e"},"id":34}