{"abi":[{"type":"function","name":"INITIAL_OWNER","inputs":[],"outputs":[{"name":"","type":"address","internalType":"address"}],"stateMutability":"view"},{"type":"function","name":"addKey","inputs":[{"name":"_key","type":"suint256","internalType":"suint256"}],"outputs":[],"stateMutability":"nonpayable"},{"type":"function","name":"decrypt","inputs":[{"name":"key","type":"suint256","internalType":"suint256"},{"name":"_encryptedData","type":"bytes","internalType":"bytes"}],"outputs":[{"name":"","type":"bytes","internalType":"bytes"}],"stateMutability":"view"},{"type":"function","name":"encrypt","inputs":[{"name":"_plaintext","type":"bytes","internalType":"bytes"}],"outputs":[{"name":"","type":"bytes32[]","internalType":"bytes32[]"},{"name":"","type":"bytes[]","internalType":"bytes[]"}],"stateMutability":"nonpayable"},{"type":"function","name":"encryptIdx","inputs":[{"name":"_keyIdx","type":"uint256","internalType":"uint256"},{"name":"_plaintext","type":"bytes","internalType":"bytes"}],"outputs":[{"name":"","type":"bytes","internalType":"bytes"}],"stateMutability":"nonpayable"},{"type":"function","name":"keyHashes","inputs":[{"name":"","type":"uint256","internalType":"uint256"}],"outputs":[{"name":"","type":"bytes32","internalType":"bytes32"}],"stateMutability":"view"},{"type":"function","name":"nonce","inputs":[],"outputs":[{"name":"","type":"uint96","internalType":"uint96"}],"stateMutability":"view"},{"type":"function","name":"numKeys","inputs":[],"outputs":[{"name":"","type":"uint256","internalType":"uint256"}],"stateMutability":"view"},{"type":"function","name":"owner","inputs":[],"outputs":[{"name":"","type":"address","internalType":"address"}],"stateMutability":"view"},{"type":"function","name":"removeKey","inputs":[{"name":"_key","type":"suint256","internalType":"suint256"}],"outputs":[],"stateMutability":"nonpayable"},{"type":"function","name":"transferOwnership","inputs":[{"name":"newOwner","type":"address","internalType":"address"}],"outputs":[],"stateMutability":"nonpayable"},{"type":"event","name":"OwnershipTransferred","inputs":[{"name":"user","type":"address","indexed":true,"internalType":"address"},{"name":"newOwner","type":"address","indexed":true,"internalType":"address"}],"anonymous":false},{"type":"error","name":"AESPrecompileCallFailed","inputs":[]}],"bytecode":{"object":"0x6080604052348015600e575f5ffd5b50611aa18061001c5f395ff3fe608060405234801561000f575f5ffd5b50600436106100a7575f3560e01c8063affed0e01161006f578063affed0e014610164578063b03e6db714610182578063c9d24ecc1461019e578063cab95985146101bc578063ee8787d9146101ec578063f2fde38b1461021c576100a7565b806305eb1ea0146100ab57806331b00e46146100c757806384dedf54146100f85780638da5cb5b14610128578063a36250d814610146575b5f5ffd5b6100c560048036038101906100c09190610ec7565b610238565b005b6100e160048036038101906100dc919061102e565b610430565b6040516100ef929190611250565b60405180910390f35b610112600480360381019061010d91906112b8565b61052e565b60405161011f91906112f2565b60405180910390f35b61013061054e565b60405161013d919061134a565b60405180910390f35b61014e610572565b60405161015b919061134a565b60405180910390f35b61016c61058a565b6040516101799190611389565b60405180910390f35b61019c60048036038101906101979190610ec7565b6105a7565b005b6101a6610832565b6040516101b391906113b1565b60405180910390f35b6101d660048036038101906101d191906113ca565b61083e565b6040516101e3919061146c565b60405180910390f35b6102066004803603810190610201919061148c565b6109c9565b604051610213919061146c565b60405180910390f35b61023660048036038101906102319190611510565b610a5f565b005b807fffffffffffffffffffffffffffffffffffffffffffffffffffffffffffffffff61026382610c30565b146102a3576040517f08c379a000000000000000000000000000000000000000000000000000000000815260040161029a90611595565b60405180910390fd5b5f73ffffffffffffffffffffffffffffffffffffffff165f5f9054906101000a900473ffffffffffffffffffffffffffffffffffffffff1673ffffffffffffffffffffffffffffffffffffffff160361034a57736346d64a3f31774283b72926b75ffda9662266ce5f5f6101000a81548173ffffffffffffffffffffffffffffffffffffffff021916908373ffffffffffffffffffffffffffffffffffffffff1602179055505b5f5f9054906101000a900473ffffffffffffffffffffffffffffffffffffffff1673ffffffffffffffffffffffffffffffffffffffff163373ffffffffffffffffffffffffffffffffffffffff16146103d8576040517f08c379a00000000000000000000000000000000000000000000000000000000081526004016103cf906115fd565b60405180910390fd5b600182908060018154018082558091505060019003905f5260205f20015f90919091909150b1600261040983610ca6565b908060018154018082558091505060019003905f5260205f20015f90919091909150555050565b6060805f60018054905067ffffffffffffffff81111561045357610452610f0a565b5b60405190808252806020026020018201604052801561048657816020015b60608152602001906001900390816104715790505b5090505f5f90505b6001805490508110156104d0576104a5818661083e565b8282815181106104b8576104b761161b565b5b6020026020010181905250808060010191505061048e565b506002818180548060200260200160405190810160405280929190818152602001828054801561051d57602002820191905f5260205f20905b815481526020019060010190808311610509575b505050505091509250925050915091565b6002818154811061053d575f80fd5b905f5260205f20015f915090505481565b5f5f9054906101000a900473ffffffffffffffffffffffffffffffffffffffff1681565b736346d64a3f31774283b72926b75ffda9662266ce81565b60035f9054906101000a90046bffffffffffffffffffffffff1681565b5f73ffffffffffffffffffffffffffffffffffffffff165f5f9054906101000a900473ffffffffffffffffffffffffffffffffffffffff1673ffffffffffffffffffffffffffffffffffffffff160361064e57736346d64a3f31774283b72926b75ffda9662266ce5f5f6101000a81548173ffffffffffffffffffffffffffffffffffffffff021916908373ffffffffffffffffffffffffffffffffffffffff1602179055505b5f5f9054906101000a900473ffffffffffffffffffffffffffffffffffffffff1673ffffffffffffffffffffffffffffffffffffffff163373ffffffffffffffffffffffffffffffffffffffff16146106dc576040517f08c379a00000000000000000000000000000000000000000000000000000000081526004016106d3906115fd565b60405180910390fd5b5f6106e682610c30565b90507fffffffffffffffffffffffffffffffffffffffffffffffffffffffffffffffff810361074a576040517f08c379a000000000000000000000000000000000000000000000000000000000815260040161074190611692565b60405180910390fd5b600180808054905061075c91906116dd565b8154811061076d5761076c61161b565b5b905f5260205f2001b06001828154811061078a5761078961161b565b5b905f5260205f20018190b15060018054806107a8576107a7611710565b5b600190038181905f5260205f20015f90b19055600260016002805490506107cf91906116dd565b815481106107e0576107df61161b565b5b905f5260205f200154600282815481106107fd576107fc61161b565b5b905f5260205f200181905550600280548061081b5761081a611710565b5b600190038181905f5260205f20015f905590555050565b5f600180549050905090565b60606001805490508310610887576040517f08c379a000000000000000000000000000000000000000000000000000000000815260040161087e90611692565b60405180910390fd5b5f6001848154811061089c5761089b61161b565b5b905f5260205f2001b090505f6108cc8260035f9054906101000a90046bffffffffffffffffffffffff1686610cd5565b90505f73__$18044092e53cba7c976adc5b73e0e739d9$__63415028a98360035f9054906101000a90046bffffffffffffffffffffffff166040518363ffffffff1660e01b8152600401610921929190611794565b5f60405180830381865af415801561093b573d5f5f3e3d5ffd5b505050506040513d5f823e3d601f19601f820116820180604052508101906109639190611830565b905060035f81819054906101000a90046bffffffffffffffffffffffff168092919061098e90611877565b91906101000a8154816bffffffffffffffffffffffff02191690836bffffffffffffffffffffffff1602179055505080935050505092915050565b60605f5f73__$18044092e53cba7c976adc5b73e0e739d9$__63e8d6c79a856040518263ffffffff1660e01b8152600401610a0491906118aa565b5f60405180830381865af4158015610a1e573d5f5f3e3d5ffd5b505050506040513d5f823e3d601f19601f82011682018060405250810190610a4691906118f4565b91509150610a55858284610dac565b9250505092915050565b5f73ffffffffffffffffffffffffffffffffffffffff165f5f9054906101000a900473ffffffffffffffffffffffffffffffffffffffff1673ffffffffffffffffffffffffffffffffffffffff1603610b0657736346d64a3f31774283b72926b75ffda9662266ce5f5f6101000a81548173ffffffffffffffffffffffffffffffffffffffff021916908373ffffffffffffffffffffffffffffffffffffffff1602179055505b5f5f9054906101000a900473ffffffffffffffffffffffffffffffffffffffff1673ffffffffffffffffffffffffffffffffffffffff163373ffffffffffffffffffffffffffffffffffffffff1614610b94576040517f08c379a0000000000000000000000000000000000000000000000000000000008152600401610b8b906115fd565b60405180910390fd5b805f5f6101000a81548173ffffffffffffffffffffffffffffffffffffffff021916908373ffffffffffffffffffffffffffffffffffffffff1602179055508073ffffffffffffffffffffffffffffffffffffffff163373ffffffffffffffffffffffffffffffffffffffff167f8be0079c531659141344cd1fd0a4f28419497f9722a3daafe3b4186f6b6457e060405160405180910390a350565b5f5f5f90505b600180549050811015610c7c578260018281548110610c5857610c5761161b565b5b905f5260205f2001b003610c6f5780915050610ca1565b8080600101915050610c36565b507fffffffffffffffffffffffffffffffffffffffffffffffffffffffffffffffff90505b919050565b5f81604051602001610cb8919061196e565b604051602081830303815290604052805190602001209050919050565b60605f848484604051602001610ced939291906119f6565b60405160208183030381529060405290505f5f606673ffffffffffffffffffffffffffffffffffffffff1683604051610d269190611a2e565b5f60405180830381855afa9150503d805f8114610d5e576040519150601f19603f3d011682016040523d82523d5f602084013e610d63565b606091505b509150915081610d9f576040517fa99eec4b00000000000000000000000000000000000000000000000000000000815260040160405180910390fd5b8093505050509392505050565b60605f848484604051602001610dc4939291906119f6565b60405160208183030381529060405290505f5f606773ffffffffffffffffffffffffffffffffffffffff1683604051610dfd9190611a2e565b5f60405180830381855afa9150503d805f8114610e35576040519150601f19603f3d011682016040523d82523d5f602084013e610e3a565b606091505b509150915081610e76576040517fa99eec4b00000000000000000000000000000000000000000000000000000000815260040160405180910390fd5b8093505050509392505050565b5f604051905090565b5f5ffd5b5f5ffd5b5f819050919050565b610ea681610e94565b8114610eb0575f5ffd5b50565b5f81359050610ec181610e9d565b92915050565b5f60208284031215610edc57610edb610e8c565b5b5f610ee984828501610eb3565b91505092915050565b5f5ffd5b5f5ffd5b5f601f19601f8301169050919050565b7f4e487b71000000000000000000000000000000000000000000000000000000005f52604160045260245ffd5b610f4082610efa565b810181811067ffffffffffffffff82111715610f5f57610f5e610f0a565b5b80604052505050565b5f610f71610e83565b9050610f7d8282610f37565b919050565b5f67ffffffffffffffff821115610f9c57610f9b610f0a565b5b610fa582610efa565b9050602081019050919050565b828183375f83830152505050565b5f610fd2610fcd84610f82565b610f68565b905082815260208101848484011115610fee57610fed610ef6565b5b610ff9848285610fb2565b509392505050565b5f82601f83011261101557611014610ef2565b5b8135611025848260208601610fc0565b91505092915050565b5f6020828403121561104357611042610e8c565b5b5f82013567ffffffffffffffff8111156110605761105f610e90565b5b61106c84828501611001565b91505092915050565b5f81519050919050565b5f82825260208201905092915050565b5f819050602082019050919050565b5f819050919050565b6110b08161109e565b82525050565b5f6110c183836110a7565b60208301905092915050565b5f602082019050919050565b5f6110e382611075565b6110ed818561107f565b93506110f88361108f565b805f5b8381101561112857815161110f88826110b6565b975061111a836110cd565b9250506001810190506110fb565b5085935050505092915050565b5f81519050919050565b5f82825260208201905092915050565b5f819050602082019050919050565b5f81519050919050565b5f82825260208201905092915050565b8281835e5f83830152505050565b5f6111908261115e565b61119a8185611168565b93506111aa818560208601611178565b6111b381610efa565b840191505092915050565b5f6111c98383611186565b905092915050565b5f602082019050919050565b5f6111e782611135565b6111f1818561113f565b9350836020820285016112038561114f565b805f5b8581101561123e578484038952815161121f85826111be565b945061122a836111d1565b925060208a01995050600181019050611206565b50829750879550505050505092915050565b5f6040820190508181035f83015261126881856110d9565b9050818103602083015261127c81846111dd565b90509392505050565b5f819050919050565b61129781611285565b81146112a1575f5ffd5b50565b5f813590506112b28161128e565b92915050565b5f602082840312156112cd576112cc610e8c565b5b5f6112da848285016112a4565b91505092915050565b6112ec8161109e565b82525050565b5f6020820190506113055f8301846112e3565b92915050565b5f73ffffffffffffffffffffffffffffffffffffffff82169050919050565b5f6113348261130b565b9050919050565b6113448161132a565b82525050565b5f60208201905061135d5f83018461133b565b92915050565b5f6bffffffffffffffffffffffff82169050919050565b61138381611363565b82525050565b5f60208201905061139c5f83018461137a565b92915050565b6113ab81611285565b82525050565b5f6020820190506113c45f8301846113a2565b92915050565b5f5f604083850312156113e0576113df610e8c565b5b5f6113ed858286016112a4565b925050602083013567ffffffffffffffff81111561140e5761140d610e90565b5b61141a85828601611001565b9150509250929050565b5f82825260208201905092915050565b5f61143e8261115e565b6114488185611424565b9350611458818560208601611178565b61146181610efa565b840191505092915050565b5f6020820190508181035f8301526114848184611434565b905092915050565b5f5f604083850312156114a2576114a1610e8c565b5b5f6114af85828601610eb3565b925050602083013567ffffffffffffffff8111156114d0576114cf610e90565b5b6114dc85828601611001565b9150509250929050565b6114ef8161132a565b81146114f9575f5ffd5b50565b5f8135905061150a816114e6565b92915050565b5f6020828403121561152557611524610e8c565b5b5f611532848285016114fc565b91505092915050565b5f82825260208201905092915050565b7f4455504c49434154455f4b4559000000000000000000000000000000000000005f82015250565b5f61157f600d8361153b565b915061158a8261154b565b602082019050919050565b5f6020820190508181035f8301526115ac81611573565b9050919050565b7f554e415554484f52495a454400000000000000000000000000000000000000005f82015250565b5f6115e7600c8361153b565b91506115f2826115b3565b602082019050919050565b5f6020820190508181035f830152611614816115db565b9050919050565b7f4e487b71000000000000000000000000000000000000000000000000000000005f52603260045260245ffd5b7f4b45595f4e4f545f464f554e44000000000000000000000000000000000000005f82015250565b5f61167c600d8361153b565b915061168782611648565b602082019050919050565b5f6020820190508181035f8301526116a981611670565b9050919050565b7f4e487b71000000000000000000000000000000000000000000000000000000005f52601160045260245ffd5b5f6116e782611285565b91506116f283611285565b925082820390508181111561170a576117096116b0565b5b92915050565b7f4e487b71000000000000000000000000000000000000000000000000000000005f52603160045260245ffd5b5f82825260208201905092915050565b5f6117578261115e565b611761818561173d565b9350611771818560208601611178565b61177a81610efa565b840191505092915050565b61178e81611363565b82525050565b5f6040820190508181035f8301526117ac818561174d565b90506117bb6020830184611785565b9392505050565b5f6117d46117cf84610f82565b610f68565b9050828152602081018484840111156117f0576117ef610ef6565b5b6117fb848285611178565b509392505050565b5f82601f83011261181757611816610ef2565b5b81516118278482602086016117c2565b91505092915050565b5f6020828403121561184557611844610e8c565b5b5f82015167ffffffffffffffff81111561186257611861610e90565b5b61186e84828501611803565b91505092915050565b5f61188182611363565b91506bffffffffffffffffffffffff820361189f5761189e6116b0565b5b600182019050919050565b5f6020820190508181035f8301526118c2818461174d565b905092915050565b6118d381611363565b81146118dd575f5ffd5b50565b5f815190506118ee816118ca565b92915050565b5f5f6040838503121561190a57611909610e8c565b5b5f83015167ffffffffffffffff81111561192757611926610e90565b5b61193385828601611803565b9250506020611944858286016118e0565b9150509250929050565b5f819050919050565b61196861196382610e94565b61194e565b82525050565b5f6119798284611957565b60208201915081905092915050565b5f8160a01b9050919050565b5f61199e82611988565b9050919050565b6119b66119b182611363565b611994565b82525050565b5f81905092915050565b5f6119d08261115e565b6119da81856119bc565b93506119ea818560208601611178565b80840191505092915050565b5f611a018286611957565b602082019150611a1182856119a5565b600c82019150611a2182846119c6565b9150819050949350505050565b5f611a3982846119c6565b91508190509291505056fea2646970667358221220736b2c2252f8dfaf4d9bdab97b41b82dc41c69cf2125efaa3782a60074f135ac64736f6c637829302e382e33312d646576656c6f702e323032352e31312e31322b636f6d6d69742e3637366264656363005a","linkReferences":{"lib/AesLib.sol":{"AesLib":[{"start":2285,"length":20},{"start":2539,"length":20}]}}},"methodIdentifiers":{"INITIAL_OWNER()":"a36250d8","addKey(suint256)":"05eb1ea0","decrypt(suint256,bytes)":"ee8787d9","encrypt(bytes)":"31b00e46","encryptIdx(uint256,bytes)":"cab95985","keyHashes(uint256)":"84dedf54","nonce()":"affed0e0","numKeys()":"c9d24ecc","owner()":"8da5cb5b","removeKey(suint256)":"b03e6db7","transferOwnership(address)":"f2fde38b"},"id":23}