{"abi":[{"type":"constructor","inputs":[],"stateMutability":"nonpayable"},{"type":"function","name":"INITIAL_OWNER","inputs":[],"outputs":[{"name":"","type":"address","internalType":"address"}],"stateMutability":"view"},{"type":"function","name":"addKey","inputs":[{"name":"_key","type":"suint256","internalType":"suint256"}],"outputs":[],"stateMutability":"nonpayable"},{"type":"function","name":"decrypt","inputs":[{"name":"key","type":"suint256","internalType":"suint256"},{"name":"_encryptedData","type":"bytes","internalType":"bytes"}],"outputs":[{"name":"","type":"bytes","internalType":"bytes"}],"stateMutability":"view"},{"type":"function","name":"encrypt","inputs":[{"name":"_plaintext","type":"bytes","internalType":"bytes"}],"outputs":[{"name":"","type":"bytes32[]","internalType":"bytes32[]"},{"name":"","type":"bytes[]","internalType":"bytes[]"}],"stateMutability":"nonpayable"},{"type":"function","name":"encryptIdx","inputs":[{"name":"_keyIdx","type":"uint256","internalType":"uint256"},{"name":"_plaintext","type":"bytes","internalType":"bytes"}],"outputs":[{"name":"","type":"bytes","internalType":"bytes"}],"stateMutability":"nonpayable"},{"type":"function","name":"keyHashes","inputs":[{"name":"","type":"uint256","internalType":"uint256"}],"outputs":[{"name":"","type":"bytes32","internalType":"bytes32"}],"stateMutability":"view"},{"type":"function","name":"nonce","inputs":[],"outputs":[{"name":"","type":"uint96","internalType":"uint96"}],"stateMutability":"view"},{"type":"function","name":"numKeys","inputs":[],"outputs":[{"name":"","type":"uint256","internalType":"uint256"}],"stateMutability":"view"},{"type":"function","name":"owner","inputs":[],"outputs":[{"name":"","type":"address","internalType":"address"}],"stateMutability":"view"},{"type":"function","name":"removeKey","inputs":[{"name":"_key","type":"suint256","internalType":"suint256"}],"outputs":[],"stateMutability":"nonpayable"},{"type":"function","name":"transferOwnership","inputs":[{"name":"newOwner","type":"address","internalType":"address"}],"outputs":[],"stateMutability":"nonpayable"},{"type":"event","name":"OwnershipTransferred","inputs":[{"name":"user","type":"address","indexed":true,"internalType":"address"},{"name":"newOwner","type":"address","indexed":true,"internalType":"address"}],"anonymous":false},{"type":"error","name":"AESPrecompileCallFailed","inputs":[]}],"bytecode":{"object":"0x60a0604052736346d64a3f31774283b72926b75ffda9662266ce73ffffffffffffffffffffffffffffffffffffffff1660809073ffffffffffffffffffffffffffffffffffffffff16815250348015610056575f5ffd5b506080516119fd6100845f395f818161028d01528181610514015281816105a80152610a6c01526119fd5ff3fe608060405234801561000f575f5ffd5b50600436106100a7575f3560e01c8063affed0e01161006f578063affed0e014610164578063b03e6db714610182578063c9d24ecc1461019e578063cab95985146101bc578063ee8787d9146101ec578063f2fde38b1461021c576100a7565b806305eb1ea0146100ab57806331b00e46146100c757806384dedf54146100f85780638da5cb5b14610128578063a36250d814610146575b5f5ffd5b6100c560048036038101906100c09190610e8b565b610238565b005b6100e160048036038101906100dc9190610ff2565b6103d0565b6040516100ef929190611214565b60405180910390f35b610112600480360381019061010d919061127c565b6104ce565b60405161011f91906112b6565b60405180910390f35b6101306104ee565b60405161013d919061130e565b60405180910390f35b61014e610512565b60405161015b919061130e565b60405180910390f35b61016c610536565b604051610179919061134d565b60405180910390f35b61019c60048036038101906101979190610e8b565b610553565b005b6101a66107ea565b6040516101b39190611375565b60405180910390f35b6101d660048036038101906101d1919061138e565b6107f6565b6040516101e39190611430565b60405180910390f35b61020660048036038101906102019190611450565b610981565b6040516102139190611430565b60405180910390f35b610236600480360381019061023191906114d4565b610a17565b005b5f73ffffffffffffffffffffffffffffffffffffffff165f5f9054906101000a900473ffffffffffffffffffffffffffffffffffffffff1673ffffffffffffffffffffffffffffffffffffffff16036102eb577f00000000000000000000000000000000000000000000000000000000000000005f5f6101000a81548173ffffffffffffffffffffffffffffffffffffffff021916908373ffffffffffffffffffffffffffffffffffffffff1602179055505b5f5f9054906101000a900473ffffffffffffffffffffffffffffffffffffffff1673ffffffffffffffffffffffffffffffffffffffff163373ffffffffffffffffffffffffffffffffffffffff1614610379576040517f08c379a000000000000000000000000000000000000000000000000000000000815260040161037090611559565b60405180910390fd5b600181908060018154018082558091505060019003905f5260205f20015f90919091909150b160026103aa82610bf4565b908060018154018082558091505060019003905f5260205f20015f909190919091505550565b6060805f60018054905067ffffffffffffffff8111156103f3576103f2610ece565b5b60405190808252806020026020018201604052801561042657816020015b60608152602001906001900390816104115790505b5090505f5f90505b6001805490508110156104705761044581866107f6565b82828151811061045857610457611577565b5b6020026020010181905250808060010191505061042e565b50600281818054806020026020016040519081016040528092919081815260200182805480156104bd57602002820191905f5260205f20905b8154815260200190600101908083116104a9575b505050505091509250925050915091565b600281815481106104dd575f80fd5b905f5260205f20015f915090505481565b5f5f9054906101000a900473ffffffffffffffffffffffffffffffffffffffff1681565b7f000000000000000000000000000000000000000000000000000000000000000081565b60035f9054906101000a90046bffffffffffffffffffffffff1681565b5f73ffffffffffffffffffffffffffffffffffffffff165f5f9054906101000a900473ffffffffffffffffffffffffffffffffffffffff1673ffffffffffffffffffffffffffffffffffffffff1603610606577f00000000000000000000000000000000000000000000000000000000000000005f5f6101000a81548173ffffffffffffffffffffffffffffffffffffffff021916908373ffffffffffffffffffffffffffffffffffffffff1602179055505b5f5f9054906101000a900473ffffffffffffffffffffffffffffffffffffffff1673ffffffffffffffffffffffffffffffffffffffff163373ffffffffffffffffffffffffffffffffffffffff1614610694576040517f08c379a000000000000000000000000000000000000000000000000000000000815260040161068b90611559565b60405180910390fd5b5f61069e82610c23565b90507fffffffffffffffffffffffffffffffffffffffffffffffffffffffffffffffff8103610702576040517f08c379a00000000000000000000000000000000000000000000000000000000081526004016106f9906115ee565b60405180910390fd5b60018080805490506107149190611639565b8154811061072557610724611577565b5b905f5260205f2001b06001828154811061074257610741611577565b5b905f5260205f20018190b15060018054806107605761075f61166c565b5b600190038181905f5260205f20015f90b19055600260016002805490506107879190611639565b8154811061079857610797611577565b5b905f5260205f200154600282815481106107b5576107b4611577565b5b905f5260205f20018190555060028054806107d3576107d261166c565b5b600190038181905f5260205f20015f905590555050565b5f600180549050905090565b6060600180549050831061083f576040517f08c379a0000000000000000000000000000000000000000000000000000000008152600401610836906115ee565b60405180910390fd5b5f6001848154811061085457610853611577565b5b905f5260205f2001b090505f6108848260035f9054906101000a90046bffffffffffffffffffffffff1686610c99565b90505f73__$851c94c409dfd84fc196ac1b2d288a23b2$__63415028a98360035f9054906101000a90046bffffffffffffffffffffffff166040518363ffffffff1660e01b81526004016108d99291906116f0565b5f60405180830381865af41580156108f3573d5f5f3e3d5ffd5b505050506040513d5f823e3d601f19601f8201168201806040525081019061091b919061178c565b905060035f81819054906101000a90046bffffffffffffffffffffffff1680929190610946906117d3565b91906101000a8154816bffffffffffffffffffffffff02191690836bffffffffffffffffffffffff1602179055505080935050505092915050565b60605f5f73__$851c94c409dfd84fc196ac1b2d288a23b2$__63e8d6c79a856040518263ffffffff1660e01b81526004016109bc9190611806565b5f60405180830381865af41580156109d6573d5f5f3e3d5ffd5b505050506040513d5f823e3d601f19601f820116820180604052508101906109fe9190611850565b91509150610a0d858284610d70565b9250505092915050565b5f73ffffffffffffffffffffffffffffffffffffffff165f5f9054906101000a900473ffffffffffffffffffffffffffffffffffffffff1673ffffffffffffffffffffffffffffffffffffffff1603610aca577f00000000000000000000000000000000000000000000000000000000000000005f5f6101000a81548173ffffffffffffffffffffffffffffffffffffffff021916908373ffffffffffffffffffffffffffffffffffffffff1602179055505b5f5f9054906101000a900473ffffffffffffffffffffffffffffffffffffffff1673ffffffffffffffffffffffffffffffffffffffff163373ffffffffffffffffffffffffffffffffffffffff1614610b58576040517f08c379a0000000000000000000000000000000000000000000000000000000008152600401610b4f90611559565b60405180910390fd5b805f5f6101000a81548173ffffffffffffffffffffffffffffffffffffffff021916908373ffffffffffffffffffffffffffffffffffffffff1602179055508073ffffffffffffffffffffffffffffffffffffffff163373ffffffffffffffffffffffffffffffffffffffff167f8be0079c531659141344cd1fd0a4f28419497f9722a3daafe3b4186f6b6457e060405160405180910390a350565b5f81604051602001610c0691906118ca565b604051602081830303815290604052805190602001209050919050565b5f5f5f90505b600180549050811015610c6f578260018281548110610c4b57610c4a611577565b5b905f5260205f2001b003610c625780915050610c94565b8080600101915050610c29565b507fffffffffffffffffffffffffffffffffffffffffffffffffffffffffffffffff90505b919050565b60605f848484604051602001610cb193929190611952565b60405160208183030381529060405290505f5f606673ffffffffffffffffffffffffffffffffffffffff1683604051610cea919061198a565b5f60405180830381855afa9150503d805f8114610d22576040519150601f19603f3d011682016040523d82523d5f602084013e610d27565b606091505b509150915081610d63576040517fa99eec4b00000000000000000000000000000000000000000000000000000000815260040160405180910390fd5b8093505050509392505050565b60605f848484604051602001610d8893929190611952565b60405160208183030381529060405290505f5f606773ffffffffffffffffffffffffffffffffffffffff1683604051610dc1919061198a565b5f60405180830381855afa9150503d805f8114610df9576040519150601f19603f3d011682016040523d82523d5f602084013e610dfe565b606091505b509150915081610e3a576040517fa99eec4b00000000000000000000000000000000000000000000000000000000815260040160405180910390fd5b8093505050509392505050565b5f604051905090565b5f5ffd5b5f5ffd5b5f819050919050565b610e6a81610e58565b8114610e74575f5ffd5b50565b5f81359050610e8581610e61565b92915050565b5f60208284031215610ea057610e9f610e50565b5b5f610ead84828501610e77565b91505092915050565b5f5ffd5b5f5ffd5b5f601f19601f8301169050919050565b7f4e487b71000000000000000000000000000000000000000000000000000000005f52604160045260245ffd5b610f0482610ebe565b810181811067ffffffffffffffff82111715610f2357610f22610ece565b5b80604052505050565b5f610f35610e47565b9050610f418282610efb565b919050565b5f67ffffffffffffffff821115610f6057610f5f610ece565b5b610f6982610ebe565b9050602081019050919050565b828183375f83830152505050565b5f610f96610f9184610f46565b610f2c565b905082815260208101848484011115610fb257610fb1610eba565b5b610fbd848285610f76565b509392505050565b5f82601f830112610fd957610fd8610eb6565b5b8135610fe9848260208601610f84565b91505092915050565b5f6020828403121561100757611006610e50565b5b5f82013567ffffffffffffffff81111561102457611023610e54565b5b61103084828501610fc5565b91505092915050565b5f81519050919050565b5f82825260208201905092915050565b5f819050602082019050919050565b5f819050919050565b61107481611062565b82525050565b5f611085838361106b565b60208301905092915050565b5f602082019050919050565b5f6110a782611039565b6110b18185611043565b93506110bc83611053565b805f5b838110156110ec5781516110d3888261107a565b97506110de83611091565b9250506001810190506110bf565b5085935050505092915050565b5f81519050919050565b5f82825260208201905092915050565b5f819050602082019050919050565b5f81519050919050565b5f82825260208201905092915050565b8281835e5f83830152505050565b5f61115482611122565b61115e818561112c565b935061116e81856020860161113c565b61117781610ebe565b840191505092915050565b5f61118d838361114a565b905092915050565b5f602082019050919050565b5f6111ab826110f9565b6111b58185611103565b9350836020820285016111c785611113565b805f5b8581101561120257848403895281516111e38582611182565b94506111ee83611195565b925060208a019950506001810190506111ca565b50829750879550505050505092915050565b5f6040820190508181035f83015261122c818561109d565b9050818103602083015261124081846111a1565b90509392505050565b5f819050919050565b61125b81611249565b8114611265575f5ffd5b50565b5f8135905061127681611252565b92915050565b5f6020828403121561129157611290610e50565b5b5f61129e84828501611268565b91505092915050565b6112b081611062565b82525050565b5f6020820190506112c95f8301846112a7565b92915050565b5f73ffffffffffffffffffffffffffffffffffffffff82169050919050565b5f6112f8826112cf565b9050919050565b611308816112ee565b82525050565b5f6020820190506113215f8301846112ff565b92915050565b5f6bffffffffffffffffffffffff82169050919050565b61134781611327565b82525050565b5f6020820190506113605f83018461133e565b92915050565b61136f81611249565b82525050565b5f6020820190506113885f830184611366565b92915050565b5f5f604083850312156113a4576113a3610e50565b5b5f6113b185828601611268565b925050602083013567ffffffffffffffff8111156113d2576113d1610e54565b5b6113de85828601610fc5565b9150509250929050565b5f82825260208201905092915050565b5f61140282611122565b61140c81856113e8565b935061141c81856020860161113c565b61142581610ebe565b840191505092915050565b5f6020820190508181035f83015261144881846113f8565b905092915050565b5f5f6040838503121561146657611465610e50565b5b5f61147385828601610e77565b925050602083013567ffffffffffffffff81111561149457611493610e54565b5b6114a085828601610fc5565b9150509250929050565b6114b3816112ee565b81146114bd575f5ffd5b50565b5f813590506114ce816114aa565b92915050565b5f602082840312156114e9576114e8610e50565b5b5f6114f6848285016114c0565b91505092915050565b5f82825260208201905092915050565b7f554e415554484f52495a454400000000000000000000000000000000000000005f82015250565b5f611543600c836114ff565b915061154e8261150f565b602082019050919050565b5f6020820190508181035f83015261157081611537565b9050919050565b7f4e487b71000000000000000000000000000000000000000000000000000000005f52603260045260245ffd5b7f4b45595f4e4f545f464f554e44000000000000000000000000000000000000005f82015250565b5f6115d8600d836114ff565b91506115e3826115a4565b602082019050919050565b5f6020820190508181035f830152611605816115cc565b9050919050565b7f4e487b71000000000000000000000000000000000000000000000000000000005f52601160045260245ffd5b5f61164382611249565b915061164e83611249565b92508282039050818111156116665761166561160c565b5b92915050565b7f4e487b71000000000000000000000000000000000000000000000000000000005f52603160045260245ffd5b5f82825260208201905092915050565b5f6116b382611122565b6116bd8185611699565b93506116cd81856020860161113c565b6116d681610ebe565b840191505092915050565b6116ea81611327565b82525050565b5f6040820190508181035f83015261170881856116a9565b905061171760208301846116e1565b9392505050565b5f61173061172b84610f46565b610f2c565b90508281526020810184848401111561174c5761174b610eba565b5b61175784828561113c565b509392505050565b5f82601f83011261177357611772610eb6565b5b815161178384826020860161171e565b91505092915050565b5f602082840312156117a1576117a0610e50565b5b5f82015167ffffffffffffffff8111156117be576117bd610e54565b5b6117ca8482850161175f565b91505092915050565b5f6117dd82611327565b91506bffffffffffffffffffffffff82036117fb576117fa61160c565b5b600182019050919050565b5f6020820190508181035f83015261181e81846116a9565b905092915050565b61182f81611327565b8114611839575f5ffd5b50565b5f8151905061184a81611826565b92915050565b5f5f6040838503121561186657611865610e50565b5b5f83015167ffffffffffffffff81111561188357611882610e54565b5b61188f8582860161175f565b92505060206118a08582860161183c565b9150509250929050565b5f819050919050565b6118c46118bf82610e58565b6118aa565b82525050565b5f6118d582846118b3565b60208201915081905092915050565b5f8160a01b9050919050565b5f6118fa826118e4565b9050919050565b61191261190d82611327565b6118f0565b82525050565b5f81905092915050565b5f61192c82611122565b6119368185611918565b935061194681856020860161113c565b80840191505092915050565b5f61195d82866118b3565b60208201915061196d8285611901565b600c8201915061197d8284611922565b9150819050949350505050565b5f6119958284611922565b91508190509291505056fea26469706673582212202fcd41d605a28b703389565674505f2d068dda468f74dd6685a879d5f08dca6e64736f6c637829302e382e33312d646576656c6f702e323032352e31312e31322b636f6d6d69742e3637366264656363005a","linkReferences":{"src/AesLib.sol":{"AesLib":[{"start":2317,"length":20},{"start":2571,"length":20}]}}},"methodIdentifiers":{"INITIAL_OWNER()":"a36250d8","addKey(suint256)":"05eb1ea0","decrypt(suint256,bytes)":"ee8787d9","encrypt(bytes)":"31b00e46","encryptIdx(uint256,bytes)":"cab95985","keyHashes(uint256)":"84dedf54","nonce()":"affed0e0","numKeys()":"c9d24ecc","owner()":"8da5cb5b","removeKey(suint256)":"b03e6db7","transferOwnership(address)":"f2fde38b"},"id":19}