{"abi":[{"type":"constructor","inputs":[{"name":"_owner","type":"address","internalType":"address"},{"name":"_keys","type":"suint256[]","internalType":"suint256[]"}],"stateMutability":"nonpayable"},{"type":"function","name":"addKey","inputs":[{"name":"_key","type":"suint256","internalType":"suint256"}],"outputs":[],"stateMutability":"nonpayable"},{"type":"function","name":"decrypt","inputs":[{"name":"key","type":"suint256","internalType":"suint256"},{"name":"_encryptedData","type":"bytes","internalType":"bytes"}],"outputs":[{"name":"","type":"bytes","internalType":"bytes"}],"stateMutability":"view"},{"type":"function","name":"encrypt","inputs":[{"name":"_plaintext","type":"bytes","internalType":"bytes"}],"outputs":[{"name":"","type":"bytes32[]","internalType":"bytes32[]"},{"name":"","type":"bytes[]","internalType":"bytes[]"}],"stateMutability":"nonpayable"},{"type":"function","name":"encryptIdx","inputs":[{"name":"_keyIdx","type":"uint256","internalType":"uint256"},{"name":"_plaintext","type":"bytes","internalType":"bytes"}],"outputs":[{"name":"","type":"bytes","internalType":"bytes"}],"stateMutability":"nonpayable"},{"type":"function","name":"nonce","inputs":[],"outputs":[{"name":"","type":"uint96","internalType":"uint96"}],"stateMutability":"view"},{"type":"function","name":"numKeys","inputs":[],"outputs":[{"name":"","type":"uint256","internalType":"uint256"}],"stateMutability":"view"},{"type":"function","name":"owner","inputs":[],"outputs":[{"name":"","type":"address","internalType":"address"}],"stateMutability":"view"},{"type":"function","name":"removeKey","inputs":[{"name":"_key","type":"suint256","internalType":"suint256"}],"outputs":[],"stateMutability":"nonpayable"},{"type":"function","name":"transferOwnership","inputs":[{"name":"newOwner","type":"address","internalType":"address"}],"outputs":[],"stateMutability":"nonpayable"},{"type":"event","name":"OwnershipTransferred","inputs":[{"name":"user","type":"address","indexed":true,"internalType":"address"},{"name":"newOwner","type":"address","indexed":true,"internalType":"address"}],"anonymous":false},{"type":"error","name":"AESPrecompileCallFailed","inputs":[]},{"type":"error","name":"KeyNotFound","inputs":[]}],"bytecode":{"object":"0x608060405234801561000f575f5ffd5b50604051611bf0380380611bf0833981810160405281019061003191906104b4565b81805f5f6101000a81548173ffffffffffffffffffffffffffffffffffffffff021916908373ffffffffffffffffffffffffffffffffffffffff1602179055508073ffffffffffffffffffffffffffffffffffffffff165f73ffffffffffffffffffffffffffffffffffffffff167f8be0079c531659141344cd1fd0a4f28419497f9722a3daafe3b4186f6b6457e060405160405180910390a35080600190805190602001906100e29291906101fa565b506100f28161010f60201b60201c565b60029080519060200190610107929190610245565b505050610575565b60605f825167ffffffffffffffff81111561012d5761012c610345565b5b60405190808252806020026020018201604052801561015b5781602001602082028036833780820191505090505b5090505f5f90505b83518110156101c1576101958482815181106101825761018161050e565b5b60200260200101516101cb60201b60201c565b8282815181106101a8576101a761050e565b5b6020026020010181815250508080600101915050610163565b5080915050919050565b5f816040516020016101dd919061055b565b604051602081830303815290604052805190602001209050919050565b8280b08282b1905f5260205f20908101928215610234579160200282015b8281111561023357825182b191602001919060010190610218565b5b5090506102419190610290565b5090565b828054828255905f5260205f2090810192821561027f579160200282015b8281111561027e578251825591602001919060010190610263565b5b50905061028c91906102ab565b5090565b5b808211156102a7575f815f90b150600101610291565b5090565b5b808211156102c2575f815f9055506001016102ac565b5090565b5f604051905090565b5f5ffd5b5f5ffd5b5f73ffffffffffffffffffffffffffffffffffffffff82169050919050565b5f610300826102d7565b9050919050565b610310816102f6565b811461031a575f5ffd5b50565b5f8151905061032b81610307565b92915050565b5f5ffd5b5f601f19601f8301169050919050565b7f4e487b71000000000000000000000000000000000000000000000000000000005f52604160045260245ffd5b61037b82610335565b810181811067ffffffffffffffff8211171561039a57610399610345565b5b80604052505050565b5f6103ac6102c6565b90506103b88282610372565b919050565b5f67ffffffffffffffff8211156103d7576103d6610345565b5b602082029050602081019050919050565b5f5ffd5b5f819050919050565b6103fe816103ec565b8114610408575f5ffd5b50565b5f81519050610419816103f5565b92915050565b5f61043161042c846103bd565b6103a3565b90508083825260208201905060208402830185811115610454576104536103e8565b5b835b8181101561047d5780610469888261040b565b845260208401935050602081019050610456565b5050509392505050565b5f82601f83011261049b5761049a610331565b5b81516104ab84826020860161041f565b91505092915050565b5f5f604083850312156104ca576104c96102cf565b5b5f6104d78582860161031d565b925050602083015167ffffffffffffffff8111156104f8576104f76102d3565b5b61050485828601610487565b9150509250929050565b7f4e487b71000000000000000000000000000000000000000000000000000000005f52603260045260245ffd5b5f819050919050565b610555610550826103ec565b61053b565b82525050565b5f6105668284610544565b60208201915081905092915050565b61166e806105825f395ff3fe608060405234801561000f575f5ffd5b5060043610610091575f3560e01c8063b03e6db711610064578063b03e6db71461011e578063c9d24ecc1461013a578063cab9598514610158578063ee8787d914610188578063f2fde38b146101b857610091565b806305eb1ea01461009557806331b00e46146100b15780638da5cb5b146100e2578063affed0e014610100575b5f5ffd5b6100af60048036038101906100aa9190610bb8565b6101d4565b005b6100cb60048036038101906100c69190610d1f565b6102b9565b6040516100d9929190610f41565b60405180910390f35b6100ea6103b7565b6040516100f79190610fb5565b60405180910390f35b6101086103db565b6040516101159190610ff4565b60405180910390f35b61013860048036038101906101339190610bb8565b6103f8565b005b6101426105d3565b60405161014f9190611025565b60405180910390f35b610172600480360381019061016d9190611068565b6105df565b60405161017f919061110a565b60405180910390f35b6101a2600480360381019061019d919061112a565b610761565b6040516101af919061110a565b60405180910390f35b6101d260048036038101906101cd91906111ae565b6107f7565b005b5f5f9054906101000a900473ffffffffffffffffffffffffffffffffffffffff1673ffffffffffffffffffffffffffffffffffffffff163373ffffffffffffffffffffffffffffffffffffffff1614610262576040517f08c379a000000000000000000000000000000000000000000000000000000000815260040161025990611233565b60405180910390fd5b6001819080600181b0018082b18091505060019003905f5260205f20015f90919091909150b1600261029382610921565b908060018154018082558091505060019003905f5260205f20015f909190919091505550565b6060805f600180b0905067ffffffffffffffff8111156102dc576102db610bfb565b5b60405190808252806020026020018201604052801561030f57816020015b60608152602001906001900390816102fa5790505b5090505f5f90505b600180b090508110156103595761032e81866105df565b82828151811061034157610340611251565b5b60200260200101819052508080600101915050610317565b50600281818054806020026020016040519081016040528092919081815260200182805480156103a657602002820191905f5260205f20905b815481526020019060010190808311610392575b505050505091509250925050915091565b5f5f9054906101000a900473ffffffffffffffffffffffffffffffffffffffff1681565b60035f9054906101000a90046bffffffffffffffffffffffff1681565b5f5f9054906101000a900473ffffffffffffffffffffffffffffffffffffffff1673ffffffffffffffffffffffffffffffffffffffff163373ffffffffffffffffffffffffffffffffffffffff1614610486576040517f08c379a000000000000000000000000000000000000000000000000000000000815260040161047d90611233565b60405180910390fd5b5f61049082610950565b90507fffffffffffffffffffffffffffffffffffffffffffffffffffffffffffffffff81036104eb576040517f5f3f479c00000000000000000000000000000000000000000000000000000000815260040160405180910390fd5b6001808080b090506104fd91906112ab565b81b0811061050e5761050d611251565b5b905f5260205f2001b060018281b0811061052b5761052a611251565b5b905f5260205f20018190b150600180b080610549576105486112de565b5b600190038181905f5260205f20015f90b190b16002600160028054905061057091906112ab565b8154811061058157610580611251565b5b905f5260205f2001546002828154811061059e5761059d611251565b5b905f5260205f20018190555060028054806105bc576105bb6112de565b5b600190038181905f5260205f20015f905590555050565b5f600180b09050905090565b6060600180b09050831061061f576040517f5f3f479c00000000000000000000000000000000000000000000000000000000815260040160405180910390fd5b5f60018481b0811061063457610633611251565b5b905f5260205f2001b090505f6106648260035f9054906101000a90046bffffffffffffffffffffffff16866109c6565b90505f73__$851c94c409dfd84fc196ac1b2d288a23b2$__63415028a98360035f9054906101000a90046bffffffffffffffffffffffff166040518363ffffffff1660e01b81526004016106b9929190611362565b5f60405180830381865af41580156106d3573d5f5f3e3d5ffd5b505050506040513d5f823e3d601f19601f820116820180604052508101906106fb91906113fe565b905060035f81819054906101000a90046bffffffffffffffffffffffff168092919061072690611445565b91906101000a8154816bffffffffffffffffffffffff02191690836bffffffffffffffffffffffff1602179055505080935050505092915050565b60605f5f73__$851c94c409dfd84fc196ac1b2d288a23b2$__63e8d6c79a856040518263ffffffff1660e01b815260040161079c9190611478565b5f60405180830381865af41580156107b6573d5f5f3e3d5ffd5b505050506040513d5f823e3d601f19601f820116820180604052508101906107de91906114c2565b915091506107ed858284610a9d565b9250505092915050565b5f5f9054906101000a900473ffffffffffffffffffffffffffffffffffffffff1673ffffffffffffffffffffffffffffffffffffffff163373ffffffffffffffffffffffffffffffffffffffff1614610885576040517f08c379a000000000000000000000000000000000000000000000000000000000815260040161087c90611233565b60405180910390fd5b805f5f6101000a81548173ffffffffffffffffffffffffffffffffffffffff021916908373ffffffffffffffffffffffffffffffffffffffff1602179055508073ffffffffffffffffffffffffffffffffffffffff163373ffffffffffffffffffffffffffffffffffffffff167f8be0079c531659141344cd1fd0a4f28419497f9722a3daafe3b4186f6b6457e060405160405180910390a350565b5f81604051602001610933919061153c565b604051602081830303815290604052805190602001209050919050565b5f5f5f90505b600180b0905081101561099c578260018281b0811061097857610977611251565b5b905f5260205f2001b00361098f57809150506109c1565b8080600101915050610956565b507fffffffffffffffffffffffffffffffffffffffffffffffffffffffffffffffff90505b919050565b60605f8484846040516020016109de939291906115c4565b60405160208183030381529060405290505f5f606673ffffffffffffffffffffffffffffffffffffffff1683604051610a1791906115fc565b5f60405180830381855afa9150503d805f8114610a4f576040519150601f19603f3d011682016040523d82523d5f602084013e610a54565b606091505b509150915081610a90576040517fa99eec4b00000000000000000000000000000000000000000000000000000000815260040160405180910390fd5b8093505050509392505050565b60605f848484604051602001610ab5939291906115c4565b60405160208183030381529060405290505f5f606773ffffffffffffffffffffffffffffffffffffffff1683604051610aee91906115fc565b5f60405180830381855afa9150503d805f8114610b26576040519150601f19603f3d011682016040523d82523d5f602084013e610b2b565b606091505b509150915081610b67576040517fa99eec4b00000000000000000000000000000000000000000000000000000000815260040160405180910390fd5b8093505050509392505050565b5f604051905090565b5f5ffd5b5f5ffd5b5f819050919050565b610b9781610b85565b8114610ba1575f5ffd5b50565b5f81359050610bb281610b8e565b92915050565b5f60208284031215610bcd57610bcc610b7d565b5b5f610bda84828501610ba4565b91505092915050565b5f5ffd5b5f5ffd5b5f601f19601f8301169050919050565b7f4e487b71000000000000000000000000000000000000000000000000000000005f52604160045260245ffd5b610c3182610beb565b810181811067ffffffffffffffff82111715610c5057610c4f610bfb565b5b80604052505050565b5f610c62610b74565b9050610c6e8282610c28565b919050565b5f67ffffffffffffffff821115610c8d57610c8c610bfb565b5b610c9682610beb565b9050602081019050919050565b828183375f83830152505050565b5f610cc3610cbe84610c73565b610c59565b905082815260208101848484011115610cdf57610cde610be7565b5b610cea848285610ca3565b509392505050565b5f82601f830112610d0657610d05610be3565b5b8135610d16848260208601610cb1565b91505092915050565b5f60208284031215610d3457610d33610b7d565b5b5f82013567ffffffffffffffff811115610d5157610d50610b81565b5b610d5d84828501610cf2565b91505092915050565b5f81519050919050565b5f82825260208201905092915050565b5f819050602082019050919050565b5f819050919050565b610da181610d8f565b82525050565b5f610db28383610d98565b60208301905092915050565b5f602082019050919050565b5f610dd482610d66565b610dde8185610d70565b9350610de983610d80565b805f5b83811015610e19578151610e008882610da7565b9750610e0b83610dbe565b925050600181019050610dec565b5085935050505092915050565b5f81519050919050565b5f82825260208201905092915050565b5f819050602082019050919050565b5f81519050919050565b5f82825260208201905092915050565b8281835e5f83830152505050565b5f610e8182610e4f565b610e8b8185610e59565b9350610e9b818560208601610e69565b610ea481610beb565b840191505092915050565b5f610eba8383610e77565b905092915050565b5f602082019050919050565b5f610ed882610e26565b610ee28185610e30565b935083602082028501610ef485610e40565b805f5b85811015610f2f5784840389528151610f108582610eaf565b9450610f1b83610ec2565b925060208a01995050600181019050610ef7565b50829750879550505050505092915050565b5f6040820190508181035f830152610f598185610dca565b90508181036020830152610f6d8184610ece565b90509392505050565b5f73ffffffffffffffffffffffffffffffffffffffff82169050919050565b5f610f9f82610f76565b9050919050565b610faf81610f95565b82525050565b5f602082019050610fc85f830184610fa6565b92915050565b5f6bffffffffffffffffffffffff82169050919050565b610fee81610fce565b82525050565b5f6020820190506110075f830184610fe5565b92915050565b5f819050919050565b61101f8161100d565b82525050565b5f6020820190506110385f830184611016565b92915050565b6110478161100d565b8114611051575f5ffd5b50565b5f813590506110628161103e565b92915050565b5f5f6040838503121561107e5761107d610b7d565b5b5f61108b85828601611054565b925050602083013567ffffffffffffffff8111156110ac576110ab610b81565b5b6110b885828601610cf2565b9150509250929050565b5f82825260208201905092915050565b5f6110dc82610e4f565b6110e681856110c2565b93506110f6818560208601610e69565b6110ff81610beb565b840191505092915050565b5f6020820190508181035f83015261112281846110d2565b905092915050565b5f5f604083850312156111405761113f610b7d565b5b5f61114d85828601610ba4565b925050602083013567ffffffffffffffff81111561116e5761116d610b81565b5b61117a85828601610cf2565b9150509250929050565b61118d81610f95565b8114611197575f5ffd5b50565b5f813590506111a881611184565b92915050565b5f602082840312156111c3576111c2610b7d565b5b5f6111d08482850161119a565b91505092915050565b5f82825260208201905092915050565b7f554e415554484f52495a454400000000000000000000000000000000000000005f82015250565b5f61121d600c836111d9565b9150611228826111e9565b602082019050919050565b5f6020820190508181035f83015261124a81611211565b9050919050565b7f4e487b71000000000000000000000000000000000000000000000000000000005f52603260045260245ffd5b7f4e487b71000000000000000000000000000000000000000000000000000000005f52601160045260245ffd5b5f6112b58261100d565b91506112c08361100d565b92508282039050818111156112d8576112d761127e565b5b92915050565b7f4e487b71000000000000000000000000000000000000000000000000000000005f52603160045260245ffd5b5f82825260208201905092915050565b5f61132582610e4f565b61132f818561130b565b935061133f818560208601610e69565b61134881610beb565b840191505092915050565b61135c81610fce565b82525050565b5f6040820190508181035f83015261137a818561131b565b90506113896020830184611353565b9392505050565b5f6113a261139d84610c73565b610c59565b9050828152602081018484840111156113be576113bd610be7565b5b6113c9848285610e69565b509392505050565b5f82601f8301126113e5576113e4610be3565b5b81516113f5848260208601611390565b91505092915050565b5f6020828403121561141357611412610b7d565b5b5f82015167ffffffffffffffff8111156114305761142f610b81565b5b61143c848285016113d1565b91505092915050565b5f61144f82610fce565b91506bffffffffffffffffffffffff820361146d5761146c61127e565b5b600182019050919050565b5f6020820190508181035f830152611490818461131b565b905092915050565b6114a181610fce565b81146114ab575f5ffd5b50565b5f815190506114bc81611498565b92915050565b5f5f604083850312156114d8576114d7610b7d565b5b5f83015167ffffffffffffffff8111156114f5576114f4610b81565b5b611501858286016113d1565b9250506020611512858286016114ae565b9150509250929050565b5f819050919050565b61153661153182610b85565b61151c565b82525050565b5f6115478284611525565b60208201915081905092915050565b5f8160a01b9050919050565b5f61156c82611556565b9050919050565b61158461157f82610fce565b611562565b82525050565b5f81905092915050565b5f61159e82610e4f565b6115a8818561158a565b93506115b8818560208601610e69565b80840191505092915050565b5f6115cf8286611525565b6020820191506115df8285611573565b600c820191506115ef8284611594565b9150819050949350505050565b5f6116078284611594565b91508190509291505056fea26469706673582212208453ceac8e9bd389026ced2aa9bd951dc067442275c931865f6ebacb1b2df21464736f6c637828302e382e33312d646576656c6f702e323032352e392e33302b636f6d6d69742e35393965653831360059","linkReferences":{"src/AesLib.sol":{"AesLib":[{"start":3051,"length":20},{"start":3305,"length":20}]}}},"methodIdentifiers":{"addKey(suint256)":"05eb1ea0","decrypt(suint256,bytes)":"ee8787d9","encrypt(bytes)":"31b00e46","encryptIdx(uint256,bytes)":"cab95985","nonce()":"affed0e0","numKeys()":"c9d24ecc","owner()":"8da5cb5b","removeKey(suint256)":"b03e6db7","transferOwnership(address)":"f2fde38b"},"id":3}