{"abi":[{"type":"constructor","inputs":[{"name":"_owner","type":"address","internalType":"address"},{"name":"_keys","type":"suint256[]","internalType":"suint256[]"}],"stateMutability":"nonpayable"},{"type":"function","name":"addKey","inputs":[{"name":"_key","type":"suint256","internalType":"suint256"}],"outputs":[],"stateMutability":"nonpayable"},{"type":"function","name":"addOne","inputs":[{"name":"input","type":"uint256","internalType":"uint256"}],"outputs":[{"name":"","type":"uint256","internalType":"uint256"}],"stateMutability":"nonpayable"},{"type":"function","name":"decrypt","inputs":[{"name":"key","type":"suint256","internalType":"suint256"},{"name":"_encryptedData","type":"bytes","internalType":"bytes"}],"outputs":[{"name":"","type":"bytes","internalType":"bytes"}],"stateMutability":"view"},{"type":"function","name":"encrypt","inputs":[{"name":"_plaintext","type":"bytes","internalType":"bytes"}],"outputs":[{"name":"","type":"bytes[]","internalType":"bytes[]"}],"stateMutability":"nonpayable"},{"type":"function","name":"encryptIdx","inputs":[{"name":"_keyIdx","type":"uint256","internalType":"uint256"},{"name":"_plaintext","type":"bytes","internalType":"bytes"}],"outputs":[{"name":"","type":"bytes","internalType":"bytes"}],"stateMutability":"nonpayable"},{"type":"function","name":"nonce","inputs":[],"outputs":[{"name":"","type":"uint96","internalType":"uint96"}],"stateMutability":"view"},{"type":"function","name":"numKeys","inputs":[],"outputs":[{"name":"","type":"uint256","internalType":"uint256"}],"stateMutability":"view"},{"type":"function","name":"owner","inputs":[],"outputs":[{"name":"","type":"address","internalType":"address"}],"stateMutability":"view"},{"type":"function","name":"removeKey","inputs":[{"name":"_key","type":"suint256","internalType":"suint256"}],"outputs":[],"stateMutability":"nonpayable"},{"type":"function","name":"transferOwnership","inputs":[{"name":"newOwner","type":"address","internalType":"address"}],"outputs":[],"stateMutability":"nonpayable"},{"type":"event","name":"OwnershipTransferred","inputs":[{"name":"user","type":"address","indexed":true,"internalType":"address"},{"name":"newOwner","type":"address","indexed":true,"internalType":"address"}],"anonymous":false},{"type":"error","name":"AESPrecompileCallFailed","inputs":[]},{"type":"error","name":"KeyNotFound","inputs":[]}],"bytecode":{"object":"0x608060405234801561000f575f5ffd5b5060405161199f38038061199f8339818101604052810190610031919061033e565b81805f5f6101000a81548173ffffffffffffffffffffffffffffffffffffffff021916908373ffffffffffffffffffffffffffffffffffffffff1602179055508073ffffffffffffffffffffffffffffffffffffffff165f73ffffffffffffffffffffffffffffffffffffffff167f8be0079c531659141344cd1fd0a4f28419497f9722a3daafe3b4186f6b6457e060405160405180910390a35080600190805190602001906100e29291906100ea565b505050610398565b8280b08282b1905f5260205f20908101928215610124579160200282015b8281111561012357825182b191602001919060010190610108565b5b5090506101319190610135565b5090565b5b8082111561014c575f815f90b150600101610136565b5090565b5f604051905090565b5f5ffd5b5f5ffd5b5f73ffffffffffffffffffffffffffffffffffffffff82169050919050565b5f61018a82610161565b9050919050565b61019a81610180565b81146101a4575f5ffd5b50565b5f815190506101b581610191565b92915050565b5f5ffd5b5f601f19601f8301169050919050565b7f4e487b71000000000000000000000000000000000000000000000000000000005f52604160045260245ffd5b610205826101bf565b810181811067ffffffffffffffff82111715610224576102236101cf565b5b80604052505050565b5f610236610150565b905061024282826101fc565b919050565b5f67ffffffffffffffff821115610261576102606101cf565b5b602082029050602081019050919050565b5f5ffd5b5f819050919050565b61028881610276565b8114610292575f5ffd5b50565b5f815190506102a38161027f565b92915050565b5f6102bb6102b684610247565b61022d565b905080838252602082019050602084028301858111156102de576102dd610272565b5b835b8181101561030757806102f38882610295565b8452602084019350506020810190506102e0565b5050509392505050565b5f82601f830112610325576103246101bb565b5b81516103358482602086016102a9565b91505092915050565b5f5f6040838503121561035457610353610159565b5b5f610361858286016101a7565b925050602083015167ffffffffffffffff8111156103825761038161015d565b5b61038e85828601610311565b9150509250929050565b6115fa806103a55f395ff3fe608060405234801561000f575f5ffd5b506004361061009c575f3560e01c8063c744c48611610064578063c744c48614610144578063c9d24ecc14610174578063cab9598514610192578063ee8787d9146101c2578063f2fde38b146101f25761009c565b806305eb1ea0146100a057806331b00e46146100bc5780638da5cb5b146100ec578063affed0e01461010a578063b03e6db714610128575b5f5ffd5b6100ba60048036038101906100b59190610b59565b61020e565b005b6100d660048036038101906100d19190610cc0565b6102c5565b6040516100e39190610e22565b60405180910390f35b6100f461036e565b6040516101019190610e81565b60405180910390f35b610112610392565b60405161011f9190610ec0565b60405180910390f35b610142600480360381019061013d9190610b59565b6103af565b005b61015e60048036038101906101599190610f0c565b610517565b60405161016b9190610f46565b60405180910390f35b61017c61055e565b6040516101899190610f46565b60405180910390f35b6101ac60048036038101906101a79190610f5f565b61056a565b6040516101b99190611001565b60405180910390f35b6101dc60048036038101906101d79190611021565b610730565b6040516101e99190611001565b60405180910390f35b61020c600480360381019061020791906110a5565b6107c7565b005b5f5f9054906101000a900473ffffffffffffffffffffffffffffffffffffffff1673ffffffffffffffffffffffffffffffffffffffff163373ffffffffffffffffffffffffffffffffffffffff161461029c576040517f08c379a00000000000000000000000000000000000000000000000000000000081526004016102939061112a565b60405180910390fd5b6001819080600181b0018082b18091505060019003905f5260205f20015f90919091909150b150565b60605f600180b0905067ffffffffffffffff8111156102e7576102e6610b9c565b5b60405190808252806020026020018201604052801561031a57816020015b60608152602001906001900390816103055790505b5090505f5f90505b600180b0905081101561036457610339818561056a565b82828151811061034c5761034b611148565b5b60200260200101819052508080600101915050610322565b5080915050919050565b5f5f9054906101000a900473ffffffffffffffffffffffffffffffffffffffff1681565b60025f9054906101000a90046bffffffffffffffffffffffff1681565b5f5f9054906101000a900473ffffffffffffffffffffffffffffffffffffffff1673ffffffffffffffffffffffffffffffffffffffff163373ffffffffffffffffffffffffffffffffffffffff161461043d576040517f08c379a00000000000000000000000000000000000000000000000000000000081526004016104349061112a565b60405180910390fd5b5f610447826108f1565b90507fffffffffffffffffffffffffffffffffffffffffffffffffffffffffffffffff81036104a2576040517f5f3f479c00000000000000000000000000000000000000000000000000000000815260040160405180910390fd5b6001808080b090506104b491906111a2565b81b081106104c5576104c4611148565b5b905f5260205f2001b060018281b081106104e2576104e1611148565b5b905f5260205f20018190b150600180b080610500576104ff6111d5565b5b600190038181905f5260205f20015f90b190b15050565b5f600160025f9054906101000a90046bffffffffffffffffffffffff166bffffffffffffffffffffffff168361054d9190611202565b6105579190611202565b9050919050565b5f600180b09050905090565b6060600180b0905083106105aa576040517f5f3f479c00000000000000000000000000000000000000000000000000000000815260040160405180910390fd5b5f60018481b081106105bf576105be611148565b5b905f5260205f2001b06040516020016105d89190611255565b6040516020818303038152906040528051906020012090505f61063160018681b0811061060857610607611148565b5b905f5260205f2001b060025f9054906101000a90046bffffffffffffffffffffffff1686610967565b90505f73__$851c94c409dfd84fc196ac1b2d288a23b2$__63309245e08360025f9054906101000a90046bffffffffffffffffffffffff16866040518463ffffffff1660e01b8152600401610688939291906112de565b5f60405180830381865af41580156106a2573d5f5f3e3d5ffd5b505050506040513d5f823e3d601f19601f820116820180604052508101906106ca9190611388565b905060025f81819054906101000a90046bffffffffffffffffffffffff16809291906106f5906113cf565b91906101000a8154816bffffffffffffffffffffffff02191690836bffffffffffffffffffffffff1602179055505080935050505092915050565b60605f5f73__$851c94c409dfd84fc196ac1b2d288a23b2$__63e8d6c79a856040518263ffffffff1660e01b815260040161076b9190611402565b5f60405180830381865af4158015610785573d5f5f3e3d5ffd5b505050506040513d5f823e3d601f19601f820116820180604052508101906107ad9190611476565b50915091506107bd858284610a3e565b9250505092915050565b5f5f9054906101000a900473ffffffffffffffffffffffffffffffffffffffff1673ffffffffffffffffffffffffffffffffffffffff163373ffffffffffffffffffffffffffffffffffffffff1614610855576040517f08c379a000000000000000000000000000000000000000000000000000000000815260040161084c9061112a565b60405180910390fd5b805f5f6101000a81548173ffffffffffffffffffffffffffffffffffffffff021916908373ffffffffffffffffffffffffffffffffffffffff1602179055508073ffffffffffffffffffffffffffffffffffffffff163373ffffffffffffffffffffffffffffffffffffffff167f8be0079c531659141344cd1fd0a4f28419497f9722a3daafe3b4186f6b6457e060405160405180910390a350565b5f5f5f90505b600180b0905081101561093d578260018281b0811061091957610918611148565b5b905f5260205f2001b0036109305780915050610962565b80806001019150506108f7565b507fffffffffffffffffffffffffffffffffffffffffffffffffffffffffffffffff90505b919050565b60605f84848460405160200161097f93929190611550565b60405160208183030381529060405290505f5f606673ffffffffffffffffffffffffffffffffffffffff16836040516109b89190611588565b5f60405180830381855afa9150503d805f81146109f0576040519150601f19603f3d011682016040523d82523d5f602084013e6109f5565b606091505b509150915081610a31576040517fa99eec4b00000000000000000000000000000000000000000000000000000000815260040160405180910390fd5b8093505050509392505050565b60605f848484604051602001610a5693929190611550565b60405160208183030381529060405290505f5f606773ffffffffffffffffffffffffffffffffffffffff1683604051610a8f9190611588565b5f60405180830381855afa9150503d805f8114610ac7576040519150601f19603f3d011682016040523d82523d5f602084013e610acc565b606091505b509150915081610b08576040517fa99eec4b00000000000000000000000000000000000000000000000000000000815260040160405180910390fd5b8093505050509392505050565b5f604051905090565b5f5ffd5b5f5ffd5b5f819050919050565b610b3881610b26565b8114610b42575f5ffd5b50565b5f81359050610b5381610b2f565b92915050565b5f60208284031215610b6e57610b6d610b1e565b5b5f610b7b84828501610b45565b91505092915050565b5f5ffd5b5f5ffd5b5f601f19601f8301169050919050565b7f4e487b71000000000000000000000000000000000000000000000000000000005f52604160045260245ffd5b610bd282610b8c565b810181811067ffffffffffffffff82111715610bf157610bf0610b9c565b5b80604052505050565b5f610c03610b15565b9050610c0f8282610bc9565b919050565b5f67ffffffffffffffff821115610c2e57610c2d610b9c565b5b610c3782610b8c565b9050602081019050919050565b828183375f83830152505050565b5f610c64610c5f84610c14565b610bfa565b905082815260208101848484011115610c8057610c7f610b88565b5b610c8b848285610c44565b509392505050565b5f82601f830112610ca757610ca6610b84565b5b8135610cb7848260208601610c52565b91505092915050565b5f60208284031215610cd557610cd4610b1e565b5b5f82013567ffffffffffffffff811115610cf257610cf1610b22565b5b610cfe84828501610c93565b91505092915050565b5f81519050919050565b5f82825260208201905092915050565b5f819050602082019050919050565b5f81519050919050565b5f82825260208201905092915050565b8281835e5f83830152505050565b5f610d6282610d30565b610d6c8185610d3a565b9350610d7c818560208601610d4a565b610d8581610b8c565b840191505092915050565b5f610d9b8383610d58565b905092915050565b5f602082019050919050565b5f610db982610d07565b610dc38185610d11565b935083602082028501610dd585610d21565b805f5b85811015610e105784840389528151610df18582610d90565b9450610dfc83610da3565b925060208a01995050600181019050610dd8565b50829750879550505050505092915050565b5f6020820190508181035f830152610e3a8184610daf565b905092915050565b5f73ffffffffffffffffffffffffffffffffffffffff82169050919050565b5f610e6b82610e42565b9050919050565b610e7b81610e61565b82525050565b5f602082019050610e945f830184610e72565b92915050565b5f6bffffffffffffffffffffffff82169050919050565b610eba81610e9a565b82525050565b5f602082019050610ed35f830184610eb1565b92915050565b5f819050919050565b610eeb81610ed9565b8114610ef5575f5ffd5b50565b5f81359050610f0681610ee2565b92915050565b5f60208284031215610f2157610f20610b1e565b5b5f610f2e84828501610ef8565b91505092915050565b610f4081610ed9565b82525050565b5f602082019050610f595f830184610f37565b92915050565b5f5f60408385031215610f7557610f74610b1e565b5b5f610f8285828601610ef8565b925050602083013567ffffffffffffffff811115610fa357610fa2610b22565b5b610faf85828601610c93565b9150509250929050565b5f82825260208201905092915050565b5f610fd382610d30565b610fdd8185610fb9565b9350610fed818560208601610d4a565b610ff681610b8c565b840191505092915050565b5f6020820190508181035f8301526110198184610fc9565b905092915050565b5f5f6040838503121561103757611036610b1e565b5b5f61104485828601610b45565b925050602083013567ffffffffffffffff81111561106557611064610b22565b5b61107185828601610c93565b9150509250929050565b61108481610e61565b811461108e575f5ffd5b50565b5f8135905061109f8161107b565b92915050565b5f602082840312156110ba576110b9610b1e565b5b5f6110c784828501611091565b91505092915050565b5f82825260208201905092915050565b7f554e415554484f52495a454400000000000000000000000000000000000000005f82015250565b5f611114600c836110d0565b915061111f826110e0565b602082019050919050565b5f6020820190508181035f83015261114181611108565b9050919050565b7f4e487b71000000000000000000000000000000000000000000000000000000005f52603260045260245ffd5b7f4e487b71000000000000000000000000000000000000000000000000000000005f52601160045260245ffd5b5f6111ac82610b26565b91506111b783610b26565b92508282039050818111156111cf576111ce611175565b5b92915050565b7f4e487b71000000000000000000000000000000000000000000000000000000005f52603160045260245ffd5b5f61120c82610ed9565b915061121783610ed9565b925082820190508082111561122f5761122e611175565b5b92915050565b5f819050919050565b61124f61124a82610b26565b611235565b82525050565b5f611260828461123e565b60208201915081905092915050565b5f82825260208201905092915050565b5f61128982610d30565b611293818561126f565b93506112a3818560208601610d4a565b6112ac81610b8c565b840191505092915050565b6112c081610e9a565b82525050565b5f819050919050565b6112d8816112c6565b82525050565b5f6060820190508181035f8301526112f6818661127f565b905061130560208301856112b7565b61131260408301846112cf565b949350505050565b5f61132c61132784610c14565b610bfa565b90508281526020810184848401111561134857611347610b88565b5b611353848285610d4a565b509392505050565b5f82601f83011261136f5761136e610b84565b5b815161137f84826020860161131a565b91505092915050565b5f6020828403121561139d5761139c610b1e565b5b5f82015167ffffffffffffffff8111156113ba576113b9610b22565b5b6113c68482850161135b565b91505092915050565b5f6113d982610e9a565b91506bffffffffffffffffffffffff82036113f7576113f6611175565b5b600182019050919050565b5f6020820190508181035f83015261141a818461127f565b905092915050565b61142b81610e9a565b8114611435575f5ffd5b50565b5f8151905061144681611422565b92915050565b611455816112c6565b811461145f575f5ffd5b50565b5f815190506114708161144c565b92915050565b5f5f5f6060848603121561148d5761148c610b1e565b5b5f84015167ffffffffffffffff8111156114aa576114a9610b22565b5b6114b68682870161135b565b93505060206114c786828701611438565b92505060406114d886828701611462565b9150509250925092565b5f8160a01b9050919050565b5f6114f8826114e2565b9050919050565b61151061150b82610e9a565b6114ee565b82525050565b5f81905092915050565b5f61152a82610d30565b6115348185611516565b9350611544818560208601610d4a565b80840191505092915050565b5f61155b828661123e565b60208201915061156b82856114ff565b600c8201915061157b8284611520565b9150819050949350505050565b5f6115938284611520565b91508190509291505056fea2646970667358221220eda57227e27543de7249713914f6c05f5906704cac4e4394f539235e4531ffe664736f6c637828302e382e32392d646576656c6f702e323032352e372e32332b636f6d6d69742e36393665623163640059","linkReferences":{"src/AesLib.sol":{"AesLib":[{"start":2523,"length":20},{"start":2779,"length":20}]}}},"methodIdentifiers":{"addKey(suint256)":"05eb1ea0","addOne(uint256)":"c744c486","decrypt(suint256,bytes)":"ee8787d9","encrypt(bytes)":"31b00e46","encryptIdx(uint256,bytes)":"cab95985","nonce()":"affed0e0","numKeys()":"c9d24ecc","owner()":"8da5cb5b","removeKey(suint256)":"b03e6db7","transferOwnership(address)":"f2fde38b"},"id":19}