{"abi":[{"type":"function","name":"DIRECTORY_ADDRESS","inputs":[],"outputs":[{"name":"","type":"address","internalType":"address"}],"stateMutability":"view"},{"type":"function","name":"INITIAL_OWNER","inputs":[],"outputs":[{"name":"","type":"address","internalType":"address"}],"stateMutability":"view"},{"type":"function","name":"addProvider","inputs":[{"name":"_provider","type":"address","internalType":"address"}],"outputs":[],"stateMutability":"nonpayable"},{"type":"function","name":"directory","inputs":[],"outputs":[{"name":"","type":"address","internalType":"contract IDirectory"}],"stateMutability":"view"},{"type":"function","name":"encryptToProviders","inputs":[{"name":"_plaintext","type":"bytes","internalType":"bytes"}],"outputs":[{"name":"","type":"bytes32[]","internalType":"bytes32[]"},{"name":"","type":"bytes[]","internalType":"bytes[]"}],"stateMutability":"nonpayable"},{"type":"function","name":"numProviders","inputs":[],"outputs":[{"name":"","type":"uint256","internalType":"uint256"}],"stateMutability":"view"},{"type":"function","name":"owner","inputs":[],"outputs":[{"name":"","type":"address","internalType":"address"}],"stateMutability":"view"},{"type":"function","name":"providers","inputs":[{"name":"","type":"uint256","internalType":"uint256"}],"outputs":[{"name":"","type":"address","internalType":"address"}],"stateMutability":"view"},{"type":"function","name":"removeProvider","inputs":[{"name":"_provider","type":"address","internalType":"address"}],"outputs":[],"stateMutability":"nonpayable"},{"type":"function","name":"transferOwnership","inputs":[{"name":"newOwner","type":"address","internalType":"address"}],"outputs":[],"stateMutability":"nonpayable"},{"type":"event","name":"OwnershipTransferred","inputs":[{"name":"owner","type":"address","indexed":true,"internalType":"address"}],"anonymous":false},{"type":"event","name":"ProviderAdded","inputs":[{"name":"provider","type":"address","indexed":true,"internalType":"address"}],"anonymous":false},{"type":"event","name":"ProviderRemoved","inputs":[{"name":"provider","type":"address","indexed":true,"internalType":"address"}],"anonymous":false}],"bytecode":{"object":"0x60a060405273100000000000000000000000000000000000000373ffffffffffffffffffffffffffffffffffffffff1660809073ffffffffffffffffffffffffffffffffffffffff168152503480156055575f5ffd5b5060805161163061007c5f395f81816104f6015281816105e80152610a5b01526116305ff3fe608060405234801561000f575f5ffd5b506004361061009c575f3560e01c8063a36250d811610064578063a36250d814610157578063ba1ab29114610175578063c41c2f2414610193578063ed03b300146101b1578063f2fde38b146101cf5761009c565b806346e2577a146100a05780634a8fcf9a146100bc57806350f3fc81146100ed5780638a355a571461011d5780638da5cb5b14610139575b5f5ffd5b6100ba60048036038101906100b59190610d71565b6101eb565b005b6100d660048036038101906100d19190610ed8565b610432565b6040516100e49291906110fa565b60405180910390f35b61010760048036038101906101029190611162565b6106f8565b604051610114919061119c565b60405180910390f35b61013760048036038101906101329190610d71565b610733565b005b610141610a05565b60405161014e919061119c565b60405180910390f35b61015f610a29565b60405161016c919061119c565b60405180910390f35b61017d610a41565b60405161018a919061119c565b60405180910390f35b61019b610a59565b6040516101a89190611210565b60405180910390f35b6101b9610a7d565b6040516101c69190611238565b60405180910390f35b6101e960048036038101906101e49190610d71565b610a89565b005b807fffffffffffffffffffffffffffffffffffffffffffffffffffffffffffffffff61021682610c43565b14610256576040517f08c379a000000000000000000000000000000000000000000000000000000000815260040161024d906112ab565b60405180910390fd5b5f73ffffffffffffffffffffffffffffffffffffffff165f5f9054906101000a900473ffffffffffffffffffffffffffffffffffffffff1673ffffffffffffffffffffffffffffffffffffffff16036102fd57736346d64a3f31774283b72926b75ffda9662266ce5f5f6101000a81548173ffffffffffffffffffffffffffffffffffffffff021916908373ffffffffffffffffffffffffffffffffffffffff1602179055505b5f5f9054906101000a900473ffffffffffffffffffffffffffffffffffffffff1673ffffffffffffffffffffffffffffffffffffffff163373ffffffffffffffffffffffffffffffffffffffff161461038b576040517f08c379a000000000000000000000000000000000000000000000000000000000815260040161038290611313565b60405180910390fd5b600182908060018154018082558091505060019003905f5260205f20015f9091909190916101000a81548173ffffffffffffffffffffffffffffffffffffffff021916908373ffffffffffffffffffffffffffffffffffffffff1602179055508173ffffffffffffffffffffffffffffffffffffffff167fae9c2c6481964847714ce58f65a7f6dcc41d0d8394449bacdf161b5920c4744a60405160405180910390a25050565b6060805f61043e610a7d565b67ffffffffffffffff81111561045757610456610db4565b5b6040519080825280602002602001820160405280156104855781602001602082028036833780820191505090505b5090505f610491610a7d565b67ffffffffffffffff8111156104aa576104a9610db4565b5b6040519080825280602002602001820160405280156104dd57816020015b60608152602001906001900390816104c85790505b5090505f5f90505b6104ed610a7d565b8110156106ea577f000000000000000000000000000000000000000000000000000000000000000073ffffffffffffffffffffffffffffffffffffffff1663eefbaf186001838154811061054457610543611331565b5b905f5260205f20015f9054906101000a900473ffffffffffffffffffffffffffffffffffffffff166040518263ffffffff1660e01b8152600401610588919061119c565b602060405180830381865afa1580156105a3573d5f5f3e3d5ffd5b505050506040513d601f19601f820116820180604052508101906105c79190611388565b8382815181106105da576105d9611331565b5b6020026020010181815250507f000000000000000000000000000000000000000000000000000000000000000073ffffffffffffffffffffffffffffffffffffffff1663b7f5f9b76001838154811061063657610635611331565b5b905f5260205f20015f9054906101000a900473ffffffffffffffffffffffffffffffffffffffff16886040518363ffffffff1660e01b815260040161067c9291906113fb565b5f604051808303815f875af1158015610697573d5f5f3e3d5ffd5b505050506040513d5f823e3d601f19601f820116820180604052508101906106bf9190611497565b8282815181106106d2576106d1611331565b5b602002602001018190525080806001019150506104e5565b508181935093505050915091565b60018181548110610707575f80fd5b905f5260205f20015f915054906101000a900473ffffffffffffffffffffffffffffffffffffffff1681565b5f73ffffffffffffffffffffffffffffffffffffffff165f5f9054906101000a900473ffffffffffffffffffffffffffffffffffffffff1673ffffffffffffffffffffffffffffffffffffffff16036107da57736346d64a3f31774283b72926b75ffda9662266ce5f5f6101000a81548173ffffffffffffffffffffffffffffffffffffffff021916908373ffffffffffffffffffffffffffffffffffffffff1602179055505b5f5f9054906101000a900473ffffffffffffffffffffffffffffffffffffffff1673ffffffffffffffffffffffffffffffffffffffff163373ffffffffffffffffffffffffffffffffffffffff1614610868576040517f08c379a000000000000000000000000000000000000000000000000000000000815260040161085f90611313565b60405180910390fd5b5f61087282610c43565b90507fffffffffffffffffffffffffffffffffffffffffffffffffffffffffffffffff81036108d6576040517f08c379a00000000000000000000000000000000000000000000000000000000081526004016108cd90611528565b60405180910390fd5b60018080805490506108e89190611573565b815481106108f9576108f8611331565b5b905f5260205f20015f9054906101000a900473ffffffffffffffffffffffffffffffffffffffff166001828154811061093557610934611331565b5b905f5260205f20015f6101000a81548173ffffffffffffffffffffffffffffffffffffffff021916908373ffffffffffffffffffffffffffffffffffffffff160217905550600180548061098c5761098b6115a6565b5b600190038181905f5260205f20015f6101000a81549073ffffffffffffffffffffffffffffffffffffffff021916905590558173ffffffffffffffffffffffffffffffffffffffff167f1589f8555933761a3cff8aa925061be3b46e2dd43f621322ab611d300f62b1d960405160405180910390a25050565b5f5f9054906101000a900473ffffffffffffffffffffffffffffffffffffffff1681565b736346d64a3f31774283b72926b75ffda9662266ce81565b73100000000000000000000000000000000000000381565b7f000000000000000000000000000000000000000000000000000000000000000081565b5f600180549050905090565b5f73ffffffffffffffffffffffffffffffffffffffff165f5f9054906101000a900473ffffffffffffffffffffffffffffffffffffffff1673ffffffffffffffffffffffffffffffffffffffff1603610b3057736346d64a3f31774283b72926b75ffda9662266ce5f5f6101000a81548173ffffffffffffffffffffffffffffffffffffffff021916908373ffffffffffffffffffffffffffffffffffffffff1602179055505b5f5f9054906101000a900473ffffffffffffffffffffffffffffffffffffffff1673ffffffffffffffffffffffffffffffffffffffff163373ffffffffffffffffffffffffffffffffffffffff1614610bbe576040517f08c379a0000000000000000000000000000000000000000000000000000000008152600401610bb590611313565b60405180910390fd5b805f5f6101000a81548173ffffffffffffffffffffffffffffffffffffffff021916908373ffffffffffffffffffffffffffffffffffffffff1602179055508073ffffffffffffffffffffffffffffffffffffffff167f04dba622d284ed0014ee4b9a6a68386be1a4c08a4913ae272de89199cc68616360405160405180910390a250565b5f5f5f90505b610c51610a7d565b811015610cdc578273ffffffffffffffffffffffffffffffffffffffff1660018281548110610c8357610c82611331565b5b905f5260205f20015f9054906101000a900473ffffffffffffffffffffffffffffffffffffffff1673ffffffffffffffffffffffffffffffffffffffff1603610ccf5780915050610d01565b8080600101915050610c49565b507fffffffffffffffffffffffffffffffffffffffffffffffffffffffffffffffff90505b919050565b5f604051905090565b5f5ffd5b5f5ffd5b5f73ffffffffffffffffffffffffffffffffffffffff82169050919050565b5f610d4082610d17565b9050919050565b610d5081610d36565b8114610d5a575f5ffd5b50565b5f81359050610d6b81610d47565b92915050565b5f60208284031215610d8657610d85610d0f565b5b5f610d9384828501610d5d565b91505092915050565b5f5ffd5b5f5ffd5b5f601f19601f8301169050919050565b7f4e487b71000000000000000000000000000000000000000000000000000000005f52604160045260245ffd5b610dea82610da4565b810181811067ffffffffffffffff82111715610e0957610e08610db4565b5b80604052505050565b5f610e1b610d06565b9050610e278282610de1565b919050565b5f67ffffffffffffffff821115610e4657610e45610db4565b5b610e4f82610da4565b9050602081019050919050565b828183375f83830152505050565b5f610e7c610e7784610e2c565b610e12565b905082815260208101848484011115610e9857610e97610da0565b5b610ea3848285610e5c565b509392505050565b5f82601f830112610ebf57610ebe610d9c565b5b8135610ecf848260208601610e6a565b91505092915050565b5f60208284031215610eed57610eec610d0f565b5b5f82013567ffffffffffffffff811115610f0a57610f09610d13565b5b610f1684828501610eab565b91505092915050565b5f81519050919050565b5f82825260208201905092915050565b5f819050602082019050919050565b5f819050919050565b610f5a81610f48565b82525050565b5f610f6b8383610f51565b60208301905092915050565b5f602082019050919050565b5f610f8d82610f1f565b610f978185610f29565b9350610fa283610f39565b805f5b83811015610fd2578151610fb98882610f60565b9750610fc483610f77565b925050600181019050610fa5565b5085935050505092915050565b5f81519050919050565b5f82825260208201905092915050565b5f819050602082019050919050565b5f81519050919050565b5f82825260208201905092915050565b8281835e5f83830152505050565b5f61103a82611008565b6110448185611012565b9350611054818560208601611022565b61105d81610da4565b840191505092915050565b5f6110738383611030565b905092915050565b5f602082019050919050565b5f61109182610fdf565b61109b8185610fe9565b9350836020820285016110ad85610ff9565b805f5b858110156110e857848403895281516110c98582611068565b94506110d48361107b565b925060208a019950506001810190506110b0565b50829750879550505050505092915050565b5f6040820190508181035f8301526111128185610f83565b905081810360208301526111268184611087565b90509392505050565b5f819050919050565b6111418161112f565b811461114b575f5ffd5b50565b5f8135905061115c81611138565b92915050565b5f6020828403121561117757611176610d0f565b5b5f6111848482850161114e565b91505092915050565b61119681610d36565b82525050565b5f6020820190506111af5f83018461118d565b92915050565b5f819050919050565b5f6111d86111d36111ce84610d17565b6111b5565b610d17565b9050919050565b5f6111e9826111be565b9050919050565b5f6111fa826111df565b9050919050565b61120a816111f0565b82525050565b5f6020820190506112235f830184611201565b92915050565b6112328161112f565b82525050565b5f60208201905061124b5f830184611229565b92915050565b5f82825260208201905092915050565b7f4455504c49434154455f50524f564944455200000000000000000000000000005f82015250565b5f611295601283611251565b91506112a082611261565b602082019050919050565b5f6020820190508181035f8301526112c281611289565b9050919050565b7f554e415554484f52495a454400000000000000000000000000000000000000005f82015250565b5f6112fd600c83611251565b9150611308826112c9565b602082019050919050565b5f6020820190508181035f83015261132a816112f1565b9050919050565b7f4e487b71000000000000000000000000000000000000000000000000000000005f52603260045260245ffd5b61136781610f48565b8114611371575f5ffd5b50565b5f815190506113828161135e565b92915050565b5f6020828403121561139d5761139c610d0f565b5b5f6113aa84828501611374565b91505092915050565b5f82825260208201905092915050565b5f6113cd82611008565b6113d781856113b3565b93506113e7818560208601611022565b6113f081610da4565b840191505092915050565b5f60408201905061140e5f83018561118d565b818103602083015261142081846113c3565b90509392505050565b5f61143b61143684610e2c565b610e12565b90508281526020810184848401111561145757611456610da0565b5b611462848285611022565b509392505050565b5f82601f83011261147e5761147d610d9c565b5b815161148e848260208601611429565b91505092915050565b5f602082840312156114ac576114ab610d0f565b5b5f82015167ffffffffffffffff8111156114c9576114c8610d13565b5b6114d58482850161146a565b91505092915050565b7f50524f56494445525f4e4f545f464f554e4400000000000000000000000000005f82015250565b5f611512601283611251565b915061151d826114de565b602082019050919050565b5f6020820190508181035f83015261153f81611506565b9050919050565b7f4e487b71000000000000000000000000000000000000000000000000000000005f52601160045260245ffd5b5f61157d8261112f565b91506115888361112f565b92508282039050818111156115a05761159f611546565b5b92915050565b7f4e487b71000000000000000000000000000000000000000000000000000000005f52603160045260245ffdfea2646970667358221220b87a0c38dcb575a2ccf41c92c19ae7181758b9e0de492671315335aa9af473b764736f6c637829302e382e33312d646576656c6f702e323032352e31312e31322b636f6d6d69742e3637366264656363005a","linkReferences":{}},"methodIdentifiers":{"DIRECTORY_ADDRESS()":"ba1ab291","INITIAL_OWNER()":"a36250d8","addProvider(address)":"46e2577a","directory()":"c41c2f24","encryptToProviders(bytes)":"4a8fcf9a","numProviders()":"ed03b300","owner()":"8da5cb5b","providers(uint256)":"50f3fc81","removeProvider(address)":"8a355a57","transferOwnership(address)":"f2fde38b"},"id":24}