{"abi":[{"type":"constructor","inputs":[{"name":"_owner","type":"address","internalType":"address"},{"name":"_keys","type":"suint256[]","internalType":"suint256[]"}],"stateMutability":"nonpayable"},{"type":"function","name":"addKey","inputs":[{"name":"_key","type":"suint256","internalType":"suint256"}],"outputs":[],"stateMutability":"nonpayable"},{"type":"function","name":"decrypt","inputs":[{"name":"key","type":"suint256","internalType":"suint256"},{"name":"_encryptedData","type":"bytes","internalType":"bytes"}],"outputs":[{"name":"","type":"bytes","internalType":"bytes"}],"stateMutability":"view"},{"type":"function","name":"encrypt","inputs":[{"name":"_plaintext","type":"bytes","internalType":"bytes"}],"outputs":[{"name":"","type":"bytes[]","internalType":"bytes[]"}],"stateMutability":"nonpayable"},{"type":"function","name":"encryptIdx","inputs":[{"name":"_keyIdx","type":"uint256","internalType":"uint256"},{"name":"_plaintext","type":"bytes","internalType":"bytes"}],"outputs":[{"name":"","type":"bytes","internalType":"bytes"}],"stateMutability":"nonpayable"},{"type":"function","name":"nonce","inputs":[],"outputs":[{"name":"","type":"uint96","internalType":"uint96"}],"stateMutability":"view"},{"type":"function","name":"numKeys","inputs":[],"outputs":[{"name":"","type":"uint256","internalType":"uint256"}],"stateMutability":"view"},{"type":"function","name":"owner","inputs":[],"outputs":[{"name":"","type":"address","internalType":"address"}],"stateMutability":"view"},{"type":"function","name":"removeKey","inputs":[{"name":"_key","type":"suint256","internalType":"suint256"}],"outputs":[],"stateMutability":"nonpayable"},{"type":"function","name":"transferOwnership","inputs":[{"name":"newOwner","type":"address","internalType":"address"}],"outputs":[],"stateMutability":"nonpayable"},{"type":"event","name":"OwnershipTransferred","inputs":[{"name":"user","type":"address","indexed":true,"internalType":"address"},{"name":"newOwner","type":"address","indexed":true,"internalType":"address"}],"anonymous":false},{"type":"error","name":"AESPrecompileCallFailed","inputs":[]},{"type":"error","name":"KeyNotFound","inputs":[]}],"bytecode":{"object":"0x608060405234801561000f575f5ffd5b506040516118343803806118348339818101604052810190610031919061033e565b81805f5f6101000a81548173ffffffffffffffffffffffffffffffffffffffff021916908373ffffffffffffffffffffffffffffffffffffffff1602179055508073ffffffffffffffffffffffffffffffffffffffff165f73ffffffffffffffffffffffffffffffffffffffff167f8be0079c531659141344cd1fd0a4f28419497f9722a3daafe3b4186f6b6457e060405160405180910390a35080600190805190602001906100e29291906100ea565b505050610398565b8280b08282b1905f5260205f20908101928215610124579160200282015b8281111561012357825182b191602001919060010190610108565b5b5090506101319190610135565b5090565b5b8082111561014c575f815f90b150600101610136565b5090565b5f604051905090565b5f5ffd5b5f5ffd5b5f73ffffffffffffffffffffffffffffffffffffffff82169050919050565b5f61018a82610161565b9050919050565b61019a81610180565b81146101a4575f5ffd5b50565b5f815190506101b581610191565b92915050565b5f5ffd5b5f601f19601f8301169050919050565b7f4e487b71000000000000000000000000000000000000000000000000000000005f52604160045260245ffd5b610205826101bf565b810181811067ffffffffffffffff82111715610224576102236101cf565b5b80604052505050565b5f610236610150565b905061024282826101fc565b919050565b5f67ffffffffffffffff821115610261576102606101cf565b5b602082029050602081019050919050565b5f5ffd5b5f819050919050565b61028881610276565b8114610292575f5ffd5b50565b5f815190506102a38161027f565b92915050565b5f6102bb6102b684610247565b61022d565b905080838252602082019050602084028301858111156102de576102dd610272565b5b835b8181101561030757806102f38882610295565b8452602084019350506020810190506102e0565b5050509392505050565b5f82601f830112610325576103246101bb565b5b81516103358482602086016102a9565b91505092915050565b5f5f6040838503121561035457610353610159565b5b5f610361858286016101a7565b925050602083015167ffffffffffffffff8111156103825761038161015d565b5b61038e85828601610311565b9150509250929050565b61148f806103a55f395ff3fe608060405234801561000f575f5ffd5b5060043610610091575f3560e01c8063b03e6db711610064578063b03e6db71461011d578063c9d24ecc14610139578063cab9598514610157578063ee8787d914610187578063f2fde38b146101b757610091565b806305eb1ea01461009557806331b00e46146100b15780638da5cb5b146100e1578063affed0e0146100ff575b5f5ffd5b6100af60048036038101906100aa9190610a7f565b6101d3565b005b6100cb60048036038101906100c69190610be6565b61028a565b6040516100d89190610d48565b60405180910390f35b6100e9610333565b6040516100f69190610da7565b60405180910390f35b610107610357565b6040516101149190610de6565b60405180910390f35b61013760048036038101906101329190610a7f565b610374565b005b6101416104dc565b60405161014e9190610e17565b60405180910390f35b610171600480360381019061016c9190610e5a565b6104e8565b60405161017e9190610efc565b60405180910390f35b6101a1600480360381019061019c9190610f1c565b610656565b6040516101ae9190610efc565b60405180910390f35b6101d160048036038101906101cc9190610fa0565b6106ed565b005b5f5f9054906101000a900473ffffffffffffffffffffffffffffffffffffffff1673ffffffffffffffffffffffffffffffffffffffff163373ffffffffffffffffffffffffffffffffffffffff1614610261576040517f08c379a000000000000000000000000000000000000000000000000000000000815260040161025890611025565b60405180910390fd5b6001819080600181b0018082b18091505060019003905f5260205f20015f90919091909150b150565b60605f600180b0905067ffffffffffffffff8111156102ac576102ab610ac2565b5b6040519080825280602002602001820160405280156102df57816020015b60608152602001906001900390816102ca5790505b5090505f5f90505b600180b09050811015610329576102fe81856104e8565b82828151811061031157610310611043565b5b602002602001018190525080806001019150506102e7565b5080915050919050565b5f5f9054906101000a900473ffffffffffffffffffffffffffffffffffffffff1681565b60025f9054906101000a90046bffffffffffffffffffffffff1681565b5f5f9054906101000a900473ffffffffffffffffffffffffffffffffffffffff1673ffffffffffffffffffffffffffffffffffffffff163373ffffffffffffffffffffffffffffffffffffffff1614610402576040517f08c379a00000000000000000000000000000000000000000000000000000000081526004016103f990611025565b60405180910390fd5b5f61040c82610817565b90507fffffffffffffffffffffffffffffffffffffffffffffffffffffffffffffffff8103610467576040517f5f3f479c00000000000000000000000000000000000000000000000000000000815260040160405180910390fd5b6001808080b09050610479919061109d565b81b0811061048a57610489611043565b5b905f5260205f2001b060018281b081106104a7576104a6611043565b5b905f5260205f20018190b150600180b0806104c5576104c46110d0565b5b600190038181905f5260205f20015f90b190b15050565b5f600180b09050905090565b6060600180b090508310610528576040517f5f3f479c00000000000000000000000000000000000000000000000000000000815260040160405180910390fd5b5f60018481b0811061053d5761053c611043565b5b905f5260205f2001b0604051602001610556919061111d565b6040516020818303038152906040528051906020012090505f6105af60018681b0811061058657610585611043565b5b905f5260205f2001b060025f9054906101000a90046bffffffffffffffffffffffff168661088d565b90505f73__$851c94c409dfd84fc196ac1b2d288a23b2$__63309245e08360025f9054906101000a90046bffffffffffffffffffffffff16866040518463ffffffff1660e01b8152600401610606939291906111a6565b5f60405180830381865af4158015610620573d5f5f3e3d5ffd5b505050506040513d5f823e3d601f19601f820116820180604052508101906106489190611250565b905080935050505092915050565b60605f5f73__$851c94c409dfd84fc196ac1b2d288a23b2$__63e8d6c79a856040518263ffffffff1660e01b81526004016106919190611297565b5f60405180830381865af41580156106ab573d5f5f3e3d5ffd5b505050506040513d5f823e3d601f19601f820116820180604052508101906106d3919061130b565b50915091506106e3858284610964565b9250505092915050565b5f5f9054906101000a900473ffffffffffffffffffffffffffffffffffffffff1673ffffffffffffffffffffffffffffffffffffffff163373ffffffffffffffffffffffffffffffffffffffff161461077b576040517f08c379a000000000000000000000000000000000000000000000000000000000815260040161077290611025565b60405180910390fd5b805f5f6101000a81548173ffffffffffffffffffffffffffffffffffffffff021916908373ffffffffffffffffffffffffffffffffffffffff1602179055508073ffffffffffffffffffffffffffffffffffffffff163373ffffffffffffffffffffffffffffffffffffffff167f8be0079c531659141344cd1fd0a4f28419497f9722a3daafe3b4186f6b6457e060405160405180910390a350565b5f5f5f90505b600180b09050811015610863578260018281b0811061083f5761083e611043565b5b905f5260205f2001b0036108565780915050610888565b808060010191505061081d565b507fffffffffffffffffffffffffffffffffffffffffffffffffffffffffffffffff90505b919050565b60605f8484846040516020016108a5939291906113e5565b60405160208183030381529060405290505f5f606673ffffffffffffffffffffffffffffffffffffffff16836040516108de919061141d565b5f60405180830381855afa9150503d805f8114610916576040519150601f19603f3d011682016040523d82523d5f602084013e61091b565b606091505b509150915081610957576040517fa99eec4b00000000000000000000000000000000000000000000000000000000815260040160405180910390fd5b8093505050509392505050565b60605f84848460405160200161097c939291906113e5565b60405160208183030381529060405290505f5f606773ffffffffffffffffffffffffffffffffffffffff16836040516109b5919061141d565b5f60405180830381855afa9150503d805f81146109ed576040519150601f19603f3d011682016040523d82523d5f602084013e6109f2565b606091505b509150915081610a2e576040517fa99eec4b00000000000000000000000000000000000000000000000000000000815260040160405180910390fd5b8093505050509392505050565b5f604051905090565b5f5ffd5b5f5ffd5b5f819050919050565b610a5e81610a4c565b8114610a68575f5ffd5b50565b5f81359050610a7981610a55565b92915050565b5f60208284031215610a9457610a93610a44565b5b5f610aa184828501610a6b565b91505092915050565b5f5ffd5b5f5ffd5b5f601f19601f8301169050919050565b7f4e487b71000000000000000000000000000000000000000000000000000000005f52604160045260245ffd5b610af882610ab2565b810181811067ffffffffffffffff82111715610b1757610b16610ac2565b5b80604052505050565b5f610b29610a3b565b9050610b358282610aef565b919050565b5f67ffffffffffffffff821115610b5457610b53610ac2565b5b610b5d82610ab2565b9050602081019050919050565b828183375f83830152505050565b5f610b8a610b8584610b3a565b610b20565b905082815260208101848484011115610ba657610ba5610aae565b5b610bb1848285610b6a565b509392505050565b5f82601f830112610bcd57610bcc610aaa565b5b8135610bdd848260208601610b78565b91505092915050565b5f60208284031215610bfb57610bfa610a44565b5b5f82013567ffffffffffffffff811115610c1857610c17610a48565b5b610c2484828501610bb9565b91505092915050565b5f81519050919050565b5f82825260208201905092915050565b5f819050602082019050919050565b5f81519050919050565b5f82825260208201905092915050565b8281835e5f83830152505050565b5f610c8882610c56565b610c928185610c60565b9350610ca2818560208601610c70565b610cab81610ab2565b840191505092915050565b5f610cc18383610c7e565b905092915050565b5f602082019050919050565b5f610cdf82610c2d565b610ce98185610c37565b935083602082028501610cfb85610c47565b805f5b85811015610d365784840389528151610d178582610cb6565b9450610d2283610cc9565b925060208a01995050600181019050610cfe565b50829750879550505050505092915050565b5f6020820190508181035f830152610d608184610cd5565b905092915050565b5f73ffffffffffffffffffffffffffffffffffffffff82169050919050565b5f610d9182610d68565b9050919050565b610da181610d87565b82525050565b5f602082019050610dba5f830184610d98565b92915050565b5f6bffffffffffffffffffffffff82169050919050565b610de081610dc0565b82525050565b5f602082019050610df95f830184610dd7565b92915050565b5f819050919050565b610e1181610dff565b82525050565b5f602082019050610e2a5f830184610e08565b92915050565b610e3981610dff565b8114610e43575f5ffd5b50565b5f81359050610e5481610e30565b92915050565b5f5f60408385031215610e7057610e6f610a44565b5b5f610e7d85828601610e46565b925050602083013567ffffffffffffffff811115610e9e57610e9d610a48565b5b610eaa85828601610bb9565b9150509250929050565b5f82825260208201905092915050565b5f610ece82610c56565b610ed88185610eb4565b9350610ee8818560208601610c70565b610ef181610ab2565b840191505092915050565b5f6020820190508181035f830152610f148184610ec4565b905092915050565b5f5f60408385031215610f3257610f31610a44565b5b5f610f3f85828601610a6b565b925050602083013567ffffffffffffffff811115610f6057610f5f610a48565b5b610f6c85828601610bb9565b9150509250929050565b610f7f81610d87565b8114610f89575f5ffd5b50565b5f81359050610f9a81610f76565b92915050565b5f60208284031215610fb557610fb4610a44565b5b5f610fc284828501610f8c565b91505092915050565b5f82825260208201905092915050565b7f554e415554484f52495a454400000000000000000000000000000000000000005f82015250565b5f61100f600c83610fcb565b915061101a82610fdb565b602082019050919050565b5f6020820190508181035f83015261103c81611003565b9050919050565b7f4e487b71000000000000000000000000000000000000000000000000000000005f52603260045260245ffd5b7f4e487b71000000000000000000000000000000000000000000000000000000005f52601160045260245ffd5b5f6110a782610a4c565b91506110b283610a4c565b92508282039050818111156110ca576110c9611070565b5b92915050565b7f4e487b71000000000000000000000000000000000000000000000000000000005f52603160045260245ffd5b5f819050919050565b61111761111282610a4c565b6110fd565b82525050565b5f6111288284611106565b60208201915081905092915050565b5f82825260208201905092915050565b5f61115182610c56565b61115b8185611137565b935061116b818560208601610c70565b61117481610ab2565b840191505092915050565b61118881610dc0565b82525050565b5f819050919050565b6111a08161118e565b82525050565b5f6060820190508181035f8301526111be8186611147565b90506111cd602083018561117f565b6111da6040830184611197565b949350505050565b5f6111f46111ef84610b3a565b610b20565b9050828152602081018484840111156112105761120f610aae565b5b61121b848285610c70565b509392505050565b5f82601f83011261123757611236610aaa565b5b81516112478482602086016111e2565b91505092915050565b5f6020828403121561126557611264610a44565b5b5f82015167ffffffffffffffff81111561128257611281610a48565b5b61128e84828501611223565b91505092915050565b5f6020820190508181035f8301526112af8184611147565b905092915050565b6112c081610dc0565b81146112ca575f5ffd5b50565b5f815190506112db816112b7565b92915050565b6112ea8161118e565b81146112f4575f5ffd5b50565b5f81519050611305816112e1565b92915050565b5f5f5f6060848603121561132257611321610a44565b5b5f84015167ffffffffffffffff81111561133f5761133e610a48565b5b61134b86828701611223565b935050602061135c868287016112cd565b925050604061136d868287016112f7565b9150509250925092565b5f8160a01b9050919050565b5f61138d82611377565b9050919050565b6113a56113a082610dc0565b611383565b82525050565b5f81905092915050565b5f6113bf82610c56565b6113c981856113ab565b93506113d9818560208601610c70565b80840191505092915050565b5f6113f08286611106565b6020820191506114008285611394565b600c8201915061141082846113b5565b9150819050949350505050565b5f61142882846113b5565b91508190509291505056fea264697066735822122057bd380ff6e1ba801b8662d3ce77d51617c60fb68bce848ec0b6b6ab10f0ce2664736f6c637828302e382e32392d646576656c6f702e323032352e372e32332b636f6d6d69742e36393665623163640059","linkReferences":{"src/AesLib.sol":{"AesLib":[{"start":2393,"length":20},{"start":2561,"length":20}]}}},"methodIdentifiers":{"addKey(suint256)":"05eb1ea0","decrypt(suint256,bytes)":"ee8787d9","encrypt(bytes)":"31b00e46","encryptIdx(uint256,bytes)":"cab95985","nonce()":"affed0e0","numKeys()":"c9d24ecc","owner()":"8da5cb5b","removeKey(suint256)":"b03e6db7","transferOwnership(address)":"f2fde38b"},"id":19}