{"abi":[{"type":"constructor","inputs":[{"name":"_owner","type":"address","internalType":"address"},{"name":"_keys","type":"suint256[]","internalType":"suint256[]"}],"stateMutability":"nonpayable"},{"type":"function","name":"addKey","inputs":[{"name":"_key","type":"suint256","internalType":"suint256"}],"outputs":[],"stateMutability":"nonpayable"},{"type":"function","name":"decrypt","inputs":[{"name":"key","type":"suint256","internalType":"suint256"},{"name":"_encryptedData","type":"bytes","internalType":"bytes"}],"outputs":[{"name":"","type":"bytes","internalType":"bytes"}],"stateMutability":"view"},{"type":"function","name":"encrypt","inputs":[{"name":"_plaintext","type":"bytes","internalType":"bytes"}],"outputs":[{"name":"","type":"bytes32[]","internalType":"bytes32[]"},{"name":"","type":"bytes[]","internalType":"bytes[]"}],"stateMutability":"nonpayable"},{"type":"function","name":"encryptIdx","inputs":[{"name":"_keyIdx","type":"uint256","internalType":"uint256"},{"name":"_plaintext","type":"bytes","internalType":"bytes"}],"outputs":[{"name":"","type":"bytes","internalType":"bytes"}],"stateMutability":"nonpayable"},{"type":"function","name":"keyHashes","inputs":[{"name":"","type":"uint256","internalType":"uint256"}],"outputs":[{"name":"","type":"bytes32","internalType":"bytes32"}],"stateMutability":"view"},{"type":"function","name":"nonce","inputs":[],"outputs":[{"name":"","type":"uint96","internalType":"uint96"}],"stateMutability":"view"},{"type":"function","name":"numKeys","inputs":[],"outputs":[{"name":"","type":"uint256","internalType":"uint256"}],"stateMutability":"view"},{"type":"function","name":"owner","inputs":[],"outputs":[{"name":"","type":"address","internalType":"address"}],"stateMutability":"view"},{"type":"function","name":"removeKey","inputs":[{"name":"_key","type":"suint256","internalType":"suint256"}],"outputs":[],"stateMutability":"nonpayable"},{"type":"function","name":"transferOwnership","inputs":[{"name":"newOwner","type":"address","internalType":"address"}],"outputs":[],"stateMutability":"nonpayable"},{"type":"event","name":"OwnershipTransferred","inputs":[{"name":"user","type":"address","indexed":true,"internalType":"address"},{"name":"newOwner","type":"address","indexed":true,"internalType":"address"}],"anonymous":false},{"type":"error","name":"AESPrecompileCallFailed","inputs":[]},{"type":"error","name":"KeyNotFound","inputs":[]}],"bytecode":{"object":"0x608060405234801561000f575f5ffd5b50604051611c9e380380611c9e833981810160405281019061003191906104b4565b81805f5f6101000a81548173ffffffffffffffffffffffffffffffffffffffff021916908373ffffffffffffffffffffffffffffffffffffffff1602179055508073ffffffffffffffffffffffffffffffffffffffff165f73ffffffffffffffffffffffffffffffffffffffff167f8be0079c531659141344cd1fd0a4f28419497f9722a3daafe3b4186f6b6457e060405160405180910390a35080600190805190602001906100e29291906101fa565b506100f28161010f60201b60201c565b60029080519060200190610107929190610245565b505050610575565b60605f825167ffffffffffffffff81111561012d5761012c610345565b5b60405190808252806020026020018201604052801561015b5781602001602082028036833780820191505090505b5090505f5f90505b83518110156101c1576101958482815181106101825761018161050e565b5b60200260200101516101cb60201b60201c565b8282815181106101a8576101a761050e565b5b6020026020010181815250508080600101915050610163565b5080915050919050565b5f816040516020016101dd919061055b565b604051602081830303815290604052805190602001209050919050565b8280b08282b1905f5260205f20908101928215610234579160200282015b8281111561023357825182b191602001919060010190610218565b5b5090506102419190610290565b5090565b828054828255905f5260205f2090810192821561027f579160200282015b8281111561027e578251825591602001919060010190610263565b5b50905061028c91906102ab565b5090565b5b808211156102a7575f815f90b150600101610291565b5090565b5b808211156102c2575f815f9055506001016102ac565b5090565b5f604051905090565b5f5ffd5b5f5ffd5b5f73ffffffffffffffffffffffffffffffffffffffff82169050919050565b5f610300826102d7565b9050919050565b610310816102f6565b811461031a575f5ffd5b50565b5f8151905061032b81610307565b92915050565b5f5ffd5b5f601f19601f8301169050919050565b7f4e487b71000000000000000000000000000000000000000000000000000000005f52604160045260245ffd5b61037b82610335565b810181811067ffffffffffffffff8211171561039a57610399610345565b5b80604052505050565b5f6103ac6102c6565b90506103b88282610372565b919050565b5f67ffffffffffffffff8211156103d7576103d6610345565b5b602082029050602081019050919050565b5f5ffd5b5f819050919050565b6103fe816103ec565b8114610408575f5ffd5b50565b5f81519050610419816103f5565b92915050565b5f61043161042c846103bd565b6103a3565b90508083825260208201905060208402830185811115610454576104536103e8565b5b835b8181101561047d5780610469888261040b565b845260208401935050602081019050610456565b5050509392505050565b5f82601f83011261049b5761049a610331565b5b81516104ab84826020860161041f565b91505092915050565b5f5f604083850312156104ca576104c96102cf565b5b5f6104d78582860161031d565b925050602083015167ffffffffffffffff8111156104f8576104f76102d3565b5b61050485828601610487565b9150509250929050565b7f4e487b71000000000000000000000000000000000000000000000000000000005f52603260045260245ffd5b5f819050919050565b610555610550826103ec565b61053b565b82525050565b5f6105668284610544565b60208201915081905092915050565b61171c806105825f395ff3fe608060405234801561000f575f5ffd5b506004361061009c575f3560e01c8063b03e6db711610064578063b03e6db714610159578063c9d24ecc14610175578063cab9598514610193578063ee8787d9146101c3578063f2fde38b146101f35761009c565b806305eb1ea0146100a057806331b00e46146100bc57806384dedf54146100ed5780638da5cb5b1461011d578063affed0e01461013b575b5f5ffd5b6100ba60048036038101906100b59190610c13565b61020f565b005b6100d660048036038101906100d19190610d7a565b6102f4565b6040516100e4929190610f9c565b60405180910390f35b61010760048036038101906101029190611004565b6103f2565b604051610114919061103e565b60405180910390f35b610125610412565b6040516101329190611096565b60405180910390f35b610143610436565b60405161015091906110d5565b60405180910390f35b610173600480360381019061016e9190610c13565b610453565b005b61017d61062e565b60405161018a91906110fd565b60405180910390f35b6101ad60048036038101906101a89190611116565b61063a565b6040516101ba91906111b8565b60405180910390f35b6101dd60048036038101906101d891906111d8565b6107bc565b6040516101ea91906111b8565b60405180910390f35b61020d6004803603810190610208919061125c565b610852565b005b5f5f9054906101000a900473ffffffffffffffffffffffffffffffffffffffff1673ffffffffffffffffffffffffffffffffffffffff163373ffffffffffffffffffffffffffffffffffffffff161461029d576040517f08c379a0000000000000000000000000000000000000000000000000000000008152600401610294906112e1565b60405180910390fd5b6001819080600181b0018082b18091505060019003905f5260205f20015f90919091909150b160026102ce8261097c565b908060018154018082558091505060019003905f5260205f20015f909190919091505550565b6060805f600180b0905067ffffffffffffffff81111561031757610316610c56565b5b60405190808252806020026020018201604052801561034a57816020015b60608152602001906001900390816103355790505b5090505f5f90505b600180b0905081101561039457610369818661063a565b82828151811061037c5761037b6112ff565b5b60200260200101819052508080600101915050610352565b50600281818054806020026020016040519081016040528092919081815260200182805480156103e157602002820191905f5260205f20905b8154815260200190600101908083116103cd575b505050505091509250925050915091565b60028181548110610401575f80fd5b905f5260205f20015f915090505481565b5f5f9054906101000a900473ffffffffffffffffffffffffffffffffffffffff1681565b60035f9054906101000a90046bffffffffffffffffffffffff1681565b5f5f9054906101000a900473ffffffffffffffffffffffffffffffffffffffff1673ffffffffffffffffffffffffffffffffffffffff163373ffffffffffffffffffffffffffffffffffffffff16146104e1576040517f08c379a00000000000000000000000000000000000000000000000000000000081526004016104d8906112e1565b60405180910390fd5b5f6104eb826109ab565b90507fffffffffffffffffffffffffffffffffffffffffffffffffffffffffffffffff8103610546576040517f5f3f479c00000000000000000000000000000000000000000000000000000000815260040160405180910390fd5b6001808080b090506105589190611359565b81b08110610569576105686112ff565b5b905f5260205f2001b060018281b08110610586576105856112ff565b5b905f5260205f20018190b150600180b0806105a4576105a361138c565b5b600190038181905f5260205f20015f90b190b1600260016002805490506105cb9190611359565b815481106105dc576105db6112ff565b5b905f5260205f200154600282815481106105f9576105f86112ff565b5b905f5260205f20018190555060028054806106175761061661138c565b5b600190038181905f5260205f20015f905590555050565b5f600180b09050905090565b6060600180b09050831061067a576040517f5f3f479c00000000000000000000000000000000000000000000000000000000815260040160405180910390fd5b5f60018481b0811061068f5761068e6112ff565b5b905f5260205f2001b090505f6106bf8260035f9054906101000a90046bffffffffffffffffffffffff1686610a21565b90505f73__$851c94c409dfd84fc196ac1b2d288a23b2$__63415028a98360035f9054906101000a90046bffffffffffffffffffffffff166040518363ffffffff1660e01b8152600401610714929190611410565b5f60405180830381865af415801561072e573d5f5f3e3d5ffd5b505050506040513d5f823e3d601f19601f8201168201806040525081019061075691906114ac565b905060035f81819054906101000a90046bffffffffffffffffffffffff1680929190610781906114f3565b91906101000a8154816bffffffffffffffffffffffff02191690836bffffffffffffffffffffffff1602179055505080935050505092915050565b60605f5f73__$851c94c409dfd84fc196ac1b2d288a23b2$__63e8d6c79a856040518263ffffffff1660e01b81526004016107f79190611526565b5f60405180830381865af4158015610811573d5f5f3e3d5ffd5b505050506040513d5f823e3d601f19601f820116820180604052508101906108399190611570565b91509150610848858284610af8565b9250505092915050565b5f5f9054906101000a900473ffffffffffffffffffffffffffffffffffffffff1673ffffffffffffffffffffffffffffffffffffffff163373ffffffffffffffffffffffffffffffffffffffff16146108e0576040517f08c379a00000000000000000000000000000000000000000000000000000000081526004016108d7906112e1565b60405180910390fd5b805f5f6101000a81548173ffffffffffffffffffffffffffffffffffffffff021916908373ffffffffffffffffffffffffffffffffffffffff1602179055508073ffffffffffffffffffffffffffffffffffffffff163373ffffffffffffffffffffffffffffffffffffffff167f8be0079c531659141344cd1fd0a4f28419497f9722a3daafe3b4186f6b6457e060405160405180910390a350565b5f8160405160200161098e91906115ea565b604051602081830303815290604052805190602001209050919050565b5f5f5f90505b600180b090508110156109f7578260018281b081106109d3576109d26112ff565b5b905f5260205f2001b0036109ea5780915050610a1c565b80806001019150506109b1565b507fffffffffffffffffffffffffffffffffffffffffffffffffffffffffffffffff90505b919050565b60605f848484604051602001610a3993929190611672565b60405160208183030381529060405290505f5f606673ffffffffffffffffffffffffffffffffffffffff1683604051610a7291906116aa565b5f60405180830381855afa9150503d805f8114610aaa576040519150601f19603f3d011682016040523d82523d5f602084013e610aaf565b606091505b509150915081610aeb576040517fa99eec4b00000000000000000000000000000000000000000000000000000000815260040160405180910390fd5b8093505050509392505050565b60605f848484604051602001610b1093929190611672565b60405160208183030381529060405290505f5f606773ffffffffffffffffffffffffffffffffffffffff1683604051610b4991906116aa565b5f60405180830381855afa9150503d805f8114610b81576040519150601f19603f3d011682016040523d82523d5f602084013e610b86565b606091505b509150915081610bc2576040517fa99eec4b00000000000000000000000000000000000000000000000000000000815260040160405180910390fd5b8093505050509392505050565b5f604051905090565b5f5ffd5b5f5ffd5b5f819050919050565b610bf281610be0565b8114610bfc575f5ffd5b50565b5f81359050610c0d81610be9565b92915050565b5f60208284031215610c2857610c27610bd8565b5b5f610c3584828501610bff565b91505092915050565b5f5ffd5b5f5ffd5b5f601f19601f8301169050919050565b7f4e487b71000000000000000000000000000000000000000000000000000000005f52604160045260245ffd5b610c8c82610c46565b810181811067ffffffffffffffff82111715610cab57610caa610c56565b5b80604052505050565b5f610cbd610bcf565b9050610cc98282610c83565b919050565b5f67ffffffffffffffff821115610ce857610ce7610c56565b5b610cf182610c46565b9050602081019050919050565b828183375f83830152505050565b5f610d1e610d1984610cce565b610cb4565b905082815260208101848484011115610d3a57610d39610c42565b5b610d45848285610cfe565b509392505050565b5f82601f830112610d6157610d60610c3e565b5b8135610d71848260208601610d0c565b91505092915050565b5f60208284031215610d8f57610d8e610bd8565b5b5f82013567ffffffffffffffff811115610dac57610dab610bdc565b5b610db884828501610d4d565b91505092915050565b5f81519050919050565b5f82825260208201905092915050565b5f819050602082019050919050565b5f819050919050565b610dfc81610dea565b82525050565b5f610e0d8383610df3565b60208301905092915050565b5f602082019050919050565b5f610e2f82610dc1565b610e398185610dcb565b9350610e4483610ddb565b805f5b83811015610e74578151610e5b8882610e02565b9750610e6683610e19565b925050600181019050610e47565b5085935050505092915050565b5f81519050919050565b5f82825260208201905092915050565b5f819050602082019050919050565b5f81519050919050565b5f82825260208201905092915050565b8281835e5f83830152505050565b5f610edc82610eaa565b610ee68185610eb4565b9350610ef6818560208601610ec4565b610eff81610c46565b840191505092915050565b5f610f158383610ed2565b905092915050565b5f602082019050919050565b5f610f3382610e81565b610f3d8185610e8b565b935083602082028501610f4f85610e9b565b805f5b85811015610f8a5784840389528151610f6b8582610f0a565b9450610f7683610f1d565b925060208a01995050600181019050610f52565b50829750879550505050505092915050565b5f6040820190508181035f830152610fb48185610e25565b90508181036020830152610fc88184610f29565b90509392505050565b5f819050919050565b610fe381610fd1565b8114610fed575f5ffd5b50565b5f81359050610ffe81610fda565b92915050565b5f6020828403121561101957611018610bd8565b5b5f61102684828501610ff0565b91505092915050565b61103881610dea565b82525050565b5f6020820190506110515f83018461102f565b92915050565b5f73ffffffffffffffffffffffffffffffffffffffff82169050919050565b5f61108082611057565b9050919050565b61109081611076565b82525050565b5f6020820190506110a95f830184611087565b92915050565b5f6bffffffffffffffffffffffff82169050919050565b6110cf816110af565b82525050565b5f6020820190506110e85f8301846110c6565b92915050565b6110f781610fd1565b82525050565b5f6020820190506111105f8301846110ee565b92915050565b5f5f6040838503121561112c5761112b610bd8565b5b5f61113985828601610ff0565b925050602083013567ffffffffffffffff81111561115a57611159610bdc565b5b61116685828601610d4d565b9150509250929050565b5f82825260208201905092915050565b5f61118a82610eaa565b6111948185611170565b93506111a4818560208601610ec4565b6111ad81610c46565b840191505092915050565b5f6020820190508181035f8301526111d08184611180565b905092915050565b5f5f604083850312156111ee576111ed610bd8565b5b5f6111fb85828601610bff565b925050602083013567ffffffffffffffff81111561121c5761121b610bdc565b5b61122885828601610d4d565b9150509250929050565b61123b81611076565b8114611245575f5ffd5b50565b5f8135905061125681611232565b92915050565b5f6020828403121561127157611270610bd8565b5b5f61127e84828501611248565b91505092915050565b5f82825260208201905092915050565b7f554e415554484f52495a454400000000000000000000000000000000000000005f82015250565b5f6112cb600c83611287565b91506112d682611297565b602082019050919050565b5f6020820190508181035f8301526112f8816112bf565b9050919050565b7f4e487b71000000000000000000000000000000000000000000000000000000005f52603260045260245ffd5b7f4e487b71000000000000000000000000000000000000000000000000000000005f52601160045260245ffd5b5f61136382610fd1565b915061136e83610fd1565b92508282039050818111156113865761138561132c565b5b92915050565b7f4e487b71000000000000000000000000000000000000000000000000000000005f52603160045260245ffd5b5f82825260208201905092915050565b5f6113d382610eaa565b6113dd81856113b9565b93506113ed818560208601610ec4565b6113f681610c46565b840191505092915050565b61140a816110af565b82525050565b5f6040820190508181035f83015261142881856113c9565b90506114376020830184611401565b9392505050565b5f61145061144b84610cce565b610cb4565b90508281526020810184848401111561146c5761146b610c42565b5b611477848285610ec4565b509392505050565b5f82601f83011261149357611492610c3e565b5b81516114a384826020860161143e565b91505092915050565b5f602082840312156114c1576114c0610bd8565b5b5f82015167ffffffffffffffff8111156114de576114dd610bdc565b5b6114ea8482850161147f565b91505092915050565b5f6114fd826110af565b91506bffffffffffffffffffffffff820361151b5761151a61132c565b5b600182019050919050565b5f6020820190508181035f83015261153e81846113c9565b905092915050565b61154f816110af565b8114611559575f5ffd5b50565b5f8151905061156a81611546565b92915050565b5f5f6040838503121561158657611585610bd8565b5b5f83015167ffffffffffffffff8111156115a3576115a2610bdc565b5b6115af8582860161147f565b92505060206115c08582860161155c565b9150509250929050565b5f819050919050565b6115e46115df82610be0565b6115ca565b82525050565b5f6115f582846115d3565b60208201915081905092915050565b5f8160a01b9050919050565b5f61161a82611604565b9050919050565b61163261162d826110af565b611610565b82525050565b5f81905092915050565b5f61164c82610eaa565b6116568185611638565b9350611666818560208601610ec4565b80840191505092915050565b5f61167d82866115d3565b60208201915061168d8285611621565b600c8201915061169d8284611642565b9150819050949350505050565b5f6116b58284611642565b91508190509291505056fea2646970667358221220d6788284360775442d12b312b0f0d82dc2b1ab7cb581d1c060ed9d38e79a57d364736f6c637828302e382e33312d646576656c6f702e323032352e392e33302b636f6d6d69742e35393965653831360059","linkReferences":{"src/AesLib.sol":{"AesLib":[{"start":3142,"length":20},{"start":3396,"length":20}]}}},"methodIdentifiers":{"addKey(suint256)":"05eb1ea0","decrypt(suint256,bytes)":"ee8787d9","encrypt(bytes)":"31b00e46","encryptIdx(uint256,bytes)":"cab95985","keyHashes(uint256)":"84dedf54","nonce()":"affed0e0","numKeys()":"c9d24ecc","owner()":"8da5cb5b","removeKey(suint256)":"b03e6db7","transferOwnership(address)":"f2fde38b"},"id":23}