{
  "abi": [
    {
      "type": "function",
      "name": "DIRECTORY_ADDRESS",
      "inputs": [],
      "outputs": [
        {
          "name": "",
          "type": "address",
          "internalType": "address"
        }
      ],
      "stateMutability": "view"
    },
    {
      "type": "function",
      "name": "INITIAL_OWNER",
      "inputs": [],
      "outputs": [
        {
          "name": "",
          "type": "address",
          "internalType": "address"
        }
      ],
      "stateMutability": "view"
    },
    {
      "type": "function",
      "name": "addProvider",
      "inputs": [
        {
          "name": "_provider",
          "type": "address",
          "internalType": "address"
        }
      ],
      "outputs": [],
      "stateMutability": "nonpayable"
    },
    {
      "type": "function",
      "name": "directory",
      "inputs": [],
      "outputs": [
        {
          "name": "",
          "type": "address",
          "internalType": "contract IDirectory"
        }
      ],
      "stateMutability": "view"
    },
    {
      "type": "function",
      "name": "encryptToProviders",
      "inputs": [
        {
          "name": "_plaintext",
          "type": "bytes",
          "internalType": "bytes"
        }
      ],
      "outputs": [
        {
          "name": "",
          "type": "bytes32[]",
          "internalType": "bytes32[]"
        },
        {
          "name": "",
          "type": "bytes[]",
          "internalType": "bytes[]"
        }
      ],
      "stateMutability": "nonpayable"
    },
    {
      "type": "function",
      "name": "numProviders",
      "inputs": [],
      "outputs": [
        {
          "name": "",
          "type": "uint256",
          "internalType": "uint256"
        }
      ],
      "stateMutability": "view"
    },
    {
      "type": "function",
      "name": "owner",
      "inputs": [],
      "outputs": [
        {
          "name": "",
          "type": "address",
          "internalType": "address"
        }
      ],
      "stateMutability": "view"
    },
    {
      "type": "function",
      "name": "providers",
      "inputs": [
        {
          "name": "",
          "type": "uint256",
          "internalType": "uint256"
        }
      ],
      "outputs": [
        {
          "name": "",
          "type": "address",
          "internalType": "address"
        }
      ],
      "stateMutability": "view"
    },
    {
      "type": "function",
      "name": "removeProvider",
      "inputs": [
        {
          "name": "_provider",
          "type": "address",
          "internalType": "address"
        }
      ],
      "outputs": [],
      "stateMutability": "nonpayable"
    },
    {
      "type": "function",
      "name": "transferOwnership",
      "inputs": [
        {
          "name": "newOwner",
          "type": "address",
          "internalType": "address"
        }
      ],
      "outputs": [],
      "stateMutability": "nonpayable"
    },
    {
      "type": "event",
      "name": "OwnershipTransferred",
      "inputs": [
        {
          "name": "owner",
          "type": "address",
          "indexed": true,
          "internalType": "address"
        }
      ],
      "anonymous": false
    },
    {
      "type": "event",
      "name": "ProviderAdded",
      "inputs": [
        {
          "name": "provider",
          "type": "address",
          "indexed": true,
          "internalType": "address"
        }
      ],
      "anonymous": false
    },
    {
      "type": "event",
      "name": "ProviderRemoved",
      "inputs": [
        {
          "name": "provider",
          "type": "address",
          "indexed": true,
          "internalType": "address"
        }
      ],
      "anonymous": false
    }
  ],
  "bytecode": {
    "object": "0x6080604052348015600e575f5ffd5b5061160c8061001c5f395ff3fe608060405234801561000f575f5ffd5b506004361061009c575f3560e01c8063a36250d811610064578063a36250d814610157578063ba1ab29114610175578063c41c2f2414610193578063ed03b300146101b1578063f2fde38b146101cf5761009c565b806346e2577a146100a05780634a8fcf9a146100bc57806350f3fc81146100ed5780638a355a571461011d5780638da5cb5b14610139575b5f5ffd5b6100ba60048036038101906100b59190610d4d565b6101eb565b005b6100d660048036038101906100d19190610eb4565b610432565b6040516100e49291906110d6565b60405180910390f35b6101076004803603810190610102919061113e565b6106e0565b6040516101149190611178565b60405180910390f35b61013760048036038101906101329190610d4d565b61071b565b005b6101416109ed565b60405161014e9190611178565b60405180910390f35b61015f610a11565b60405161016c9190611178565b60405180910390f35b61017d610a29565b60405161018a9190611178565b60405180910390f35b61019b610a41565b6040516101a891906111ec565b60405180910390f35b6101b9610a59565b6040516101c69190611214565b60405180910390f35b6101e960048036038101906101e49190610d4d565b610a65565b005b807fffffffffffffffffffffffffffffffffffffffffffffffffffffffffffffffff61021682610c1f565b14610256576040517f08c379a000000000000000000000000000000000000000000000000000000000815260040161024d90611287565b60405180910390fd5b5f73ffffffffffffffffffffffffffffffffffffffff165f5f9054906101000a900473ffffffffffffffffffffffffffffffffffffffff1673ffffffffffffffffffffffffffffffffffffffff16036102fd57736346d64a3f31774283b72926b75ffda9662266ce5f5f6101000a81548173ffffffffffffffffffffffffffffffffffffffff021916908373ffffffffffffffffffffffffffffffffffffffff1602179055505b5f5f9054906101000a900473ffffffffffffffffffffffffffffffffffffffff1673ffffffffffffffffffffffffffffffffffffffff163373ffffffffffffffffffffffffffffffffffffffff161461038b576040517f08c379a0000000000000000000000000000000000000000000000000000000008152600401610382906112ef565b60405180910390fd5b600182908060018154018082558091505060019003905f5260205f20015f9091909190916101000a81548173ffffffffffffffffffffffffffffffffffffffff021916908373ffffffffffffffffffffffffffffffffffffffff1602179055508173ffffffffffffffffffffffffffffffffffffffff167fae9c2c6481964847714ce58f65a7f6dcc41d0d8394449bacdf161b5920c4744a60405160405180910390a25050565b6060805f61043e610a59565b67ffffffffffffffff81111561045757610456610d90565b5b6040519080825280602002602001820160405280156104855781602001602082028036833780820191505090505b5090505f610491610a59565b67ffffffffffffffff8111156104aa576104a9610d90565b5b6040519080825280602002602001820160405280156104dd57816020015b60608152602001906001900390816104c85790505b5090505f5f90505b6104ed610a59565b8110156106d25773100000000000000000000000000000000000000473ffffffffffffffffffffffffffffffffffffffff1663eefbaf18600183815481106105385761053761130d565b5b905f5260205f20015f9054906101000a900473ffffffffffffffffffffffffffffffffffffffff166040518263ffffffff1660e01b815260040161057c9190611178565b602060405180830381865afa158015610597573d5f5f3e3d5ffd5b505050506040513d601f19601f820116820180604052508101906105bb9190611364565b8382815181106105ce576105cd61130d565b5b60200260200101818152505073100000000000000000000000000000000000000473ffffffffffffffffffffffffffffffffffffffff1663b7f5f9b76001838154811061061e5761061d61130d565b5b905f5260205f20015f9054906101000a900473ffffffffffffffffffffffffffffffffffffffff16886040518363ffffffff1660e01b81526004016106649291906113d7565b5f604051808303815f875af115801561067f573d5f5f3e3d5ffd5b505050506040513d5f823e3d601f19601f820116820180604052508101906106a79190611473565b8282815181106106ba576106b961130d565b5b602002602001018190525080806001019150506104e5565b508181935093505050915091565b600181815481106106ef575f80fd5b905f5260205f20015f915054906101000a900473ffffffffffffffffffffffffffffffffffffffff1681565b5f73ffffffffffffffffffffffffffffffffffffffff165f5f9054906101000a900473ffffffffffffffffffffffffffffffffffffffff1673ffffffffffffffffffffffffffffffffffffffff16036107c257736346d64a3f31774283b72926b75ffda9662266ce5f5f6101000a81548173ffffffffffffffffffffffffffffffffffffffff021916908373ffffffffffffffffffffffffffffffffffffffff1602179055505b5f5f9054906101000a900473ffffffffffffffffffffffffffffffffffffffff1673ffffffffffffffffffffffffffffffffffffffff163373ffffffffffffffffffffffffffffffffffffffff1614610850576040517f08c379a0000000000000000000000000000000000000000000000000000000008152600401610847906112ef565b60405180910390fd5b5f61085a82610c1f565b90507fffffffffffffffffffffffffffffffffffffffffffffffffffffffffffffffff81036108be576040517f08c379a00000000000000000000000000000000000000000000000000000000081526004016108b590611504565b60405180910390fd5b60018080805490506108d0919061154f565b815481106108e1576108e061130d565b5b905f5260205f20015f9054906101000a900473ffffffffffffffffffffffffffffffffffffffff166001828154811061091d5761091c61130d565b5b905f5260205f20015f6101000a81548173ffffffffffffffffffffffffffffffffffffffff021916908373ffffffffffffffffffffffffffffffffffffffff160217905550600180548061097457610973611582565b5b600190038181905f5260205f20015f6101000a81549073ffffffffffffffffffffffffffffffffffffffff021916905590558173ffffffffffffffffffffffffffffffffffffffff167f1589f8555933761a3cff8aa925061be3b46e2dd43f621322ab611d300f62b1d960405160405180910390a25050565b5f5f9054906101000a900473ffffffffffffffffffffffffffffffffffffffff1681565b736346d64a3f31774283b72926b75ffda9662266ce81565b73100000000000000000000000000000000000000481565b73100000000000000000000000000000000000000481565b5f600180549050905090565b5f73ffffffffffffffffffffffffffffffffffffffff165f5f9054906101000a900473ffffffffffffffffffffffffffffffffffffffff1673ffffffffffffffffffffffffffffffffffffffff1603610b0c57736346d64a3f31774283b72926b75ffda9662266ce5f5f6101000a81548173ffffffffffffffffffffffffffffffffffffffff021916908373ffffffffffffffffffffffffffffffffffffffff1602179055505b5f5f9054906101000a900473ffffffffffffffffffffffffffffffffffffffff1673ffffffffffffffffffffffffffffffffffffffff163373ffffffffffffffffffffffffffffffffffffffff1614610b9a576040517f08c379a0000000000000000000000000000000000000000000000000000000008152600401610b91906112ef565b60405180910390fd5b805f5f6101000a81548173ffffffffffffffffffffffffffffffffffffffff021916908373ffffffffffffffffffffffffffffffffffffffff1602179055508073ffffffffffffffffffffffffffffffffffffffff167f04dba622d284ed0014ee4b9a6a68386be1a4c08a4913ae272de89199cc68616360405160405180910390a250565b5f5f5f90505b610c2d610a59565b811015610cb8578273ffffffffffffffffffffffffffffffffffffffff1660018281548110610c5f57610c5e61130d565b5b905f5260205f20015f9054906101000a900473ffffffffffffffffffffffffffffffffffffffff1673ffffffffffffffffffffffffffffffffffffffff1603610cab5780915050610cdd565b8080600101915050610c25565b507fffffffffffffffffffffffffffffffffffffffffffffffffffffffffffffffff90505b919050565b5f604051905090565b5f5ffd5b5f5ffd5b5f73ffffffffffffffffffffffffffffffffffffffff82169050919050565b5f610d1c82610cf3565b9050919050565b610d2c81610d12565b8114610d36575f5ffd5b50565b5f81359050610d4781610d23565b92915050565b5f60208284031215610d6257610d61610ceb565b5b5f610d6f84828501610d39565b91505092915050565b5f5ffd5b5f5ffd5b5f601f19601f8301169050919050565b7f4e487b71000000000000000000000000000000000000000000000000000000005f52604160045260245ffd5b610dc682610d80565b810181811067ffffffffffffffff82111715610de557610de4610d90565b5b80604052505050565b5f610df7610ce2565b9050610e038282610dbd565b919050565b5f67ffffffffffffffff821115610e2257610e21610d90565b5b610e2b82610d80565b9050602081019050919050565b828183375f83830152505050565b5f610e58610e5384610e08565b610dee565b905082815260208101848484011115610e7457610e73610d7c565b5b610e7f848285610e38565b509392505050565b5f82601f830112610e9b57610e9a610d78565b5b8135610eab848260208601610e46565b91505092915050565b5f60208284031215610ec957610ec8610ceb565b5b5f82013567ffffffffffffffff811115610ee657610ee5610cef565b5b610ef284828501610e87565b91505092915050565b5f81519050919050565b5f82825260208201905092915050565b5f819050602082019050919050565b5f819050919050565b610f3681610f24565b82525050565b5f610f478383610f2d565b60208301905092915050565b5f602082019050919050565b5f610f6982610efb565b610f738185610f05565b9350610f7e83610f15565b805f5b83811015610fae578151610f958882610f3c565b9750610fa083610f53565b925050600181019050610f81565b5085935050505092915050565b5f81519050919050565b5f82825260208201905092915050565b5f819050602082019050919050565b5f81519050919050565b5f82825260208201905092915050565b8281835e5f83830152505050565b5f61101682610fe4565b6110208185610fee565b9350611030818560208601610ffe565b61103981610d80565b840191505092915050565b5f61104f838361100c565b905092915050565b5f602082019050919050565b5f61106d82610fbb565b6110778185610fc5565b93508360208202850161108985610fd5565b805f5b858110156110c457848403895281516110a58582611044565b94506110b083611057565b925060208a0199505060018101905061108c565b50829750879550505050505092915050565b5f6040820190508181035f8301526110ee8185610f5f565b905081810360208301526111028184611063565b90509392505050565b5f819050919050565b61111d8161110b565b8114611127575f5ffd5b50565b5f8135905061113881611114565b92915050565b5f6020828403121561115357611152610ceb565b5b5f6111608482850161112a565b91505092915050565b61117281610d12565b82525050565b5f60208201905061118b5f830184611169565b92915050565b5f819050919050565b5f6111b46111af6111aa84610cf3565b611191565b610cf3565b9050919050565b5f6111c58261119a565b9050919050565b5f6111d6826111bb565b9050919050565b6111e6816111cc565b82525050565b5f6020820190506111ff5f8301846111dd565b92915050565b61120e8161110b565b82525050565b5f6020820190506112275f830184611205565b92915050565b5f82825260208201905092915050565b7f4455504c49434154455f50524f564944455200000000000000000000000000005f82015250565b5f61127160128361122d565b915061127c8261123d565b602082019050919050565b5f6020820190508181035f83015261129e81611265565b9050919050565b7f554e415554484f52495a454400000000000000000000000000000000000000005f82015250565b5f6112d9600c8361122d565b91506112e4826112a5565b602082019050919050565b5f6020820190508181035f830152611306816112cd565b9050919050565b7f4e487b71000000000000000000000000000000000000000000000000000000005f52603260045260245ffd5b61134381610f24565b811461134d575f5ffd5b50565b5f8151905061135e8161133a565b92915050565b5f6020828403121561137957611378610ceb565b5b5f61138684828501611350565b91505092915050565b5f82825260208201905092915050565b5f6113a982610fe4565b6113b3818561138f565b93506113c3818560208601610ffe565b6113cc81610d80565b840191505092915050565b5f6040820190506113ea5f830185611169565b81810360208301526113fc818461139f565b90509392505050565b5f61141761141284610e08565b610dee565b90508281526020810184848401111561143357611432610d7c565b5b61143e848285610ffe565b509392505050565b5f82601f83011261145a57611459610d78565b5b815161146a848260208601611405565b91505092915050565b5f6020828403121561148857611487610ceb565b5b5f82015167ffffffffffffffff8111156114a5576114a4610cef565b5b6114b184828501611446565b91505092915050565b7f50524f56494445525f4e4f545f464f554e4400000000000000000000000000005f82015250565b5f6114ee60128361122d565b91506114f9826114ba565b602082019050919050565b5f6020820190508181035f83015261151b816114e2565b9050919050565b7f4e487b71000000000000000000000000000000000000000000000000000000005f52601160045260245ffd5b5f6115598261110b565b91506115648361110b565b925082820390508181111561157c5761157b611522565b5b92915050565b7f4e487b71000000000000000000000000000000000000000000000000000000005f52603160045260245ffdfea2646970667358221220bf07b3da0e9ab748c2ef4d753307cab5d40ced1af5c9dd6d04fa6312349f9d0664736f6c637829302e382e33312d646576656c6f702e323032352e31312e31322b636f6d6d69742e3637366264656363005a",
    "linkReferences": {}
  },
  "methodIdentifiers": {
    "DIRECTORY_ADDRESS()": "ba1ab291",
    "INITIAL_OWNER()": "a36250d8",
    "addProvider(address)": "46e2577a",
    "directory()": "c41c2f24",
    "encryptToProviders(bytes)": "4a8fcf9a",
    "numProviders()": "ed03b300",
    "owner()": "8da5cb5b",
    "providers(uint256)": "50f3fc81",
    "removeProvider(address)": "8a355a57",
    "transferOwnership(address)": "f2fde38b"
  },
  "id": 21
}