{"abi":[{"type":"function","name":"checkHasKey","inputs":[{"name":"_addr","type":"address","internalType":"address"}],"outputs":[{"name":"","type":"bool","internalType":"bool"}],"stateMutability":"view"},{"type":"function","name":"genKey","inputs":[],"outputs":[],"stateMutability":"nonpayable"},{"type":"function","name":"getKey","inputs":[],"outputs":[{"name":"","type":"uint256","internalType":"uint256"}],"stateMutability":"view"},{"type":"function","name":"getKeyHash","inputs":[],"outputs":[{"name":"","type":"bytes32","internalType":"bytes32"}],"stateMutability":"view"},{"type":"event","name":"KeyGenerated","inputs":[{"name":"addr","type":"address","indexed":true,"internalType":"address"}],"anonymous":false},{"type":"error","name":"HKDFPrecompileCallFailed","inputs":[]},{"type":"error","name":"InvalidHKDFOutputLength","inputs":[{"name":"returnedLength","type":"uint256","internalType":"uint256"}]},{"type":"error","name":"RngPrecompileCallFailed","inputs":[]}],"bytecode":{"object":"0x6080604052348015600e575f5ffd5b506108488061001c5f395ff3fe608060405234801561000f575f5ffd5b506004361061004a575f3560e01c806332b890f81461004e578063331bf1251461005857806382678dd6146100765780638b2f9fd114610094575b5f5ffd5b6100566100c4565b005b610060610163565b60405161006d9190610536565b60405180910390f35b61007e61024a565b60405161008b9190610567565b60405180910390f35b6100ae60048036038101906100a991906105de565b61030b565b6040516100bb9190610623565b60405180910390f35b5f6100da6100d560205f5f1b610353565b610427565b9050805f5f3373ffffffffffffffffffffffffffffffffffffffff1673ffffffffffffffffffffffffffffffffffffffff1681526020019081526020015f208190b1503373ffffffffffffffffffffffffffffffffffffffff167f27257d3ab1f2deb12ba120a91301da600c23dec7bfbe463734166e6855c43f0660405160405180910390a250565b5f5f5f5f3373ffffffffffffffffffffffffffffffffffffffff1673ffffffffffffffffffffffffffffffffffffffff1681526020019081526020015f20b0036101e2576040517f08c379a00000000000000000000000000000000000000000000000000000000081526004016101d990610696565b60405180910390fd5b5f5f3373ffffffffffffffffffffffffffffffffffffffff1673ffffffffffffffffffffffffffffffffffffffff1681526020019081526020015f20b060405160200161022f91906106dd565b60405160208183030381529060405280519060200120905090565b5f5f5f5f3373ffffffffffffffffffffffffffffffffffffffff1673ffffffffffffffffffffffffffffffffffffffff1681526020019081526020015f20b0036102c9576040517f08c379a00000000000000000000000000000000000000000000000000000000081526004016102c090610696565b60405180910390fd5b5f5f3373ffffffffffffffffffffffffffffffffffffffff1673ffffffffffffffffffffffffffffffffffffffff1681526020019081526020015f20b0905090565b5f5f5f5f8473ffffffffffffffffffffffffffffffffffffffff1673ffffffffffffffffffffffffffffffffffffffff1681526020019081526020015f20b014159050919050565b60605f8383604051602001610369929190610758565b60405160208183030381529060405290505f5f606473ffffffffffffffffffffffffffffffffffffffff16836040516103a291906107d5565b5f60405180830381855afa9150503d805f81146103da576040519150601f19603f3d011682016040523d82523d5f602084013e6103df565b606091505b50915091508161041b576040517f1ca03c2c00000000000000000000000000000000000000000000000000000000815260040160405180910390fd5b80935050505092915050565b5f5f5f606873ffffffffffffffffffffffffffffffffffffffff168460405161045091906107d5565b5f60405180830381855afa9150503d805f8114610488576040519150601f19603f3d011682016040523d82523d5f602084013e61048d565b606091505b5091509150816104c9576040517f0312091600000000000000000000000000000000000000000000000000000000815260040160405180910390fd5b60208151146105105780516040517fc3c45e940000000000000000000000000000000000000000000000000000000081526004016105079190610567565b60405180910390fd5b602081015192505050919050565b5f819050919050565b6105308161051e565b82525050565b5f6020820190506105495f830184610527565b92915050565b5f819050919050565b6105618161054f565b82525050565b5f60208201905061057a5f830184610558565b92915050565b5f5ffd5b5f73ffffffffffffffffffffffffffffffffffffffff82169050919050565b5f6105ad82610584565b9050919050565b6105bd816105a3565b81146105c7575f5ffd5b50565b5f813590506105d8816105b4565b92915050565b5f602082840312156105f3576105f2610580565b5b5f610600848285016105ca565b91505092915050565b5f8115159050919050565b61061d81610609565b82525050565b5f6020820190506106365f830184610614565b92915050565b5f82825260208201905092915050565b7f4e4f5f4b45595f47454e455241544544000000000000000000000000000000005f82015250565b5f61068060108361063c565b915061068b8261064c565b602082019050919050565b5f6020820190508181035f8301526106ad81610674565b9050919050565b5f819050919050565b5f819050919050565b6106d76106d2826106b4565b6106bd565b82525050565b5f6106e882846106c6565b60208201915081905092915050565b5f61ffff82169050919050565b5f8160f01b9050919050565b5f61071a82610704565b9050919050565b61073261072d826106f7565b610710565b82525050565b5f819050919050565b61075261074d8261051e565b610738565b82525050565b5f6107638285610721565b6002820191506107738284610741565b6020820191508190509392505050565b5f81519050919050565b5f81905092915050565b8281835e5f83830152505050565b5f6107af82610783565b6107b9818561078d565b93506107c9818560208601610797565b80840191505092915050565b5f6107e082846107a5565b91508190509291505056fea2646970667358221220baf4cea2f2443531fca44ce9304e77d78ff6cdb6486a317e2b2a588003f3d25564736f6c637829302e382e33312d646576656c6f702e323032352e31312e31322b636f6d6d69742e3637366264656363005a","linkReferences":{}},"methodIdentifiers":{"checkHasKey(address)":"8b2f9fd1","genKey()":"32b890f8","getKey()":"82678dd6","getKeyHash()":"331bf125"},"id":21}