{"abi":[{"type":"function","name":"checkHasKey","inputs":[{"name":"_addr","type":"address","internalType":"address"}],"outputs":[{"name":"","type":"bool","internalType":"bool"}],"stateMutability":"view"},{"type":"function","name":"decrypt","inputs":[{"name":"_encryptedData","type":"bytes","internalType":"bytes"}],"outputs":[{"name":"","type":"bytes","internalType":"bytes"}],"stateMutability":"view"},{"type":"function","name":"encrypt","inputs":[{"name":"to","type":"address","internalType":"address"},{"name":"_plaintext","type":"bytes","internalType":"bytes"}],"outputs":[{"name":"","type":"bytes","internalType":"bytes"}],"stateMutability":"nonpayable"},{"type":"function","name":"getKey","inputs":[],"outputs":[{"name":"","type":"uint256","internalType":"uint256"}],"stateMutability":"view"},{"type":"function","name":"keyHash","inputs":[{"name":"to","type":"address","internalType":"address"}],"outputs":[{"name":"","type":"bytes32","internalType":"bytes32"}],"stateMutability":"view"},{"type":"function","name":"nonce","inputs":[],"outputs":[{"name":"","type":"uint96","internalType":"uint96"}],"stateMutability":"view"},{"type":"function","name":"packEncryptedData","inputs":[{"name":"_ciphertext","type":"bytes","internalType":"bytes"},{"name":"_nonce","type":"uint96","internalType":"uint96"}],"outputs":[{"name":"","type":"bytes","internalType":"bytes"}],"stateMutability":"pure"},{"type":"function","name":"parseEncryptedData","inputs":[{"name":"_encryptedData","type":"bytes","internalType":"bytes"}],"outputs":[{"name":"ct","type":"bytes","internalType":"bytes"},{"name":"nce","type":"uint96","internalType":"uint96"}],"stateMutability":"pure"},{"type":"function","name":"setKey","inputs":[{"name":"_key","type":"suint256","internalType":"suint256"}],"outputs":[],"stateMutability":"nonpayable"},{"type":"event","name":"KeySet","inputs":[{"name":"addr","type":"address","indexed":true,"internalType":"address"}],"anonymous":false},{"type":"error","name":"AESPrecompileCallFailed","inputs":[]}],"bytecode":{"object":"0x6080604052348015600e575f5ffd5b506110a48061001c5f395ff3fe608060405234801561000f575f5ffd5b5060043610610091575f3560e01c80638b2f9fd1116100645780638b2f9fd11461012f578063affed0e01461015f578063b7f5f9b71461017d578063e8d6c79a146101ad578063eefbaf18146101de57610091565b8063210ca7be14610095578063415028a9146100c557806370df0933146100f557806382678dd614610111575b5f5ffd5b6100af60048036038101906100aa91906109ed565b61020e565b6040516100bc9190610a94565b60405180910390f35b6100df60048036038101906100da9190610af5565b61026f565b6040516100ec9190610a94565b60405180910390f35b61010f600480360381019061010a9190610b82565b61029b565b005b610119610322565b6040516101269190610bc5565b60405180910390f35b61014960048036038101906101449190610c38565b610365565b6040516101569190610c7d565b60405180910390f35b6101676103ad565b6040516101749190610ca5565b60405180910390f35b61019760048036038101906101929190610cbe565b6103ca565b6040516101a49190610a94565b60405180910390f35b6101c760048036038101906101c291906109ed565b6104bd565b6040516101d5929190610d18565b60405180910390f35b6101f860048036038101906101f39190610c38565b610687565b6040516102059190610d5e565b60405180910390f35b60605f5f61021b846104bd565b915091506102665f5f3373ffffffffffffffffffffffffffffffffffffffff1673ffffffffffffffffffffffffffffffffffffffff1681526020019081526020015f20b082846106f2565b92505050919050565b60608282604051602001610284929190610de5565b604051602081830303815290604052905092915050565b805f5f3373ffffffffffffffffffffffffffffffffffffffff1673ffffffffffffffffffffffffffffffffffffffff1681526020019081526020015f208190b1503373ffffffffffffffffffffffffffffffffffffffff167fe09b54ab39b458cc6e350a9444815a294301d94eaa79ba68d8a2f9f9c7c0b4cc60405160405180910390a250565b5f5f5f3373ffffffffffffffffffffffffffffffffffffffff1673ffffffffffffffffffffffffffffffffffffffff1681526020019081526020015f20b0905090565b5f5f5f5f8473ffffffffffffffffffffffffffffffffffffffff1673ffffffffffffffffffffffffffffffffffffffff1681526020019081526020015f20b014159050919050565b60015f9054906101000a90046bffffffffffffffffffffffff1681565b60605f5f5f8573ffffffffffffffffffffffffffffffffffffffff1673ffffffffffffffffffffffffffffffffffffffff1681526020019081526020015f20b090505f6104318260015f9054906101000a90046bffffffffffffffffffffffff16866107c9565b90505f6104578260015f9054906101000a90046bffffffffffffffffffffffff1661026f565b905060015f81819054906101000a90046bffffffffffffffffffffffff168092919061048290610e39565b91906101000a8154816bffffffffffffffffffffffff02191690836bffffffffffffffffffffffff1602179055505080935050505092915050565b60605f5f600c84516104cf9190610e6c565b90508067ffffffffffffffff8111156104eb576104ea6108c9565b5b6040519080825280601f01601f19166020018201604052801561051d5781602001600182028036833780820191505090505b5092505f5f90505b81811015610599578481815181106105405761053f610e9f565b5b602001015160f81c60f81b84828151811061055e5761055d610e9f565b5b60200101907effffffffffffffffffffffffffffffffffffffffffffffffffffffffffffff191690815f1a9053508080600101915050610525565b505f600c67ffffffffffffffff8111156105b6576105b56108c9565b5b6040519080825280601f01601f1916602001820160405280156105e85781602001600182028036833780820191505090505b5090505f5f90505b600c811015610670578581846106069190610ecc565b8151811061061757610616610e9f565b5b602001015160f81c60f81b82828151811061063557610634610e9f565b5b60200101907effffffffffffffffffffffffffffffffffffffffffffffffffffffffffffff191690815f1a90535080806001019150506105f0565b508061067b90610f59565b60a01c92505050915091565b5f5f5f8373ffffffffffffffffffffffffffffffffffffffff1673ffffffffffffffffffffffffffffffffffffffff1681526020019081526020015f20b06040516020016106d59190610fdf565b604051602081830303815290604052805190602001209050919050565b60605f84848460405160200161070a93929190610ff9565b60405160208183030381529060405290505f5f606773ffffffffffffffffffffffffffffffffffffffff16836040516107439190611031565b5f60405180830381855afa9150503d805f811461077b576040519150601f19603f3d011682016040523d82523d5f602084013e610780565b606091505b5091509150816107bc576040517fa99eec4b00000000000000000000000000000000000000000000000000000000815260040160405180910390fd5b8093505050509392505050565b60605f8484846040516020016107e193929190610ff9565b60405160208183030381529060405290505f5f606673ffffffffffffffffffffffffffffffffffffffff168360405161081a9190611031565b5f60405180830381855afa9150503d805f8114610852576040519150601f19603f3d011682016040523d82523d5f602084013e610857565b606091505b509150915081610893576040517fa99eec4b00000000000000000000000000000000000000000000000000000000815260040160405180910390fd5b8093505050509392505050565b5f604051905090565b5f5ffd5b5f5ffd5b5f5ffd5b5f5ffd5b5f601f19601f8301169050919050565b7f4e487b71000000000000000000000000000000000000000000000000000000005f52604160045260245ffd5b6108ff826108b9565b810181811067ffffffffffffffff8211171561091e5761091d6108c9565b5b80604052505050565b5f6109306108a0565b905061093c82826108f6565b919050565b5f67ffffffffffffffff82111561095b5761095a6108c9565b5b610964826108b9565b9050602081019050919050565b828183375f83830152505050565b5f61099161098c84610941565b610927565b9050828152602081018484840111156109ad576109ac6108b5565b5b6109b8848285610971565b509392505050565b5f82601f8301126109d4576109d36108b1565b5b81356109e484826020860161097f565b91505092915050565b5f60208284031215610a0257610a016108a9565b5b5f82013567ffffffffffffffff811115610a1f57610a1e6108ad565b5b610a2b848285016109c0565b91505092915050565b5f81519050919050565b5f82825260208201905092915050565b8281835e5f83830152505050565b5f610a6682610a34565b610a708185610a3e565b9350610a80818560208601610a4e565b610a89816108b9565b840191505092915050565b5f6020820190508181035f830152610aac8184610a5c565b905092915050565b5f6bffffffffffffffffffffffff82169050919050565b610ad481610ab4565b8114610ade575f5ffd5b50565b5f81359050610aef81610acb565b92915050565b5f5f60408385031215610b0b57610b0a6108a9565b5b5f83013567ffffffffffffffff811115610b2857610b276108ad565b5b610b34858286016109c0565b9250506020610b4585828601610ae1565b9150509250929050565b5f819050919050565b610b6181610b4f565b8114610b6b575f5ffd5b50565b5f81359050610b7c81610b58565b92915050565b5f60208284031215610b9757610b966108a9565b5b5f610ba484828501610b6e565b91505092915050565b5f819050919050565b610bbf81610bad565b82525050565b5f602082019050610bd85f830184610bb6565b92915050565b5f73ffffffffffffffffffffffffffffffffffffffff82169050919050565b5f610c0782610bde565b9050919050565b610c1781610bfd565b8114610c21575f5ffd5b50565b5f81359050610c3281610c0e565b92915050565b5f60208284031215610c4d57610c4c6108a9565b5b5f610c5a84828501610c24565b91505092915050565b5f8115159050919050565b610c7781610c63565b82525050565b5f602082019050610c905f830184610c6e565b92915050565b610c9f81610ab4565b82525050565b5f602082019050610cb85f830184610c96565b92915050565b5f5f60408385031215610cd457610cd36108a9565b5b5f610ce185828601610c24565b925050602083013567ffffffffffffffff811115610d0257610d016108ad565b5b610d0e858286016109c0565b9150509250929050565b5f6040820190508181035f830152610d308185610a5c565b9050610d3f6020830184610c96565b9392505050565b5f819050919050565b610d5881610d46565b82525050565b5f602082019050610d715f830184610d4f565b92915050565b5f81905092915050565b5f610d8b82610a34565b610d958185610d77565b9350610da5818560208601610a4e565b80840191505092915050565b5f8160a01b9050919050565b5f610dc782610db1565b9050919050565b610ddf610dda82610ab4565b610dbd565b82525050565b5f610df08285610d81565b9150610dfc8284610dce565b600c820191508190509392505050565b7f4e487b71000000000000000000000000000000000000000000000000000000005f52601160045260245ffd5b5f610e4382610ab4565b91506bffffffffffffffffffffffff8203610e6157610e60610e0c565b5b600182019050919050565b5f610e7682610bad565b9150610e8183610bad565b9250828203905081811115610e9957610e98610e0c565b5b92915050565b7f4e487b71000000000000000000000000000000000000000000000000000000005f52603260045260245ffd5b5f610ed682610bad565b9150610ee183610bad565b9250828201905080821115610ef957610ef8610e0c565b5b92915050565b5f819050602082019050919050565b5f7fffffffffffffffffffffffff000000000000000000000000000000000000000082169050919050565b5f610f448251610f0e565b80915050919050565b5f82821b905092915050565b5f610f6382610a34565b82610f6d84610eff565b9050610f7881610f39565b9250600c821015610fb857610fb37fffffffffffffffffffffffff000000000000000000000000000000000000000083600c03600802610f4d565b831692505b5050919050565b5f819050919050565b610fd9610fd482610b4f565b610fbf565b82525050565b5f610fea8284610fc8565b60208201915081905092915050565b5f6110048286610fc8565b6020820191506110148285610dce565b600c820191506110248284610d81565b9150819050949350505050565b5f61103c8284610d81565b91508190509291505056fea26469706673582212201e47645657bdd484c0fdaae204fad10d1fd40779e82bce9ca405c7f13f7257e864736f6c637829302e382e33312d646576656c6f702e323032352e31312e31322b636f6d6d69742e3637366264656363005a","linkReferences":{}},"methodIdentifiers":{"checkHasKey(address)":"8b2f9fd1","decrypt(bytes)":"210ca7be","encrypt(address,bytes)":"b7f5f9b7","getKey()":"82678dd6","keyHash(address)":"eefbaf18","nonce()":"affed0e0","packEncryptedData(bytes,uint96)":"415028a9","parseEncryptedData(bytes)":"e8d6c79a","setKey(suint256)":"70df0933"},"id":21}