{"abi":[{"type":"function","name":"checkHasKey","inputs":[{"name":"_addr","type":"address","internalType":"address"}],"outputs":[{"name":"","type":"bool","internalType":"bool"}],"stateMutability":"view"},{"type":"function","name":"decrypt","inputs":[{"name":"_encryptedData","type":"bytes","internalType":"bytes"}],"outputs":[{"name":"","type":"bytes","internalType":"bytes"}],"stateMutability":"view"},{"type":"function","name":"encrypt","inputs":[{"name":"to","type":"address","internalType":"address"},{"name":"_plaintext","type":"bytes","internalType":"bytes"}],"outputs":[{"name":"","type":"bytes","internalType":"bytes"}],"stateMutability":"nonpayable"},{"type":"function","name":"genKey","inputs":[],"outputs":[],"stateMutability":"nonpayable"},{"type":"function","name":"getKey","inputs":[],"outputs":[{"name":"","type":"uint256","internalType":"uint256"}],"stateMutability":"view"},{"type":"function","name":"keyHash","inputs":[{"name":"to","type":"address","internalType":"address"}],"outputs":[{"name":"","type":"bytes32","internalType":"bytes32"}],"stateMutability":"view"},{"type":"function","name":"nonce","inputs":[],"outputs":[{"name":"","type":"uint96","internalType":"uint96"}],"stateMutability":"view"},{"type":"function","name":"packEncryptedData","inputs":[{"name":"_ciphertext","type":"bytes","internalType":"bytes"},{"name":"_nonce","type":"uint96","internalType":"uint96"}],"outputs":[{"name":"","type":"bytes","internalType":"bytes"}],"stateMutability":"pure"},{"type":"function","name":"parseEncryptedData","inputs":[{"name":"_encryptedData","type":"bytes","internalType":"bytes"}],"outputs":[{"name":"ct","type":"bytes","internalType":"bytes"},{"name":"nce","type":"uint96","internalType":"uint96"}],"stateMutability":"pure"},{"type":"event","name":"KeyGenerated","inputs":[{"name":"addr","type":"address","indexed":true,"internalType":"address"}],"anonymous":false},{"type":"error","name":"AESPrecompileCallFailed","inputs":[]},{"type":"error","name":"HKDFPrecompileCallFailed","inputs":[]},{"type":"error","name":"InvalidHKDFOutputLength","inputs":[{"name":"returnedLength","type":"uint256","internalType":"uint256"}]},{"type":"error","name":"RngPrecompileCallFailed","inputs":[]}],"bytecode":{"object":"0x6080604052348015600e575f5ffd5b506112ac8061001c5f395ff3fe608060405234801561000f575f5ffd5b5060043610610091575f3560e01c80638b2f9fd1116100645780638b2f9fd11461011d578063affed0e01461014d578063b7f5f9b71461016b578063e8d6c79a1461019b578063eefbaf18146101cc57610091565b8063210ca7be1461009557806332b890f8146100c5578063415028a9146100cf57806382678dd6146100ff575b5f5ffd5b6100af60048036038101906100aa9190610bbe565b6101fc565b6040516100bc9190610c65565b60405180910390f35b6100cd61025d565b005b6100e960048036038101906100e49190610cc6565b6102fc565b6040516100f69190610c65565b60405180910390f35b610107610328565b6040516101149190610d38565b60405180910390f35b61013760048036038101906101329190610dab565b61036b565b6040516101449190610df0565b60405180910390f35b6101556103b3565b6040516101629190610e18565b60405180910390f35b61018560048036038101906101809190610e31565b6103d0565b6040516101929190610c65565b60405180910390f35b6101b560048036038101906101b09190610bbe565b6104c3565b6040516101c3929190610e8b565b60405180910390f35b6101e660048036038101906101e19190610dab565b61068d565b6040516101f39190610ed1565b60405180910390f35b60605f5f610209846104c3565b915091506102545f5f3373ffffffffffffffffffffffffffffffffffffffff1673ffffffffffffffffffffffffffffffffffffffff1681526020019081526020015f20b082846106f8565b92505050919050565b5f61027361026e60205f5f1b6107cf565b6108a3565b9050805f5f3373ffffffffffffffffffffffffffffffffffffffff1673ffffffffffffffffffffffffffffffffffffffff1681526020019081526020015f208190b1503373ffffffffffffffffffffffffffffffffffffffff167f27257d3ab1f2deb12ba120a91301da600c23dec7bfbe463734166e6855c43f0660405160405180910390a250565b60608282604051602001610311929190610f58565b604051602081830303815290604052905092915050565b5f5f5f3373ffffffffffffffffffffffffffffffffffffffff1673ffffffffffffffffffffffffffffffffffffffff1681526020019081526020015f20b0905090565b5f5f5f5f8473ffffffffffffffffffffffffffffffffffffffff1673ffffffffffffffffffffffffffffffffffffffff1681526020019081526020015f20b014159050919050565b60015f9054906101000a90046bffffffffffffffffffffffff1681565b60605f5f5f8573ffffffffffffffffffffffffffffffffffffffff1673ffffffffffffffffffffffffffffffffffffffff1681526020019081526020015f20b090505f6104378260015f9054906101000a90046bffffffffffffffffffffffff168661099a565b90505f61045d8260015f9054906101000a90046bffffffffffffffffffffffff166102fc565b905060015f81819054906101000a90046bffffffffffffffffffffffff168092919061048890610fac565b91906101000a8154816bffffffffffffffffffffffff02191690836bffffffffffffffffffffffff1602179055505080935050505092915050565b60605f5f600c84516104d59190610fdf565b90508067ffffffffffffffff8111156104f1576104f0610a9a565b5b6040519080825280601f01601f1916602001820160405280156105235781602001600182028036833780820191505090505b5092505f5f90505b8181101561059f5784818151811061054657610545611012565b5b602001015160f81c60f81b84828151811061056457610563611012565b5b60200101907effffffffffffffffffffffffffffffffffffffffffffffffffffffffffffff191690815f1a905350808060010191505061052b565b505f600c67ffffffffffffffff8111156105bc576105bb610a9a565b5b6040519080825280601f01601f1916602001820160405280156105ee5781602001600182028036833780820191505090505b5090505f5f90505b600c8110156106765785818461060c919061103f565b8151811061061d5761061c611012565b5b602001015160f81c60f81b82828151811061063b5761063a611012565b5b60200101907effffffffffffffffffffffffffffffffffffffffffffffffffffffffffffff191690815f1a90535080806001019150506105f6565b5080610681906110cc565b60a01c92505050915091565b5f5f5f8373ffffffffffffffffffffffffffffffffffffffff1673ffffffffffffffffffffffffffffffffffffffff1681526020019081526020015f20b06040516020016106db919061115b565b604051602081830303815290604052805190602001209050919050565b60605f84848460405160200161071093929190611175565b60405160208183030381529060405290505f5f606773ffffffffffffffffffffffffffffffffffffffff168360405161074991906111ad565b5f60405180830381855afa9150503d805f8114610781576040519150601f19603f3d011682016040523d82523d5f602084013e610786565b606091505b5091509150816107c2576040517fa99eec4b00000000000000000000000000000000000000000000000000000000815260040160405180910390fd5b8093505050509392505050565b60605f83836040516020016107e5929190611224565b60405160208183030381529060405290505f5f606473ffffffffffffffffffffffffffffffffffffffff168360405161081e91906111ad565b5f60405180830381855afa9150503d805f8114610856576040519150601f19603f3d011682016040523d82523d5f602084013e61085b565b606091505b509150915081610897576040517f1ca03c2c00000000000000000000000000000000000000000000000000000000815260040160405180910390fd5b80935050505092915050565b5f5f5f606873ffffffffffffffffffffffffffffffffffffffff16846040516108cc91906111ad565b5f60405180830381855afa9150503d805f8114610904576040519150601f19603f3d011682016040523d82523d5f602084013e610909565b606091505b509150915081610945576040517f0312091600000000000000000000000000000000000000000000000000000000815260040160405180910390fd5b602081511461098c5780516040517fc3c45e940000000000000000000000000000000000000000000000000000000081526004016109839190610d38565b60405180910390fd5b602081015192505050919050565b60605f8484846040516020016109b293929190611175565b60405160208183030381529060405290505f5f606673ffffffffffffffffffffffffffffffffffffffff16836040516109eb91906111ad565b5f60405180830381855afa9150503d805f8114610a23576040519150601f19603f3d011682016040523d82523d5f602084013e610a28565b606091505b509150915081610a64576040517fa99eec4b00000000000000000000000000000000000000000000000000000000815260040160405180910390fd5b8093505050509392505050565b5f604051905090565b5f5ffd5b5f5ffd5b5f5ffd5b5f5ffd5b5f601f19601f8301169050919050565b7f4e487b71000000000000000000000000000000000000000000000000000000005f52604160045260245ffd5b610ad082610a8a565b810181811067ffffffffffffffff82111715610aef57610aee610a9a565b5b80604052505050565b5f610b01610a71565b9050610b0d8282610ac7565b919050565b5f67ffffffffffffffff821115610b2c57610b2b610a9a565b5b610b3582610a8a565b9050602081019050919050565b828183375f83830152505050565b5f610b62610b5d84610b12565b610af8565b905082815260208101848484011115610b7e57610b7d610a86565b5b610b89848285610b42565b509392505050565b5f82601f830112610ba557610ba4610a82565b5b8135610bb5848260208601610b50565b91505092915050565b5f60208284031215610bd357610bd2610a7a565b5b5f82013567ffffffffffffffff811115610bf057610bef610a7e565b5b610bfc84828501610b91565b91505092915050565b5f81519050919050565b5f82825260208201905092915050565b8281835e5f83830152505050565b5f610c3782610c05565b610c418185610c0f565b9350610c51818560208601610c1f565b610c5a81610a8a565b840191505092915050565b5f6020820190508181035f830152610c7d8184610c2d565b905092915050565b5f6bffffffffffffffffffffffff82169050919050565b610ca581610c85565b8114610caf575f5ffd5b50565b5f81359050610cc081610c9c565b92915050565b5f5f60408385031215610cdc57610cdb610a7a565b5b5f83013567ffffffffffffffff811115610cf957610cf8610a7e565b5b610d0585828601610b91565b9250506020610d1685828601610cb2565b9150509250929050565b5f819050919050565b610d3281610d20565b82525050565b5f602082019050610d4b5f830184610d29565b92915050565b5f73ffffffffffffffffffffffffffffffffffffffff82169050919050565b5f610d7a82610d51565b9050919050565b610d8a81610d70565b8114610d94575f5ffd5b50565b5f81359050610da581610d81565b92915050565b5f60208284031215610dc057610dbf610a7a565b5b5f610dcd84828501610d97565b91505092915050565b5f8115159050919050565b610dea81610dd6565b82525050565b5f602082019050610e035f830184610de1565b92915050565b610e1281610c85565b82525050565b5f602082019050610e2b5f830184610e09565b92915050565b5f5f60408385031215610e4757610e46610a7a565b5b5f610e5485828601610d97565b925050602083013567ffffffffffffffff811115610e7557610e74610a7e565b5b610e8185828601610b91565b9150509250929050565b5f6040820190508181035f830152610ea38185610c2d565b9050610eb26020830184610e09565b9392505050565b5f819050919050565b610ecb81610eb9565b82525050565b5f602082019050610ee45f830184610ec2565b92915050565b5f81905092915050565b5f610efe82610c05565b610f088185610eea565b9350610f18818560208601610c1f565b80840191505092915050565b5f8160a01b9050919050565b5f610f3a82610f24565b9050919050565b610f52610f4d82610c85565b610f30565b82525050565b5f610f638285610ef4565b9150610f6f8284610f41565b600c820191508190509392505050565b7f4e487b71000000000000000000000000000000000000000000000000000000005f52601160045260245ffd5b5f610fb682610c85565b91506bffffffffffffffffffffffff8203610fd457610fd3610f7f565b5b600182019050919050565b5f610fe982610d20565b9150610ff483610d20565b925082820390508181111561100c5761100b610f7f565b5b92915050565b7f4e487b71000000000000000000000000000000000000000000000000000000005f52603260045260245ffd5b5f61104982610d20565b915061105483610d20565b925082820190508082111561106c5761106b610f7f565b5b92915050565b5f819050602082019050919050565b5f7fffffffffffffffffffffffff000000000000000000000000000000000000000082169050919050565b5f6110b78251611081565b80915050919050565b5f82821b905092915050565b5f6110d682610c05565b826110e084611072565b90506110eb816110ac565b9250600c82101561112b576111267fffffffffffffffffffffffff000000000000000000000000000000000000000083600c036008026110c0565b831692505b5050919050565b5f819050919050565b5f819050919050565b61115561115082611132565b61113b565b82525050565b5f6111668284611144565b60208201915081905092915050565b5f6111808286611144565b6020820191506111908285610f41565b600c820191506111a08284610ef4565b9150819050949350505050565b5f6111b88284610ef4565b915081905092915050565b5f61ffff82169050919050565b5f8160f01b9050919050565b5f6111e6826111d0565b9050919050565b6111fe6111f9826111c3565b6111dc565b82525050565b5f819050919050565b61121e61121982610eb9565b611204565b82525050565b5f61122f82856111ed565b60028201915061123f828461120d565b602082019150819050939250505056fea26469706673582212201a6e1e4a801e420c121af9d744b5746c52485361fb2433f2f31b6a2ec28047bf64736f6c637829302e382e33312d646576656c6f702e323032352e31312e31322b636f6d6d69742e3637366264656363005a","linkReferences":{}},"methodIdentifiers":{"checkHasKey(address)":"8b2f9fd1","decrypt(bytes)":"210ca7be","encrypt(address,bytes)":"b7f5f9b7","genKey()":"32b890f8","getKey()":"82678dd6","keyHash(address)":"eefbaf18","nonce()":"affed0e0","packEncryptedData(bytes,uint96)":"415028a9","parseEncryptedData(bytes)":"e8d6c79a"},"id":23}