{"abi":[{"type":"function","name":"checkHasKey","inputs":[{"name":"_addr","type":"address","internalType":"address"}],"outputs":[{"name":"","type":"bool","internalType":"bool"}],"stateMutability":"view"},{"type":"function","name":"decrypt","inputs":[{"name":"_encryptedData","type":"bytes","internalType":"bytes"}],"outputs":[{"name":"","type":"bytes","internalType":"bytes"}],"stateMutability":"view"},{"type":"function","name":"encrypt","inputs":[{"name":"to","type":"address","internalType":"address"},{"name":"_plaintext","type":"bytes","internalType":"bytes"}],"outputs":[{"name":"","type":"bytes","internalType":"bytes"}],"stateMutability":"nonpayable"},{"type":"function","name":"genKey","inputs":[],"outputs":[],"stateMutability":"nonpayable"},{"type":"function","name":"getKey","inputs":[],"outputs":[{"name":"","type":"uint256","internalType":"uint256"}],"stateMutability":"view"},{"type":"function","name":"keyHash","inputs":[{"name":"to","type":"address","internalType":"address"}],"outputs":[{"name":"","type":"bytes32","internalType":"bytes32"}],"stateMutability":"view"},{"type":"function","name":"nonce","inputs":[],"outputs":[{"name":"","type":"uint96","internalType":"uint96"}],"stateMutability":"view"},{"type":"function","name":"packEncryptedData","inputs":[{"name":"_ciphertext","type":"bytes","internalType":"bytes"},{"name":"_nonce","type":"uint96","internalType":"uint96"}],"outputs":[{"name":"","type":"bytes","internalType":"bytes"}],"stateMutability":"pure"},{"type":"function","name":"parseEncryptedData","inputs":[{"name":"_encryptedData","type":"bytes","internalType":"bytes"}],"outputs":[{"name":"ct","type":"bytes","internalType":"bytes"},{"name":"nce","type":"uint96","internalType":"uint96"}],"stateMutability":"pure"},{"type":"function","name":"setKey","inputs":[{"name":"_key","type":"suint256","internalType":"suint256"}],"outputs":[],"stateMutability":"nonpayable"},{"type":"event","name":"KeySet","inputs":[{"name":"addr","type":"address","indexed":true,"internalType":"address"}],"anonymous":false},{"type":"error","name":"AESPrecompileCallFailed","inputs":[]},{"type":"error","name":"HKDFPrecompileCallFailed","inputs":[]},{"type":"error","name":"InvalidHKDFOutputLength","inputs":[{"name":"returnedLength","type":"uint256","internalType":"uint256"}]},{"type":"error","name":"RngPrecompileCallFailed","inputs":[]}],"bytecode":{"object":"0x6080604052348015600e575f5ffd5b506113af8061001c5f395ff3fe608060405234801561000f575f5ffd5b506004361061009c575f3560e01c80638b2f9fd1116100645780638b2f9fd114610144578063affed0e014610174578063b7f5f9b714610192578063e8d6c79a146101c2578063eefbaf18146101f35761009c565b8063210ca7be146100a057806332b890f8146100d0578063415028a9146100da57806370df09331461010a57806382678dd614610126575b5f5ffd5b6100ba60048036038101906100b59190610c6c565b610223565b6040516100c79190610d13565b60405180910390f35b6100d8610284565b005b6100f460048036038101906100ef9190610d74565b610323565b6040516101019190610d13565b60405180910390f35b610124600480360381019061011f9190610e01565b61034f565b005b61012e6103d6565b60405161013b9190610e44565b60405180910390f35b61015e60048036038101906101599190610eb7565b610419565b60405161016b9190610efc565b60405180910390f35b61017c610461565b6040516101899190610f24565b60405180910390f35b6101ac60048036038101906101a79190610f3d565b61047e565b6040516101b99190610d13565b60405180910390f35b6101dc60048036038101906101d79190610c6c565b610571565b6040516101ea929190610f97565b60405180910390f35b61020d60048036038101906102089190610eb7565b61073b565b60405161021a9190610fdd565b60405180910390f35b60605f5f61023084610571565b9150915061027b5f5f3373ffffffffffffffffffffffffffffffffffffffff1673ffffffffffffffffffffffffffffffffffffffff1681526020019081526020015f20b082846107a6565b92505050919050565b5f61029a61029560205f5f1b61087d565b610951565b9050805f5f3373ffffffffffffffffffffffffffffffffffffffff1673ffffffffffffffffffffffffffffffffffffffff1681526020019081526020015f208190b1503373ffffffffffffffffffffffffffffffffffffffff167fe09b54ab39b458cc6e350a9444815a294301d94eaa79ba68d8a2f9f9c7c0b4cc60405160405180910390a250565b60608282604051602001610338929190611064565b604051602081830303815290604052905092915050565b805f5f3373ffffffffffffffffffffffffffffffffffffffff1673ffffffffffffffffffffffffffffffffffffffff1681526020019081526020015f208190b1503373ffffffffffffffffffffffffffffffffffffffff167fe09b54ab39b458cc6e350a9444815a294301d94eaa79ba68d8a2f9f9c7c0b4cc60405160405180910390a250565b5f5f5f3373ffffffffffffffffffffffffffffffffffffffff1673ffffffffffffffffffffffffffffffffffffffff1681526020019081526020015f20b0905090565b5f5f5f5f8473ffffffffffffffffffffffffffffffffffffffff1673ffffffffffffffffffffffffffffffffffffffff1681526020019081526020015f20b014159050919050565b60015f9054906101000a90046bffffffffffffffffffffffff1681565b60605f5f5f8573ffffffffffffffffffffffffffffffffffffffff1673ffffffffffffffffffffffffffffffffffffffff1681526020019081526020015f20b090505f6104e58260015f9054906101000a90046bffffffffffffffffffffffff1686610a48565b90505f61050b8260015f9054906101000a90046bffffffffffffffffffffffff16610323565b905060015f81819054906101000a90046bffffffffffffffffffffffff1680929190610536906110b8565b91906101000a8154816bffffffffffffffffffffffff02191690836bffffffffffffffffffffffff1602179055505080935050505092915050565b60605f5f600c845161058391906110eb565b90508067ffffffffffffffff81111561059f5761059e610b48565b5b6040519080825280601f01601f1916602001820160405280156105d15781602001600182028036833780820191505090505b5092505f5f90505b8181101561064d578481815181106105f4576105f361111e565b5b602001015160f81c60f81b8482815181106106125761061161111e565b5b60200101907effffffffffffffffffffffffffffffffffffffffffffffffffffffffffffff191690815f1a90535080806001019150506105d9565b505f600c67ffffffffffffffff81111561066a57610669610b48565b5b6040519080825280601f01601f19166020018201604052801561069c5781602001600182028036833780820191505090505b5090505f5f90505b600c811015610724578581846106ba919061114b565b815181106106cb576106ca61111e565b5b602001015160f81c60f81b8282815181106106e9576106e861111e565b5b60200101907effffffffffffffffffffffffffffffffffffffffffffffffffffffffffffff191690815f1a90535080806001019150506106a4565b508061072f906111d8565b60a01c92505050915091565b5f5f5f8373ffffffffffffffffffffffffffffffffffffffff1673ffffffffffffffffffffffffffffffffffffffff1681526020019081526020015f20b0604051602001610789919061125e565b604051602081830303815290604052805190602001209050919050565b60605f8484846040516020016107be93929190611278565b60405160208183030381529060405290505f5f606773ffffffffffffffffffffffffffffffffffffffff16836040516107f791906112b0565b5f60405180830381855afa9150503d805f811461082f576040519150601f19603f3d011682016040523d82523d5f602084013e610834565b606091505b509150915081610870576040517fa99eec4b00000000000000000000000000000000000000000000000000000000815260040160405180910390fd5b8093505050509392505050565b60605f8383604051602001610893929190611327565b60405160208183030381529060405290505f5f606473ffffffffffffffffffffffffffffffffffffffff16836040516108cc91906112b0565b5f60405180830381855afa9150503d805f8114610904576040519150601f19603f3d011682016040523d82523d5f602084013e610909565b606091505b509150915081610945576040517f1ca03c2c00000000000000000000000000000000000000000000000000000000815260040160405180910390fd5b80935050505092915050565b5f5f5f606873ffffffffffffffffffffffffffffffffffffffff168460405161097a91906112b0565b5f60405180830381855afa9150503d805f81146109b2576040519150601f19603f3d011682016040523d82523d5f602084013e6109b7565b606091505b5091509150816109f3576040517f0312091600000000000000000000000000000000000000000000000000000000815260040160405180910390fd5b6020815114610a3a5780516040517fc3c45e94000000000000000000000000000000000000000000000000000000008152600401610a319190610e44565b60405180910390fd5b602081015192505050919050565b60605f848484604051602001610a6093929190611278565b60405160208183030381529060405290505f5f606673ffffffffffffffffffffffffffffffffffffffff1683604051610a9991906112b0565b5f60405180830381855afa9150503d805f8114610ad1576040519150601f19603f3d011682016040523d82523d5f602084013e610ad6565b606091505b509150915081610b12576040517fa99eec4b00000000000000000000000000000000000000000000000000000000815260040160405180910390fd5b8093505050509392505050565b5f604051905090565b5f5ffd5b5f5ffd5b5f5ffd5b5f5ffd5b5f601f19601f8301169050919050565b7f4e487b71000000000000000000000000000000000000000000000000000000005f52604160045260245ffd5b610b7e82610b38565b810181811067ffffffffffffffff82111715610b9d57610b9c610b48565b5b80604052505050565b5f610baf610b1f565b9050610bbb8282610b75565b919050565b5f67ffffffffffffffff821115610bda57610bd9610b48565b5b610be382610b38565b9050602081019050919050565b828183375f83830152505050565b5f610c10610c0b84610bc0565b610ba6565b905082815260208101848484011115610c2c57610c2b610b34565b5b610c37848285610bf0565b509392505050565b5f82601f830112610c5357610c52610b30565b5b8135610c63848260208601610bfe565b91505092915050565b5f60208284031215610c8157610c80610b28565b5b5f82013567ffffffffffffffff811115610c9e57610c9d610b2c565b5b610caa84828501610c3f565b91505092915050565b5f81519050919050565b5f82825260208201905092915050565b8281835e5f83830152505050565b5f610ce582610cb3565b610cef8185610cbd565b9350610cff818560208601610ccd565b610d0881610b38565b840191505092915050565b5f6020820190508181035f830152610d2b8184610cdb565b905092915050565b5f6bffffffffffffffffffffffff82169050919050565b610d5381610d33565b8114610d5d575f5ffd5b50565b5f81359050610d6e81610d4a565b92915050565b5f5f60408385031215610d8a57610d89610b28565b5b5f83013567ffffffffffffffff811115610da757610da6610b2c565b5b610db385828601610c3f565b9250506020610dc485828601610d60565b9150509250929050565b5f819050919050565b610de081610dce565b8114610dea575f5ffd5b50565b5f81359050610dfb81610dd7565b92915050565b5f60208284031215610e1657610e15610b28565b5b5f610e2384828501610ded565b91505092915050565b5f819050919050565b610e3e81610e2c565b82525050565b5f602082019050610e575f830184610e35565b92915050565b5f73ffffffffffffffffffffffffffffffffffffffff82169050919050565b5f610e8682610e5d565b9050919050565b610e9681610e7c565b8114610ea0575f5ffd5b50565b5f81359050610eb181610e8d565b92915050565b5f60208284031215610ecc57610ecb610b28565b5b5f610ed984828501610ea3565b91505092915050565b5f8115159050919050565b610ef681610ee2565b82525050565b5f602082019050610f0f5f830184610eed565b92915050565b610f1e81610d33565b82525050565b5f602082019050610f375f830184610f15565b92915050565b5f5f60408385031215610f5357610f52610b28565b5b5f610f6085828601610ea3565b925050602083013567ffffffffffffffff811115610f8157610f80610b2c565b5b610f8d85828601610c3f565b9150509250929050565b5f6040820190508181035f830152610faf8185610cdb565b9050610fbe6020830184610f15565b9392505050565b5f819050919050565b610fd781610fc5565b82525050565b5f602082019050610ff05f830184610fce565b92915050565b5f81905092915050565b5f61100a82610cb3565b6110148185610ff6565b9350611024818560208601610ccd565b80840191505092915050565b5f8160a01b9050919050565b5f61104682611030565b9050919050565b61105e61105982610d33565b61103c565b82525050565b5f61106f8285611000565b915061107b828461104d565b600c820191508190509392505050565b7f4e487b71000000000000000000000000000000000000000000000000000000005f52601160045260245ffd5b5f6110c282610d33565b91506bffffffffffffffffffffffff82036110e0576110df61108b565b5b600182019050919050565b5f6110f582610e2c565b915061110083610e2c565b92508282039050818111156111185761111761108b565b5b92915050565b7f4e487b71000000000000000000000000000000000000000000000000000000005f52603260045260245ffd5b5f61115582610e2c565b915061116083610e2c565b92508282019050808211156111785761117761108b565b5b92915050565b5f819050602082019050919050565b5f7fffffffffffffffffffffffff000000000000000000000000000000000000000082169050919050565b5f6111c3825161118d565b80915050919050565b5f82821b905092915050565b5f6111e282610cb3565b826111ec8461117e565b90506111f7816111b8565b9250600c821015611237576112327fffffffffffffffffffffffff000000000000000000000000000000000000000083600c036008026111cc565b831692505b5050919050565b5f819050919050565b61125861125382610dce565b61123e565b82525050565b5f6112698284611247565b60208201915081905092915050565b5f6112838286611247565b602082019150611293828561104d565b600c820191506112a38284611000565b9150819050949350505050565b5f6112bb8284611000565b915081905092915050565b5f61ffff82169050919050565b5f8160f01b9050919050565b5f6112e9826112d3565b9050919050565b6113016112fc826112c6565b6112df565b82525050565b5f819050919050565b61132161131c82610fc5565b611307565b82525050565b5f61133282856112f0565b6002820191506113428284611310565b602082019150819050939250505056fea2646970667358221220634714c82549c47086115429864b8777de410e1a360e1f4b059504620e99b83664736f6c637829302e382e33312d646576656c6f702e323032352e31312e31322b636f6d6d69742e3637366264656363005a","linkReferences":{}},"methodIdentifiers":{"checkHasKey(address)":"8b2f9fd1","decrypt(bytes)":"210ca7be","encrypt(address,bytes)":"b7f5f9b7","genKey()":"32b890f8","getKey()":"82678dd6","keyHash(address)":"eefbaf18","nonce()":"affed0e0","packEncryptedData(bytes,uint96)":"415028a9","parseEncryptedData(bytes)":"e8d6c79a","setKey(suint256)":"70df0933"},"id":21}