{"abi":[{"type":"function","name":"batchBalances","inputs":[{"name":"owner","type":"address","internalType":"address"},{"name":"tokens","type":"address[]","internalType":"address[]"},{"name":"expiry","type":"uint256","internalType":"uint256"},{"name":"signature","type":"bytes","internalType":"bytes"}],"outputs":[{"name":"balances","type":"uint256[]","internalType":"uint256[]"}],"stateMutability":"view"},{"type":"function","name":"batchBalancesDetailed","inputs":[{"name":"owner","type":"address","internalType":"address"},{"name":"tokens","type":"address[]","internalType":"address[]"},{"name":"expiry","type":"uint256","internalType":"uint256"},{"name":"signature","type":"bytes","internalType":"bytes"}],"outputs":[{"name":"results","type":"tuple[]","internalType":"struct SRC20Multicall.BalanceResult[]","components":[{"name":"token","type":"address","internalType":"address"},{"name":"balance","type":"uint256","internalType":"uint256"},{"name":"success","type":"bool","internalType":"bool"}]}],"stateMutability":"view"},{"type":"function","name":"batchBalancesInterface","inputs":[{"name":"owner","type":"address","internalType":"address"},{"name":"tokens","type":"address[]","internalType":"address[]"},{"name":"expiry","type":"uint256","internalType":"uint256"},{"name":"signature","type":"bytes","internalType":"bytes"}],"outputs":[{"name":"balances","type":"uint256[]","internalType":"uint256[]"}],"stateMutability":"view"}],"bytecode":{"object":"0x6080604052348015600e575f5ffd5b506111878061001c5f395ff3fe608060405234801561000f575f5ffd5b506004361061003f575f3560e01c8063a307e00014610043578063a574be1714610073578063b53ec87c146100a3575b5f5ffd5b61005d600480360381019061005891906109f9565b6100d3565b60405161006a9190610bbc565b60405180910390f35b61008d600480360381019061008891906109f9565b610395565b60405161009a9190610c84565b60405180910390f35b6100bd60048036038101906100b891906109f9565b6105e5565b6040516100ca9190610c84565b60405180910390f35b60608585905067ffffffffffffffff8111156100f2576100f1610ca4565b5b60405190808252806020026020018201604052801561012b57816020015b610118610878565b8152602001906001900390816101105790505b5090505f5f90505b8686905081101561038a5786868281811061015157610150610cd1565b5b90506020020160208101906101669190610cfe565b82828151811061017957610178610cd1565b5b60200260200101515f019073ffffffffffffffffffffffffffffffffffffffff16908173ffffffffffffffffffffffffffffffffffffffff16815250505f888686866040516024016101ce9493929190610da1565b6040516020818303038152906040527f5253f919000000000000000000000000000000000000000000000000000000007bffffffffffffffffffffffffffffffffffffffffffffffffffffffff19166020820180517bffffffffffffffffffffffffffffffffffffffffffffffffffffffff838183161783525050505090505f5f89898581811061026257610261610cd1565b5b90506020020160208101906102779190610cfe565b73ffffffffffffffffffffffffffffffffffffffff168360405161029b9190610e31565b5f60405180830381855afa9150503d805f81146102d3576040519150601f19603f3d011682016040523d82523d5f602084013e6102d8565b606091505b5091509150818585815181106102f1576102f0610cd1565b5b6020026020010151604001901515908115158152505081801561031657506020815110155b15610357578080602001905181019061032f9190610e5b565b85858151811061034257610341610cd1565b5b6020026020010151602001818152505061037c565b5f85858151811061036b5761036a610cd1565b5b602002602001015160200181815250505b836001019350505050610133565b509695505050505050565b60608585905067ffffffffffffffff8111156103b4576103b3610ca4565b5b6040519080825280602002602001820160405280156103e25781602001602082028036833780820191505090505b5090505f5f90505b868690508110156105da575f8886868660405160240161040d9493929190610da1565b6040516020818303038152906040527f5253f919000000000000000000000000000000000000000000000000000000007bffffffffffffffffffffffffffffffffffffffffffffffffffffffff19166020820180517bffffffffffffffffffffffffffffffffffffffffffffffffffffffff838183161783525050505090505f5f8989858181106104a1576104a0610cd1565b5b90506020020160208101906104b69190610cfe565b73ffffffffffffffffffffffffffffffffffffffff16836040516104da9190610e31565b5f60405180830381855afa9150503d805f8114610512576040519150601f19603f3d011682016040523d82523d5f602084013e610517565b606091505b509150915081801561052b57506020815110155b1561056857808060200190518101906105449190610e5b565b85858151811061055757610556610cd1565b5b6020026020010181815250506105cc565b6105718461071f565b6040516020016105819190610f3a565b6040516020818303038152906040526040517f08c379a00000000000000000000000000000000000000000000000000000000081526004016105c39190610fa3565b60405180910390fd5b8360010193505050506103ea565b509695505050505050565b60608585905067ffffffffffffffff81111561060457610603610ca4565b5b6040519080825280602002602001820160405280156106325781602001602082028036833780820191505090505b5090505f5f90505b868690508110156107145786868281811061065857610657610cd1565b5b905060200201602081019061066d9190610cfe565b73ffffffffffffffffffffffffffffffffffffffff16635253f919898787876040518563ffffffff1660e01b81526004016106ab9493929190610da1565b602060405180830381865afa1580156106c6573d5f5f3e3d5ffd5b505050506040513d601f19601f820116820180604052508101906106ea9190610e5b565b8282815181106106fd576106fc610cd1565b5b60200260200101818152505080600101905061063a565b509695505050505050565b60605f8203610765576040518060400160405280600181526020017f30000000000000000000000000000000000000000000000000000000000000008152509050610873565b5f8290505f5b5f821461079457808061077d90610ff0565b915050600a8261078d9190611064565b915061076b565b5f8167ffffffffffffffff8111156107af576107ae610ca4565b5b6040519080825280601f01601f1916602001820160405280156107e15781602001600182028036833780820191505090505b5090505b5f851461086c576001826107f99190611094565b9150600a8561080891906110c7565b603061081491906110f7565b60f81b81838151811061082a57610829610cd1565b5b60200101907effffffffffffffffffffffffffffffffffffffffffffffffffffffffffffff191690815f1a905350600a856108659190611064565b94506107e5565b8093505050505b919050565b60405180606001604052805f73ffffffffffffffffffffffffffffffffffffffff1681526020015f81526020015f151581525090565b5f5ffd5b5f5ffd5b5f73ffffffffffffffffffffffffffffffffffffffff82169050919050565b5f6108df826108b6565b9050919050565b6108ef816108d5565b81146108f9575f5ffd5b50565b5f8135905061090a816108e6565b92915050565b5f5ffd5b5f5ffd5b5f5ffd5b5f5f83601f84011261093157610930610910565b5b8235905067ffffffffffffffff81111561094e5761094d610914565b5b60208301915083602082028301111561096a57610969610918565b5b9250929050565b5f819050919050565b61098381610971565b811461098d575f5ffd5b50565b5f8135905061099e8161097a565b92915050565b5f5f83601f8401126109b9576109b8610910565b5b8235905067ffffffffffffffff8111156109d6576109d5610914565b5b6020830191508360018202830111156109f2576109f1610918565b5b9250929050565b5f5f5f5f5f5f60808789031215610a1357610a126108ae565b5b5f610a2089828a016108fc565b965050602087013567ffffffffffffffff811115610a4157610a406108b2565b5b610a4d89828a0161091c565b95509550506040610a6089828a01610990565b935050606087013567ffffffffffffffff811115610a8157610a806108b2565b5b610a8d89828a016109a4565b92509250509295509295509295565b5f81519050919050565b5f82825260208201905092915050565b5f819050602082019050919050565b610ace816108d5565b82525050565b610add81610971565b82525050565b5f8115159050919050565b610af781610ae3565b82525050565b606082015f820151610b115f850182610ac5565b506020820151610b246020850182610ad4565b506040820151610b376040850182610aee565b50505050565b5f610b488383610afd565b60608301905092915050565b5f602082019050919050565b5f610b6a82610a9c565b610b748185610aa6565b9350610b7f83610ab6565b805f5b83811015610baf578151610b968882610b3d565b9750610ba183610b54565b925050600181019050610b82565b5085935050505092915050565b5f6020820190508181035f830152610bd48184610b60565b905092915050565b5f81519050919050565b5f82825260208201905092915050565b5f819050602082019050919050565b5f610c108383610ad4565b60208301905092915050565b5f602082019050919050565b5f610c3282610bdc565b610c3c8185610be6565b9350610c4783610bf6565b805f5b83811015610c77578151610c5e8882610c05565b9750610c6983610c1c565b925050600181019050610c4a565b5085935050505092915050565b5f6020820190508181035f830152610c9c8184610c28565b905092915050565b7f4e487b71000000000000000000000000000000000000000000000000000000005f52604160045260245ffd5b7f4e487b71000000000000000000000000000000000000000000000000000000005f52603260045260245ffd5b5f60208284031215610d1357610d126108ae565b5b5f610d20848285016108fc565b91505092915050565b610d32816108d5565b82525050565b610d4181610971565b82525050565b5f82825260208201905092915050565b828183375f83830152505050565b5f601f19601f8301169050919050565b5f610d808385610d47565b9350610d8d838584610d57565b610d9683610d65565b840190509392505050565b5f606082019050610db45f830187610d29565b610dc16020830186610d38565b8181036040830152610dd4818486610d75565b905095945050505050565b5f81519050919050565b5f81905092915050565b8281835e5f83830152505050565b5f610e0b82610ddf565b610e158185610de9565b9350610e25818560208601610df3565b80840191505092915050565b5f610e3c8284610e01565b915081905092915050565b5f81519050610e558161097a565b92915050565b5f60208284031215610e7057610e6f6108ae565b5b5f610e7d84828501610e47565b91505092915050565b5f81905092915050565b7f4661696c656420746f20726561642062616c616e63652066726f6d20746f6b655f8201527f6e20617420696e64657820000000000000000000000000000000000000000000602082015250565b5f610eea602b83610e86565b9150610ef582610e90565b602b82019050919050565b5f81519050919050565b5f610f1482610f00565b610f1e8185610e86565b9350610f2e818560208601610df3565b80840191505092915050565b5f610f4482610ede565b9150610f508284610f0a565b915081905092915050565b5f82825260208201905092915050565b5f610f7582610f00565b610f7f8185610f5b565b9350610f8f818560208601610df3565b610f9881610d65565b840191505092915050565b5f6020820190508181035f830152610fbb8184610f6b565b905092915050565b7f4e487b71000000000000000000000000000000000000000000000000000000005f52601160045260245ffd5b5f610ffa82610971565b91507fffffffffffffffffffffffffffffffffffffffffffffffffffffffffffffffff820361102c5761102b610fc3565b5b600182019050919050565b7f4e487b71000000000000000000000000000000000000000000000000000000005f52601260045260245ffd5b5f61106e82610971565b915061107983610971565b92508261108957611088611037565b5b828204905092915050565b5f61109e82610971565b91506110a983610971565b92508282039050818111156110c1576110c0610fc3565b5b92915050565b5f6110d182610971565b91506110dc83610971565b9250826110ec576110eb611037565b5b828206905092915050565b5f61110182610971565b915061110c83610971565b925082820190508082111561112457611123610fc3565b5b9291505056fea2646970667358221220b39dcdfebb235e3355128af35f7e18ba20612eef6bdf9467dd9acc4644d71d5a64736f6c637829302e382e33312d646576656c6f702e323032352e31312e31322b636f6d6d69742e3637366264656363005a","linkReferences":{}},"methodIdentifiers":{"batchBalances(address,address[],uint256,bytes)":"a574be17","batchBalancesDetailed(address,address[],uint256,bytes)":"a307e000","batchBalancesInterface(address,address[],uint256,bytes)":"b53ec87c"},"id":19}