{"abi":[{"type":"function","name":"batchBalances","inputs":[{"name":"owner","type":"address","internalType":"address"},{"name":"tokens","type":"address[]","internalType":"address[]"},{"name":"expiry","type":"uint256","internalType":"uint256"},{"name":"signature","type":"bytes","internalType":"bytes"}],"outputs":[{"name":"balances","type":"uint256[]","internalType":"uint256[]"}],"stateMutability":"view"}],"bytecode":{"object":"0x6080604052348015600e575f5ffd5b506106358061001c5f395ff3fe608060405234801561000f575f5ffd5b5060043610610029575f3560e01c8063a574be171461002d575b5f5ffd5b610047600480360381019061004291906102e4565b61005d565b604051610054919061043e565b60405180910390f35b60605f8686905090508067ffffffffffffffff8111156100805761007f61045e565b5b6040519080825280602002602001820160405280156100ae5781602001602082028036833780820191505090505b5091505f5f90505b8181101561018d578787828181106100d1576100d061048b565b5b90506020020160208101906100e691906104b8565b73ffffffffffffffffffffffffffffffffffffffff16635253f9198a8888886040518563ffffffff1660e01b8152600401610124949392919061055b565b602060405180830381865afa15801561013f573d5f5f3e3d5ffd5b505050506040513d601f19601f8201168201806040525081019061016391906105ad565b8382815181106101765761017561048b565b5b6020026020010181815250508060010190506100b6565b50509695505050505050565b5f5ffd5b5f5ffd5b5f73ffffffffffffffffffffffffffffffffffffffff82169050919050565b5f6101ca826101a1565b9050919050565b6101da816101c0565b81146101e4575f5ffd5b50565b5f813590506101f5816101d1565b92915050565b5f5ffd5b5f5ffd5b5f5ffd5b5f5f83601f84011261021c5761021b6101fb565b5b8235905067ffffffffffffffff811115610239576102386101ff565b5b60208301915083602082028301111561025557610254610203565b5b9250929050565b5f819050919050565b61026e8161025c565b8114610278575f5ffd5b50565b5f8135905061028981610265565b92915050565b5f5f83601f8401126102a4576102a36101fb565b5b8235905067ffffffffffffffff8111156102c1576102c06101ff565b5b6020830191508360018202830111156102dd576102dc610203565b5b9250929050565b5f5f5f5f5f5f608087890312156102fe576102fd610199565b5b5f61030b89828a016101e7565b965050602087013567ffffffffffffffff81111561032c5761032b61019d565b5b61033889828a01610207565b9550955050604061034b89828a0161027b565b935050606087013567ffffffffffffffff81111561036c5761036b61019d565b5b61037889828a0161028f565b92509250509295509295509295565b5f81519050919050565b5f82825260208201905092915050565b5f819050602082019050919050565b6103b98161025c565b82525050565b5f6103ca83836103b0565b60208301905092915050565b5f602082019050919050565b5f6103ec82610387565b6103f68185610391565b9350610401836103a1565b805f5b8381101561043157815161041888826103bf565b9750610423836103d6565b925050600181019050610404565b5085935050505092915050565b5f6020820190508181035f83015261045681846103e2565b905092915050565b7f4e487b71000000000000000000000000000000000000000000000000000000005f52604160045260245ffd5b7f4e487b71000000000000000000000000000000000000000000000000000000005f52603260045260245ffd5b5f602082840312156104cd576104cc610199565b5b5f6104da848285016101e7565b91505092915050565b6104ec816101c0565b82525050565b6104fb8161025c565b82525050565b5f82825260208201905092915050565b828183375f83830152505050565b5f601f19601f8301169050919050565b5f61053a8385610501565b9350610547838584610511565b6105508361051f565b840190509392505050565b5f60608201905061056e5f8301876104e3565b61057b60208301866104f2565b818103604083015261058e81848661052f565b905095945050505050565b5f815190506105a781610265565b92915050565b5f602082840312156105c2576105c1610199565b5b5f6105cf84828501610599565b9150509291505056fea2646970667358221220c99f92f0ac112ccef60d7a1cd60162bb46ab1052c432b161fb0f1b0651fc416464736f6c637829302e382e33312d646576656c6f702e323032352e31312e31322b636f6d6d69742e3637366264656363005a","linkReferences":{}},"methodIdentifiers":{"batchBalances(address,address[],uint256,bytes)":"a574be17"},"id":19}